:020000040000FA
:1000000088AD12206508000000000000000000001C
:1000100000000000000000000000000000000000E0
:1000200000000000000000000000000000000000D0
:1000300000000000000000000000000000000000C0
:1000400000000000000000000000000000000000B0
:1007C000DFF80CD000F0E0FE00480047C51600003E
:1007D00088AC1220204880F30A88204880472048AF
:1007E0000047FEE7FEE7FEE7FEE7FEE7FEE7FEE77F
:1007F000FEE7FEE7FEE7FEE7FEE7FEE7FEE7FEE7D1
:10080000FEE7FEE7FEE7FEE7FEE7FEE7FEE7FEE7C0
:10081000FEE7FEE7FEE7FEE7FEE7FEE7FEE7FEE7B0
:10082000FEE7FEE7FEE7FEE7FEE7FEE7FEE7FEE7A0
:10083000FEE7FEE7FEE7FEE7FEE7FEE7FEE7FEE790
:10084000FEE7FEE7FEE7FEE7FEE7FEE7FEE7FEE780
:10085000FEE7FEE7FEE7000088A812206DAE00006C
:10086000C10700000048804769DA0200EFF31080FA
:1008700072B6704780F31088704740BF614A1368B2
:10088000012B04D04FF0010313605F4A10605F4AF0
:1008900011605F484FF0805101607047EFF31082A4
:1008A00072B65848016851B34FF0000101605648D4
:1008B000016891B1EFF309811EF0100F08BF21ED1F
:1008C000108B21E9F00F4FF000041EF0100F08BF4D
:1008D000012441F8044D006801604C490968096829
:1008E00008C9B1E8F00F002B18BFB1EC108B81F3F1
:1008F00009884EF0100E002B18BF2EF0100E82F358
:1009000010884EF0040E704742484FF47F01D0F833
:10091000002041EA0201016070473C490860EFF3A2
:10092000148222F0040282F3148837494FF0000049
:10093000086034494FF00100086036484FF47F01E9
:10094000D0F8002041EA0201016031484FF08051A7
:10095000016031480068006880F3088861B662B6BB
:10096000704720BF70471EF0040F0CBFEFF30880E4
:10097000EFF3098020E9F00F40F804ED40F804EDB2
:100980001EF0040F0CBF80F3088880F3098800B5BF
:1009900040F08AF95DF804EB4EF0040E70471EF04B
:1009A000040F0CBFEFF30880EFF3098020E9F00F8C
:1009B00040F804ED40F804ED1EF0040F0CBF80F386
:1009C000088880F3098800B540F0D0FA5DF804EBA0
:1009D0004EF0040E704710B5EFF3038410B47C465C
:1009E00010B400B54DF804CD0FB4684640F08EF851
:1009F0000FBC5DF804CB5DF804EB10BC10BCBDE887
:100A00001040FEE748831220988012209C8012201C
:100A100004ED00E020ED00E008ED00E00649074AA3
:100A20000868504343F23902104408604008704798
:100A30000149086070470000044012206D4EC64115
:100A400010B500683C22B0FBF2F302FB1303B0FBCD
:100A5000F2F00B60B0FBF2F302FB1303B0FBF2F019
:100A600018224B60B0FBF2F302FB1303B0FBF2F071
:100A7000021D8B600723B2FBF3F403FB14228000FA
:100A800040F2B55300F66C308A61B0FBF3F2B0FB74
:100A9000F3F403FB1400443280084A61C8613B2828
:100AA00002D3920700D0401C0022074C13460A6173
:100AB000E25C824203D8801A5B1C0B61F8E7401CA1
:100AC000C860084610BD0000601E050038B5D0E9BA
:100AD0000221491E01EB410102EBC1014268C1EB59
:100AE000011102EB81010268C1EB011102EB8102ED
:100AF000D0E9043101EB410103EB81013023A1F581
:100B0000527191FBF3F4174D6C4302EBC41291FB4D
:100B1000F3F403FB141100921A2902DB124B1A445E
:100B200000920C2291FBF2F3104C6343009C04EB07
:100B3000C313009391FBF2F302FB13110C4A08E07C
:100B4000491E40F2A324535C6343009C04EBC3138F
:100B500000930029F4DC0146684600F075FB00981C
:100B600038BD00003F0C0F008051010067C2030038
:100B70006C1E050010B500F061FBBDE8104000F0F0
:100B8000A9BB10B5431A934209D28318881803E011
:100B900010F8011D03F8011D521EF9D210BD40EAE4
:100BA00001039B0703D009E008C9121F08C0042AEB
:100BB000FAD203E011F8013B00F8013B521EF9D2D2
:100BC00010BDD2B201E000F8012B491EFBD27047E4
:100BD0000022F6E710B513460A4604461946FFF709
:100BE000F0FF204610BD421E12F8013F002BFBD142
:100BF00011F8013B02F8013B002BF9D1704710B509
:100C0000044604E00B7800F8013B03B1491C521E76
:100C1000F8D2204610BD421C10F8011B0029FBD160
:100C2000801A704710B5002200E0521C835C8C5C77
:100C3000A34201D1002BF8D1D8B2E1B2401A10BDC5
:100C400030B504460020034600E05B1C934203D20B
:100C5000E05CCD5C401BF8D030BD034611F8012BA1
:100C600000F8012B002AF9D11846704730B5054627
:100C70000020034600E05B1C934205D2EC5CC85C9C
:100C8000201A01D1002CF6D130BD70B5064650F0C7
:100C900007FC046805460A220021304600F078FB74
:100CA0002C6070BD2DE9FE4F804681EA0300C00F25
:100CB0000C46009021F0004123F00045B8EB020003
:100CC000A94105D24046214690461C460B460246A5
:100CD00023F00040104347D0270DC7F30A00C3F3A9
:100CE0000A510290401A019040286BDAC3F31300B6
:100CF00040F4801B0098924620B10023D2EB030AF7
:100D000063EB0B0B01985946C0F14002504600F0CE
:100D100064FA06460D4650465946019A00F07CFAA0
:100D200010EB08006141002487EA115284EAE7735E
:100D30001A4340D0009A62B3019A012A4FEA07523F
:100D400015DC001B61EB02014FF0004202EA075282
:100D5000CDE90042001C41F5801132462B4600F0DF
:100D600095FB03B0BDE8F08F40462146F9E7001B34
:100D700061EB0201001C41F5801300185B41201853
:100D8000A2F5001747EB030140EAD570B6196D4193
:100D900011E06D084FEA360645EAC0754FEA075282
:100DA000001B61EB0201001C41F5801149084FEA6C
:100DB00030000019514132462B4603B0BDE8F04FD8
:100DC00000F055BB0098012240000023D0EB020246
:100DD00063EBE073009821464FEAE074B8EB000043
:100DE00061EB0401E9E783F000435BE781F0004138
:100DF00058E72DE9FE4F81EA030404F0004421F096
:100E0000004100944FF0000B23F0004350EA01042E
:100E10005ED052EA03045BD0C3F30A54C1F30A550F
:100E20002C44A4F2F3340194A0FB0254C1F3130147
:100E300041F48011C3F3130343F4801301FB024414
:100E400000FB034E840A970A44EA815447EA835719
:100E5000A4FB076802958D0A05FB07854FEA932CD2
:100E600004FB0C542705029D4FEA065847EA163743
:100E7000B5EB08056EEB070C870E920E47EA81175B
:100E800042EA8312A7FB0201B6EB0B0164EB0004FC
:100E90002B0D43EA0C335E1844EB1C50DA465146E6
:100EA000E7FB0201C5F313044FEA0B3343EA145383
:100EB0004FEA0432019C43EA0603A4F10C040294B5
:100EC000009CCDE900B400F0E1FA03B0BDE8F08F7A
:100ED00000200146F9E72DE9F04D81EA030404F012
:100EE000004B21F0004514464FF0000A23F000416A
:100EF00050EA050220D054EA01021DD0C5F30A577A
:100F00000246C5F31303C1F31300C1F30A5640F4BC
:100F1000801543F48013A7EB0608101BD64608F291
:100F2000FD3873EB050002D308F1010801E09218C7
:100F30005B41B8F1000F03DA00200146BDE8F08DF7
:100F400000204FF48011064684460EE0171B73EB19
:100F5000050705D3121B63EB050306434CEA010C9E
:100F600049084FEA300092185B4150EA0107EDD181
:100F700052EA030012D082EA040083EA0501084322
:100F800005D0101BAB4106D20122002306E000224F
:100F90004FF0004302E06FF0010253101AEB06001D
:100FA0004CEB085110EB0A0041EB0B01BDE8F04D92
:100FB00000F05DBA30B5041E71F1000404DB4FF09F
:100FC0000044404264EB0101141E73F1000405DB90
:100FD0001C464FF00043524263EB0403801A9941D0
:100FE00001D3012030BD002030BD30B5041E71F1A9
:100FF000000404DB4FF00044404264EB0101141E86
:1010000073F1000405DB1C464FF00043524263EBD2
:101010000403101A8B4101D2012030BD002030BDE5
:1010200030B5041E71F1000404DB4FF0004440426F
:1010300064EB0101141E73F1000405DB1C464FF044
:101040000043524263EB0403101A8B4101D3012089
:1010500030BD002030BD30B5041E71F1000404DB4A
:101060004FF00044404264EB0101141E73F1000490
:1010700005DB1C464FF00043524263EB0403424041
:101080004B401A4301D0002030BD012030BD0EB5C9
:10109000C10F80EAE0700844CA07002140F23343E0
:1010A0008DE80E000A460B4600F0F0F903B000BDD3
:1010B00070B5C1F30A5201F000450024C1F31301D9
:1010C00040F2FF3341F480119A4201DA002070BDF2
:1010D00040F233439A42A2F2334203DC524200F020
:1010E0008BF800E090402C43F1D0404270BD00F0FE
:1010F000004230F000400AD0C10D01F56071C0F32C
:10110000160042EA0151C20840071143704700200F
:101110000146704701F0004330B421F0004150EA2D
:10112000010206D00A0DA2F56072C1F31301002A74
:1011300002DC30BC00207047440F44EAC104C10007
:10114000E01830BC00EBC25000F05AB930B50B4685
:10115000014600202022012409E021FA02F59D42E7
:1011600005D303FA02F5491B04FA02F52844151EBB
:10117000A2F10102F1DC30BD2DE9F05F054600204F
:1011800092469B4688460646814640241BE02846F8
:1011900041464746224600F02FF853465A46C01AA9
:1011A000914110D311461846224600F016F82D1A28
:1011B00067EB01084F4622460120002100F00DF8A0
:1011C00017EB00094E41201EA4F10104DFDC484664
:1011D00031462A464346BDE8F09F202A04DB203AE8
:1011E00000FA02F1002070479140C2F1200320FA7A
:1011F00003F3194390407047202A04DB203A21FA78
:1012000002F00021704721FA02F3D040C2F120021F
:101210009140084319467047202A06DBCB17203A35
:1012200041FA02F043EAE07306E041FA02F3D040EB
:10123000C2F120029140084319467047014900F06D
:1012400003B80000004B122010B500683C22B0FB30
:10125000F2F302FB1303B0FBF2F00B60B0FBF2F30E
:1012600002FB1303B0FBF2F018224B60B0FBF2F369
:1012700002FB1303B0FBF2F0021D8B600723B2FBED
:10128000F3F403FB1422800040F2B55300F66C30F7
:101290008A61B0FBF3F2B0FBF3F403FB14004432B9
:1012A00080084A61C8613B2802D3920700D0401CE5
:1012B0000022074C13460A61E25C824203D8801A7E
:1012C0005B1C0B61F8E7401CC860084610BD0000BD
:1012D000781E0500F0B52A4B2A4C85B000218269A2
:1012E00002EB42020A44491CA25C03F8012B0329C9
:1012F000F5DB244C4FF0200C002103F801CB153412
:10130000026902EB42020A44491CA25C03F8012B69
:101310000329F5DBC1680091816801914168029160
:1013200001680391406918A200F26C706C460A27AC
:10133000049017E003F8010B12F8010F08B1022521
:1013400000E0042502CC284607E091FBF7F607FBF6
:10135000161691FBF7F130361E54061EA0F101005F
:10136000F3DC2B4410780028E4D11F705870044837
:10137000017A302901D180F808C005B00048F0BDDD
:101380002C4B1220841E050020203A3A2000000039
:101390002DE9F04791460F4680460446002614F892
:1013A000015B2DB100F002F90068405DC007F6D185
:1013B0002B2D02D02D2D18D0641E4A4639462046CA
:1013C00000F0F8F827B13968A14201D1C7F80080D0
:1013D00071054FF002040BD54042002803DD50F0A8
:1013E0005FF80460A007BDE8F08746F48066E4E794
:1013F0000028F8DA50F054F804606FF00040F2E78B
:101400000029A8BF7047401C490008BF20F0010018
:10141000704710B4B0FA80FC00FA0CF050EA0104F6
:1014200004BF10BC704749B1CCF1200421FA04F488
:1014300011FA0CF118BF012121430843A3EB0C0161
:10144000CB1D4FEA00614FEA102042BF002010BCC4
:10145000704700EBC35010440029A4BF10BC704774
:10146000401C490008BF20F0010010BC704710B5B7
:10147000141E73F1000408DA401C41F100019218B7
:101480005B411A4301D120F0010010BD2DE9F04D60
:1014900092469B4611B1B1FA81F202E0B0FA80F2B5
:1014A00020329046FFF799FE04460F4640EA0A00B4
:1014B00041EA0B0153465A46084313D0114653EAFA
:1014C000010019D0C8F140025046FFF795FE0546CD
:1014D0000E46504659464246FFF77FFE084305D068
:1014E000012004E020463946BDE8F08D0020054388
:1014F00046EAE0762C4337430A986305E40AA0EBFA
:1015000008000022FD0A44EA47540A3002D50020B0
:101510000146E9E7010510196941DDE908450019AF
:101520006941BDE8F04DA2E7C1F30A52C1F31301CE
:1015300040F2FF3341F480119A4202DA0020014662
:10154000704740F233439A42A2F2334202DC5242E5
:10155000FFF752BEFFF741BE30B5041E71F1000423
:1015600004DB4FF00044404264EB0101141E73F1B0
:10157000000405DB1C464FF00043524263EB0403BA
:10158000994208BF904230BD064C074D06E0E06826
:1015900040F0010394E8070098471034AC42F6D3BA
:1015A000FFF712F924A8050044A805000048704779
:1015B000401F05002DE9F05F8246007800271546A0
:1015C0008B460AF10104B946302801D09DB113E0E1
:1015D00014F8010B0127782803D0582801D045B111
:1015E0000AE00DB1102D07D10027102514F8010BCA
:1015F00002E0082500E00A250026B0460EE005FBC3
:10160000080005FB06F1012701EB10461FFA80F8E0
:10161000B6F5803F00D3B94614F8010B294600F017
:1016200018F80028EBDABBF1000F05D00FB1641EEB
:1016300000E05446CBF80040B9F1000F06D04FF05F
:101640002FFF02210160C81EBDE8F09F48EA064056
:10165000FAE73A2800D2303820F02002412A01D39C
:10166000A2F13700884201D34FF0FF30704770B5C8
:101670008C1810F8015B15F0070301D110F8013B3D
:101680002A1106D110F8012B03E010F8016B01F8C4
:10169000016B5B1EF9D12B0705D40023521E0DD41C
:1016A00001F8013BFAE710F8013BCB1A921C03E06A
:1016B00013F8015B01F8015B521EF9D5A142D8D3A2
:1016C000002070BD80B547F066FC002080BD0000A2
:1016D00010B540F095FD124801210160114800212C
:1016E000BFF34F8FBFF36F8F0160C46944F00041B7
:1016F000002C01620C4808BF0224046014F01AFE9A
:1017000014F4FC6F05D009484FF0FF31016081638C
:101710000167204611F04CFCBDE8104040F088BD48
:1017200080E100E00000074088F7122034000450F8
:1017300070B5002208230024002B0FD450F823504A
:1017400051F82360641942F10005A41940F82340C0
:1017500045F10004013B04F00104EDE7BDE87040F1
:1017600049F090B8F8B51446002208230025002B54
:101770000FD450F8236051F82370AD1942F10006E0
:10178000ED1944F8235046F10005013B05F0010531
:10179000EDE7204649F076F80020A062F8BD000091
:1017A00010B51446FFF7DEFFA06A20B12046BDE861
:1017B000104000F00DB84149204629F04DF928B1FC
:1017C0003E492046BDE8104009F0E0BA10BD00BF18
:1017D000B0B58CB0044601AD384821462A4609F020
:1017E00045FA204629462422FFF7CBF90A99002022
:1017F000C4E909100CB0B0BDF0B58BB00446806AE6
:1018000000B32E4D2046294629F00EF980B308205A
:101810000021002200283AD455F8206054F82030E6
:10182000B718921941F100069A1AA3EB070771EB5A
:10183000060244F82070A0F101004FF0000238BF0A
:101840000122E7E71D4A00200821002300291ED4B9
:1018500054F8215052F821605B1940F100059B19A2
:1018600044F8213045F10003013903F00103EDE7AD
:101870006D46124821462A4609F0F8F920462946C5
:101880002422FFF77EF909990020C4E909100020FD
:10189000002109290BD054F821205FEA50004FEABB
:1018A000320044F8210002F001000131F1E7204646
:1018B0000BB0BDE8F04048F0E5BF00BFD02C0500FC
:1018C00080B500F009F81A493422002810FB0211F3
:1018D00048BF0021084680BD15498A6A824205D862
:1018E000CB6A1A44824201D900201FE0CA6D8242AD
:1018F00005D80B6E1A44824201D9012016E0D1F8B6
:101900009020824206D8D1F894301A44824201D9FC
:1019100002200BE0D1F8C420824206D8D1F8C810CA
:101920001144814201D9032000E0FF2040B27047FA
:10193000088C12203B480088704700BF3C48008854
:10194000704700BF10B5334C0520F2213022002330
:10195000A0470620F32130220023A0471A204FF48D
:10196000C97130220023A0471B2040F2931130227E
:101970000023A0472E20E12130220023A0472F2062
:10198000E02130220023A0471D20E2213022002345
:10199000A0471E20E32130220023A0470D20E5218F
:1019A00030220023A0470F20E42130220023A0474B
:1019B0000520F22130220023A0470620F321302207
:1019C0000023A04721204FF48D7130220023A0472F
:1019D000222040F2191130220023A047242040F297
:1019E0001B1130220023A04725204FF48E71302296
:1019F0000023A04713204FF4907130220023A0470A
:101A0000122040F21F1130220023A0470248342147
:101A1000016010BD157800000C5005400149088098
:101A2000704700BF8846122001490880704700BFF8
:101A30008A46122080B540F0E3FB0A4800F510709A
:101A400002F0F0FBBDE8804040F0F2BB80B540F012
:101A5000D7FB044800F5387002F0E4FBBDE8804095
:101A600040F0E6BB6443122080B540F0C9FB0A4851
:101A70007C3000F04AFFBDE8804040F0D9BB00BF99
:101A800080B540F0BDFB044800F5F87000F03DFF64
:101A9000BDE8804040F0CCBB5C9512207047F0B5AB
:101AA00085680468D0E911600127102D00F01C0042
:101AB00007FA00F070600846636008BF1046A06037
:101AC00008BF0A46E260F0BD2DE9F04FADF5277D75
:101AD0000E460546104684211446FFF779F89CA867
:101AE0002C21FFF775F891A82C21FFF771F886A833
:101AF0002C21FFF76DF87BA82C21FFF769F870A85F
:101B00002C21FFF765F865A82C21FFF761F85AA88A
:101B10002C21FFF75DF84FA82C21FFF759F844A8B6
:101B20002C21FFF755F839A82C21FFF751F82EA8E2
:101B30002C21FFF74DF823A82C21FFF749F8284660
:101B400008F000FB0746304608F0FCFA17B120B158
:101B5000C74803E050B1284600E03046214600F077
:101B6000C3F800200DF5277DBDE8F08F30462946EB
:101B700006F12C0705F12C0A3BF0E7FF002800F0E6
:101B8000978005F15809DFF8E0B29CAA384606F1C3
:101B900058084946D84791AA50464146D84786AF8B
:101BA000304649463A46D8477BAE284641463246FB
:101BB000D847384631463BF0C8FF002800F08880FF
:101BC00004F15800A74D91A970AA019004F12C00CE
:101BD00000909CA8A84765AF86A87BA93A46A8476D
:101BE0004FAA48464146D84718A82C21FEF7F0FFD7
:101BF0000DA82C21FEF7ECFF0DF1080A2C21504610
:101C0000FEF7E6FF44AE384639463246D84739AD8E
:101C1000304639462A46D8470DF1B80870A8014623
:101C20004246D8470DF18C0930467BA94A46D84731
:101C300048460221524608F0CBFA18AE40464FA95A
:101C40003246D84729460DADDFF8188230462A467D
:101C5000C0475AAE284651463246C04738463146FC
:101C60002246D84718AF2C213846FEF7B1FF0DACFD
:101C70002C212046FEF7ACFF02AD2C212846FEF7B2
:101C8000A7FF484631463A46C04770A83946224623
:101C9000D84739AE91A92A463046D847009A2046FF
:101CA0002946C047019A30464FA9D847012059E735
:101CB000384651463BF049FF00287FF449AF306D6C
:101CC00001283FF65EAFF06C00287FF45AAF3FE783
:101CD0009CA891A93BF039FF00287FF439AF284632
:101CE000214600F025F83CE7B0B505460C4608460D
:101CF00024222946FEF745FFD5E909012422C4E93B
:101D0000090104F12C0005F12C01FEF73AFFD5E999
:101D100014012422C4E9140104F1580005F158010A
:101D2000FEF72FFFD5E91F01C4E91F01B0BD000078
:101D30002DE9F04FF9B00646006D8B46012801D819
:101D4000F06C18B1304608F0FDF920B1484859460A
:101D5000FFF7CAFF81E006F1580563AC304606F193
:101D60002C0729462246FFF71BFD0DF5B0783D4BA9
:101D700030462946424698470DF59A79DFF8E8A0A3
:101D8000204641464A46D0470DF5DC78374B484659
:101D90000321424698470DF5C679384629464A46FA
:101DA000D0474DAC384649462246D04758AA30461F
:101DB00021461646D04742AC404641462246D047CF
:101DC00037ADDFF8A880304608212A46C0474DAE1F
:101DD000244B204629463246984742AC3046494675
:101DE0002246D047204602215A46C04737AC3846E3
:101DF000394646462246D04742AD484649462A46DD
:101E0000D0470DF1B00820462946A9464246D047A2
:101E100021AD404608212A46B04716AC58A80421F7
:101E20002246B047B0460BAE0E4F20464DA9324673
:101E3000B8476C466EA831462246D0470BF12C02BB
:101E400020462946B84737AC484663A92246D047C2
:101E50000BF1580220460821C047002079B0BDE8A8
:101E6000F08F00BFB1AC000009A20000D1A10000BA
:101E7000182F05002DE9F0418CB0174C054690460F
:101E80000E46164FE07DFF2806D0C000102101FA53
:101E900000F039680843386005F1580001A914F0D2
:101EA000B5F9E07DFF2807D0C000102101FA00F04D
:101EB000396821EA0000386001AF284632463946C9
:101EC00008F0A2F905F12C003946424608F09CF9C9
:101ED0000CB0BDE8F08100BFA04D12206400055099
:101EE00010B540F08DF90024532C06D0A1B24FF06C
:101EF000A04001F0E0FA0134F6E7BDE8104040F000
:101F000097B90000B0B540F07BF90025064C312DA3
:101F100005D0A9B2204601F0CEFA0135F7E7BDE8B9
:101F2000B04040F085B900BF000004504023B0F13C
:101F3000A04F08BF60238B429CBF0020704701F078
:101F40001F0313804A09D200A2EB511100EBC1001C
:101F50007047000080B540F053F91048603002F03F
:101F600061F9BDE8804040F063B900BF80B540F042
:101F700047F90A4800F5807002F054F9BDE8804046
:101F800040F056B980B540F03BF9044800F5D070F8
:101F900002F048F9BDE8804040F04AB9644312209D
:101FA00010B5AB4A0368904208D0AA4CA04205D0B5
:101FB000A94CA0421CBFA94CA04218D14C6823F0E8
:101FC00070032343036090420B688C68C462836291
:101FD00008D0E24A904205D0E24A90421CBFE24A51
:101FE000904208D1C96801630121416110BDDC4CF8
:101FF000A042E3D0E6E7DA4A9042F3D0F4E700BF2C
:1020000010B50123046A8B4002FA01F124EA0303AC
:102010000362026A1143016210BD10B5C46A012156
:1020200084F83610E26982420DD0216A814207D0DD
:10203000616A814206D0A16A814205D1082102E08D
:10204000022100E004212175204601F017FF002045
:10205000207510BD10B5C46A012184F83610E269FC
:1020600082420DD0216A814207D0616A814206D046
:10207000A16A814205D1082102E0022100E0042189
:102080002175204602F099FC0020207510BDC06A21
:10209000012180F8361001F0DFBEC06A012180F80E
:1020A000361002F0C3BD0000F0B5026A4F4E22F0B8
:1020B000010202620B688A68046A24F00204224367
:1020C0004468856935402B43A34DA84208D0A34DF1
:1020D000A84205D0A34DA8421CBFA34DA84211D1D0
:1020E000D1E90567CD6824F4407422F00C02344332
:1020F00025F004052A433C434460836149684163F9
:102100000262F0BD964DA842EAD0F5E7F0B5026A4A
:102110004E4E22F0100202620C688A68036A23F0B5
:10212000200343EA021243688569354045EA0424E6
:10213000894DA84208D0894DA84205D0894DA842B2
:102140001CBF894DA84215D1D1E9056723F440632E
:10215000CD6822F0C00243EA86036FF0400606EA2B
:10216000051543EA87032A43436084614968816314
:102170000262F0BD7A4DA842E6D0F5E7F0B5026AFA
:102180001A4E22F4807202620C688A68036A23F491
:10219000007343EA02224368C56935402C436E4D03
:1021A000A84208D06D4DA84205D06E4DA8421CBF74
:1021B0006D4DA84215D1D1E90567CD6823F4405390
:1021C00022F4406243EA06132D0240F2FF46B54373
:1021D00043EA07132A434360C4614968C16302624A
:1021E000F0BD5F4DA842E6D0F5E700BFFCFF0FFF52
:1021F00070B5026A154E22F4805202620C688A6839
:10220000036A23F4005343EA02324368C569354048
:1022100045EA0424504DA84208D0504DA84205D0AC
:10222000504DA8421CBF504DA8420AD14D6923F41D
:10223000804343EA85134360C461496801640262D4
:1022400070BD474DA842F1D0F5E700BFFFFCFF0F7E
:102250000000014000100140000005400020054042
:10226000B0B500681D4B82681A40D1E9003424F4EF
:1022700070252A431A4382606FF0030202EB341286
:10228000032A2AD8DFE802F00210171E026A036A46
:1022900023F0010303620969836923F0F00343EA31
:1022A000011181610262B0BD8B680A691946BDE8FF
:1022B000B04000F015B88B680A691946BDE8B04017
:1022C00000F054B8D1E9022309691A4342EA012116
:1022D000826822F47F4211438160B0BD8FFFF0FF1E
:1022E00010B5036A046A24F001040462846924F0CE
:1022F000F00444EA0212826123F00A0211430162EF
:1023000010BD000070B5046A134EB04224F0010401
:1023100004628569046A08D0104EB04205D0104EA0
:10232000B04202D00F4EB0420FD125F0F30522F09B
:10233000F0021B0101F00A01DBB22B431A43826158
:1023400024F00A021144016270BD074E25F0F30526
:10235000B042ECD00122ECE7000001400010014047
:10236000001005400000054000200540036A23F0EE
:1023700010030362836923F4704343EA0232036A61
:10238000826123F0A00242EA01110162704710B598
:10239000046A120201F00A0124F0100404624FF2F0
:1023A000FF04A24363F30F32836923F473431A4398
:1023B000036A826123F0A00242EA0111016210BDAA
:1023C000827C012303FA02F261B10168D1F8843002
:1023D0001343C1F88430D1F880301A43C1F880200B
:1023E000022107E00168D1F8803023EA0202C1F837
:1023F00080200121017500207047027D3AB14068BC
:10240000426822F000420A604068C00F7047012015
:1024100070470000F8B5056804461448854206D0A8
:10242000134885421CBF0120F8BD124800E00E4849
:10243000227C04F1120118F02EFF01460120002930
:1024400011D4A27CD4E90267C9B205EB02131201D0
:10245000DF609E6000265E60667C41EA0611A9503E
:10246000207500206360F8BD2C2805000010024094
:1024700000D00540712805002DE9F04104680223D1
:10248000A5680679012E57D04371012325F0060C6B
:10249000037111F003031DD063F00306C3F10403BD
:1024A000002788464FF0000E3EB118F8015B013658
:1024B000BD4008374EEA050EF6E76FF0010505EB63
:1024C000430545EA0C05A560C4F800E06568ED0722
:1024D000FCD000E00023A56845F00605A560D51EE8
:1024E000AB4206D2CE5826606668F607FCD00433AD
:1024F000F6E7934214D26FF0010E002700259342B5
:1025000007D2CE5C0EF1020E0133BE4008373543D0
:10251000F5E74EEA0C01A16025606168C907FCD0AF
:1025200001214171002101718079354901EB0010D1
:102530002168C06880EA01031846BDE8F08100BF49
:1025400010B503689C6844F001049C60BDE810402D
:10255000FFF792BF50B110B50446022060712046CB
:1025600000F02AF800202071607110BD0120704732
:1025700040797047D0B110B50446006808B90C48DE
:102580002060617929B900202071204600F015F8FB
:10259000206802216171A62181604FF0FF31016145
:1025A0000449416101206071002010BD0120704785
:1025B00000E00040B71DC10470477047B0B5104A35
:1025C000056802EB0113D3E901432C610C01125998
:1025D0006A61AB608171A86840F00100A860B0BD7D
:1025E00010B5046821610649626101EB0311896835
:1025F000A1608371A06840F00100A06010BD00BF21
:102600008C370500F0B51F4A6FF0970597281446E0
:1026100005F1580502F5802388BF1C4688BF6FF07E
:1026200097052E18B0B24FF66875402802D3403E89
:10263000703403E0202824BF203E3834B6B201278E
:102640003748972907FA06F6C0E90064A76846EA02
:102650000706A6608CBF1A46583529448BB2402B1A
:1026600002D34039703203E0202B24BF20393832A6
:1026700089B2012303FA01F1C0E90212906808430C
:102680009060F0BD0400005070B50C460546002671
:10269000A642A8BF70BDA85D00F002F80136F7E7BA
:1026A0002DE9F0411E4CE168B9B30B68D4F808C0BD
:1026B000072743EA0C036FEA0C080B6063681D6888
:1026C000D4F800E045EA0E056FEA0E061D600D68BD
:1026D00025EA0C050D601A68002F02EA06021A604E
:1026E0000FD40A6820FA07F5013FED0742EA0C040F
:1026F00008BF02EA08040C601A6842EA0E021A6077
:10270000E9E7086800EA08000860186840EA0E0077
:102710001860086840EA0C000860BDE8F08100BF5E
:10272000584C12202DE9FE4F294D14460E46804686
:102730004F2120224FF0200B2846FEF742FA0027B7
:10274000A81C0296B04405F106092E4685F84F7084
:102750000190A7422FDA17F00F0A17D102982946E5
:10276000C6191C4800F038F828464F212022FEF7F1
:1027700028FAC6F3072128463BF072FD0198F1B212
:102780003BF06EFD42F23A004E46A88018F8070072
:10279000A0F121015D290AEB050128BF2E2081F857
:1027A0003C00304618F807103BF05AFD86F802B09E
:1027B00001370336CDE7064C0648214600F00CF8F9
:1027C00020464F212022FEF7FCF9BDE8FE8F00BF16
:1027D000D04F122038980500704701460120C1B142
:1027E000B0B50A68D1E91134156825F00E051560F9
:1027F000156825F00105156004F01C0200FA02F2CC
:102800005A60002281F8282081F829000020BDE8C4
:10281000B0407047B0B590F8291002291CD101686A
:10282000C26BD0E911340D6825F00E050D600D68FE
:1028300025F001050D6004F01C014FF0010404FABD
:1028400001F159604FF0000180F8281080F829400C
:102850002AB19047002102E00421016401210846C9
:10286000B0BD000068B1B0B50268116821F0010187
:1028700011607B49114401F580238C2B03D8794BDF
:1028800006E0012139E08D290CD2764901F580233B
:10289000A2F1080114244364C9B2B1FBF4F18C0025
:1028A000846401E0D0E9113400210125102C11606D
:1028B00004F01C0205FA02F24FF018055A604FF0BE
:1028C000380205EA440538BF02EA44054FF03F02EA
:1028D0004FF0AC0402FA05F238BFA8241D5925EACE
:1028E00002021A51016480F82810C0E90C11C0E9F5
:1028F0000E1180F82910BDE8B0400846704700BFAF
:10290000006C704790F829007047F0B5D0E91113BA
:1029100002680C68156803F01C036E070ED50426C8
:102920009E4016EA040709D013689B0603D4136877
:1029300023F0040313604E60416B2BE0AE0714D507
:1029400002269E4016EA04070FD013689B0606D4A1
:10295000136823F00A031360012280F82920002263
:1029600080F828204E60016B14E02D0716D508254D
:102970009D402C4012D0146824F00E0414600122F3
:1029800002FA03F34B600021026480F8281080F8FB
:102990002920816B11B1BDE8F0400847F0BD00006F
:1029A00000283ED070B501682D4A8B182D4A03F5DA
:1029B00080248D2C03D38C2B0AD802F58022A1F120
:1029C00008031424DBB2B3FBF4F39B00C0E911232A
:1029D000022247F6F07300F1080680F82920426AC7
:1029E0000A610A689A4378CE1A43B3F5804F42EAE7
:1029F0000402846942EA050242EA060242EA04024B
:102A0000C46942EA0402046A42EA04020A601CD071
:102A1000816CC1F38202032A05D8D100426CA8322E
:102A200007E001211AE08908182202EAC101426C7C
:102A3000AC323F2314688B4024EA030313604368DD
:102A400003FA01F1136819431160002101220164A6
:102A500080F8281080F82920BDE8704008467047AB
:102A6000F8EFFBBF001000402DE9F843044690F852
:102A7000290002282DD12068006880062ED4042069
:102A800000298846164608BF0220A16C01F01C01EF
:102A900000FA01F502F063F98146771C616C086861
:102AA000284221D10868A26C02F01C02D040000725
:102AB00025D4002FF2D002F052F91EB1A0EB09008C
:102AC000B042EBD920202064002084F828000120A7
:102AD0001DE0002084F82800042001E04FF48070FD
:102AE00020640120BDE8F883A06CB8F1000F00F06D
:102AF0001C0010D0042202FA00F0486012E001200D
:102B000000FA02F24A600021206484F8281084F858
:102B10002900BDE8F883022202FA00F04860012093
:102B200084F82900002084F82800BDE8F88300001C
:102B300010B590F82830012B01D1022319E00123B0
:102B400080F8283090F82940012C0FD1032905D8AE
:102B5000DFE801F00206080A026306E0012305E04F
:102B6000426302E0826300E0C2630023002180F838
:102B70002810184610BD3F291BD840F6FF7220EAE6
:102B800002026FF31F30A0F108031420B3FBF0F032
:102B90004F2B01D8C00005E09F2B0AD86FF01F0310
:102BA00003EBC00001FA00F0D2F8A8100843C2F805
:102BB000A800704770B5044690F8280001281CD082
:102BC000012084F8280094F82900012812D102205D
:102BD000002584F8290025642068066826F001068F
:102BE00006602046FEF75BFF2068016841F00101A6
:102BF000016003E0002084F828000225284670BD0B
:102C0000B0B5044690F8280001281DD0012084F8B2
:102C1000280094F82900012813D1022084F8290003
:102C2000002020642068056825F001050560204625
:102C3000FEF735FF2068626B01683AB141F00E0182
:102C40000AE0002084F828000220B0BD21F0040131
:102C50000160016841F00A010160016841F0010171
:102C600001600020B0BD000090F82820012A01D1A9
:102C7000022222E0012280F8282090F82930012B3E
:102C800018D1042907D8DFE801F003080B0E100063
:102C9000002202630EE001220CE00022426309E000
:102CA0000022826306E0002203E00022C0E90C2239
:102CB0008263C263002180F828101046704780B5F7
:102CC00004F00AFC002080BDE0B50190019830B10D
:102CD0004FF47A7000F004F801980138F5E78CBDE4
:102CE0001CB5114C01902068019901B140B9002038
:102CF00004F02AFF0D49B0FBF1F02060019991B179
:102D0000312802D3019901390191019959B10199F1
:102D1000013948430621B0FBF1F000900098411EB4
:102D200000280091FAD11CBD2050122040420F0013
:102D300060B110B5002918BF0121044600F0EBFA7C
:102D400020460121BDE8104000F0A6B9704750B1FF
:102D5000B0B51C46054600F00DFB28462146BDE8EF
:102D6000B04000F0FDBA70472DE9F041012700287E
:102D70005FD00E4600295CD0069F31469846154626
:102D8000044604F0C7FE0220E56006F1080284F85C
:102D900026004FF000002077207107CA84F8242015
:102DA0004FEA0151C4E90A01B5B1B8F1000F13D0DF
:102DB00008204FF48051C5E9081000208021E86107
:102DC000C5E90500C5E903011020A860D8F8000096
:102DD000D8F80C10C5E90001F9B2204600F0DBFA82
:102DE00094F82500012803D0022805D1012100E034
:102DF0000021204600F002FB204600F07EF96077BB
:102E000020460121012700F063F920463BF08CFCAD
:102E10002062227FC3B2C0F3074118464DF0D8F8B4
:102E2000206130B120463BF088FC1E20FFF758FFA0
:102E300000273846BDE8F081C0B1F0B59202DDE967
:102E40000576DDE90754006842EAC131826C41EA47
:102E500003216FF3100241EA871141EA061141EAAA
:102E60008501214311438164BDE8F0407047C0B142
:102E7000F0B59202DDE90576DDE90754006842EA23
:102E8000C131026D41EA03216FF3100241EA87115B
:102E900041EA061141EA8501214311430165BDE87C
:102EA000F0407047A8B1032908D002290CD00129AD
:102EB0000FD10068416D41F0010109E0006840F266
:102EC0000112416D114303E00068416D41F48071CE
:102ED0004165704720B10068416941F001014161DD
:102EE000704718B100684269114341617047D8B119
:102EF000F0B585B004460069C1B190F9643090F92D
:102F0000632090F9621090F9655090F9666090F92D
:102F1000677090F968008DE8E00003902046FFF7A5
:102F20008BFF2069603017E00120704790F9403036
:102F300090F93F2090F93E1090F9415090F942608D
:102F400090F9437090F944008DE8E000039020462A
:102F5000FFF772FF20693C30216800780A6C22F08C
:102F6000FF0210440864002005B0F0BDD0B1C9B123
:102F7000B0B5044604F0CEFD2046012100F03EFA33
:102F80002046012100F0A4F820463BF025FB054631
:102F90002046002100F09CF82046002100F02EFA87
:102FA0002846B0BD0020704770B50024D8B1D1B11B
:102FB000054604F0AFFD28460021002400F01EFA6B
:102FC000284601216C7700F083F828463AF049FC46
:102FD00006462846002100F07BF826B16FF07F40BE
:102FE000864218BF0124204670BD2DE9F84390B1F8
:102FF0000D461C46012133B30646C06818B331683C
:10300000D1F800904AB1102201F1040800212746AE
:10301000826000220CE0012115E000220B1DE11C62
:10302000A84682608F084FF400624FF400711D467D
:10303000C0E90512FFF716FC014620B9F068FFF75A
:10304000AFFC014610B10846BDE8F883316849F08D
:103050002002F0683B460A60621E4A6229464246E8
:1030600001B0BDE8F043FFF7A5BD10B560B104465F
:10307000C06848B10A460021FFF7F6FC21680A68DB
:1030800022F020020A6010BD012010BD80B5002191
:1030900000F01EF8002080BD50B1006800290268D1
:1030A00042F0400308BF22F0400303600020704755
:1030B0000120704750B100680029026842F4A02343
:1030C00008BF22F4A023036000207047012070474E
:1030D00050B100680029026842F0010308BF22F0E5
:1030E00001030360002070470120704710B10068A1
:1030F000C06800E00020C0B2704720B1006880685E
:10310000C0F3400070470020704718B100680069A4
:10311000C00F70470020704720B10068006900F0C0
:1031200001007047002070470146012011B1096875
:1031300049688843704720B10068406DC0F3400083
:1031400070470020704720B100680069C0F340005C
:1031500070470020704720B10068406DC0F34020E8
:103160007047002070472DE9F0410127002872D0F8
:103170000E4600296FD0069F3146984615460446F4
:1031800004F0C8FC0220E56006F1080284F826007D
:1031900007CA84F824204FEA0151C4E90A01A2F1C8
:1031A0000100B0FA80F04FEA50102077B5B1B8F1C5
:1031B000000F13D008204FF48051C5E908100020FB
:1031C0008021E861C5E90500C5E903011020A86078
:1031D000D8F80000D8F80C10C5E90001F9B2204673
:1031E00000F0D9F894F82500012803D0022805D171
:1031F000012100E00021204600F000F92046FFF701
:103200007CFF607720460121FFF762FF206AFF28DC
:1032100018BF002803D120463BF086FA2062227FA7
:10322000C3B2C0F3074118464CF0D2FE206128B16A
:10323000207F48B1204639F0D9FE0BE0204600211E
:10324000FFF746FF012706E0207938B1204601212B
:103250003AF043FB00273846BDE8F08120460021C4
:1032600000273AF03AFBF6E7E8B1F0B5D203DDE922
:103270000547DDE907650068DDF824C042EA414101
:10328000826A41EA83216FF3110241EA042141EA93
:10329000871141EA061141EA850141EA0C01114317
:1032A0008162BDE8F0407047E8B1F0B5D203DDE9D6
:1032B0000547DDE907650068DDF824C042EA4141C1
:1032C000C26B41EA83216FF3110241EA042141EA12
:1032D000871141EA061141EA850141EA0C011143D7
:1032E000C163BDE8F040704770B16BB170B50D4679
:1032F00019461446064600F08FF830462946224605
:10330000BDE8704000F06BB8704710B100684068CD
:1033100070470020704750B100680129026822F010
:10332000800308BF42F08003036000207047012043
:10333000704738B10068026C22F0FF02114401644A
:10334000002070470120704740B10068026C22F4F1
:103350007F4242EA0121016400207047012070474A
:1033600030B140F2FF32006891434167002070475E
:103370000120704768B140F2FF33006821EA03037F
:10338000114401F2FF31C3666FF3090101670020A8
:1033900070470120704708B10068C160704758B19C
:1033A0000068C26181610169C907FCD0416941F0CF
:1033B00001014161002070470120704768B14FF45E
:1033C000E003006803EA015162F3132182686FF39E
:1033D000162211448160002070470120704758B1C7
:1033E00040F2FF3300689943C16502F2FF316FF389
:1033F00009010166002070470120704750B1006844
:103400000029826842F0020308BF22F002038360B1
:1034100000207047012070470246012042B139B1B7
:1034200010680A6812BA4266496809BA81660020C3
:10343000704730B10068826861F3840282600020C6
:1034400070470120704720B100680069C0F3C000D8
:1034500070470020704730B1013900686FF3DF21F9
:103460004162002070470120704730B10139006887
:103470006FF3DF218163002070470120704718B18E
:10348000006841600020704701207047E0B589B2B4
:103490000DF10602FEF74AFD50B1BDF806100122FB
:1034A00002FA01F102690A430261C2691143C16172
:1034B0008CBD3AF07FBCBCB50DF106020C4605464A
:1034C000FEF734FD70B1BDF80610012202FA01F1D9
:1034D000426B114206D0426B11434163284621469C
:1034E000FFF7E7FFBCBD00001CB50C4609880DF1D5
:1034F0000602FEF71BFD002861D06168C9B10129F1
:1035000021D0324A914226D0314A91422CD0314AC0
:10351000914234D0304A91423FD0304A91424FD10B
:10352000BDF80610012202FA01F1826A0A438262A2
:1035300022E0BDF8061001228A40016911430161B1
:1035400050F81C1F39E0BDF80610012202FA01F103
:1035500050F80C2F31E0BDF80610012202FA01F1FB
:10356000426A0A43426220E0BDF80610012202FAD4
:1035700001F1426A0A434262C26A8A4309E0BDF825
:103580000610012202FA01F1426A0A434262C26A4B
:103590000A43C262026B0A430CE0BDF80610012226
:1035A00002FA01F1826A0A438262C26A0A43C26273
:1035B000026B8A43026350F8182F114301601CBD4F
:1035C000BDF80610012202FA01F1F4E70000111023
:1035D00000002110000031100000411000005110C7
:1035E000E0B50DF10602FEF7A1FC68B1BDF80610CA
:1035F000012202FA01F18268114218BF043000680A
:10360000084018BF01208CBD00208CBDE0B50DF135
:103610000602FEF78BFC38B1BDF80610012202FA53
:1036200001F14268514041608CBD1CB514460DF15A
:103630000602FEF77BFC58B1BDF806100122002CF3
:1036400002FA01F142680CBF22EA01011143416014
:103650001CBD10B50446022041F2111284F8360058
:103660002068016A114208D1016A40F244421142C5
:1036700003D1016821F001010160204600F024F827
:10368000002084F8340084F83600002010BD90F843
:1036900036007047B0B110B5044690F8360028B92E
:1036A000002084F83400204600F00FF80220211D8D
:1036B00084F836002068FEF773FC012084F8360099
:1036C000002010BD0120704770477047022180F82C
:1036D000361001680A6842F001020A60012180F890
:1036E0003610002070470000B0B5044690F8360050
:1036F000022804BF0220B0BD94F83600134601280A
:1037000006D111B90BB10120B0BD022084F83600FA
:10371000A0690A4D22680563094D2C32A0698563B2
:10372000A069FFF76DFA2068C16841F48071C1603B
:10373000016841F0010101600020B0BD9B20000044
:103740008F2000000068C16841F00101C16001687C
:1037500041F00101016000207047022141F2111384
:1037600080F8361001680A6A1A4208D10A6A40F2E3
:1037700044431A4203D10A6822F001020A6001217F
:1037800080F8361000207047016841F21113CA68B2
:1037900022F48072CA600A6A1A4208D10A6A40F2A8
:1037A00044431A4203D10A6822F001020A6001214F
:1037B00080F8361000207047006841F21112C1688D
:1037C00021F00101C160016A114208D1016A40F291
:1037D0004442114203D1016821F00101016000203F
:1037E0007047000010B590F8342004460220012AEA
:1037F00000F0858084F836000120414B84F83400C5
:10380000206882681A4082600A68BAB1102A1BD008
:10381000202A1FD0302A23D0402A27D0502A31D046
:10382000602A3BD0702A45D0B2F5005F52D0B2F585
:10383000805F5ED1816821F4702159E0816841F098
:10384000070121F0700153E0816841F0170121F078
:1038500060014DE0816841F0270121F0500147E00F
:10386000816841F0370121F0400141E04B68CA68AE
:103870001946FEF735FD2068816841F0470121F0C7
:10388000300135E04B68CA681946FEF729FD20680B
:10389000816841F0570121F0200129E04B68CA6896
:1038A0001946FEF763FD2068816841F0670121F049
:1038B00010011DE0D1E90123C9681A4342EA012140
:1038C000826822F47F4211430E4A81608168114070
:1038D00077310DE0D1E90123C9681A4342EA012199
:1038E000826822F47F4211438160816841F4804103
:1038F00081600020012184F8340084F8361010BD66
:103900008F00F0FF88FFF0FFB0B590F8344002233D
:10391000012C4AD080F83630012380F834304B68CF
:10392000012B0BD101F1080538CD2343046843EA8C
:103930000523A56825F47F452B43A3604FEAB20217
:10394000032A2CD8DFE802F0020C172102689369E1
:10395000096800290CBF23F4803143F4803108E06A
:1039600002689369096800290CBF23F0807143F055
:103970008071916113E00268D369096800290CBF66
:1039800023F4803143F4803108E00268D369096888
:1039900011B143F0807101E023F08071D161002307
:1039A000012180F8343080F836101846B0BD006828
:1039B000426822F0800211434160002070470120DC
:1039C0007047B0B50C460546B1F5804F14D0B4F53C
:1039D000007F14D0B4F5806F14D0B4F5006F14D00C
:1039E000B4F5805F14D0B4F5005F14D0B4F5807FD7
:1039F00016D105F1180010E005F130000DE005F1D9
:103A00001C000AE005F1200007E005F1240004E0B5
:103A100005F1280001E005F12C000068FEF7DDFE4D
:103A20002868C168A143C1600020B0BD0120704773
:103A3000B0B50C460546B1F5804F14D0B4F5007F03
:103A400014D0B4F5806F14D0B4F5006F14D0B4F571
:103A5000805F14D0B4F5005F14D0B4F5807F16D128
:103A600005F1180010E005F130000DE005F11C0033
:103A70000AE005F1200007E005F1240004E005F16B
:103A8000280001E005F12C000068FEF7A6FE28687A
:103A9000C168A143C1600020B0BD10B5044602203A
:103AA00041F2111284F836002068016A114208D1EF
:103AB000016A40F24442114203D1016821F0010140
:103AC0000160204600F052F8002084F8340084F8A9
:103AD0003600002010BD90F836007047002843D013
:103AE000F8B5044690F836000D4628B9002084F851
:103AF0003400204600F03BF8022084F836002068AD
:103B0000816821F470218160211DFEF749FA266841
:103B1000D5E9000CD5E90223B7683843B769316AA3
:103B2000B060A86942EA00204FF6FC4290434FF68D
:103B3000FF7227EA02021A431043EA6940EA0220B0
:103B40002A6940EA02102A6A40EA0230B06121F094
:103B5000AA00696940EA0C0040EA011030620120C5
:103B600084F836000020F8BD012070477047704788
:103B700010B50446042907D009B9002105E02068E2
:103B800000210122FEF73CFA042120680122FEF701
:103B900037FA2068016841F001010160002010BD82
:103BA0002DE9F041044690F83600022801D10225A3
:103BB00084E094F83600069D1E4601280FD1002EA1
:103BC0003046134618BF0120002A18BF01230342C4
:103BD00002D10DB1012571E0022084F836001829C8
:103BE0001ED004294FD0002967D1E069354B2168E8
:103BF0000363354B3431E06983632B46E069FEF79C
:103C0000FFFF206801220025C16841F40071C160F6
:103C1000016841F0010101600021FEF7F1F94DE07A
:103C2000E069DFF89C84284F21682B46C0F830807B
:103C30003431E0698763E069FEF7E2FF206A2168BA
:103C400032462B46C0F830803831206A8763206ABC
:103C5000FEF7D6FF206801220025016841F001012E
:103C600001600021FEF7CCF9206804210122FEF753
:103C7000C7F92068C16841F40071C160C16841F4AE
:103C80008061C1601AE0206A0E4A21682B460263F7
:103C90000D4A3831206A82633246206AFEF7B0FF4F
:103CA00020680122C16841F48061C160016841F06F
:103CB000010101600421FEF7A3F900252846BDE8B3
:103CC000F08100BF1B2000008F200000B0B504462B
:103CD000042908D079B9206800210122FEF790F963
:103CE0002068022517E02068042101220425FEF740
:103CF00087F920680FE0206800210122FEF780F993
:103D00002068042101220425FEF77AF92068C168A1
:103D100041F00201C160C1682943C160016841F0FE
:103D2000010101600020B0BD10B50446042907D090
:103D300009B9002105E0206800210022FEF760F9A2
:103D4000042120680022FEF75BF9206841F211127D
:103D5000016A114208D1016A40F24442114203D182
:103D6000016821F001010160002010BD10B504467A
:103D700041B1206804290ED104210022FEF740F948
:103D8000206816E0206800210022FEF739F920683B
:103D90006FF400710FE000210022FEF731F9206876
:103DA00004210022FEF72CF92068C16821F400717B
:103DB000C1606FF48061C268114041F21112C160AC
:103DC000016A114208D1016A40F24442114203D112
:103DD000016821F001010160012084F83600002013
:103DE00010BD10B5044641B1206804290ED104214C
:103DF0000022FEF705F9206816E020680021002265
:103E0000FEF7FEF820686FF002010FE000210022AB
:103E1000FEF7F6F8206804210022FEF7F1F820688A
:103E2000C16821F00201C1606FF00401C268114055
:103E300041F21112C160016A114208D1016A40F2D7
:103E40004442114203D1016821F0010101600120C7
:103E500084F83600002010BD704790F834300222FC
:103E6000012B09D080F8362002685161002201211F
:103E700080F8342080F83610104670477047F8B547
:103E80000D4690F8341004460220012963D084F8CE
:103E900036000120042A84F834000AD09AB9D5E902
:103EA0000012EB682068FEF72DFA206850F8181F02
:103EB00025E0D5E90012EB682068FEF768FA206873
:103EC00050F8181F39E0D5E900362168E868082A5B
:103ED0000F6A19D127F4807260F3071608460A6248
:103EE00050F81C2F22F0F30232430E6A026003F0F6
:103EF0000A0226F4206343EA02220A62016821F0E2
:103F00000C010160A9681DE027F480520A623202A8
:103F10004FF2FF06B24360F30F32084650F81C6FB1
:103F200026F4734632430E6A026003F00A0226F456
:103F3000204343EA02320A62016821F440610160D1
:103F4000A96809020268114301600020012184F878
:103F5000340084F83610F8BD10B50446022041F252
:103F6000111284F836002068016A114208D1016AF2
:103F700040F24442114203D1016821F00101016085
:103F8000204600F024F8002084F8340084F836003D
:103F9000002010BD90F836007047B0B110B504464F
:103FA00090F8360028B9002084F83400204600F04C
:103FB0000FF80220211D84F836002068FDF7F0FF7D
:103FC000012084F83600002010BD012070477047A2
:103FD000704710B5044600680122FEF711F820680A
:103FE000016841F001010160002010BD70B5044678
:103FF00090F83600022804BF022070BD94F8360005
:104000000D46012806D112B90BB1012070BD022066
:1040100084F836004FEAB500032813D8DFE800F033
:1040200002142434E069264E21680663254E34319B
:10403000E0698663E069FEF7E3FD2068C16841F44A
:10404000007130E020682FE0206A1D4E2168066371
:104050001C4E3831206A8663206AFEF7D1FD206845
:10406000C16841F480611EE0606A154E21680663F4
:10407000144E3C31606A8663606AFEF7C1FD2068B9
:10408000C16841F400610EE0A06A0D4E216806632C
:104090000C4E4031A06A8663A06AFEF7B1FD20682D
:1040A000C16841F48051C16029460122FDF7A8FF93
:1040B0002068016841F001010160002070BD00BF6F
:1040C0001B2000008F20000010B504464FEAB1000D
:1040D000032808D8DFE800F002090E132068C26840
:1040E00042F002020FE020680EE02068C26842F051
:1040F000040208E02068C26842F0080203E0206879
:10410000C26842F01002C2600122FDF779FF206808
:10411000016841F001010160002010BD10B50446A6
:1041200000680022FDF76CFF206841F21112016A5D
:10413000114208D1016A40F24442114203D10168A0
:1041400021F001010160002010BD000010B50446FF
:104150004FEAB100032808D8DFE800F002090E1387
:104160002068C26822F400720FE020680EE0206828
:10417000C26822F4806208E02068C26822F400620B
:1041800003E02068C26822F48052C2600022FDF77A
:1041900037FF206841F21112016A114208D1016A09
:1041A00040F24442114203D1016821F00101016053
:1041B000012084F83600002010BD000010B5044630
:1041C0004FEAB100032808D8DFE800F002090E1317
:1041D0002068C26822F002020FE020680EE020682A
:1041E000C26822F0040208E02068C26822F00802D7
:1041F00003E02068C26822F01002C2600022FDF7CE
:10420000FFFE206841F21112016A114208D1016AD1
:1042100040F24442114203D1016821F001010160E2
:10422000002010BD10B5044600680169890744BF2D
:10423000C1685FEA817139D40169490744BFC16827
:104240005FEA41713ED40169090744BFC1685FEA72
:10425000017144D40169C90644BFC1685FEAC16104
:1042600049D40169C9071CBFC1685FEAC1714FD158
:104270000169090644BFC1685FEA016150D4016960
:10428000490644BFC1685FEA416151D401698906AA
:1042900044BFC1685FEA816100D410BD6FF02001A6
:1042A00001612046BDE8104004F02ABE6FF0020113
:1042B0000161012121758069800741D02046FFF707
:1042C000DDFD43E06FF00401016102212175806989
:1042D00010F4407F3ED02046FFF7D0FD40E06FF065
:1042E0000801016104212175C06980073CD0204686
:1042F000FFF7C4FD3EE06FF0100101610821217558
:10430000C06910F4407F39D02046FFF7B7FD3BE08D
:104310006FF001010161204600F088FC2068A7E7EA
:104320006FF080010161204604F0E9FD2068A6E7F6
:104330006FF040010161204600F010FD2068A5E704
:10434000204600F06CF8204600F037FB0020207576
:10435000206871E7204600F062F8204600F02DFB4F
:104360000020207520686EE7204600F058F82046AF
:1043700000F023FB0020207520686BE7204600F04A
:104380004EF8204600F019FB00202075206868E7F1
:10439000B0B590F8343004460220012B20D084F8C8
:1043A00036004FEAB2000125032884F8345012D8B1
:1043B000DFE800F002060A0E2068FDF775FE0AE04D
:1043C0002068FDF7A3FE06E02068FDF7D7FE02E0B7
:1043D0002068FDF70DFF002084F8340084F8365083
:1043E000B0BD10B50446022041F2111284F8360027
:1043F0002068016A114208D1016A40F24442114228
:1044000003D1016821F001010160204600F025F888
:10441000002084F8340084F83600002010BD704776
:1044200090F836007047B0B110B5044690F83600E9
:1044300028B9002084F83400204600F00FF802204C
:10444000211D84F836002068FDF7AAFD012084F8BC
:104450003600002010BD012070477047704710B52E
:10446000044600680122FDF7CBFD2068016841F099
:1044700001010160002010BD70B5044690F83600BF
:10448000022804BF022070BD94F836000D460128B2
:1044900006D112B90BB1012070BD022084F836009C
:1044A0004FEAB500032816D8DFE800F002172A3DCE
:1044B000E0692C4E216806632B4EE069866301F1AA
:1044C00034061146E0693246FEF79AFB2068C1685F
:1044D00041F4007139E0206838E0206A214E2168FB
:1044E0000663214E206A866301F138061146206A70
:1044F0003246FEF785FB2068C16841F4806124E004
:10450000606A184E21680663174E606A866301F17F
:104510003C061146606A3246FEF772FB2068C168AD
:1045200041F4006111E0A06A0E4E216806630E4E50
:10453000A06A866301F140061146A06A3246FEF782
:104540005FFB2068C16841F48051C16029460122A7
:10455000FDF756FD2068016841F00101016000206F
:1045600070BD00BF552000008F20000010B504462C
:104570004FEAB100032808D8DFE800F002090E1363
:104580002068C26842F002020FE020680EE0206856
:10459000C26842F0040208E02068C26842F00802E3
:1045A00003E02068C26842F01002C2600122FDF7F9
:1045B00027FD2068016841F001010160002010BD65
:1045C00010B5044600680022FDF71AFD206841F28C
:1045D0001112016A114208D1016A40F244421142AB
:1045E00003D1016821F001010160002010BD00002D
:1045F00010B504464FEAB100032808D8DFE800F000
:1046000002090E132068C26822F400720FE02068CD
:104610000EE02068C26822F4806208E02068C26868
:1046200022F4006203E02068C26822F48052C26073
:104630000022FDF7E5FC206841F21112016A1142E7
:1046400008D1016A40F24442114203D1016821F0CD
:1046500001010160012084F83600002010BD000037
:1046600010B504464FEAB100032808D8DFE800F08F
:1046700002090E132068C26822F002020FE02068CF
:104680000EE02068C26822F0040208E02068C268D8
:1046900022F0080203E02068C26822F01002C26023
:1046A0000022FDF7ADFC206841F21112016A1142AF
:1046B00008D1016A40F24442114203D1016821F05D
:1046C00001010160002010BDF0B587B09A4201D110
:1046D00001204DE00D4690F83410044602200129D7
:1046E00046D084F8360001201E46042A84F834009F
:1046F00095E88B508DE88B00CDE905CE05D042B909
:1047000020686946FDF7D0FC03E020686946FDF7A4
:10471000FDFC042E0AD02EBB05F1180320680ECB39
:10472000FDF7F0FD50206FF00C0108E005F11803D3
:1047300020680ECBFDF72BFE60206FF440612268ED
:10474000936919409161916821F0700191609168BD
:1047500008439060906820F470209060906840F06A
:10476000060090600020012184F8340084F836109F
:1047700007B0F0BD10B50446022041F2111284F8D2
:1047800036002068016A114208D1016A40F24442B1
:10479000114203D1016821F001010160204600F0BF
:1047A0002DF8002084F8340084F83600002010BD75
:1047B00090F836007047F8B1B0B5044690F836006E
:1047C0000D4628B9002084F83400204600F017F880
:1047D0000220211D84F836002068FDF7E1FB2068E7
:1047E000016821F00801016001682943016001208E
:1047F00084F836000020B0BD012070477047704734
:1048000010B50446006800210122FDF7F9FB20687D
:1048100004210122FDF7F4FB002010BD10B5044671
:1048200000680122C16841F00201C160C16841F025
:104830000401C1600021FDF7E3FB2068042101228F
:10484000FDF7DEFB002010BD10B504460068002116
:104850000022FDF7D5FB206804210022FDF7D0FBE4
:10486000206841F21112016A114208D1016A40F236
:104870004442114203D1016821F00101016000208E
:1048800010BD10B5044600680022C16821F0020185
:10489000C160C16821F00401C1600021FDF7B0FBD7
:1048A000206804210022FDF7ABFB206841F21112C1
:1048B000016A114208D1016A40F24442114203D117
:1048C000016821F001010160002010BDB0B590F831
:1048D000343004460220012B31D084F836004FEAF0
:1048E000B2000125032884F8345023D8DFE800F013
:1048F000020A10182068FDF7D7FB20684FF400214A
:10490000183014E02068FDF701FC206818300CE036
:104910002068FDF733FC20684FF400211C3006E0CE
:104920002068FDF765FC20681C304FF000610268CC
:1049300011430160002084F8340084F83650B0BD83
:1049400010B50446022041F2111284F836002068A6
:10495000016A114208D1016A40F24442114203D176
:10496000016821F001010160204600F024F80020D8
:1049700084F8340084F83600002010BD90F836002A
:104980007047B0B110B5044690F8360028B9002041
:1049900084F83400204600F00FF80220211D84F82E
:1049A00036002068FDF7FCFA012084F8360000206C
:1049B00010BD0120704770477047704710B504461E
:1049C00000680122FDF71CFB2068016841F001012D
:1049D0000160002010BD000070B5044690F836005C
:1049E000022804BF022070BD94F836000D4601284D
:1049F00006D112B90BB1012070BD022084F8360037
:104A00004FEAB500032816D8DFE800F002172A3D68
:104A1000E0692C4E216806632B4EE069866301F144
:104A200034061146E0693246FEF7EAF82068C168AC
:104A300041F4007139E0206838E0206A214E216895
:104A40000663214E206A866301F138061146206A0A
:104A50003246FEF7D5F82068C16841F4806124E051
:104A6000606A184E21680663174E606A866301F11A
:104A70003C061146606A3246FEF7C2F82068C168FB
:104A800041F4006111E0A06A0E4E216806630E4EEB
:104A9000A06A866301F140061146A06A3246FEF71D
:104AA000AFF82068C16841F48051C16029460122F5
:104AB000FDF7A6FA2068016841F0010101600020BD
:104AC00070BD00BF552000008F20000010B50446C7
:104AD0004FEAB100032808D8DFE800F002090E13FE
:104AE0002068C26842F002020FE020680EE02068F1
:104AF000C26842F0040208E02068C26842F008027E
:104B000003E02068C26842F01002C2600122FDF793
:104B100077FA2068016841F001010160002010BDB2
:104B200010B5044600680022FDF76AFA206841F2D9
:104B30001112016A114208D1016A40F24442114245
:104B400003D1016821F001010160012084F83600E1
:104B5000002010BD10B504464FEAB100032808D864
:104B6000DFE800F002090E132068C26822F4007228
:104B70000FE020680EE02068C26822F4806208E03E
:104B80002068C26822F4006203E02068C26822F450
:104B90008052C2600022FDF733FA206841F2111200
:104BA000016A114208D1016A40F24442114203D124
:104BB000016821F001010160012084F83600002025
:104BC00010BD000010B504464FEAB100032808D814
:104BD000DFE800F002090E132068C26822F002022A
:104BE0000FE020680EE02068C26822F0040208E0AE
:104BF0002068C26822F0080203E02068C26822F040
:104C00001002C2600022FDF7FBF9206841F2111288
:104C1000016A114208D1016A40F24442114203D1B3
:104C2000016821F001010160002010BDB0B504460B
:104C30000068184DA84203D117483AF09FFE20683B
:104C400005F58051884204D11348A0303AF096FE11
:104C5000206805F50051884205D10F4800F5A07085
:104C60003AF08CFE206805F54051884205D10A488B
:104C700000F5F0703AF082FE206805F58041884228
:104C800018BFB0BD044800F52070BDE8B0403AF050
:104C900075BE00BF000005406443122090F8342028
:104CA000012A01D102211BE001224FEAB10180F863
:104CB00034200022032906D8DFE801F002070A0D9C
:104CC0000168343109E0002108E00168383104E06E
:104CD00001683C3101E001684031096880F8342006
:104CE00008467047B0B590F8342004460220012AE7
:104CF00015D084F836000125204684F83450FDF79D
:104D0000AFFA2068C16821F04001C160C16821F498
:104D10008041C160002084F8340084F83650B0BD72
:104D2000B0B590F8342004460220012A15D084F84A
:104D300036000125204684F83450FDF791FA2068AA
:104D4000C16841F04001C160C16821F48041C16087
:104D5000002084F8340084F83650B0BD704780B528
:104D600043F0E2F94FF47A714843B0FBF1F080BDB3
:104D70004E48016821F01001016070477047000043
:104D8000012101FA00F003490A6822EA00000860E4
:104D900000207047180003407047000010B5012242
:104DA00002FA00F3384A546923435361831E032BEC
:104DB0000BD800EB400007230638834001FA00F0CF
:104DC00011681840994308431060002010BD00BFCF
:104DD0000848022101600020704700BF05480121FA
:104DE00001600020704700BF0248032101600020DD
:104DF000704700BF0000034002460020032A07D886
:104E000031B10E4800EBC20350F832009B880B8092
:104E1000704700BF10B5094B0022042A0AD053F88E
:104E20003240844204D103EBC204A4888C4202D0F5
:104E30000132F2E7FF2250B210BD00BF0C2805007E
:104E40001149086A80064FF001000AD50F4A13681D
:104E500043F4802313600A6842F480520A60886237
:104E6000002070470848016A89065CBF012070472E
:104E700006490A6822F480220A60016821F4805100
:104E800001600020704700BF040003400400074099
:104E900002281CBF012070470448016841F001014D
:104EA000016001688906FCD500207047240003409A
:104EB00090F87010012901D1022111E0242180F81D
:104EC000711001680A6822F00C020A600A6842F058
:104ED00004020A600021202280F8701080F87120FE
:104EE0000846704790F87010012901D1022111E0A5
:104EF000242180F8711001680A6822F00C020A600F
:104F00000A6842F008020A600021202280F870102E
:104F100080F8712008467047A8B310B5044690F891
:104F2000710028B9002084F87000204604F0D3FBFB
:104F3000242084F871002068016821F001010160DB
:104F4000204606F0D7F9606A10B1204606F058F8FE
:104F50002068416821F490414160816821F022017C
:104F60008160816841F008018160016841F00101C0
:104F7000016000202021606784F8711084F87000BF
:104F800084F8721010BD012070477047704770B5EB
:104F9000D0E90B304FF40054802504620024C46132
:104FA000C0E905440561C0E902440E68C968C0E96A
:104FB000006110261168D2681C6283E84600C3E9CC
:104FC0000345C3E90544DC61FDF7EAFC002070BD40
:104FD000B0B110B50446242084F837002068016879
:104FE00021F004010160204600F010FE0020E06383
:104FF00084F83700606284F8340084F8380010BD0B
:10500000012070477047C06B704790F838007047B8
:1050100090F8370070470000D0B310B50446006820
:10502000016841F0004101600120FDF759FE206850
:10503000016821F000410160016841F08041016098
:105040000168490004D50120FDF74AFE2068F7E712
:1050500094F8371031B9002084F83400204600F06D
:10506000D6FD2068242184F83710016821F004015E
:105070000160012194F8350002F084FD94F8362097
:1050800094F838301103102B04D141F00D0107E0E2
:105090000120704794F83830202B08BF41F00501FB
:1050A00063680BB90D4B6360B0FBF3F0801A0C4AD8
:1050B00002EB002040F2FF12904322689061122020
:1050C000116020215061106840F004001060002041
:1050D000E06384F83710606210BD00BF400D03002C
:1050E00000FAFFFF7047704770472DE9FC47044600
:1050F00090F83700202817D194F83400012813D0F5
:1051000001201D4616460F4684F83400FFF727FE9F
:1051100081460090204604210122192304F077FFE4
:1051200028B1002084F834000220BDE8FC8722204A
:105130004FF0000ADDF8288039464B4684F83700E6
:10514000102084F83800C4F83CA0E583A661C4F8B8
:1051500028A04246E08BA083204604F0BDFD80B32A
:1051600020684FF000410160202084F837000120C2
:1051700084F834A084F838A0BDE8FC8720680022B9
:105180004346C16841F08001C160E18B01294FF0C5
:10519000010108BF0D2141602046CDF8009080211B
:1051A00004F035FF0028DBD12068A1690069087090
:1051B000A0690130A061A08B0138A083E08B013889
:1051C000E083E08B0028D9D1202084F8370000202C
:1051D00084F8340084F83800BDE8FC87F8B504464C
:1051E00090F83700202808D10D462168C86840078C
:1051F00003D494F83400012801D10220F8BD222004
:1052000084F83700102084F838000020E063D0488C
:10521000E38320620120A26184F83400CD48A062BB
:10522000E08BB0F5807F02D3FF23A38302E0E38B02
:10523000A383FBB1206B78B1DFF80CC9224F0026A5
:105240003031C0E90C76C0E90EC6FDF7D9FC98B143
:10525000E06B40F0100002E0E06B40F08000E063A3
:10526000202084F83700002084F8340084F83800C7
:105270000120F8BD0020F8BDFFF771FD0346204670
:1052800029464FF47A7204F027FD40B12068E16BA3
:1052900041F00401E1634FF000410160E0E7A08BC1
:1052A000E18B091AE18321680A6842F070020A6002
:1052B0008A6842F400528A6088620020402284F8A2
:1052C00034004A60F8BD00BFC19B0000B0B5044681
:1052D00090F83700202803D194F83400012801D138
:1052E0000220B0BD10200D4684F838000020E06395
:1052F000C848E38320620120A26184F83400C648D4
:10530000A062E08BFF2894BFE08BFF20A083FFF713
:1053100026FD0346204629464FF47A7204F0DCFC51
:1053200060B1206804214160202084F8370000200B
:1053300084F8340084F838000120B0BD2220012216
:1053400084F837002168C86840F04000C860E08BEE
:1053500001284FF0000008BF0D224A6084F8340095
:105360008A6842F080028A60B0BD00BF2DE9FC4728
:10537000044690F83700202817D194F8340001280B
:1053800013D001201D4616460F4684F83400FFF75F
:10539000E6FC81460090204604210122192304F0F6
:1053A00036FE28B1002084F834000220BDE8FC87D6
:1053B00021204FF0000ADDF8288039464B4684F85A
:1053C0003700102084F83800C4F83CA0E583A661BB
:1053D000C4F828A04246E08BA083204604F0CAFC13
:1053E00070B3206804214160202084F83700012038
:1053F00084F834A084F838A0BDE8FC872068A1694F
:105400004346C26842F04002C2600022097801614E
:10541000E18B01294FF0010108BF052141602046C1
:10542000CDF80090402104F0F2FD0028D9D1A06908
:105430000130A061E08B0138E083A08B0138A083AC
:10544000E08B0028DAD1202084F83700002084F88F
:10545000340084F83800BDE8FC870000F8B5044645
:1054600090F83700202808D10D462168C868400709
:1054700003D494F83400012801D10220F8BD212082
:1054800084F83700102084F838000020E063F248E8
:10549000E38320620120A26184F83400EF48A06217
:1054A000E08BB0F5807F02D3FF23A38302E0E38B80
:1054B000A38323B30420C861E06A90B1DFF888C6F3
:1054C000254F0026C0E90C76C0E90EC601F1300672
:1054D00011463246FDF794FB98B1E06B40F01000A6
:1054E00002E0E06B40F08000E063202084F83700A9
:1054F000002084F8340084F838000120F8BD002032
:10550000F8BDFFF72CFC0346204629464FF47A727B
:1055100004F030FC40B12068E16B41F00401E1632C
:105520004FF000410160E0E7A08BE18B091AE183B5
:1055300021688A6842F400528A600A6842F0500288
:105540000A6088620020202284F834004A60F8BD96
:105550000000FFFF059E00004D9C0000B0B5044612
:1055600090F83700202807D12068C068400703D48E
:1055700094F83400012801D10220B0BD10200D465E
:1055800084F838000020E063E448E38320620120CF
:10559000A26184F83400E248A062E08BFF2894BF47
:1055A000E08BFF20A083FFF7DAFB03462046294665
:1055B0004FF47A7204F0DEFB60B120680421416090
:1055C000202084F83700002084F8340084F8380064
:1055D0000120B0BD2120012384F837002168A06993
:1055E000CA6842F04002CA6010F8012B0A61A28B1F
:1055F000012A08BF05234B60013AE38B013BE3839B
:10560000A0610020A28384F834008A6842F040023E
:105610008A60B0BD0000FFFF859E000070477047A4
:105620002DE9FE4F044690F83700202821D1DDF8FF
:1056300030A0BAF1000F1FD0DDF834B0BBF1000F7D
:105640001AD094F83400012813D001201E461546C4
:105650000F4684F83400FFF782FB81460090204615
:1056600004210122192304F0D2FC58B1002084F84F
:1056700034000220BDE8FE8F4FF40070E06301208B
:10568000BDE8FE8F22200E994FF000082A463346CF
:1056900084F83700402084F83800C4F83C80C4F80F
:1056A00018A0C4F82880A4F81EB08A46CDE90019D5
:1056B0002046394604F034FC10B184F83480DEE72B
:1056C000E08B394652464B46A083204604F004FB4B
:1056D00058B320684FF000410160202084F8370063
:1056E000002084F8340084F83800C8E7E08B0022FA
:1056F000534601284FF0010008BF0D202168486083
:1057000020464021CDF8009004F081FC0028E0D133
:105710002068A16900690870A0690130A061A08BB0
:105720000138A083E08B0138E083E08B0028DDD1D5
:10573000202084F83700002084F8340084F83800F2
:10574000BDE8FE8F2DE9FE43044690F8370020287F
:1057500011D1DDF82880B8F1000F0ED0DDF82C90C3
:10576000B9F1000F09D02068C068400703D494F84D
:105770003400012808D1022703E04FF40070E063F1
:1057800001273846BDE8FE8301201F4616460D4618
:1057900084F83400FFF7E3FA222132463B4684F8CE
:1057A0003710402184F838100021E163E449A4F85F
:1057B0001E902162E349C4F81880A162E18BFF29A1
:1057C00094BFE18BFF21A1831921CDE90010204670
:1057D000294604F0A5FB18B1002084F83400CFE777
:1057E000206BC0B1D8491E4A0027C0E90C27C0E988
:1057F0000E1742462168A38B1031FDF701FAB0B1B4
:10580000202084F8370084F8387084F83470E06B16
:1058100040F01000B3E7202084F83700002084F81F
:10582000380084F83400E06B40F08000A7E720687F
:105830006900016103214160A18BE28B511AE18370
:10584000816841F40051816084F83470416841F00E
:105850004001416095E700BF0000FFFF059E00008A
:10586000C19B00002DE9FE43044690F83700202834
:1058700011D1DDF82880B8F1000F0FD0DDF82C90A1
:10588000B9F1000F0AD02068C068400703D494F82B
:105890003400012808D10220BDE8FE834FF40070D7
:1058A000E0630120BDE8FE8301201E4617460D4639
:1058B00084F83400FFF753FA22213A46334684F83D
:1058C0003710402184F838100021E163CD49A4F855
:1058D0001E902162CC49C4F81880A162E18BFF2997
:1058E00094BFE18BFF21A1831921CDE9001020464F
:1058F000294604F015FB18B1002084F83400D0E7E5
:1059000021686800086103204860002084F83400A2
:105910008A6842F040028A60BDE8FE830000FFFF13
:10592000859E00002DE9FE4F044690F837002028A0
:1059300021D1DDF830B0BBF1000F1FD0DDF834A06D
:10594000BAF1000F1AD094F83400012813D00120C6
:105950001F4616460D4684F83400FFF700FA8146CC
:105960000090204604210122192304F050FB58B175
:10597000002084F834000220BDE8FE8F4FF4007050
:10598000E0630120BDE8FE8F2120DDF83880294644
:1059900032463B4684F83700402084F83800002027
:1059A000E063C4F818B04FF0000B2046C4F828B0EC
:1059B000A4F81EA0CDE9008904F0EBFA50B12068EC
:1059C00004214160202084F8370084F834B084F842
:1059D00038B0D6E7E08BA083204640210022434622
:1059E000E58BCDF8009004F012FBA5B10028E6D1BC
:1059F000A169206811F8012B0261E28B012A4FF0A6
:105A0000010208BF05224260A161E08B0138E083FA
:105A1000A08B0138DFE70028D1D1202084F837009F
:105A2000002084F8340084F83800BDE8FE8F0000C0
:105A30002DE9FE43044690F83700202811D1DDF807
:105A40002880B8F1000F0ED0DDF82C90B9F1000FCE
:105A500009D02068C068400703D494F834000128B6
:105A600008D1022603E04FF40070E06301263046BF
:105A7000BDE8FE8301201E4617460D4684F834001B
:105A8000FFF76DF921213A46334684F8371040215B
:105A900084F838100021E1635A49A4F81E9021626D
:105AA0002849C4F81880A162E18BFF2994BFE18BDB
:105AB000FF21A1831921CDE900102046294604F0D9
:105AC00068FA18B1002084F83400CFE7E06AC8B162
:105AD0001D491E4A0026C0E90C26C0E90E162168A1
:105AE000A38B01F110024146FDF78AF8B0B12020E6
:105AF00084F8370084F8386084F83460E06B40F054
:105B00001000B2E7202084F83700002084F8380025
:105B100084F83400E06B40F08000A6E720680321A1
:105B20004160A18BE28B511AE183816841F40051FD
:105B3000816084F83460416841F02001416096E75B
:105B40000000FFFF059E0000BD9B00004D9C000073
:105B50002DE9FE43044690F83700202811D1DDF8E6
:105B60002880B8F1000F0FD0DDF82C90B9F1000FAC
:105B70000AD02068C068400703D494F83400012894
:105B800008D10220BDE8FE834FF40070E0630120DD
:105B9000BDE8FE8301201D4616460F4684F83400FA
:105BA000FFF7DDF8212132462B4684F837104021DB
:105BB00084F838100021E1631249A4F81E90216294
:105BC0001149C4F81880A162E18BFF2994BFE18BD1
:105BD000FF21A1831921CDE900102046394604F0A8
:105BE000D8F918B1002084F83400D0E721680320E8
:105BF0004860002084F834008A6842F040028A60DD
:105C0000BDE8FE830000FFFF859E000070477047DF
:105C10000246012062B359B370B5D2E900328868F8
:105C2000B2FBF0F0C3F87001C868B2FBF0F0C3F843
:105C300050010A788D784C78CE78504340EA004085
:105C4000C3F84001042000EA85004A7962F3C300EA
:105C5000C3F82001C3F83041C4F3001066F34100DB
:105C6000C3F890010879C3F8A0010020BDE8704096
:105C7000704702460120A2B399B370B5D2E9000281
:105C80008B68B2FBF3F30362CB68B2FBF3F2C0F8AC
:105C900080200B788D784C78CE785A4342EA0242C5
:105CA0000267042202EA85024B7963F3C302C0F85B
:105CB000A02004F01F02C0F8904066F34512026174
:105CC0000A7902640A7C02F00F0202654A7C1AB16A
:105CD000897C41EA021100E0002101660020BDE854
:105CE0007040704790F85010012901D1022127E03F
:105CF000012180F8501090F8511049070CD5016827
:105D0000D1F8C02042F00102C1F8C02090F8511033
:105D100041F0160180F8511090F8511009070CD588
:105D20000168D1F8102142F00102C1F8102190F869
:105D3000511041F0160180F85110002180F85010E8
:105D40000846704790F85010012901D1022133E034
:105D5000012180F8501090F85110042912D10168E7
:105D6000D1F8C02022F00102C1F8C020D1F8B02043
:105D700042F00102C1F8B02090F8511001F0E901A1
:105D800080F8511090F85110082912D10168D1F80B
:105D9000102122F00102C1F81021D1F8002142F0B7
:105DA0000102C1F8002190F8511001F0E90180F8DA
:105DB0005110002180F850100846704710B5044675
:105DC00090F85000012804BF022010BD012084F883
:105DD00050002168A06CD1F8C02042F00102C1F847
:105DE000C020D1F8102142F00102C1F81021D1F8F1
:105DF000802442F00202C1F88024D1F8802442F0CD
:105E00000102C1F8802430B101680A6822F0010261
:105E10000A60FCF7E2FCE06C30B101680A6822F02D
:105E200001020A60FCF7D9FC2068D0F8001121F0CB
:105E30000101C0F80011D0F8B01021F00101C0F844
:105E4000B010012084F85100002084F8500010BDEB
:105E500030B310B5044690F8510040F0020084F8C9
:105E60005100A06C08B1FCF7FDFCE06C08B1FCF738
:105E7000F9FC2068D0F8B01021F00101C0F8B01092
:105E8000D0F8001121F00101C0F80011204600F007
:105E9000ACF80020606584F8510084F8500010BD13
:105EA000012070477047406D704790F8510070476F
:105EB0000168D1F81023D3071CBFD1F800335FEA83
:105EC000C37307D1920744BFD1F800235FEA8272FF
:105ED00019D47047D1F84024C36B04C3426C013A13
:105EE0004264C363426C002AF3D1D1F8002322F04C
:105EF0000102C1F8002390F8511001F0F70180F879
:105F0000511000F0E2B9026B08CAC1F80034836B8B
:105F1000013B83630263826B002ADAD1D1F800234C
:105F200022F00202C1F8002390F8511001F0FB01A9
:105F300080F8511000F02ABB002854D0F8B5044670
:105F400090F8510028B9002084F85000204600F055
:105F50004DF894F8510004F1080140F0020084F873
:105F600051002046FFF785FE04F11C012046FFF793
:105F70004FFE2168A06CD1F8B02022F00102C1F8D8
:105F8000B020D1F8002122F00102C1F8002188B12F
:105F9000002120224FF400634FF400758026102763
:105FA000C462C0E90271C0E90465C0E90632016259
:105FB000FCF7F6FCE06C80B1002120224FF4006376
:105FC0004FF400758026C462C0E90211C0E904657F
:105FD000C0E906320162FCF7E3FC002001216065A4
:105FE00084F85110F8BD012070477047704790F851
:105FF0005010012901D1022116E0012180F8501032
:1060000090F8511009070CD50168D1F8102142F021
:106010000102C1F8102190F8511041F0160180F8EA
:106020005110002180F850100846704790F8501029
:10603000012901D102211CE0012180F8501090F8C3
:106040005110082912D10168D1F8102122F0010263
:10605000C1F81021D1F8002142F00102C1F800215D
:1060600090F8511001F0E90180F85110002180F8FA
:1060700050100846704710B5044690F850000128AB
:1060800004BF022010BD012084F850002168E06C9C
:10609000D1F8102142F00102C1F81021D1F880247A
:1060A00042F00102C1F8802438B101680A6822F088
:1060B00001020A60FCF791FB2168D1F8000120F091
:1060C0000100C1F8000194F8510000F0F70084F8D5
:1060D0005100002084F8500010BDB0B504460120E6
:1060E000002944D0002A42D094F8500001283DD025
:1060F000012084F8500094F85100000733D4900830
:106100001D46206460640020606594F8510040F0F2
:10611000080084F85100E1632068D0F80011C90735
:1061200005D1D0F8001141F00101C0F80011D0F8FC
:106130002011490705D4D0F8101321F00101C0F84F
:106140001013616CA1B1204604212A4603F0D5FF4B
:10615000F0B92068E16BD0F8402404C1E163616CC0
:1061600001396164EDE7002084F850000220B0BDE1
:1061700094F8511001F0F70184F85110D0F8001193
:1061800021F00101C0F80011002084F85000B0BDDA
:106190000320B0BD70B5002856D00D460121002A5D
:1061A00058D0002D56D00446C06C002852D094F828
:1061B000501001294DD0012184F8501094F851104D
:1061C000090743D494F85110D44B244E41F00801F0
:1061D00084F851100021616591082164616421688F
:1061E000D1F8102122F00102C1F810211A4AE5630A
:1061F000C0E90C628363D1F82021520705D4D1F89D
:10620000102322F00102C1F81023236C01F58861EC
:106210002A46FCF7F5FC2068D0F88014C90705D0A1
:10622000D0F8801421F00101C0F88014D0F80011DA
:10623000C90705D1D0F8001141F00101C0F80011E3
:10624000002184F8501005E0012103E0002084F8CB
