:020000040000FA
:100000002C714120D5070000000000000000000016
:1000100000000000000000000000000000000000E0
:1000200000000000000000000000000000000000D0
:1000300000000000000000000000000000000000C0
:1000400000000000000000000000000000000000B0
:1007C000DFF80CD000F0FAFC0048004737120000B8
:1007D0002C7141200048804791EF0100EFF3108019
:1007E00072B6704780F31088704740BF644A136840
:1007F000012B04D04FF001031360624A1060624A7B
:10080000116062484FF0805101607047EFF3108231
:1008100072B65B48016851B34FF00001016059485E
:10082000016891B1EFF309811EF0100F08BF21EDAF
:10083000108B21E9F00F4FF000041EF0100F08BFDD
:10084000012441F8044D006801604F4909680968B6
:1008500008C9B1E8F00F002B18BFB1EC108B81F381
:1008600009884EF0100E002B18BF2EF0100E82F3E8
:1008700010884EF0040E704745484FF47F01D0F8C1
:10088000002041EA0201016070473F490860EFF330
:10089000148222F0040282F314883A494FF00000D7
:1008A000086037494FF00100086039484FF47F0174
:1008B000D0F8002041EA0201016034484FF0805135
:1008C000016034480068006880F3088861B662B649
:1008D000704720BF70471EF0040F0CBFEFF3088075
:1008E000EFF3098020E9F00F40F804ED40F804ED43
:1008F0001EF0040F0CBF80F3088880F3098800B550
:100900004EF00EFE5DF804EB4EF0040E70471EF044
:10091000040F0CBFEFF30880EFF3098020E9F00F1C
:1009200040F804ED40F804ED1EF0040F0CBF80F316
:10093000088880F3098800B54EF0F5FD5DF804EBFA
:100940004EF0040E704710B4EFF3038410B47C46ED
:1009500010B400B54DF804CD0FB4089C2DE9F00F8C
:1009600000B568464EF030FD01BCBDE8F00F0FBC8D
:100970005DF804CB5DF804EB10BC10BC10BCFEE7C6
:10098000D0674120206541202465412004ED00E02E
:1009900020ED00E008ED00E02DE9F05F05460020C5
:1009A00092469B4688460646814640241BE02846E0
:1009B00041464746224600F0FAFA53465A46C01AC4
:1009C000914110D311461846224600F0E1FA2D1A43
:1009D00067EB01084F4622460120002100F0D8FABB
:1009E00017EB00094E41201EA4F10104DFDC48464C
:1009F00031462A464346BDE8F09F00000649074AB3
:100A00000868504343F239021044086040087047B8
:100A10000149086070470000004441206D4EC64106
:100A200010B5431A934209D28318881803E010F8CE
:100A3000011D03F8011D521EF9D210BD40EA010349
:100A40009B0703D009E008C9121F08C0042AFAD284
:100A500003E011F8013B00F8013B521EF9D210BD32
:100A6000D2B201E000F8012B491EFBD270470022F0
:100A7000F6E710B513460A4604461946FFF7F0FF9D
:100A8000204610BD10B5044604E00B7800F8013B89
:100A900003B1491C521EF8D2204610BD421C10F86A
:100AA000011B0029FBD1801A704730B50446002095
:100AB000034600E05B1C934203D2E05CCD5C401B2C
:100AC000F8D030BD034611F8012B00F8012B002AA5
:100AD000F9D11846704730B505460020034600E0BE
:100AE0005B1C934205D2EC5CC85C201A01D1002C3F
:100AF000F6D130BD0022CBB20178994200D1024636
:100B0000401C0029F8D1104670472DE9FE4F804661
:100B100081EA0300C00F0C46009021F0004123F051
:100B20000045B8EB0200A94105D240462146904657
:100B30001C460B46024623F00040104347D0270DC9
:100B4000C7F30A00C3F30A510290401A01904028EB
:100B50006BDAC3F3130040F4801B0098924620B177
:100B60000023D2EB030A63EB0B0B01985946C0F14B
:100B70004002504600F00CFA06460D4650465946D3
:100B8000019A00F024FA10EB08006141002487EA82
:100B9000115284EAE7731A4340D0009A62B3019A73
:100BA000012A4FEA075215DC001B61EB02014FF0EE
:100BB000004202EA0752CDE90042001C41F58011D3
:100BC00032462B4600F05BFA03B0BDE8F08F40469A
:100BD0002146F9E7001B61EB0201001C41F580137F
:100BE00000185B412018A2F5001747EB030140EA0B
:100BF000D570B6196D4111E06D084FEA360645EA29
:100C0000C0754FEA0752001B61EB0201001C41F561
:100C1000801149084FEA30000019514132462B46F5
:100C200003B0BDE8F04F00F01BBA0098012240006D
:100C30000023D0EB020263EBE073009821464FEAF9
:100C4000E074B8EB000061EB0401E9E783F00043D6
:100C50005BE781F0004158E72DE9FE4F81EA03048C
:100C600004F0004421F0004100944FF0000B23F009
:100C7000004350EA01045ED052EA03045BD0C3F3A0
:100C80000A54C1F30A552C44A4F2F3340194A0FB96
:100C90000254C1F3130141F48011C3F3130343F46D
:100CA000801301FB024400FB034E840A970A44EAC6
:100CB000815447EA8357A4FB076802958D0A05FB18
:100CC00007854FEA932C04FB0C542705029D4FEA3D
:100CD000065847EA1637B5EB08056EEB070C870E8A
:100CE000920E47EA811742EA8312A7FB0201B6EB94
:100CF0000B0164EB00042B0D43EA0C335E1844EB4C
:100D00001C50DA465146E7FB0201C5F313044FEAD3
:100D10000B3343EA14534FEA0432019C43EA0603BF
:100D2000A4F10C040294009CCDE900B400F0A7F9F2
:100D300003B0BDE8F08F00200146F9E72DE9F04D42
:100D400081EA030404F0004B21F0004514464FF003
:100D5000000A23F0004150EA050220D054EA0102C3
:100D60001DD0C5F30A570246C5F31303C1F31300A0
:100D7000C1F30A5640F4801543F48013A7EB06082C
:100D8000101BD64608F2FD3873EB050002D308F1BC
:100D9000010801E092185B41B8F1000F03DA00206E
:100DA0000146BDE8F08D00204FF4801106468446D0
:100DB0000EE0171B73EB050705D3121B63EB05034E
:100DC00006434CEA010C49084FEA300092185B4197
:100DD00050EA0107EDD152EA030012D082EA040082
:100DE00083EA0501084305D0101BAB4106D201225E
:100DF000002306E000224FF0004302E06FF0010202
:100E000053101AEB06004CEB085110EB0A0041EBB3
:100E10000B01BDE8F04D00F023B930B5041E71F1AF
:100E2000000404DB4FF00044404264EB0101141E57
:100E300073F1000405DB1C464FF00043524263EBA4
:100E40000403801A994101D3012030BD002030BD38
:100E500030B5041E71F1000404DB4FF00044404241
:100E600064EB0101141E73F1000405DB1C464FF016
:100E70000043524263EB0403101A8B4101D201205C
:100E800030BD002030BD30B5041E71F1000404DB1C
:100E90004FF00044404264EB0101141E73F1000462
:100EA00005DB1C464FF00043524263EB0403101A6B
:100EB0008B4101D3012030BD002030BD30B5041E70
:100EC00071F1000404DB4FF00044404264EB010187
:100ED000141E73F1000405DB1C464FF00043524220
:100EE00063EB040342404B401A4301D0002030BD65
:100EF000012030BD70B5C1F30A5201F00045002455
:100F0000C1F3130140F2FF3341F480119A4201DA38
:100F1000002070BD40F233439A42A2F2334203DC18
:100F2000524200F044F800E090402C43F1D040429F
:100F300070BD00F0004230F000400AD0C10D01F554
:100F40006071C0F3160042EA0151C2084007114324
:100F5000704700200146704701F0004330B421F093
:100F6000004150EA010206D00A0DA2F56072C1F3F9
:100F70001301002A02DC30BC00207047440F44EA11
:100F8000C104C100E01830BC00EBC25000F031B821
:100F9000202A04DB203A00FA02F100207047914039
:100FA000C2F1200320FA03F3194390407047202A2E
:100FB00004DB203A21FA02F00021704721FA02F303
:100FC000D040C2F120029140084319467047202AC0
:100FD00006DBCB17203A41FA02F043EAE07306E061
:100FE00041FA02F3D040C2F1200291400843194671
:100FF00070470029A8BF7047401C490008BF20F077
:101000000100704710B4B0FA80FC00FA0CF050EA0E
:10101000010404BF10BC704749B1CCF1200421FA8F
:1010200004F411FA0CF118BF012121430843A3EB8A
:101030000C01CB1D4FEA00614FEA102042BF002097
:1010400010BC704700EBC35010440029A4BF10BC73
:101050007047401C490008BF20F0010010BC7047D9
:1010600010B5141E73F1000408DA401C41F10001B0
:1010700092185B411A4301D120F0010010BD2DE907
:10108000F04D92469B4611B1B1FA81F202E0B0FAFE
:1010900080F220329046FFF77BFF04460F4640EA7D
:1010A0000A0041EA0B0153465A46084313D0114641
:1010B00053EA010019D0C8F140025046FFF777FF0C
:1010C00005460E46504659464246FFF761FF084323
:1010D00005D0012004E020463946BDE8F08D00200F
:1010E000054346EAE0762C4337430A986305E40A51
:1010F000A0EB08000022FD0A44EA47540A3002D55A
:1011000000200146E9E7010510196941DDE90845BC
:1011100000196941BDE8F04DA2E72DE9F04D00232B
:101120001A461B1A8A4103DB00200146BDE8F08DF8
:10113000C1F30A52C1F3130141F480154FF0000BC3
:10114000D10702D100186D41521E0027044640F21B
:10115000FF11384601EB620A3E46804602460020F7
:101160004FF48011FFF723FFC2197141BB1846EB02
:101170000100B4EB030C75EB000C04D3E41A65EB2F
:10118000000517460E46241908F101006D418046FE
:101190003428E3DDF91946EB0600091BA84103D208
:1011A0004FF0FF32134601E0002213461BEB07000D
:1011B00046EB0A51BDE8F04DFFF752BF064C074D14
:1011C00006E0E06840F0010394E807009847103417
:1011D000AC42F6D3FFF7F8FAD0E30500F0E30500E0
:1011E00070B58C1810F8015B15F0070301D110F8E9
:1011F000013B2A1106D110F8012B03E010F8016B16
:1012000001F8016B5B1EF9D12B0705D40023521E98
:101210000DD401F8013BFAE710F8013BCB1A921C00
:1012200003E013F8015B01F8015B521EF9D5A142FE
:10123000D8D3002070BD80B553F051FE002080BD92
:1012400070B5002208230024002B0FD450F823503F
:1012500051F82360641942F10005A41940F82340B5
:1012600045F10004013B04F00104EDE7BDE87040E6
:1012700057F004BBF8B51446002208230025002BC4
:101280000FD450F8236051F82370AD1942F10006D5
:10129000ED1944F8235046F10005013B05F0010526
:1012A000EDE7204657F0EAFA0020A062F8BD000002
:1012B00010B51446FFF7DEFFA06A20B12046BDE856
:1012C000104000F00DB84149204614F032FB28B11F
:1012D0003E492046BDE8104001F0EEBD10BD00BF04
:1012E000B0B58CB0044601AD384821462A4601F01D
:1012F0007BFD204629462422FFF792FB0A99002015
:10130000C4E909100CB0B0BDF0B58BB00446806ADA
:1013100000B32E4D2046294614F0F3FA80B308207E
:101320000021002200283AD455F8206054F82030DB
:10133000B718921941F100069A1AA3EB070771EB4F
:10134000060244F82070A0F101004FF0000238BFFF
:101350000122E7E71D4A00200821002300291ED4AE
:1013600054F8215052F821605B1940F100059B1997
:1013700044F8213045F10003013903F00103EDE7A2
:101380006D46124821462A4601F02EFD2046294688
:101390002422FFF745FB09990020C4E90910002029
:1013A000002109290BD054F821205FEA50004FEAB0
:1013B000320044F8210002F001000131F1E720463B
:1013C0000BB0BDE8F04057F059BA00BF2CA20500A1
:1013D000F0B597B007AC01AD07AE0FC41D9831460C
:1013E00013ACADF818001C98224605902198049083
:1013F000209803901F9802901E980190284601F0B3
:10140000D2F828462146224601F0EFFB0FAD05A891
:10141000294601F0CFF9204629462A4601F0B8F8BE
:101420000BAF3046394601F01BFB284639462246B1
:1014300001F0E6F8DDE922200021042903D0635CF5
:1014400053540131F9E7211D00220C2A04BF17B0C3
:10145000F0BD8B5C83540132F7E7B0B58EB002ACBF
:101460000FC4139900220AAB149CADF80410129912
:10147000009102A901310F2A03D09854885C0132EF
:10148000F9E780F0060006AD8DF83700684629467A
:1014900001F090F90AA92846224601F0B1F80EB0F1
:1014A000B0BDF0B593B007AC0FC4199901ABDDE93D
:1014B0001E42ADF818101899254605911D99049102
:1014C0001C9903911B9902911A9901910FA90E463B
:1014D0002DB113F8017B013D06F8017BF8E70D19EA
:1014E000002605AFA319052E98BF102B03D2BB5DB4
:1014F000AB550136F6E700241D46102D08D20E5DCF
:101500004E551E1B0135013E18BF661C3446F4E7DC
:1015100007A900240BAD01310F2C03D02855085D1D
:101520000134F9E758400FA98DF83B000BA801F0F2
:1015300067F813B0F0BD70B598B008AC14AD0FC427
:101540001E9808A92A4601AC07901D9806901C9881
:1015500005902298049021980390209802901F985B
:101560000190204601F01FF8204629462A4601F046
:101570003CFB239C002005A910AA0023102B08D0B7
:101580000D5CD554451C0133B5F10C0018BF28463D
:10159000F4E710AD14A829462A4600F0F9FF0CAE76
:1015A00008A8314601F05CFA28463146224601F08F
:1015B00027F818B070BD00002DE9F04FADF5277D7C
:1015C0000E460546104684211446FFF750FA9CA8A3
:1015D0002C21FFF74CFA91A82C21FFF748FA86A896
:1015E0002C21FFF744FA7BA82C21FFF740FA70A8C2
:1015F0002C21FFF73CFA65A82C21FFF738FA5AA8EE
:101600002C21FFF734FA4FA82C21FFF730FA44A819
:101610002C21FFF72CFA39A82C21FFF728FA2EA845
:101620002C21FFF724FA23A82C21FFF720FA2846C3
:1016300000F0D0FB0746304600F0CCFB17B120B1DC
:10164000C74803E050B1284600E03046214600F08C
:10165000C3F800200DF5277DBDE8F08F3046294600
:1016600006F12C0705F12C0A4BF0B6FF002800F01C
:10167000978005F15809DFF8E0B29CAA384606F1D8
:1016800058084946D84791AA50464146D84786AFA0
:10169000304649463A46D8477BAE28464146324610
:1016A000D847384631464BF097FF002800F0888035
:1016B00004F15800A74D91A970AA019004F12C00E3
:1016C00000909CA8A84765AF86A87BA93A46A84782
:1016D0004FAA48464146D84718A82C21FFF7C7F91A
:1016E0000DA82C21FFF7C3F90DF1080A2C21504653
:1016F000FFF7BDF944AE384639463246D84739ADD2
:10170000304639462A46D8470DF1B80870A8014638
:101710004246D8470DF18C0930467BA94A46D84746
:1017200048460221524601F086FA18AE40464FA9BB
:101730003246D84729460DADDFF8188230462A4692
:10174000C0475AAE284651463246C0473846314611
:101750002246D84718AF2C213846FFF788F90DAC40
:101760002C212046FFF783F902AD2C212846FFF7F4
:101770007EF9484631463A46C04770A83946224667
:10178000D84739AE91A92A463046D847009A204614
:101790002946C047019A30464FA9D847012059E74A
:1017A000384651464BF018FF00287FF449AF306DA2
:1017B00001283FF65EAFF06C00287FF45AAF3FE798
:1017C0009CA891A94BF008FF00287FF439AF284668
:1017D000214600F025F83CE7B0B505460C46084622
:1017E00024222946FFF71CF9D5E909012422C4E97E
:1017F000090104F12C0005F12C01FFF711F9D5E9DD
:1018000014012422C4E9140104F1580005F158011F
:10181000FFF706F9D5E91F01C4E91F01B0BD0000BB
:101820002DE9F04FF9B00646006D8B46012801D82E
:10183000F06C18B1304600F0CDFA20B14848594656
:10184000FFF7CAFF81E006F1580563AC304606F1A8
:101850002C0729462246FFF72BFD0DF5B0783D4BAE
:1018600030462946424698470DF59A79DFF8E8A0B8
:10187000204641464A46D0470DF5DC78374B48466E
:101880000321424698470DF5C679384629464A460F
:10189000D0474DAC384649462246D04758AA304634
:1018A00021461646D04742AC404641462246D047E4
:1018B00037ADDFF8A880304608212A46C0474DAE34
:1018C000244B204629463246984742AC304649468A
:1018D0002246D047204602215A46C04737AC3846F8
:1018E000394646462246D04742AD484649462A46F2
:1018F000D0470DF1B00820462946A9464246D047B8
:1019000021AD404608212A46B04716AC58A804210C
:101910002246B047B0460BAE0E4F20464DA9324688
:10192000B8476C466EA831462246D0470BF12C02D0
:1019300020462946B84737AC484663A92246D047D7
:101940000BF1580220460821C047002079B0BDE8BD
:10195000F08F00BF2D2E00006D2C0000372C0000F2
:10196000D4A40500F0B58BB0184F054614460E46BA
:10197000F87DFF2809D003F0C9FEF97D1022C900C7
:1019800002FA01F1084303F0CFFE05F15800694661
:1019900002F08AFDF87DFF2809D003F0B7FEF97D3B
:1019A0001022C90002FA01F1884303F0BDFE6F4620
:1019B00028463246394601F059F905F12C003946DE
:1019C000224601F053F90BB0F0BD00BF7446412030
:1019D000B0B588B01548056815480168C90717D122
:1019E00000F580500121019001A800F0C9F9D0B1A3
:1019F00004461048844204D30FA016A1BD224CF027
:101A0000F3F9A4FB05010B4A0023FEF7C5FF0BE029
:101A1000E80B4FF47A716FF3DF3505FB01F24843B1
:101A200000EBD23000E0E80808B0B0BD440004503C
:101A300000A00450007C920076203C2028343830EE
:101A40003030202A204C58545F4C505F4359434C4F
:101A50004529000048414C5F4765745469636B0039
:101A6000014951F82000704730B0045080B500F0B3
:101A7000DBF800F0D7F8032000F04AF8002000F06F
:101A800004F8002818BF012080BD00207047000026
:101A90000448016841F0040101600168B1F1FF3FB1
:101AA000FBDC70470C00045001281CBF012070476C
:101AB0000448016841F00101016001688906FCD514
:101AC000002070472800045070470000102A00D3FF
:101AD000FEE7102900D3FEE770B5154B4FF0FF3538
:101AE0001B68C3F302231C1F83F0070338BF0024C5
:101AF000032B28BF032305FA04F605FA03F3B243C8
:101B00009943A1401143BDE8704001F049BA00BFBC
:101B1000C11E05290AD206494FF6FF030A681A407A
:101B200060F30A220348104308607047FEE700BFD5
:101B30000CED00E00000FA050B480C4900688842F3
:101B400018BF70470048004701000E1C0649074AAD
:101B5000086890421CBF0020704701F108004968E6
:101B60000022C90800F004B800FF0E1C484354507E
:101B70002DE9F0432A4B002516464FF0010C4FF09B
:101B80000008002AC3F880509E46164B18BF012655
:101B90009946A9421BD00CFA05F707EA0204B4FAE9
:101BA00084F46409344210D150F835404B4648EA79
:101BB0000708734604EA09044EF8254000EBC50403
:101BC000CEF884706468CEF888400135E1E70020E3
:101BD000002ACEF88400404608BF4246CEF8802056
:101BE000BDE8F083FCFF070070B5034600200C4CF5
:101BF0000DE0D4F88050C540ED070CD054F82050CB
:101C000003EBC00643F8305001302D6875601F2883
:101C100098BF8842EDD3D4F88010116070BD00BF2A
:101C2000004000507047000080B5FFF731FF0A48C0
:101C30000222016841F00101016008490A80032283
:101C4000016841F0100101600120012100F05CF801
:101C5000BDE88040FFF738BF100000509C44412091
:101C600010B50446002808BF0224204600F014F8EE
:101C70000849012C06D0022C03D101F180513F22EA
:101C800001E0FEE7FF220968114008BF0121B0FB17
:101C9000F1F010BD14000040012807D1054800688C
:101CA00000F00300032808BF00F006B800487047A2
:101CB000006CDC0210000040012000F001B80000C0
:101CC0000E49012806D0032803D0022814D104317C
:101CD00000E008310868C1070ED0C0F38301084A4C
:101CE0005143084A531C994206D20123511A23EA50
:101CF000503001FA00F07047002070471C0000408F
:101D000000366E0100B0710B10B50023002820EAE8
:101D1000E074C8BF3F23B1F1FF3FC8BF03F5E063E4
:101D2000B2F1FF3FC8BF03F5E043B1F1FF3FC8BFC9
:101D300044EA0124B2F1FF3FC8BF44EA0234A3B130
:101D40000D49012803D10A6842F040020A600A687E
:101D5000012822EA030242EA04020A6005D00028B0
:101D600003D4086820F0400008600220FFF778FFE5
:101D70000249086010BD00BF1400005028444120F3
:101D8000006800EB8100006B704700006FF00401F9
:101D9000084200D0FEE70D4904280A6822F0040337
:101DA00008BF42F004030B60704700BF411E0020D3
:101DB000B0EB116F1CBF01207047044AE023516053
:101DC00003490B70072190601160704710E000E03C
:101DD00023ED00E0B0B50C4D044629464BF0FCFB6A
:101DE00030B904F12C0005F12C014BF0F5FB08B1E2
:101DF0000020B0BD04F1580005F158014BF0ECFB98
:101E0000B0FA80F04009B0BDD4A405002DE9F04F30
:101E1000BFB033AC0FC4DDE94868102E0BD233AD30
:101E2000284600F056FE0020102810D0295C08F843
:101E300000100130F8E7002033A9102804BF3FB09C
:101E4000BDE8F08F0A5C08F800200130F5E7DFF804
:101E50002807711E37AB229100EB011000211029D9
:101E600003D0425C5A540131F9E79DF8EB009DF82C
:101E7000EA509DF8E9309DF8E5209DF8E3C09DF813
:101E8000E0409DF8DCE09DF8DD109DF8DEB09DF8A7
:101E9000DFA04FF0FF3732909DF8E80028909DF8C2
:101EA000E7002F909DF8E60027909DF8E4002E9023
:101EB0009DF8E20026909DF8E100309031914FFAB4
:101EC0008EF1B1F1FF3F68DD1846329B6E00D9B24A
:101ED0005B0046EAD11146002D91E9B2650046EA61
:101EE000D1112C91C1B22898460046EAD1112B910C
:101EF000C1B22F98460046EAD1112A91C1B2279863
:101F0000460046EAD11156002991C1B246EAD110E5
:101F1000D1B225902E98460046EAD1112491C1B243
:101F200038464FEA4C0747EAD11123915FFA8CF10A
:101F3000269A570047EAD116D1B2309A570047EA9D
:101F4000D119D1B22246074645EAD114D0B24FEAA0
:101F50004A0152465D46013F41EAD01AD0B2319A59
:101F60004FEA4B01329341EAD01BE8B22BAD51004E
:101F700041EAD011D0B2C00940EA4E0E29CD2890D6
:101F80002A982F9029982790DDE924022E90DDF8D9
:101F90008CC02696CDE9309191E732982B952A9303
:101FA00029468DF8EA5055468DF8E930A1468DF85E
:101FB000E0408DF8DCE08DF8E5208DF8E3C059466F
:101FC000289E279BDDF898A0AB468DF8DF508DF852
:101FD000EB002F980C468DF8DE108DF8E8608DF838
:101FE000E6308DF8E2A08DF8E7002E988DF8E40039
:101FF0003098CDF8A4E031992F9D8DF8E1008DF84F
:10200000DD1000212D9180212C91DDF8B8E02B9876
:10201000002F00F0E78028972D992C9F2B9018F81F
:1020200001100F4267D02F95CDF8B8E098F8001056
:1020300010461A46334698F8016098F803E098F87D
:102040000250299F794088F80010319971401E464E
:10205000134602468EEA0B00DDF8B8E088F803006C
:1020600098F8040088F8011085EA04012F9D88F88B
:102070000210309980EA090088F8040098F80500F9
:1020800048402A9988F8050098F8060080EA0A0076
:1020900088F8060098F8070080EA0C0088F8070026
:1020A00098F8080080EA0E0088F8080098F80900FF
:1020B000504088F8090098F80A00584088F80A004B
:1020C00098F80B00684088F80B0098F80C007040F6
:1020D00088F80C0098F80D0048402B9988F80D00FE
:1020E00098F80E004840329988F80E0098F80F00D2
:1020F000484088F80F002C992D9801294FEA51018A
:1021000008BF01302D9008BF80212C91E0B2319F93
:10211000F90141EA5000E1012F905FFA8BF041EAAA
:1021200050004FEACB112E905FFA89F041EA50003F
:102130004FEAC9112790309CE0B241EA50095FFA9A
:102140008AF0E10141EA50004FEACA1130905FFA8B
:102150008CF041EA500A5FFA8EF04FEACC1141EA66
:1021600050004FEACE112690D0B2D20141EA500E73
:10217000D8B22A9CDB012B9942EA500CEAB2ED015D
:10218000304643EA5203F2B24FEAC41B45EA520614
:10219000E2B2329CC501384645EA5205CAB2C901CD
:1021A000E7B24BEA520241EA57013291C1B2299C8F
:1021B000490841EAC410E1B231904808289F2990AB
:1021C0002A9510461D4663467246D446DDF898E0CF
:1021D000DDF8C0A0CDF8C090DDF89C90DDE92EB40C
:1021E000013715E7E548229AE5A13BAB002537AF5B
:1021F00000EB0210895C0022102D08D018F8056051
:1022000008F805207E55465D5E550135F4E7481C0B
:102210009DF8EB109DF8E6B09DF8EF709DF8F390F7
:102220009DF8F4A09DF8F5E09DF8F6C09DF8F760E4
:102230009DF8F8509DF8F9309DF8FA2031919DF8FD
:10224000EA1024919DF8E9101D919DF8E810239162
:102250009DF8E71022919DF8E51030919DF8E4106B
:102260002F919DF8E3102E919DF8E2102D919DF88D
:10227000E1102C919DF8E0102B919DF8DC10289135
:102280009DF8DD1026919DF8DE102A919DF8DF1053
:1022900029919DF8EC1027919DF8ED1021919DF862
:1022A000EE1025919DF8F01020919DF8F1101F91EE
:1022B0009DF8F2101E919DF8FB103291002800F05D
:1022C000558116A9013881E86850CDF86CA0CDE998
:1022D00014721C905B46DDE922653298DDF8A0E0BF
:1022E000DDF898C0249F1D9CC0075BD098F80000C3
:1022F00098F8011098F8022098F803A080EA0E00E0
:1023000088F8000081EA0C002B9988F801002A98CF
:10231000504088F80200299880EA0A0088F80300F3
:1023200098F8040048402C9988F8040098F80500B3
:1023300048402D9988F8050098F8060048402E99E5
:1023400088F8060098F8070048402F9988F8070099
:1023500098F808004840309988F8080098F8090073
:102360004840319988F8090098F80A00584088F8E0
:102370000A0098F80B00704088F80B0098F80C00E1
:10238000684088F80C0098F80D00604088F80D004F
:1023900098F80E00784088F80E0098F80F00484032
:1023A00088F80F00DDF8C4B079005FFA8BF041EADD
:1023B000D01061001390F8B241EAD0106900129079
:1023C000E0B241EAD01071001190E8B241EAD010B9
:1023D00059001090F0B241EAD0100F90D8B2309A64
:1023E000510041EAD0100E90D0B22F9A510041EA2C
:1023F000D0100D90D0B22E9A510041EAD0100C901E
:10240000D0B22D9A510041EAD0100B90D0B22C9A44
:10241000510041EAD0100A90D0B22B9A510041EA03
:10242000D0100990D0B2299A510041EAD0100890FA
:10243000D0B22A9A510041EAD0104FEA4C010790DD
:10244000D0B241EAD0104FEA4E0106905FFA8CF00C
:1024500041EAD0102890219B2799D8B2400840EA41
:10246000C1100590259AD0B2400840EAC3100490EC
:10247000DDF850C05FFA8CF0400840EAC2100390CB
:10248000209AD0B2400840EACC1014901F9BD8B2DA
:10249000400840EAC21002901E9AD0B2400840EABA
:1024A000C31001905FFA89F0400840EAC210009022
:1024B0001B9A1A9B169CD0B2400840EAC91AD8B29F
:1024C000DDF85490400840EAC21E199AD0B2400884
:1024D00040EAC31C189BD8B2400840EAC216179ABB
:1024E000D0B2400840EAC315E0B2400840EAC21347
:1024F0005FFA89F0400840EAC412329C58465FFAFD
:1025000084FB04464FEA5B07640047EAC910CFB278
:1025100032907808319427901398249012981D9047
:102520001198239010982290DDE90E0B30900D98B1
:102530002F900C982E900B982D900A982C9009981B
:102540002B900898299007982A900698269005982D
:102550002190049825901498039F209002981F9032
:1025600001981E90DDF800901C98A7E640463FB009
:10257000BDE8F04F00F0ADBAB99D0500B99E050069
:1025800077706860584D473F312A231C150E0700AD
:10259000B0B50023102B08BFB0BDC45CCD5C2C448B
:1025A000D4540133F6E7F0B589B0144600228DF813
:1025B0000220102A03D0835CA3540132F9E70DF105
:1025C00013050846294600F0D9F908270DF102063F
:1025D00037B120462946324600F050F8013FF7E770
:1025E0000DF103050DF113000DF10202294600F073
:1025F000FFF920462946224600F002FB09B0F0BD53
:102600002DE9F0418EB0144600220DF116038DF82D
:102610000520102A05D0855CA554855C9D540132A7
:10262000F7E70DF127050846294600F0A7F900262F
:102630000DF116080DF10507022E02D0082E05D166
:102640000BE020464146224600F0DAFA20462946B1
:102650003A4600F013F80136EEE70DF106050DF1EC
:1026600027000DF10502294600F0C2F9204629464F
:10267000224600F0C5FA0EB0BDE8F0812DE9F04722
:1026800088B0EA460446894608469046514600F01E
:10269000AFF920465146224600F0B2FAEF49394AD6
:1026A00000200F280ED8235CCB5C23542318043061
:1026B0005E78DD789F78965D4D5D5E70D65DDD70ED
:1026C0009E70EEE748465146424600F091F90020E0
:1026D000102818D2215C1AF800200AEB000677783F
:1026E000B578F67811442154211804304A788B7853
:1026F00091F803C07A404A7085EA03028A7006EBBB
:102700000C02CA70E4E74FF0000C1AA104AABCF155
:10271000030F1ED000230F2B09D8E618E55C77784D
:1027200007EB4500E054781902337070F3E700239B
:10273000102B03D0E05CD0540133F9E70023102BB9
:1027400004D0C85C105CE0540133F8E70CF1010CD4
:10275000DDE700200F2884BF08B0BDE8F08722180D
:10276000215C537803EB4105194451702554023024
:10277000F0E700BF080B0C0F020106050A090E0D59
:1027800000070403B99F050043F206310840401AD0
:1027900018BF0120704700B952B900EA01024CF697
:1027A000F843084343F20E311A40084040EA020160
:1027B0000846704710B500220023102B08BF10BD3B
:1027C000845CCC54541C0133A21F18BF2246F4E78A
:1027D00020F07F0110200AB2002A03D410B1013882
:1027E0004900F8E7C0B27047C1F3C20201F0070127
:1027F000805CC84000F00100704700002DE9F04106
:10280000DFF87C80064614460D460027D8F84800BD
:1028100010B1FEF743F900E000202070B781B760E7
:10282000776037600E2F0CD0E819F72809D8217887
:10283000884206D2D8F848002844C05DF0550137D8
:10284000F0E7BDE8F08100BF0A4890F856007047F5
:10285000084910224631FEF7E3B800BF05491022AF
:102860002631FEF7DDB800BF024910223631FEF7EF
:10287000D7B800BF045C41200148807F704700BF8B
:10288000606341202DE9F8431D460C9B032B84BF58
:102890000020BDE8F88314460246DDE90A60DDE960
:1028A0000889DFE803F0020A122B0978B9B302297C
:1028B00037D001293BD012203CE0318832B90629BB
:1028C0003CBF1E20BDE8F88300E0318821F0010103
:1028D00031801CF0CDFA284940F2712248433188FA
:1028E0005143B0FBF1F0206000202860C8F80010D0
:1028F0004FF0FF31C9F80010BDE8F88308780128CF
:102900001CBF2020BDE8F8833088002102303080D1
:1029100080B2C82888BF01214801BDE8F883C820DB
:1029200006E01CF0A5FA21684A1C022A15D22820CC
:1029300030800020D8F800104A1CEED040F27122FE
:10294000B1FBF2F1328821F001019142E5D2052973
:1029500098BF06213180BDE8F88340F271225143CF
:10296000054A5043B0FBF1F04FF6FE7108400628CF
:1029700098BF0620DCE700BF40420F0010B50022E0
:102980000023102A05D0845C8C54845C013263409F
:10299000F7E70B7410BD1CB5ADF8041000900020D3
:1029A0006946062808BF1CBD0B5C14181354A3719C
:1029B0000130F6E7B0B504460025102D08BFB0BDC4
:1029C000FEF71CF860550135F7E700F01E0100F432
:1029D000706200F47040063918BF0121B2F5407FE3
:1029E00018BF0321B0F5405F18BF052108467047A6
:1029F000F0B585B0144605460A4600212078102916
:102A000007D0102888BF00202B5C013053540131BF
:102A1000F5E7207890B100EB0010104B002101AEDB
:102A20001230102906D04718FFB2DF5DDF5D775402
:102A30000131F6E701A91046FFF7AAFD0020112891
:102A400006D0295CCA0042EA511129540130F6E748
:102A500020780130207005B0F0BD00BFB99C0500A2
:102A60000278173A0A70427882F0E5024A7082785A
:102A7000213A8A70C27882F0C102CA7002794D3A56
:102A80000A71427982F0A7024A7182796B3A8A719F
:102A9000C27982F08302CA71027A82F0E9020A7274
:102AA000427A1B3A4A72827A82F0DF028A72C27AD2
:102AB0003F3ACA72027B82F0B3020A73427B593AF0
:102AC0004A73827B82F095028A73C07B7D38C8731B
:102AD000704784B000226946102A03D0835C8B546F
:102AE0000132F9E70F22531C04BF04B070478B5C1E
:102AF000013A00F8013BF6E70288052922F0E103DC
:102B0000038006D003290BD14FF440714FF21E030E
:102B100003E04FF4405140F61E731A401143018008
:102B20007047F0B501F002050124860752B284EA2D
:102B300055044FEA440448BF022411F0040104F193
:102B4000040608BF3446470748BF3446002D04F545
:102B5000807608BF3446C70548BF3446002A58BFB0
:102B60003446002944F4007608BF3446870548BF40
:102B70003446002A58BF344613F0010344F480520F
:102B800008BF1446002D08BF1446C50448BF1446AC
:102B9000002B44F4005208BF1446002908BF144615
:102BA000800448BF1446A0B2F0BD10B500F0180272
:102BB0004405134661F38A2358BF13461A46040599
:102BC00061F3CB2258BF1A464B08144663F38E3488
:102BD000430458BF14468907214648BF41F40041C9
:102BE000000458BF214688B210BDB0B50023102B99
:102BF00008BFB0BDC45CCD5C6C40D4540133F6E773
:102C0000F0B500230F2B88BFF0BDC45CCD5CCE189F
:102C10006C40D454C418657877783D44D718043391
:102C20007D7094F802C0B5786544BD70E478F5789D
:102C30006C40FC70E6E770B514460546082000229B
:102C4000002809D455F820300026E3FB012644F87B
:102C5000202001383246F3E7204655F00FFEA86ADF
:102C6000A0622046BDE8704056F0D0BA2DE9F04F82
:102C70009FB00DF12C0A894683465021904650465C
:102C8000FDF7F5FE09F120000AF144010822B2F136
:102C9000FF3F13DD5BF822300024002714F1080504
:102CA00009D451F8245050F82460E6FB635741F8EA
:102CB0002450013CF2E70439013AE8E70022122AE5
:102CC00004D05AF8220008B90132F8E7D9F82800F0
:102CD000DBF82810C2F1120300261D930C1A18BF4E
:102CE00001241E945AF82610701C082E02D80029C0
:102CF0000646F7D0082B0A9415D8471E0A2A15D184
:102D0000204C0AF128020023082B0CD004EB830688
:102D100052F823500133B66AAE42F5D003D305E032
:102D20005AF8201001300029FAD0471E6E460AEBEF
:102D3000870124223046FDF773FE304655F09EFD94
:102D400007F10904371D304656F060FA112C0CD8F3
:102D5000304639462022FDF763FE5AF824000890D9
:102D6000304655F08BFD0134EDE76946404624229C
:102D7000FDF756FEDDE90901C8E909011FB0BDE80C
:102D8000F08F00BF68E3050000F00F01000900EBC1
:102D9000800001EB4000C0B2704701460A220928BA
:102DA00098BF0921B1FBF2F202EB8203A1EB4303CE
:102DB000591A084440EA0210C0B27047B0B5044640
:102DC0000068C16841F48061C160FEF701FE0546FC
:102DD0002068C068800505D4FEF7FAFD401BB0F5F9
:102DE0007A7FF5D90020B0BDF0B5944600230824C1
:102DF0000025002C14D451F8247050F824607A195E
:102E0000B21A4CF824207A19A4F1010443F1000508
:102E1000B21A73EB05024FF0000538BF0125E8E751
:102E20006046BDE8F04055F029BD000070B506468B
:102E30000D46886A1446B16A41B170B128463146E0
:102E400012F077FD78B12846314616E070B1304671
:102E500029462246FEF70EFA12E03046294622465F
:102E6000FEF708FA1FE03046294619E030462946A9
:102E700012F05FFD90B1304629462246FFF7B4FFBD
:102E800000200C49A062204612F053FD28B10949E8
:102E90002046BDE8704000F00FB870BD28463146AE
:102EA0002246FFF7A1FF0120A0622046BDE8704046
:102EB000FEF716BA2CA20500F0B500220823002464
:102EC000002B15D451F8236050F823503719A4195A
:102ED00042F100062C1BA5EB070772EB060440F835
:102EE0002370A3F101034FF0000438BF0124E7E78A
:102EF000BDE8F04055F0C2BC70B58CB004460D463C
:102F0000886AA16AB1B1B0B12846214612F011FD1C
:102F1000E8B101AE284621463246FFF765FF20465C
:102F200031462422FDF77CFD00200A996162A062EF
:102F30000CB070BD30B1204629460CB0BDE87040E1
:102F4000FEF77EB92046294612F0F3FC30B1204648
:102F500029460CB0BDE87040FFF7AEBF01AE284671
:102F600021463246FFF740FF204631462422FDF736
:102F700057FD0120D9E7704780B588B004AF0FC76F
:102F80000D980E9A694603900C9802900B98019048
:102F90000A98009004A8FFF728FE08B080BD000042
:102FA00010B500F00F03064C044AB0F1FF3F234474
:102FB000C8BF83184801187010BD00BF00E400E0CE
:102FC00014ED00E018B1C1B219B101200EE00020EB
:102FD000704710F47F4102D0090A092006E010F47E
:102FE0007F0107BF010E1920090C1120014A515C15
:102FF000084470471CA105000020704770B50446C6
:10300000FDF7ECFB04F114060546304651F080FA5A
:10301000304651F043F9208A20F0020020822846F1
:10302000FDF7E0FB606C2146BDE8704000F090BE0B
:10303000E0B5A84890F89400400709D50A480DF17A
:10304000070204210368252098479DF8070048B12E
:1030500001F06CFB30B1426922B1418C0348036836
:10306000104698478CBD00BFC444412070444120A5
:103070002DE9F0410D4604460A2800D82DB91C4A16
:1030800020462946EB2351F05DFF0A2C1DD8194E2E
:10309000DFF8648006EB8400D8F800100561204654
:1030A00088470546301906EB850680F85450012004
:1030B000A040374657F83C1F57F8382C40EA02002A
:1030C00047F8380C19B100240FE003240DE00BA0E1
:1030D0000021002451F06FFFD8F80410B06408A05C
:1030E0002A462B4651F070FF38602046BDE8F0813B
:1030F000F7DC05007C5B4120084441204B45000083
:103100004B455F455654000010B50B2809D20121EC
:1031100001FA00F4FDF762FB62490A68A2430A6003
:1031200007E04A4A002140F21D1351F00BFFFDF762
:1031300055FBBDE81040FDF755BB00BF594800687E
:10314000704700BF80B557486021FDF790FC80BDF7
:10315000F8B5544F3D4C3D68F5B1B5FA85F080F0B7
:103160001F060B2E06D330462946224640F2531343
:1031700051F0E8FE0620314604F0BEF807EB860069
:10318000006908B18047E6E730462946224640F20A
:10319000611351F0D7FEDEE7F8BD00BF2DE9F04125
:1031A000404DDFF8A8800446286810EA040608BFEE
:1031B000BDE8F081B6FA86F080F01F070B2F06D32A
:1031C0003846314642464FF4BC7351F0BBFE0620F0
:1031D000394604F091F805EB8700006908B1804793
:1031E000E2E73846314642464FF4C27351F0AAFE38
:1031F000DAE700BFF8B504460B280CD2294E301987
:1032000090F85450012000FA04F7FDF7E7FA31680E
:10321000394331600CE00D4A2046002140F2091389
:1032200051F090FE1F48204490F85450FDF7D6FA14
:10323000FDF7D8FA1B4800EB8500806C51F0C2FE08
:1032400005202146BDE8F84004F056B8F7DC05003B
:103250000A280ED810B50A4B002200210B2A0AD0EA
:1032600013F81240844204BF03EB42014978013253
:10327000F4E7002101E0BDE81040C8B2704700BF8C
:1032800020B805000749C0B2074E01EB8000041DBD
:1032900000F14805286851F091FE206831688847A0
:1032A000F8E700BF7C5B412040444120E0B509487D
:1032B00090F8A10040060AD507480DF107024FF427
:1032C00080410368282098479DF8071001B100202D
:1032D0008CBD00BF0C564120C044412000207047E7
:1032E00010B5354A1268904768B10446043002F0C0
:1032F0008CFF36482146283002F024FB2046BDE8EA
:10330000104013F081BA10BD10B50446C189808900
:10331000FF2213F037FD2D48043C2146283002F0EF
:1033200011FB2046BDE8104013F06EBA10B52748D7
:1033300000F12804204602F039FC10B113F064FAC1
:10334000F8E710BD024621482830006838B1038AEA
:103350009342FAD1438A8B4208BF7047F5E70020B9
:10336000704700BF2DE9F041DFF84C8014460F464E
:103370000646D8F8002090470546B0B91420012130
:1033800013F070FC054620B90CA00DA1A22251F04B
:10339000BBFDD8F80410281D6F822E8202F0B6FE05
:1033A0000A482946283002F013FC281D2146BDE8B2
:1033B000F04102F020BF00BF1044412041535300B0
:1033C0006B655F74696D65722E630000205B412040
:1033D0000020704710B5044620B9114811A14B22B6
:1033E0004AF002FDA06A0178232906D1E1698142F1
:1033F00003D9E26A0244914207D920A021464CF049
:1034000099F9FDF7EBF918B1FEE72030814200D9B8
:1034100010BD0BA02146BDE810404CF08BB900BF99
:10342000E1D805005F72745F7363686564756C65ED
:10343000725F737461636B5F636865636B00000048
:103440007761726E696E673A2025732073746163C9
:103450006B20697320636C6F736520746F207468D0
:103460006520626F74746F6D206F66207374616382
:103470006B20616464726573732E0A0074687265F0
:1034800061643A257320737461636B206F76657293
:10349000666C6F770A0000007CB5069D00F120067F
:1034A000044614302EC6C4E90500184623212A46D6
:1034B0004DF0D4FA04F120030FCB1A44154B043A13
:1034C0004CF07CF8E061DDE90756202D04D312A012
:1034D0001AA196224AF088FC00201C4AC4E9116611
:1034E00084F8355084F8365021462346A063C4E959
:1034F0001F0084F834002063CDE9000004F14C0083
:1035000050F01EFF1248016819B12046BDE87C400A
:1035100008477CBDA93805007072696F72697479BB
:10352000203C2052545F5448524541445F50524918
:103530004F524954595F4D41580000005F72745F0B
:103540007468726561645F696E697400A93E050004
:10355000C465412050F8141F42684A6042681160F7
:10356000C0E900007047000010B501280AD84AF0F1
:10357000C1FB044660B9074907A0B02251F0C4FC62
:10358000002405E0034A0021B523002451F0DAFCB1
:10359000204610BD67DD0500415353007CB504464D
:1035A000534890F89400C0060CD552480DF107021C
:1035B0001021234605682520A8479DF8070000280C
:1035C00000F095804C4D4D484D494E4AC5E90121CA
:1035D000E86013F02FFA01F0A9F80168064619B166
:1035E000328B002013F058FB716819B1728B0120E7
:1035F00013F052FBF16819B1F28B022013F04CFB6F
:10360000012005F8100B002003F08AFA002003F0D7
:1036100017F928464AF048F952F0F0FC002004F06F
:103620007BFD394D2868016801208847014601204B
:1036300006F0BAFD2868016800208847014600208E
:1036400006F0B2FD002009F07DF851F023FD2F4D6A
:103650004FF4C67105F1FC00FDF709FA002051F0A6
:10366000E9FC05F14000BC21FDF701FA002000F063
:10367000E1FD002053F0EEF9002054F033FB002070
:1036800053F0DCFD002052F083FF002055F010F8CD
:10369000002052F089FA002002F0B4F8002002F075
:1036A000BDFCB4F1A53F03D0F4B1B4F1C33F03D1E5
:1036B000204603F045FA17E041F2021000211022E3
:1036C0000123012613F00EFB0546B4F1F23F01D1B0
:1036D0002E7006E00EA22046002140F2CB3351F0BE
:1036E00031FC28460FF012FF0B48006880477CBD74
:1036F0000C564120A4444120D8474120D98E0500D2
:10370000F18E0500E58E050070454120D867412007
:10371000727769702E63000060444120BCB52A486E
:1037200090F89500C0060BD528480DF107024FF41C
:1037300080510368252098479DF80700002842D053
:10374000FDF74CF80446224800688047012002F04B
:1037500059F8012002F062FC012003F0E1F9012098
:1037600004F0DAFC012008F0EDFF012052F01CFA11
:1037700051F0B0FCF04D4FF4C67105F1FC00FDF7BF
:1037800076F9012051F056FC05F14000BC21FDF70F
:103790006EF9012000F04EFD012053F05BF901208D
:1037A00054F0A0FA012053F049FD012052F0F0FE40
:1037B000012054F07DFF13F015F80648006980479A
:1037C0002046FDF70FF8BCBD0C564120C4444120F3
:1037D00054444120D84741202DE9F04F85B0DFF80F
:1037E000848F98F89B00C0070CD0D14801AA4FF0F5
:1037F000807103682620984704469DF8040000283D
:1038000000F09181CB4E7078FF2816D001F07EFF3A
:1038100071780222C90002FA01F1084301F084FF25
:103820007078FF2809D001F071FF7178F022C9008B
:1038300002FA01F1884301F077FFBF4F3878C007E3
:1038400004D113F0F9FA002800F05F817078FF28A6
:103850000CD001F05BFF71781022F023C9008A4080
:1038600003FA01F18843104301F05EFF386808B1A4
:1038700001244BE17078FF280CD001F047FF7178EC
:103880002022F023C9008A4003FA01F18843104343
:1038900001F04AFFBD6A3869B7F82CA0B5F1FF31D5
:1038A00018BF5146421C10D06A1C0AD0421BA34BC1
:1038B00022F070429A4204D8A84207D1BA8A9142B3
:1038C00004D9B7F814A0054600E08A467868411C80
:1038D00025D09B49097801443889A0F5876000B25A
:1038E000B0F1FF3F0ADC6FF41C7240F2712390FBD1
:1038F000F2F2013202FB030092B2891A21F0704207
:103900006B1C0AD0491B8D4B21F07041994204D8A1
:10391000AA4204D181B28A4501D9824615467078FF
:10392000FF280CD001F0F2FE71783022F023C9009C
:103930008A4003FA01F18843104301F0F5FE681C48
:1039400036D001A852F004FC01987C492C1A24F0CE
:10395000704B8B453FF68CAF854206D11FFA8AF03B
:10396000BDF8081088427FF683AF98F89B000007E7
:103970000DD574480DF113024FF000615B460568E8
:103980002620A84781469DF81300002843D04AF01E
:103990009FF980B16C48834505D36C486C4940F26F
:1039A000231251F0B1FAA0026421B0FBF1F932E028
:1039B000D7F888424DE04AF07FF9814698F89A009E
:1039C00040060AD563480DF113024FF480010368E5
:1039D000262098479DF8130040B10420FEF740F8D8
:1039E00020B10420FEF73CF8C7F89402ABFB0901B4
:1039F00043F69822A0FB024001FB020952F05AFA5A
:103A000002462046494600230025FCF7C5FFB0F1D9
:103A1000060938BFA9461FFA8AF0BDF80810884287
:103A200006D2081A401052F035FDA9EB000004E060
:103A3000401A401052F02EFD4844D7F89012113829
:103A400001318842FFF614AFD7F88842A04238BF50
:103A500004467078FF280CD001F058FE717840229F
:103A6000F023C9008A4003FA01F18843104301F0B2
:103A70005BFE06F085FD002847D07078FF2809D04E
:103A800001F044FE71780222C90002FA01F1884374
:103A900001F04AFE092003F0E5FA2F4804602F4C9C
:103AA00098F89B00800709D52A4801AA4FF00071B9
:103AB0000368262098479DF8040060B128480068F4
:103AC0003862D4F8F40378622068F861002020603E
:103AD0004FF0FF30A060022020604FF0FF30A06068
:103AE0007078FF2809D001F011FE71780122C90019
:103AF00002FA01F1084301F017FE0220022452F0FD
:103B000061FA1848806A80470DE000247078FF2829
:103B100009D001F0FBFD71780222C90002FA01F11F
:103B2000884301F001FEE0B205B0BDE8F08F00BFB0
:103B3000C044412074464120D8674120FEFFFF0762
:103B4000786A4120A0444120FFFF3F006ADA050067
:103B500022DD0500C44441202C0004501800095007
:103B60000C080950E84741202DE9F0415F4D2978C4
:103B700001291CBF0120BDE8F081411EC9B28E2978
:103B800026D855F0BBF918B36C68012190F8018074
:103B90002D89E18004F10807A688417801440231AB
:103BA000CA1B93B2B34205D8B21A130402D092B220
:103BB000FCF736FFA6EB0800861EB1B217FA86F0B6
:103BC000691AFCF754FF0020A680E080BDE8F08170
:103BD0000220BDE8F08100BFB0B50D464349097829
:103BE00001291CBF0120B0BD411EC9B28E290CD8CD
:103BF000144655F083F940B141782970811C427810
:103C00002046FCF70DFF0020B0BD0220B0BD00BF74
:103C100010B5364C2181606055F032F900B110BD0D
:103C20000121217010BD00BFF8B5304F064638782D
:103C300001281CBF0120F8BD701EC0B28E2884BFB1
:103C40000220F8BD304614460D4655F057F968B1CC
:103C500041787E68A9420FD1012102302A46F180C5
:103C60002146FCF7DDFE0020F080F8BD30462946F5
:103C7000224655F0E9F8F8BD07D2B3883A892B44BB
:103C8000591A9142C4BF0320F8BD06490678096855
:103C90003046884730462946224655F0D5F8002060
:103CA000F8BD00BF6844412070B5104E054630781D
:103CB000012805D10C463189A1F10800A04201D2AA
:103CC000012070BD7068FCF7D2FE55F0D9F800B144
:103CD00070BD7668012029462246F08006F1080072
:103CE000FCF79EFE0020B480F08070BDF0574120AC
:103CF00070B50446406CB8B1218ACA0717D188074D
:103D00001AD5FCF76BFD04F114060546304650F059
:103D1000FFFB304650F0C2FA208A20F002002082D9
:103D20002846FCF75FFD07E06FF015050EE0214621
:103D300050F0B4FE054648B9FCF750FD218A002535
:103D4000656421F001012182FCF74CFD284670BD1D
:103D5000F8B50E460446FCF741FD0546308AC0071B
:103D60001BD1A068B04218D030464BF02BFDD4E9EF
:103D70000107016831604E60318A06607060284634
:103D800041F001013182FCF72DFD27B9E06A4FF0C7
:103D900017FF4EF065FF0020F8BD2846FCF722FD16
:103DA0006FF00600F8BD0000044620B91C481DA1B4
:103DB00039224AF019F804F10C054FF00008206888
:103DC000A04205D14FF03EFF50F02EF84EF048FFD4
:103DD000FCF704FD2768064638464BF0F3FC388AAA
:103DE000A76020F0010038823046FCF7FBFCD7E9E1
:103DF000022138469047FCF7F1FCC4F80880FCF734
:103E0000F1FC4AF0E3FD28464FF0DEF9023003D121
:103E100028464FF0FBF8F6E74BF048F8CFE700BF35
:103E2000D8E105005F776F726B71756575655F74BA
:103E300068726561645F656E7472790070B504467E
:103E400090F82C0001281ED020BB002594F82D20CE
:103E50000123012684F82B50C4F82750C4F82350BE
:103E6000C4F81F508878A07700F03F0009881043FD
:103E70002246A077204622F81C1FA16900F0DCFA38
:103E800084F82C600CE0A07F01254871A08BA1F87C
:103E9000030005E0616903A29A2351F053F800255D
:103EA000284670BD6165735F7270612E630000000B
:103EB00070B50E4602211C46154612F0D3FE446131
:103EC000C0E9016570BD0000F0B589B0044690F806
:103ED000322090F83300904216D2228E04F1200551
:103EE0001023A2EB0010A2690244284600F0C0FA99
:103EF000E16920462A46012300F09EFA94F8330037
:103F0000013084F8330072E0FD280BD8FE20102227
:103F100084F8330004F12000FCF782FDE169354AA2
:103F2000204661E0FF2801D1012061E0FF2005AAC1
:103F3000258E84F83300084691F90F60114600F091
:103F400067FA05F00F05B6F1FF3F05DC9DF8140098
:103F500080F087008DF814005DB305A89DF92360FB
:103F6000014600F055FAB6F1FF3F05DC9DF814005C
:103F700080F087008DF8140001A885F00F034FF042
:103F8000000C4FF0800E0026411B00F10F02103193
:103F9000102E17D0AE4203D2A769BF5D8F5505E042
:103FA000B54214BF82F800C000F803E0013A0136C0
:103FB000EEE794F832000028CFD0A16901A81022C2
:103FC000FCF72EFD01AD05AA10232846294600F076
:103FD0004FFA04F12006294610233046324600F0FD
:103FE00047FAE16920463246012300F025FA002015
:103FF00009B0F0BD1CA2050010B50124038680F8AD
:104000003340C0E9062103F10F0100220909C0E98C
:104010000922C26280F83210014641F8202FBDE823
:104020001040FFF751BFF8B51E46069B0C460546EB
:10403000BAB1382000213246FFF73AFF00F11807E5
:104040000646294610223846FCF7EAFC06F1280508
:10405000214610222846FCF7E3FC304639462A4622
:1040600006E0182000213246FFF722FF29462246AB
:10407000002301B0BDE8F04000F0DEB9F8B51E46FF
:10408000069B0C460546BAB1382000213246FFF7A0
:104090000FFF00F118070646294610223846FCF7A4
:1040A000BFFC06F12805214610222846FCF7B8FC83
:1040B000304639462A4606E0182000213246FFF7EE
:1040C000F7FE29462246012301B0BDE8F04000F08A
:1040D000B3B9000070B50D460E4906463020FFF713
:1040E000E7FE80F82D508661044600F11C051C2671
:1040F0002C2E04D0FCF782FCA0550136F8E7A1690C
:1041000020462A46012300F097F9002084F82C006D
:1041100070BD00BF3D3E0000F8B50C460C49054699
:104120004820FFF7C5FE064620682946102234467F
:1041300006F1380744F8340F3846FCF771FC304676
:1041400039462246042301B0BDE8F040FFF754BFD2
:1041500055410000FFF7B8BEF8B50C460E490546BC
:104160005420FFF7A5FE00F1440706462946102219
:104170003846FCF755FC06F1340521461022284646
:10418000FCF74EFC304639462A46102301B0BDE804
:10419000F040FFF731BF00BF9D410000FFF794BE24
:1041A0002DE9F0411F460D461249069B90460646F2
:1041B0005C203A46FFF77CFE00F1340407463146A6
:1041C00010222046FCF72CFC07F144062946102259
:1041D0003046FCF725FCD8F8000031462246102373
:1041E0007865002087F858003846BDE8F041FFF7B1
:1041F00003BF00BFF941000070B50D460446FFF74C
:1042000063FEA0B194F85810012001B170BD04F113
:10421000440684F85800294610223046FCF700FC7A
:1042200004F15402204631460423FFF7E5FE002046
:1042300070BD000010B540B18C4C206828B12046FC
:1042400001F0B4FC12F0E0FAF7E7884C204601F0E8
:1042500027FC0020207510BDF0B589B00D4604463E
:10426000002701AE082F05D0FCF7C8FB46F8270051
:104270000137F7E706F11001304601222346009589
:10428000FFF7FCFE09B0F0BDF8B5784F06460C46C6
:10429000384601F08BFC396805460020387531B18D
:1042A000012001223875D1E9030150F073FF9DB15F
:1042B00056B1AB681BB16A6930462146984728461B
:1042C000BDE8F84012F0A0BA6A68002AF1D028468A
:1042D000214690470028ECD1F8BD00BF13460A469E
:1042E0004021FFF7F7BE00002DE9F84306464020C5
:1042F000994688462249089B15460022002700EB74
:104300000610FFF7D5FD0446C0F818903E30320184
:104310004146FCF785FBA888296884F83D60C4F80D
:104320002F70C4F83370C4F8377084F83B70A0461F
:10433000DFF8D890E1612084687984F82E00B5F820
:104340000300751E28F82C0FFEB2B54209DD04EB00
:104350000610494610223E30FCF7A7FB08B901378A
:10436000F2E704EB061084F83C704246012300F1AA
:104370003E01204601B0BDE8F04300F05DB800BF4B
:10438000854300002DE9F84300F11C08054603228F
:104390004046FCF78AFB10B395F83C4095F83D6029
:1043A000DFF868900134E0B2B04216D205EB00109D
:1043B0004946102200F13E073846FCF776FB0028FC
:1043C000F0D005F12C0228463946012385F83C40FF
:1043D00000F032F80020BDE8F88385F83C40AC6975
:1043E00084B195F83C1095F83D306A6905EB0110F1
:1043F0009942434600F13E0000904FF01F0038BF45
:104400000020A0470120BDE8F88300BFBEA2050040
:1044100010B5002212F10F0309D083189C7BDB7BBF
:10442000E40944EA43038C18013AE373F2E70078A5
:104430004000087010BD00002DE9F0410B4F04460C
:104440000E46984615462146384601F0C1FBC4E9A0
:104450000365387D08B1BDE8F08101202946424658
:1044600038753046BDE8F04150F094BE24484120F4
:10447000B0B5013B5BB2002B04D4CC5CD55C6C4086
:10448000C454F6E7B0BD000010B5064C20684000EB
:1044900006D40120FDF708FB206840F08050206022
:1044A00010BD00BF14F000502DE9F047ACB04FF044
:1044B00000090BAD884604462C21C0F828902846F8
:1044C000FCF7D5FA6E462C213046FCF7D0FA21AF26
:1044D000214624223846FCF7A3FAD4F824A016ACCF
:1044E0003A492422CDF8AC902046CDF8A8A0FCF79C
:1044F00097FA0820CDF880901F900120CDE9130095
:10450000CDE90890BAF1000F0ED13BE0384603F038
:1045100077F99DF84C00C00703D1284603F070F9E5
:1045200002E02846FCF7F0FE9DF8A400C007EDD09D
:104530000DE0204603F064F99DF82000C00703D188
:10454000304603F05DF902E03046FCF7DDFE9DF8F1
:104550007800C007EDD03846214611F0EAF930B1B5
:1045600038462146FEF7A8FC2846314605E020469D
:104570003946FEF7A1FC30462946FEF7BDFCDDF8C2
:10458000A8A0BFE70A9868B16C46204654F03EFEEA
:10459000404621462422FCF743FADDE90910C8F819
:1045A00024100EE00948694611F0ABF90028EBD061
:1045B000694640462422FCF733FA0998C8F82400DB
:1045C0000020C8F828002CB0BDE8F0872CA2050018
:1045D000E0B5764890F8A000C00709D062480DF118
:1045E000070201210368282098479DF8070010B1B1
:1045F0000148006880478CBD484441201CB50346F3
:104600006A4890F89400C00709D009480DF10702E4
:10461000012104682520A0479DF8070030B1054C12
:104620002068804761684FF0C33088471CBD00BFD9
:10463000A444412018444120E0B55C4890F8A00013
:10464000800706D548480DF107020221036828209B
:1046500098478CBDE0B5554890F8A000400709D5B3
:1046600053480DF1070204210368282098479DF85C
:10467000071019B14F48006840F380108CBD00BF8F
:104680007CB51F4890F8B400400709D51D480DF1CE
:104690000702042103682D2098479DF8070070B396
:1046A000194CA078FF2809D001F030F8A178042235
:1046B000C90002FA01F1084301F036F8134D2E68E3
:1046C000F00309D54FF4803011A28C236860286D67
:1046D000296D090C50F036FC300603D58020686047
:1046E00036F0C4F8A078FF2809D001F00FF8A178BF
:1046F0000422C90002FA01F1884301F015F87CBDDB
:104700000C564120C44441207446412010080950F1
:104710007277626C652E6300054890F9240070473B
:10472000014603482822FCF77BB900BF00487047C8
:10473000E44C4120E0B51D4890F8A000000709D5E1
:1047400009480DF1070208210368282098479DF8C1
:10475000070028B1054849F0A7F8054800688047D8
:104760008CBD00BF0C564120C4444120E847412085
:104770007C444120E0B50D4890F8A000C00609D562
:104780000B480DF1070210210368282098479DF877
:10479000071051B107480068400644BF4FF0FF3092
:1047A0008CBD05480068804700208CBD0C56412018
:1047B000C04441203C00045080444120F8B5424FA1
:1047C0000446084616460D46B847C10EA171C0F30F
:1047D000CB31A180C0F380316FF39F302080A17076
:1047E000287940092072287900F01F00E07168796B
:1047F000A979EA7940EA012002F00F011309237434
:1048000040EA0140E060287A697AAA7A40EA012009
:1048100002F00F011309237640EA01406061E87A53
:10482000607605F10D00B847A06205F11100B847A8
:10483000010D6FF31F506184E061687DA97D40EA3E
:104840000120E084D5F81700E062E87E00F01F0048
:1048500084F83000E87E5F2807D81C49002701EB68
:104860005010407884F8240000E01127E869212ED8
:10487000C4F8310095F8200000F07F0084F835007E
:1048800095F820004FEAD01084F8200014D0392E7B
:1048900016D10120102284F83600D5F82100D5F871
:1048A0002510C4F83B10C4F8370004F13F0005F1AF
:1048B0002901FCF7B5F804E0002084F8360000E098
:1048C0001E273846F8BD00BF8B5F0000DCA2050044
:1048D000B0B5FBF783FF0546E048283001F066F9E4
:1048E00004462846FBF77EFF002C14BFA08800205A
:1048F000B0BD00BF10B50146E848C28A8B1A03EB71
:104900001363C3F30724008B801A00EB1060B4EB31
:10491000202F05DBE24A20464FF4AB7350F012FB28
:10492000E74800EBC40000F5B67010BD70B5014655
:10493000DA48C28A8B1A03EB1363C3F30724008B94
:10494000801A00EB1060B4EB202F05DBD44A204620
:104950004FF4B17350F0F6FAEE4E06EBC40000F5DA
:10496000B674FBF73BFF054606F12800214601F02F
:104970002FF92846BDE87040FBF734BFB0B5FBF710
:104980002DFF0546E9483C3001F010F90446284661
:10499000FBF728FF002C14BFA0880020B0BD00BF8B
:1049A00070B50146DA4840F2F643028A408A801A1E
:1049B0008A1A92FBF3F290FBF3F0D4B2844205DB47
:1049C000F24A20464FF4C17350F0BCFAF04E06EBA9
:1049D000C40000F5E674FBF701FF054606F13C0054
:1049E000214601F0F5F82846BDE87040FBF7FABE15
:1049F0002DE9F041DFF8108D0446B8F82400B0F539
:104A0000004F05D9EC4A800A2021802350F09AFA01
:104A1000002C66D0B8F80C00B8F80E10081A242143
:104A200090FBF1F3E34C7A4D082204F18C0120460F
:104A3000A847B8F81400B8F816104FF48276082288
:104A4000081A04F5967190FBF6F304F11400A847D8
:104A5000B8F81600B8F818100822081A04F5B6714C
:104A600000EB1060031204F12800A847B8F810000A
:104A7000B8F812100822081A40F2F64190FBF1F340
:104A800004F13C0004F5E671A847B8F81C00B8F83A
:104A90001E100822081A04F5FA7190FBF6F304F1CF
:104AA0005000A847B8F81800B8F81A100822081AD9
:104AB000202190FBF1F304F1780004F53971A84747
:104AC000B8F81A00B8F81C100822AC46081A0C21D5
:104AD00090FBF1F304F1640004F52571BDE8F041A9
:104AE0006047DD4C4FF441712046FBF7C0FFB8F83A
:104AF0000C00B8F80E102422091A91FBF2F31946A3
:104B00000AB2012A0ADB01398AB201EBC10604EBC1
:104B1000C20200EB8606A2F89060F1E7B8F8142014
:104B2000B8F816104FF48276881A053290FBF6F02A
:104B300006B2012E0ADB013886B200EB801704EBC7
:104B4000C60602EB8707A6F83071F1E7B8F818003F
:104B5000421A02EB1262121216B2012E08DB013A5F
:104B600097B201EB022604EBC707A7F87061F3E7E1
:104B7000B8F81010B8F81220561A40F2F64296FB18
:104B8000F2F637B2012F08DB013EB5B206FB021781
:104B900004EBC505A5F8D071F3E7B8F81C10B8F818
:104BA0001E204FF48275521A92FBF5F215B2012DB8
:104BB0000CDB013A95B202EB821604EBC50501EB62
:104BC000860685F8FA21A5F8F861EFE7B8F81A200B
:104BD0002026151A95FBF6F635B2012D08DB013EAD
:104BE000B7B200EB461504EBC707A7F8E852F3E7A6
:104BF000881A0C2190FBF1F001B20129FFF612AFE7
:104C0000013881B204EBC10181F89802F4E700BFDA
:104C1000815B000080B59048503000F0C7FF00284D
:104C200014BF8079FF2080BD10B504468848818B71
:104C3000C08B401A4FF4827190FBF1F0A04206DC69
:104C4000844A204600214FF4CD7350F07BF982480E
:104C500000EBC400B0F8F80110BD00BF3C48412093
:104C600010B504467A48818BC08B401A4FF482718C
:104C700090FBF1F0A04206DC764A204600214FF47A
:104C8000D07350F05FF9744800EBC401503001F567
:104C9000FA71BDE8104000F09BBF00BFAC57412047
:104CA00072DD0500B0B5FBF799FD04466A4800F0D7
:104CB0007DFF05462046FBF795FD2846B0BD00BFA9
:104CC0003C48412070B50146614824238289C0894F
:104CD000801A8A1A92FBF3F290FBF3F0D4B284426A
:104CE00005DB5C4A20464FF4817350F02BF95A4D96
:104CF00005EBC40000F18C04FBF770FD0646284666
:104D0000214600F065FF3046BDE87040FBF76ABD04
:104D1000AC5741203C48412080B54F48143000F04A
:104D200045FF002814BF8088002080BD3C484120FA
:104D300070B5014646484FF48273828AC08A801A51
:104D40008A1A053A90FBF3F092FBF3F2D4B2844254
:104D500005DB404A20464FF4907350F0F3F83E4D87
:104D600005EBC406FBF73AFD0446B6F8300139F00E
:104D700083F828B906F5967105F1140000F028FFB4
:104D80002046BDE87040FBF72DBD00BF72DD050079
:104D90003C48412080B53048783000F007FF08B12A
:104DA000808880BDDB482B4940F2D31250F0ACF82C
:104DB000002080BD3C48412072DD0500B0B5244D87
:104DC0000446288BA04203D800F18001A14207D8F5
:104DD000204A204600214FF4EE7350F0B3F8288BA0
:104DE000201A20211C4A90FBF1F0C0B202EBC00057
:104DF00000F5397102F17800BDE8B04000F0E8BE7E
:104E000080B51548643000F0D1FE08B1007980BD4E
:104E1000DA4810494FF4D97250F076F8FF2080BD7F
:104E20000B494A8B898B891A0C2291FBF2F1814242
:104E300008DD094A02EBC00000F5257102F16400AB
:104E400000F0C6BE034A00214FF4E17350F07AB877
:104E5000AC57412072DD05003C484120B0B5094BFC
:104E600000210422B2F1FF3FDCBFC8B2B0BD845CB8
:104E7000013A250904F00F041C5D5D5D21442944BD
:104E8000F0E700BFCCCE0500032907D8DFE801F02A
:104E9000020D1116502101EBC000704780B50AA227
:104EA000662350F04FF8002080BD2C2101EB8000DC
:104EB00070474FF4347101EB801070474FF4E77185
:104EC00001EB0010704700BF626C655F7574696C20
:104ED0002E63000010B50404B0F5006F05D306483A
:104EE00006A141F6BA1250F00FF8084801686FF3B6
:104EF0001A412143016010BD6ADA05007265675FDF
:104F00006274636F72652E680000000030050950FE
:104F100010B5044610F4404F05D0DD48DD4940F29D
:104F2000DC724FF0F1FF0148046010BD2804095005
:104F30002DE9F0471D4616460F46804611F0FE0F3C
:104F400004D0D3488E4943224FF0DEFF16F0FE0F07
:104F500004D0CF488A4944224FF0D6FFDDF820A084
:104F600015F0FE0F04D0CA48854945224FF0CCFF0A
:104F7000DDF82490FF03B6036D034FEA0A241AF00C
:104F8000E00F04D0C2487E4946224FF0BDFF46EAFA
:104F900007004FEA4811044A2843204340EA090029
:104FA0005050BDE8F08700BF1006095070B5144698
:104FB0000E460546B1F5804F05D3B548704940F21D
:104FC00089124FF0A1FF360414F4404F05D0B048C9
:104FD0006B494FF4C5724FF097FF46EA0400690130
:104FE000014A505070BD00BF1C06095070B51446F0
:104FF0000E460546B1F5804F05D3A548604940F2FD
:105000003F124FF081FF360414F4404F05D0A04802
:105010005B494FF4A0724FF077FF46EA0400690144
:10502000014A505070BD00BF180609502DE9F041EB
:105030001D4616460F46804611F0FE0F05D09448D7
:105040004F494FF4F0724FF05FFF16F0FE0F05D09E
:105050008F484B4940F2E1124FF056FF069C15F085
:10506000FE0F05D08A4846494FF4F1724FF04CFFCD
:105070007F013601ED0014F0F80F05D08448404957
:1050800040F2E3124FF040FF47EA06004FEA4811B2
:10509000034A2843204300F580305050BDE8F0819A
:1050A000200609502DE9F0410F051D4616468046A1
:1050B000B7F1804F05D37648314940F262224FF074
:1050C00023FF16F0F00F05D071482D4940F26322FE
:1050D0004FF01AFF069C15F47C4F05D06C48284908
:1050E0004FF419724FF010FF36042D0114F0F00F39
:1050F00005D06748224940F265224FF005FF46EA95
:1051000007004FEA48111F4A284320435050BDE88A
:10511000F08100BF6ADA0500F8B507051C461546A0
:105120000E46B7F1804F05D35948154940F2622227
:105130004FF0EAFE16F0F00F05D05548104940F246
:1051400063224FF0E1FE15F47C4F05D050480C4926
:105150004FF419724FF0D8FE36042D0114F0F00F01
:1051600005D04B48064940F265224FF0CDFE46EA95
:1051700007000449284320430860F8BD6ADA0500A7
:1051800015E00500240609507CB5294890F8B800C0
:1051900040070AD527480DF10702042103682E2095
:1051A00098479DF80700002841D0234CA078FF289D
:1051B00009D000F0ABFAA1780222C90002FA01F18D
:1051C000084300F0B1FA1D4D55F8046CF00309D501
:1051D0004FF480301AA28F232860E86CE96C090C28
:1051E0004FF0B0FEB00405D54FF400502860002009
:1051F00024F0C4FA700405D54FF4804028600120E3
:1052000024F0BCFA300405D54FF400402860022099
:1052100024F0B4FAA078FF2809D000F077FAA1783A
:105220000222C90002FA01F1884300F07DFA7CBD38
:105230000C564120C44441207446412014040950B6
:10524000727762742E63000010B50402000605D563
:105250000F48104941F2ED524FF056FE0E480168DA
:1052600021F4FE412143016010BD00BF10B504468A
:10527000000605D50648074941F2F9524FF044FEB1
:105280000548016821F07F012143016010BD00BF86
:105290006ADA0500ECDF0500D40409500149086012
:1052A000704700BF404B4120E348143000F07EBC03
:1052B00070B50146E14840F20442808F081A053873
:1052C00090FBF2F0C4B2062C04D3BD4A2046D4238E
:1052D0004FF038FE04EB4400E24D05EB8006FBF78F
:1052E0007DFA0446B6F87C0024F090F928B906F15E
:1052F000740105F1140000F06BFC2046BDE870401D
:10530000FBF770BAB0B5FBF769FA0546EA482830F2
:1053100000F04CFC04462846FBF764FA002C14BF4E
:1053200020890020B0BD00BF10B50146E14840F221
:105330000442C08F081A90FBF2F0C4B2082C05D3C7
:10534000DE4A20464FF485734FF0FCFD04EB440029
:10535000EB4901EB8000BC3010BD00BF70B5EA49DD
:10536000E74EC98F401A40F2044190FBF1F0C1B200
:10537000490051FA80F006EB800000F1BC04FBF715
:105380002DFA054606F12800214600F021FC2846AA
:10539000BDE87040FBF726BAF8B5DB4D0446B5F81A
:1053A0004200B0F5004F05D9C44A800A2021792374
:1053B0004FF0C8FD2CB1D248D0F81C0108B111F053
:1053C00023FACF4C4FF490712046FBF750FBE88D49
:1053D000298E18260822081A04F13C0190FBF6F3E6
:1053E000204600F0CDFBE88D298E0022091A91FBA2
:1053F000F6F18A4209DA02EB420604EBC2030132FB
:1054000000EBC606A3F84060F3E7A88FE98F40F2EF
:1054100004460C22081A04F1740190FBF6F304F11F
:10542000140000F0ADFBA98FE88F04F17C03421A51
:1054300092FBF6F20026964208DA06EB06270136C2
:1054400001EB8707053723F80C7BF4E7B5F840102C
:1054500040F204460C22081A04F1BC0190FBF6F35A
:1054600004F1280000F08CFBE88FB5F8401004F13F
:10547000C4020023091A91FBF6F18B42A8BFF8BDC4
:1054800003EB0324013300EB840422F80C4BF4E714
:105490009B4800F08BBB00BF9B49C98D401A182167
:1054A00090FBF1F0C1B2964800EBC1013C3100F035
:1054B0008FBB00BF10B5924901EB8001D1F81C01F0
:1054C00028B101F58E7411F09FF90020206010BD05
:1054D0002DE9F84F064601EB410003EB430B8846EC
:1054E00000219A461446850005EB8B00343011F0FC
:1054F000B9FB07462F48002F00EB8600C0F81C714F
:105500004FD007F13401DDF828900C2243464819AA
:10551000C7E90A10384600F033FBF96A07F11400B6
:105520000C22534600F02CFB4FF4076004F1030EED
:10553000009406FB00FC20462EF0030300261E48C4
:105540006146B54208D0BC6AB0F8402034440A44F1
:1055500019440C36A280F4E74FEA9E0109F10303D7
:105560004FEA8B02002501FB08F123F0030304330B
:105570000CEB8101AA4209D0B0F84060FC6A0E44ED
:105580002C4419440C350436A680F3E7009887F8BC
:10559000339087F832A087F8308087F83100BDE873
:1055A000F88F464905A040F24712BDE8F84F4FF08A
:1055B000ABBC00BF444B4120AC574120415353008A
:1055C00032DF05004E4A02EB8000D0F81C0130B1FA
:1055D00090F833208A4224BF143000F0E7BA00204C
:1055E000704700BF464A02EB8002D2F81C2112B37A
:1055F000444B10FB0310444992F83130B1F840108D
:10560000033323F00303401A92F8301003FB110018
:1056100092F833100731043821F0030190FBF1F0C8
:10562000C1B2490051FA80F0D16A01EB800102F168
:10563000140000F0CDBA7047444B4120AC574120D4
:1056400080B52F4A02EB8000D0F81C0140B190F8E1
:1056500031208A4204D300F0A9FA08B1808880BDC5
:10566000002080BD444B4120B0B5274B254A10FB9C
:105670000212B3F84030D21A214B03EB8000D0F86D
:105680001C5195F8313095F83000033323F00303B3
:1056900092FBF3F2D4B2844205D3084A20464FF479
:1056A000BA734FF04FFC04EB4400A96A01EB800091
:1056B000B0BD00BFAC574120444B412032DF050054
:1056C00002460F4800EB8200D0F81C01B0B10D4B30
:1056D00012FB03110C4AB2F84020891A90F83120CD
:1056E000033222F0030291FBF2F1CAB2520052FAE5
:1056F00081F1826A02EB810100F06ABA704700BF53
:10570000444B412090F7FFFFAC57412010B50D4CA2
:1057100048F0DAFA28B1012814BF04F5806404F5D2
:105720000064206810BD00BFB0B50446054D48F0C8
:10573000CBFA28B1012814BF05F5806505F5006591
:105740002C60B0BD6400095010B50C4602464FF401
:1057500088500021012311F0C5FA0470BDE8104003
:105760000DF0D4BEC088401AB0FA80F040097047EE
:1057700010B50022062A04BF012010BD8B5C845C9A
:1057800001329C421CBF002010BDF3E70078044AA0
:10579000010900F00F00515C105C0844C0B2704772
:1057A000CCCE0500114483180139984228BF7047B8
:1057B00011F8012900F8012BF7E71144831801398A
:1057C000984228BF704711F8012900F8012BF7E72C
:1057D000B0B5584D05F1140000F0E8F904466869C9
:1057E00018B9434801680520884734B10020616832
:1057F00020602046BDE8B0400847B0BD0022C0E9A7
:105800000021704710B580B90D4C0E490320226865
:10581000904722680C490520904722680B490A20CE
:1058200090474448283000F03BF9424C204600F0B5
:1058300037F904F11400BDE8104000F031B900BFA1
:105840002C444120C5580000D15700005158000099
:1058500070B5FAF7C3FF374E054606F1280000F091
:10586000A5F90446B06A18B9214801680A2088479A
:105870002846FAF7B7FF34B100206168206020465F
:10588000BDE87040084770BDF8B52A4D0446214672
:1058900005F1280000F0FAF860B955F8287FFAF70A
:1058A0009DFF06462846214600F092F93046FAF759
:1058B00099FF07B1F8BD224801680A20BDE8F84009
:1058C000084700BFB0B51B4D284600F06FF90446ED
:1058D000286818B9064801680320884734B10020B9
:1058E000616820602046BDE8B0400847B0BD00BFF9
:1058F0003044412070B50C460546022804D3ED48DB
:105900000D49B7224FF000FB206800B170BD05EBD8
:105910008500084901EB8006306820B9074808492E
:10592000405D0968884730462146BDE8704000F078
:105930004FB900BF644C412030DD0500B6A2050020
:1059400044444120F8B50D46044620B9E448CD4909
:10595000C6224FF0D9FACB4E002027463F68BFB190
:10596000AF4217D038682168814206D1B9B23814E5
:105970003246D7234FF0E6FA386887423846EDD1F1
:10598000B9B238143246D8234FF0DCFA3846E5E78E
:105990000020F8BD0146002808BF21462A680A6099
:1059A0006168A94208BF6060A06821690138A060F1
:1059B000814238BF084620610120F8BD70B5164607
:1059C0000D46044620B9E748AE49FC224FF09CFA48
:1059D00026B9EF48AB49FD224FF096FA5DB1286831
:1059E000B04205D0EA48A74940F209124FF08CFABC
:1059F000306828600BE02068B04206D0EF48A1492B
:105A00004FF481724FF080FA20680068206060686F
:105A1000B04208BF6560A06821690138A06081427A
:105A200038BF0846206170BDF8B504460846002915
:105A300015460E4608BF204607682CB9EA4891492A
:105A40004FF491724FF060FA2DB9F2488D4940F24F
:105A500023124FF059FA3046002E08BF204629681D
:105A600001606068A8424FF0000008BF66602860CF
:105A700027B1A0683F680138A060F9E7A0682169F4
:105A8000814238BF08462061F8BD00BF00688842E7
:105A900018BF0028FAD1401AB0FA80F040097047C8
:105AA00000214FF0FF32C0E90011C0E9021102618C
:105AB0007047000070B515460E4604462AB9EB48FB
:105AC00070494FF4CF724FF01FFA6EB1306800B9D1
:105AD000656028603560D4E902010130814298BFD9
:105AE0000146C4E9020170BD20462946BDE8704068
:105AF00000F06EB870B515460E4604462AB9E64861
:105B000060494FF4BB724FF0FFF9A6B10020224666
:105B100001461068B04202D000280246F8D151B1C7
:105B20000D602860D4E902010130814298BF01462E
:105B3000C4E9020170BD20462946BDE8704000F06E
:105B400089B800BFB0B5054608680C4630B9D248E0
:105B50004C4940F259124FF0D7F9206829680029C2
:105B600029461ABF51F8042F106001C1D4E901027F
:105B7000AB6808601A44AA6000222260A260B0BD2F
:105B80009BB1B0B501240160A34204D08D1801344B
:105B90000D602946F8E74FF0FF32C0E90113C0E974
:105BA000033200200860BDE8B0407047014600683D
:105BB00060B102680A600AB900224A608A680B690B
:105BC000013A8A60934238BF1A460A617047000062
:105BD000B0B50D46044621B9AF482A4959224FF0C5
:105BE00093F9206808B1606800E020460560002055
:105BF00065602860D4E902010130A060814288BF5D
:105C00000846E060B0BD00BF70B516460D460446BC
:105C100021B9A1481B4973224FF076F926B99E4855
:105C2000184974224FF070F9206808B1606800E0EC
:105C30002046056000206660306025B1A0682D68B0
:105C40000130A060F9E7D4E90201814288BF08462B
:105C5000E06070BDB0B50D46044621B9ED48094974
:105C600097224FF051F9206800B9656025602860DF
:105C7000D4E902010130814298BF0146C4E9020122
:105C8000B0BD00BF3ADD05000021006808B1013158
:105C9000FBE788B270470000B0B50C46054621B955
:105CA000044805A1A3224FF02FF9B5FBF4F000FB47
:105CB0001450B0BD6ADA0500636F5F6D6174682EC1
:105CC00068000000B0B50C46054621B9044805A19E
:105CD000A3224FF019F9B5FBF4F000FB1450B0BD4E
:105CE0006ADA0500636F5F6D6174682E68000000FA
:105CF000B0B50C46054621B9044805A1A3224FF0D2
:105D000003F9B5FBF4F000FB1450B0BD6ADA0500EE
:105D1000636F5F6D6174682E68000000B0B50C465B
:105D2000054621B9044805A1A3224FF0EDF8B5FBC3
:105D3000F4F000FB1450B0BD6ADA0500636F5F6DCC
:105D40006174682E68000000B0B50C46054621B9A4
:105D5000044805A1A3224FF0D7F8B5FBF4F000FBEF
:105D60001450B0BD6ADA0500636F5F6D6174682E10
:105D700068000000B0B50C46054621B9044805A1ED
:105D8000A3224FF0C1F8B5FBF4F000FB1450B0BDF6
:105D90006ADA0500636F5F6D6174682E6800000049
:105DA000B0B50C46054621B9044805A1A3224FF021
:105DB000ABF8B5FBF4F000FB1450B0BD6ADA050097
:105DC000636F5F6D6174682E68000000B0B50C46AB
:105DD000054621B9044805A1A3224FF095F8B5FB6B
:105DE000F4F000FB1450B0BD6ADA0500636F5F6D1C
:105DF0006174682E68000000B0B50C46054621B9F4
:105E0000044805A1A3224FF07FF8B5FBF4F000FB96
:105E10001450B0BD6ADA0500636F5F6D6174682E5F
:105E200068000000B0B50C46054621B9044805A13C
:105E3000A3224FF069F8B5FBF4F000FB1450B0BD9D
:105E40006ADA0500636F5F6D6174682E6800000098
:105E5000B0B50C46054621B9044805A1A3224FF070
:105E600053F8B5FBF4F000FB1450B0BD6ADA05003E
:105E7000636F5F6D6174682E68000000B0B50C46FA
:105E8000054621B9044805A1A3224FF03DF8B5FB12
:105E9000F4F000FB1450B0BD6ADA0500636F5F6D6B
:105EA0006174682E68000000B0B5094B002109221A
:105EB000B2F1FF3FDCBFC8B2B0BD845C013A250936
:105EC00004F00F041C5D5D5D21442944F0E700BF30
:105ED000CCCE050080B5FAF791FDC0B280BD80B58B
:105EE000FAF78CFDC0B280BD80B5FAF787FDC0B26D
:105EF00080BD80B5FAF782FDC0B280BD80B5FAF7EB
:105F00007DFDC0B280BD80B5FAF778FDC0B280BD1E
:105F100080B5FAF773FDC0B280BD80B5FAF76EFDAB
:105F2000C0B280BD80B5FAF769FDC0B280BD80B552
:105F3000FAF764FDC0B280BD80B5FAF75FFDC0B26C
:105F400080BD80B5FAF75AFDC0B280BD80B5FAF7C2
:105F500055FDC0B280BD80B5FAF750FDC0B280BD1E
:105F600080B5FAF74BFDC0B280BD80B5FAF746FDAB
:105F700080B280BD0178427841EA02218278C078FF
:105F800041EA024141EA006070470178427841EA03
:105F900002218278C07841EA024141EA00607047FC
:105FA00002090121012A88BF010908467047000043
:105FB000FEB50446684650F0CBF86B4D029E68680B
:105FC000371AB7F1FF3F05DC7A487B494FF4C272BC
:105FD0004EF09AFF4FF47A700F492A89B7FBF0F020
:105FE00000FB017111448AB22981B2F57A7F22BF88
:105FF000A1F57A7129810130E968CA43904202D93A
:106000002A7C01322A7408446E60E8602969C4E978
:106010000001FEBD6ADA050018FCFFFF10B586B06E
:1060200070B9514C00202074E060208103A850F02A
:106030008FF8059808496060064802680720904775
:1060400049480021016001A8FFF7B2FF00F006F8FF
:1060500006B010BD2C444120CD60000042480C49E0
:1060600002688AB1C3689268D21A012A08DB094B18
:106070009A4209DC4FF47A715143B1F57A7F03D823
:1060800005480168072008474068084450F0B0B947
:1060900000E9A4359FBB0D0044444120324B00224F
:1060A00011461A6862B182421346F9D12E4A00297C
:1060B00018BF0A460368B1FA81F14909136000E08C
:1060C00000214FF0FF320260084670477CB50E4851
:1060D000016807208847244D6C460026286870B167
:1060E0002046FFF765FF2868009A8168891A002911
:1060F00005DCD0E90012066029609047EEE7BDE8B4
:106100007C40FFF7ABBF00BF30444120B0B50C4628
:10611000054629B9F54828494FF4DD724EF0F4FEE2
:106120004FF0FF30C5E90004B0BD00BFB0B5044674
:10613000006801300EBF00202046FFF7AFFF0A497C
:106140000022096829B18B68A568EB1A01D40A46B8
:10615000F7E7054B002A18BF13461C602160B2FA0E
:1061600082F149090843B0BDA04C412010B5044656
:10617000806821690844A0602046FFF7D7FF08B176
:10618000FFF76CFFE1682046BDE8104008470000BB
:10619000B0B50D46044629B9D448074940F2DF128C
:1061A0004EF0B2FE05484FF0FF31E560C4E9001043
:1061B000B0BD00BF6ADA050044DD05006D61000076
:1061C000002908BF01216FF00042914228BF11460B
:1061D0000161AFF30080BCB5054668460C46FFF789
:1061E000E7FE00982044A8602846FFF79FFF08B10B
:1061F000FFF734FFBCBD002908BF01216FF000424A
:10620000914228BF1146FFF7E6BFE0B501680131B2
:1062100009D0FFF743FF30B16846FFF7C9FEBDE87C
:106220008C40FFF71BBF8CBD2DE9F04F87B0109C51
:10623000002989460192054698460E46074606946F
:1062400018BF4FF00109002818BF01252CB9A74835
