:020000040000FA
:10000000C03D4E201D05000061540000B5060000F3
:10001000F50600003105000033050000350500003D
:100020000000000000000000000000003705000094
:100030003905000000000000DD050000355A000011
:10004000610F0000B17C000043050000991400001E
:1000500047050000490500004B0500004D05000064
:100060004F050000510500005305000039BD000098
:10007000495E0000590500005B050000C18D0000CD
:100080005F050000610500006305000065050000D4
:1000900067050000690500006B0500006D050000A4
:1000A0006F05000071050000730500007505000074
:1000B00077050000790500007B0500007D05000044
:1000C0007F0500007554000083050000551C0000EA
:1000D00087050000890500008B0500008D050000E4
:1000E0008F05000091050000F15200009505000009
:1000F0009705000099050000F14300009D050000F0
:1001000000000000000000000000000000000000EF
:1001100000000000000000000000000000000000DF
:1001200000000000000000000000000000000000CF
:1001300000000000000000000000000000000000BF
:1001400000000000000000000000000000000000AF
:10015000000000000000000000000000000000009F
:10016000000000000000000000000000000000008F
:10017000000000000000000000000000000000007F
:10018000000000000000000000000000000000006F
:10019000000000000000000000000000000000005F
:1001A000000000000000000000000000000000004F
:1001B000000000000000000000000000000000003F
:1001C000000000000000000000000000000000002F
:1001D000000000000000000000000000000000001F
:1001E000000000000000000000000000000000000F
:1001F00000000000000000000000000000000000FF
:10020000DFF80CD000F066FE004800474F0F0000FA
:10021000C03D4E2001F0C2B8052884BF01207047C0
:10022000B0B5154A0224002952F820301D4664F367
:10023000420518BF43F0060542F820500020B0BD2B
:1002400005288FBFFF200C4951F82000C0F3402043
:1002500040B27047052804D8074A52F820309B075F
:1002600001D40120704752F8203061F3000342F8B6
:1002700020300020704700BFB4B0045058B10021B6
:100280000C4A422904BF0020704752F8213040F840
:1002900021300131F5E7FEE758B10021054A422936
:1002A00004BF0020704750F8213042F8213001315E
:1002B000F5E7FEE70030005010B51D4C1D4954F81D
:1002C000400C00F003000338B0FA80F04FEA501001
:1002D000087018BF10BD65F039FA1748016841F081
:1002E00000510160206820F00200206000F048F812
:1002F000206820F00100206010480068C00704D189
:100300000F48016821F48031016061F055FF02F06F
:1003100071FE00F04BF90B480121016005F0BAFBBA
:1003200062F028F900F097F9BDE810405FF004BBD7
:1003300040000450C03D4E2014F0005000A0045076
:100340001401095034184E2080B51A48FFF796FF63
:1003500028B11948094940F2B11260F0E9FE194983
:100360001748022202F0A6FC38B11348034940F2B4
:10037000B512BDE8804060F0DBBE80BDB824070048
:1003800080B50C48FFF788FF28B10B480B4940F2B5
:10039000A51260F0CDFE0B490948022202F064FC70
:1003A00038B10548054940F2A912BDE8804060F027
:1003B000BFBE80BD842E4E20C6240700A92407009E
:1003C000000008508C2F4E2070477047B0B509F0E0
:1003D0002DFB424C206AE169014240F07B80A06A1B
:1003E00020F01000A062206AE169014204D0A06AF6
:1003F00040F01000A0626DE002200121012501F013
:1004000015F8FFF7A1FF00F071F835480560206C82
:1004100040F001002064206C40F00200206431486C
:10042000006802F07FFE304AEFF303801064EFF3C0
:1004300010805064134602F13C05EFF31380906482
:10044000EFF31180D064EFF314801065EFF30980AF
:1004500043F8580FEFF308805065EFF30B80D06539
:10046000EFF30A8010661868506302B4114601C1A8
:10047000084602BC02C00146A1E8FC1F383278469B
:100480002D302860C2F800E0C3F800D0BFF34F8FD2
:10049000BFF36F8F00BF00BF00BF00BF00BF00BF32
:1004A00000BF00BF30BF00BF00BF00BF00BF00BF24
:1004B00000BF00BF00BF00BF00BFA06A40F0100037
:1004C000A062206820F00300206000F01BF80120EB
:1004D00000F0ADFFBDE8B0405FF064BA000004502A
:1004E00000E100E004254E20C42F4E2080B54FF0DF
:1004F000E05061F03BFC01F08BFF0320BDE8804041
:1005000001F0E4BD80B54FF0E05061F02FFC02F047
:100510004BF90820BDE8804001F0D8BD204880F3A9
:100520000A882048804720480047FEE7FEE7FEE7AC
:10053000FEE7FEE7FEE7FEE7FEE7FEE7FEE7FEE793
:10054000FEE7FEE7FEE7FEE7FEE7FEE7FEE7FEE783
:10055000FEE7FEE7FEE7FEE7FEE7FEE7FEE7FEE773
:10056000FEE7FEE7FEE7FEE7FEE7FEE7FEE7FEE763
:10057000FEE7FEE7FEE7FEE7FEE7FEE7FEE7FEE753
:10058000FEE7FEE7FEE7FEE7FEE7FEE7FEE7FEE743
:10059000FEE7FEE7FEE7FEE7FEE7FEE7FEE7000018
:1005A000C0394E20995A000001020000EFF310807C
:1005B00072B6704780F31088704740BF6F4A136867
:1005C000012B04D04FF0010313606D4A10606D4A97
:1005D00011606D484FF0805101607047EFF3108259
:1005E00072B66648016889B34FF000010160644843
:1005F0000168B1B1EFF309811EF0100F08BF21EDC2
:10060000108B21E9F00FEFF30B8441F8044D4FF00C
:1006100000041EF0100F08BF012441F8044D0068CB
:10062000016058490968096808C910C984F30B8832
:10063000B1E8F00F002B18BFB1EC108B81F30988E3
:100640004EF0100E002B18BF2EF0100E82F3108803
:100650004EF0040E70474D484FF47F01D0F8002053
:1006600041EA02010160704746490860EFF31482D5
:1006700022F0040282F3148841494FF00000086020
:100680003E494FF00100086040484FF47F01D0F828
:10069000002041EA020101603B484FF080510160B7
:1006A0003B480068006880F3088861B662B670470E
:1006B00020BF70471EF0040F0CBFEFF30880EFF36C
:1006C000098020E9F00FEFF30B8440F8044D40F867
:1006D00004ED40F804ED1EF0040F0CBF80F3088811
:1006E00080F3098800B561F0AFFD5DF804EB4EF0D2
:1006F000040E70471EF0040F0CBFEFF30880EFF3F9
:10070000098020E9F00FEFF30B8440F8044D40F826
:1007100004ED40F804ED1EF0040F0CBF80F30888D0
:1007200080F3098800B561F092FD5DF804EB4EF0AE
:10073000040E704710B4EFF3038410B47C4610B479
:1007400000B54DF804CD0FB4089C2DE9F00FEFF380
:100750000B8410B400B5684661F086FC01BC10BC87
:1007600084F30B88BDE8F00F0FBC5DF804CB5DF897
:1007700004EB10BC10BC10BCFEE70000DC314E20C6
:1007800034304E2038304E2004ED00E020ED00E003
:1007900008ED00E02DE9F05F0546002092469B46FB
:1007A00088460646814640241BE028464146474687
:1007B000224600F0D9FA53465A46C01A914110D346
:1007C00011461846224600F0C0FA2D1A67EB0108C0
:1007D0004F4622460120002100F0B7FA17EB00092E
:1007E0004E41201EA4F10104DFDC484631462A4672
:1007F0004346BDE8F09F00000649074A0868504399
:1008000043F239021044086040087047014908600B
:100810007047000000004E206D4EC64110B5431ACF
:10082000934209D28318881803E010F8011D03F8D9
:10083000011D521EF9D210BD40EA01039B0703D0EF
:1008400009E008C9121F08C0042AFAD203E011F80F
:10085000013B00F8013B521EF9D210BDD2B201E0BB
:1008600000F8012B491EFBD270470022F6E710B5B5
:1008700013460A4604461946FFF7F0FF204610BD0E
:1008800010B5044604E00B7800F8013B03B1491CA5
:10089000521EF8D2204610BD421C10F8011B002940
:1008A000FBD1801A704730B504460020034600E0B3
:1008B0005B1C934203D2E05CCD5C401BF8D030BDA2
:1008C000034611F8012B00F8012B002AF9D1184634
:1008D000704730B505460020034600E05B1C93429C
:1008E00005D2EC5CC85C201A01D1002CF6D130BDD9
:1008F0000022CBB20178994200D10246401C002967
:10090000F8D1104670472DE9FE4F804681EA03007A
:10091000C00F0C46009021F0004123F00045B8EBD9
:100920000200A94105D24046214690461C460B468E
:10093000024623F00040104347D0270DC7F30A00BA
:10094000C3F30A510290401A019040286BDAC3F3B6
:10095000130040F4801B0098924620B10023D2EB94
:10096000030A63EB0B0B01985946C0F14002504655
:1009700000F0EBF906460D4650465946019A00F044
:1009800003FA10EB08006141002487EA115284EA5F
:10099000E7731A4340D0009A62B3019A012A4FEAE2
:1009A000075215DC001B61EB02014FF0004202EA26
:1009B0000752CDE90042001C41F5801132462B461A
:1009C00000F03AFA03B0BDE8F08F40462146F9E75F
:1009D000001B61EB0201001C41F5801300185B4114
:1009E0002018A2F5001747EB030140EAD570B619AD
:1009F0006D4111E06D084FEA360645EAC0754FEAD1
:100A00000752001B61EB0201001C41F580114908EF
:100A10004FEA30000019514132462B4603B0BDE881
:100A2000F04F00F0FAB90098012240000023D0EB0B
:100A3000020263EBE073009821464FEAE074B8EBE2
:100A4000000061EB0401E9E783F000435BE781F01C
:100A5000004158E72DE9FE4F81EA030404F0004409
:100A600021F0004100944FF0000B23F0004350EAC6
:100A700001045ED052EA03045BD0C3F30A54C1F30D
:100A80000A552C44A4F2F3340194A0FB0254C1F3A0
:100A9000130141F48011C3F3130343F4801301FBEA
:100AA000024400FB034E840A970A44EA815447EA51
:100AB0008357A4FB076802958D0A05FB07854FEA5B
:100AC000932C04FB0C542705029D4FEA065847EA75
:100AD0001637B5EB08056EEB070C870E920E47EA4A
:100AE000811742EA8312A7FB0201B6EB0B0164EB0C
:100AF00000042B0D43EA0C335E1844EB1C50DA461D
:100B00005146E7FB0201C5F313044FEA0B3343EAF6
:100B100014534FEA0432019C43EA0603A4F10C0487
:100B20000294009CCDE900B400F086F903B0BDE862
:100B3000F08F00200146F9E72DE9F04D81EA03042A
:100B400004F0004B21F0004514464FF0000A23F05A
:100B5000004150EA050220D054EA01021DD0C5F33D
:100B60000A570246C5F31303C1F31300C1F30A5633
:100B700040F4801543F48013A7EB0608101BD646FB
:100B800008F2FD3873EB050002D308F1010801E01B
:100B900092185B41B8F1000F03DA00200146BDE86E
:100BA000F08D00204FF48011064684460EE0171B9E
:100BB00073EB050705D3121B63EB050306434CEAF1
:100BC000010C49084FEA300092185B4150EA0107D6
:100BD000EDD152EA030012D082EA040083EA050153
:100BE000084305D0101BAB4106D20122002306E0CA
:100BF00000224FF0004302E06FF0010253101AEBA5
:100C000006004CEB085110EB0A0041EB0B01BDE86C
:100C1000F04D00F002B930B5041E71F1000404DBA0
:100C20004FF00044404264EB0101141E73F10004D4
:100C300005DB1C464FF00043524263EB0403801A6D
:100C4000994101D3012030BD002030BD30B5041ED4
:100C500071F1000404DB4FF00044404264EB0101F9
:100C6000141E73F1000405DB1C464FF00043524292
:100C700063EB0403101A8B4101D2012030BD002028
:100C800030BD30B5041E71F1000404DB4FF00044A8
:100C9000404264EB0101141E73F1000405DB1C46A5
:100CA0004FF00043524263EB0403101A8B4101D30F
:100CB000012030BD002030BD30B5041E71F10004AC
:100CC00004DB4FF00044404264EB0101141E73F159
:100CD000000405DB1C464FF00043524263EB040363
:100CE00042404B401A4301D0002030BD012030BDAE
:100CF00030B4044696230800214604D0B62330BC05
:100D0000002200F05CB820460021F8E770B5C1F37E
:100D10000A5201F000450024C1F3130140F2FF33F1
:100D200041F480119A4201DA002070BD40F2334351
:100D30009A42A2F2334203DC524200F015F800E07E
:100D400090402C43F1D0404270BD202A04DB203A71
:100D500000FA02F1002070479140C2F1200320FA0E
:100D600003F3194390407047202A04DB203A21FA0C
:100D700002F00021704721FA02F3D040C2F12002B4
:100D80009140084319467047202A06DBCB17203ACA
:100D900041FA02F043EAE07306E041FA02F3D04080
:100DA000C2F1200291400843194670470029A8BFAC
:100DB0007047401C490008BF20F00100704710B484
:100DC000B0FA80FC00FA0CF050EA010404BF10BC39
:100DD000704749B1CCF1200421FA04F411FA0CF166
:100DE00018BF012121430843A3EB0C01CB1D4FEA9F
:100DF00000614FEA102042BF002010BC704700EB9A
:100E0000C35010440029A4BF10BC7047401C4900C7
:100E100008BF20F0010010BC704710B5141E73F11C
:100E2000000408DA401C41F1000192185B411A43AA
:100E300001D120F0010010BD2DE9F04D92469B46F6
:100E400011B1B1FA81F202E0B0FA80F2203290469C
:100E5000FFF77BFF04460F4640EA0A0041EA0B0118
:100E600053465A46084313D0114653EA010019D09D
:100E7000C8F140025046FFF777FF05460E46504640
:100E800059464246FFF761FF084305D0012004E0C0
:100E900020463946BDE8F08D0020054346EAE0765D
:100EA0002C4337430A986305E40AA0EB08000022AC
:100EB000FD0A44EA47540A3002D500200146E9E71A
:100EC000010510196941DDE9084500196941BDE8CE
:100ED000F04DA2E7064C074D06E0E06840F0010344
:100EE00094E8070098471034AC42F6D3FFF78CF92A
:100EF000802F0700A02F070070B58C1810F8015B39
:100F000015F0070301D110F8013B2A1106D110F8A2
:100F1000012B03E010F8016B01F8016B5B1EF9D1A6
:100F20002B0705D40023521E0DD401F8013BFAE72C
:100F300010F8013BCB1A921C03E013F8015B01F897
:100F4000015B521EF9D5A142D8D3002070BD80B5F7
:100F50005EF076F85EF090FB64F014FC002080BD3B
:100F600080B561F047FD00F005F8BDE8804061F014
:100F700057BD000010B50D48012101600C48BFF3BA
:100F80004F8FBFF36F8F016821F003010160046A86
:100F90006FF3192444F00041416200200BF086FAFF
:100FA0002046BDE8104006F09BBC00BF80E100E099
:100FB0000000045070B5002208230024002B0FD439
:100FC00050F8235051F82360641942F10005A41928
:100FD00040F8234045F10004013B04F00104EDE733
:100FE000BDE8704068F09EB9F8B5144600220823A9
:100FF0000025002B0FD450F8236051F82370AD1951
:1010000042F10006ED1944F8235046F10005013B7A
:1010100005F00105EDE7204668F084F90020A062A4
:10102000F8BD000010B51446FFF7DEFFA06A20B13E
:101030002046BDE8104000F00DB8414920461CF0A4
:10104000ADFB28B13E492046BDE8104004F092BCFB
:1010500010BD00BFB0B58CB0044601AD3848214684
:101060002A4604F01FFC204629462422FFF7D6FB1F
:101070000A990020C4E909100CB0B0BDF0B58BB0DE
:101080000446806A00B32E4D204629461CF06EFBB4
:1010900080B308200021002200283AD455F82060AF
:1010A00054F82030B718921941F100069A1AA3EBB0
:1010B000070771EB060244F82070A0F101004FF021
:1010C000000238BF0122E7E71D4A00200821002363
:1010D00000291ED454F8215052F821605B1940F1C8
:1010E00000059B1944F8213045F10003013903F054
:1010F0000103EDE76D46124821462A4604F0D2FB73
:10110000204629462422FFF789FB09990020C4E9DB
:1011100009100020002109290BD054F821205FEA92
:1011200050004FEA320044F8210002F00100013182
:10113000F1E720460BB0BDE8F04068F0F3B800BF1F
:10114000A0C5060010B5714901F140020021052932
:101150000AD052F8043C834203D8146823448342E3
:101160000ED848320131F2E7674A116C814206D845
:10117000526C1144814202D95648016800E0FF21B7
:1011800048B210BD704770477047000010B5514815
:101190004FF0FF3101605C480021017000F0B8F8A9
:1011A0000446002818BF012400F0B4F8002818BF36
:1011B000023400F0B1F8002818BF043400F0AEF893
:1011C000002818BF083400F0ABF8002818BF44F01E
:1011D0001004204610BD00BF2DE9F84F8A46044692
:1011E00000EBC0004949DFF820B19946904601EB79
:1011F000C0060020C6E90B009BF800003746012816
:1012000005D1314831490BF10407CBE90C10DAF86C
:101210000C00202847D8042C09D8DFE804F0030983
:101220000E131A0000F09AF8054604200EE019E0AB
:1012300000F09AF80546062008E000F09BF8054605
:10124000082003E000F09CF805460A202946012208
:1012500005E000F09BF805460020002229460EF02C
:10126000DBFCB86187F82690B9F1010F04BF8F202D
:1012700087F825009BF80000012808D100F08CF8C1
:1012800005460620012229460EF0C6FCB861A8B228
:101290004C21434600900E4814FB0102384651464B
:1012A00001F038F910B10020BDE8F88F9BF800007C
:1012B000012806D10748F96B0460306C0844F863D4
:1012C00038610120BDE8F88F4DFC00008511000059
:1012D0002C354E20EC004E2010B5044603F094F857
:1012E00010B10948043010BD2046FFF72BFF00283D
:1012F00007D4C1B2C90051FA80F0044901EBC00023
:1013000010BD002010BD00BF44114E20A8364E2055
:101310000020704700207047002070470020704771
:1013200010B58AB00B480DF1140C90E81E0000694E
:10133000ACE81E000990084801AC90E80E00C068B7
:101340000EC4049005A901AA04200023FFF744FF5E
:101350000AB010BD60B5060044C706000148008809
:10136000704700BFEC014E2001480088704700BF65
:10137000EE014E2001480088704700BFF0014E206A
:1013800001480088704700BFF2014E2001480088E4
:10139000704700BFF4014E200120704710B5224C69
:1013A00015204FF4A27130220023A047142040F2F0
:1013B000431130220023A0473220EC2100220023D9
:1013C000A0472C204FF49E7130220023A0472B20F1
:1013D00040F23B1130220023A04719204FF4A071A6
:1013E00030220023A047182040F23F113022002372
:1013F000A047372040F24F1130220023A04736206B
:101400004FF4A87130220023A047232040F251114D
:1014100030220023A04724204FF4A971302200235A
:10142000A446BDE810406047D138000070477047BF
:1014300010B561F0DFFA0B4C07A0A0470AA0A04747
:101440000DA0A0470DA00EA14FF4B6725FF070FE84
:10145000BDE8104061F0E4BA5B452F4442475D208F
:1014600000000000012B0600437261736820747253
:1014700069676765726564000A000000300000005B
:101480004442475F547269676765725F49525148C9
:10149000616E646C6572000080B561F0ABFA04485F
:1014A0007C3000F0D1FCBDE8804061F0B9BA00BFEB
:1014B00040384E20B0B5436C144CA3421CD1846814
:1014C000134BB4F5804F18BF102C08D10C6804F1F1
:1014D00060459D4238BF04F120640C60846844F488
:1014E0008040B0F5804F07D1106800F160449C4205
:1014F00038BF00F120601060086800F17042920E61
:10150000022A9CBF00F1A0400860B0BD001000504E
:10151000FFFF0700FEB505461C4600680127D5E918
:10152000113606F01C0607FA06F65E604460CDE947
:10153000012102A901AA2846FFF7BCFFAA68102AC8
:101540000FD12A680198A96990600298D060C9B14A
:10155000B1F5806F15D0B1F5006F01D1022111E016
:10156000FEE72E68029BA969B3600198F060E9B1BB
:10157000B1F5806F19D0B1F5006F01D1022115E0EE
:10158000FEE701216A692AB1B2F5807F18BFB2F582
:10159000007F09D104FA01F10144013948400021DA
:1015A000B1EB105F2CD122E0FEE701216D694DB156
:1015B000B5F5807F05D0B5F5007F01D1022501E0AA
:1015C000FEE70125A2B1B2F5804F10D104FA05F271
:1015D0001A44013A5A400023B3EB125F10D104FAC7
:1015E00001F1084A014401394840904208D8FEBD43
:1015F00004FA01F1014401394840B0F5801FF6D3E7
:10160000FEE700BFFFFF0F00F0B597B007AC01ADDC
:1016100007AE0FC41D98314613ACADF818001C98E6
:101620002246059021980490209803901F980290DC
:101630001E980190284603F0E5FA284621462246E6
:1016400003F02FFE0FAD05A8294603F0E5FB204669
:1016500029462A4603F0CBFA0BAF3046394603F051
:101660005BFD28463946224603F0F9FADDE92220DF
:101670000021042903D0635C53540131F9E7211D93
:1016800000220C2A04BF17B0F0BD8B5C83540132DA
:10169000F7E7B0B58EB002AC0FC4139900220AABC5
:1016A000149CADF804101299009102A901310F2A7F
:1016B00003D09854885C0132F9E780F0060006AD4B
:1016C0008DF837006846294603F0A6FB0AA928468C
:1016D000224603F0C4FA0EB0B0BDF0B593B007AC2B
:1016E0000FC4199901ABDDE91E42ADF81810189925
:1016F000254605911D9904911C9903911B9902910E
:101700001A9901910FA90E462DB113F8017B013DE5
:1017100006F8017BF8E70D19002605AFA319052E81
:1017200098BF102B03D2BB5DAB550136F6E7002402
:101730001D46102D08D20E5D4E551E1B0135013E73
:1017400018BF661C3446F4E707A900240BAD01312D
:101750000F2C03D02855085D0134F9E758400FA934
:101760008DF83B000BA803F07AFA13B0F0BD70B50A
:1017700098B008AC14AD0FC41E9808A92A4601AC55
:1017800007901D9806901C98059022980490219827
:101790000390209802901F980190204603F032FA9F
:1017A000204629462A4603F07CFD239C002005A9FB
:1017B00010AA0023102B08D00D5CD554451C013312
:1017C000B5F10C0018BF2846F4E710AD14A829465F
:1017D0002A4603F00CFA0CAE08A8314603F09CFC34
:1017E00028463146224603F03AFA18B070BD000090
:1017F0002DE9F04FAFB00E4607464FF404700221BA
:1018000015461DF0F7F9834628468421FFF72DF889
:1018100058464FF40471FFF728F8384602F0F6FDF9
:101820000446304602F0F2FD14B120B1ED4803E069
:1018300068B1384600E03046294600F0F1F800254E
:1018400058461CF0B9FF28462FB0BDE8F08F30464F
:10185000394606F12C0807F12C045DF0A9FC00289C
:1018600000F0C1800BF184000BF12C0107F1580A44
:10187000DA4B5A460D940BF1580906F158040C90B6
:1018800040468846514698470D98CDF834804246E8
:10189000DFF848832146C047304651464A46CDF8D6
:1018A0001CA04646C047089421460C9C3846224658
:1018B000C04748462146CA46A0465DF079FC00284C
:1018C00000F0A1800BF5F270C34E0D990BF59A74E0
:1018D0000BF1B0020BF1DC070A900BF5DC700B94F6
:1018E000099203900BF5C67002900BF5B070019051
:1018F0000BF58470049005F15800069005F12C005A
:1019000005905846B047504641463A46B047DDE953
:101910000701DFF8C8922246C84724A82C21CA46EE
:10192000FEF7A3FF19A82C21FEF79FFF0EA82C217C
:10193000FEF79BFF019E38463946B9463246D047EE
:101940003946029F30463A46D0470998039C0146E3
:101950002246D04730460A9E41463246D0470DF1D6
:10196000380830460221424603F0D0FC204624AC21
:101970000B9956462246D047204619ACDFF858A2AC
:1019800039462246D0472046049C41462246D0474D
:10199000484621462A46B0470DF190082C21B14611
:1019A0004046FEF762FF19AD2C212846FEF75DFF89
:1019B0000EAE2C213046FEF758FF0A9821464246CB
:1019C000D047099841462A46C8470D9938463246BD
:1019D000C847059A28463146D0470B99069A38469B
:1019E000C84701252CE7404621465DF0E1FB002871
:1019F0007FF41CAF306D01283FF634AFF06C002847
:101A00007FF430AF12E70D9958465DF0D1FB002806
:101A10007FF40CAF3846294600F026F80FE700BFE8
:101A2000B0B505460C46084624222946FEF7F6FEC8
:101A3000D5E909012422C4E9090104F12C0005F1CA
:101A40002C01FEF7EBFED5E914012422C4E91401B0
:101A500004F1580005F15801FEF7E0FED5E91F0139
:101A6000C4E91F01B0BD00002DE9F04FA7B00E463C
:101A700005464FF4F27002211DF0BCF80446286DB3
:101A8000012801D8E86C18B1284602F0BFFC20B14B
:101A900054483146FFF7C4FF97E004F1B00005F168
:101AA000580805961CAE05F12C0B039004F1840038
:101AB00041463246029004F15800049004F12C0093
:101AC00001902846FFF7AEFA0DF1440A424B284632
:101AD0004146524698470DF11809404F304651464D
:101AE0004A46B8473E463E4F484603212246B8473D
:101AF0004146DDF804805846B9464246B0471CAF1F
:101B0000584641463A46B0472846049D39462A463B
:101B1000B0470DF1700A204621465246B04711AF3A
:101B2000284608213A46C8475046DDF808A02A4B07
:101B30003946524698471CAD5046414637462A46DC
:101B4000B047059A28460221C84704F1DC055846EB
:101B500059462A46B04740464146C346DDF80C8008
:101B60004246B04704F58476284641463246B84797
:101B7000B94604F59A751A4F304608212A46B847E7
:101B800004F5B076049804213246B84704F5C677C8
:101B90005146DFF844A030463A46D04704F5DC769B
:101BA000204639463246C847059F3046294607F148
:101BB0002C02D0471CAD404659462A46C847084B20
:101BC00007F1580228460821984720461CF0F4FDEA
:101BD000002027B0BDE8F08FE95800004553000011
:101BE0000D53000054C80600F0B58BB0184F0546E1
:101BF00014460E46F87DFF2809D007F06BFDF97DED
:101C00001022C90002FA01F1084307F071FD05F145
:101C10005800694605F018FFF87DFF2809D007F045
:101C200059FDF97D1022C90002FA01F1884307F03D
:101C30005FFD6F4628463246394603F083FB05F1C7
:101C40002C003946224603F07DFB0BB0F0BD00BFEF
:101C5000B40F4E20F8B560F0CDFE114DA8680130EC
:101C6000A86007F055FD0F480F4C0068800606D4A9
:101C7000204600F003FFBDE8F84060F0D1BE0B4FF6
:101C8000002668888642F6D23888603881B23F29BB
:101C90009CBF204600F098FE0C370136F1E700BFEC
:101CA000D8114E20280004500000085038024E2061
:101CB00010B5084B4024984208BF60248C4208D9D4
:101CC00001F01F0313806FF07C0202EA81010844D7
:101CD00010BDFEE700000840154B026898421CBF8B
:101CE000144B98420BD0144B984208D0134B984297
:101CF00005D0134B98421CBF124B984213D14B682E
:101D000022F070021A4302600A688B68C362826222
:101D10000A4A904202D0084A904201D1C968016340
:101D2000012141617047084B9842E8D0EBE700BFC2
:101D3000000001400010014000300240004002401D
:101D40000000015000200150001001507047B0B554
:101D500090F8291002291CD10168C26BD0E9113416
:101D60000D6825F00E050D600D6825F001050D606C
:101D700004F01C014FF0010404FA01F159604FF026
:101D8000000180F8281080F829402AB190470021EE
:101D900002E00421016401210846B0BD68B1B0B57C
:101DA0000268116821F001011160A249114401F596
:101DB000B8338C2B03D8A04B0EE001213EE08C29D8
:101DC00003D89D4901F5B83306E09C4911448D299B
:101DD00036D2994901F18053A2F1080114244364D9
:101DE000C9B2B1FBF4F18C00846400210125102CF0
:101DF000116004F01C0205FA02F24FF018055A6057
:101E00004FF0380205EA440538BF02EA44054FF0B6
:101E10003F024FF0AC0402FA05F238BFA8241D5966
:101E200025EA02021A51016480F82810C0E90C1159
:101E3000C0E90E1180F82910BDE8B040084670478F
:101E4000D0E91134D1E700BFF0B5D0E91123016822
:101E500014680D6803F01C036E0711D504269E401C
:101E600016EA04070CD00B689B0603D40B6823F01A
:101E700004030B605660416BC9B3BDE8F0400847EE
:101E8000AE071ED502269E4016EA040719D05660FA
:101E90000A68920606D40A6822F00A020A60012241
:101EA00080F82920002280F82820026BFAB1096806
:101EB000890603D490F82910012918D1BDE8F04013
:101EC00010472D0713D508259D402C400FD00C68D6
:101ED00024F00E040C60012101FA03F35360002288
:101EE000016480F8282080F82910816BC4E7F0BDD8
:101EF0002DE9F04F68B1816821B1102918BFB1F503
:101F0000804F05D1C2686FF040031A4205D0FEE74A
:101F1000FEE701210846BDE8F08F03696FF08004F9
:101F2000234200D0FEE745692DB1B5F5807F18BF8B
:101F3000B5F5007F0DD186692EB1B6F5806F18BF5B
:101F4000B6F5006F06D1C7696FF02004274202D0B2
:101F5000FEE7FEE7FEE7D0F820904FEA3934042C84
:101F600005D2D0F804C0BCF1200F01D3FEE7FEE794
:101F7000D0F800E02F4C0EEB04082F4C08F5B83BCE
:101F8000A246BBF18D0F0BD3B8F18D0F02D20AF52B
:101F9000B83A05E0294C74448C2C0BD80AF1805ACD
:101FA000AEF108045FFA84F81424B8FBF4F4A4003A
:101FB000C0E911A402240A43B1F5804F80F82940FA
:101FC00042EA0302446A42EA050242EA0602CEF805
:101FD000104042EA070247F6F074DEF8008042EA59
:101FE000090228EA040442EA0402CEF8002019D0CB
:101FF000816CC1F38202032A03D8D100426CA8325B
:1020000005E08908182202EAC101426CAC323F2384
:1020100014688B400CFA01F124EA0303136013687F
:102020001943116000210122016480F8281080F812
:1020300029206FE7F87FFEBF00100040F8EFFFAFE8
:10204000B0B50446581E4FF6FF75A84200D3FEE710
:1020500094F8280001281DD0012084F8280094F865
:102060002900012813D1022084F8290000202064CF
:102070002068056825F0010505602046FFF74AFA4B
:102080002068626B01683AB141F00E010AE000205D
:1020900084F828000220B0BD21F00401016001682D
:1020A00041F00A010160016841F001010160002076
:1020B000B0BDE0B50190019830B14FF47A7000F0F6
:1020C00005F801980138F5E78CBD0000F8B5044625
:1020D00010B9002000F036F842F21075094E84B1B4
:1020E000671B34BF00272C463068C00704D1204648
:1020F00000F028F83C46F2E7204600F005F83C46A0
:10210000EDE7F8BD10E000E018B500900C484FF482
:102110007A730168009A4A43B2FBF3F200920022FC
:1021200043684468A342FCD01A44A342A2EB0402D1
:1021300098BF0A44009B9A42234628BF18BDF0E787
:1021400014E000E01CB5174C01902068019901B122
:1021500040B9002001F010FD1349B0FBF1F0206000
:102160000199E9B10199B1F1807F00D9FEE70199A8
:10217000B1B10E490A68D2070BD10D48026842F08E
:102180008072026000200B4A4860086810430860B3
:102190002068019A50434A684B689B1A8342FBD3DC
:1021A0001CBD00BFF4134E2040420F00001000E0A1
:1021B000FCED00E001000200C0B1F0B55203DDE922
:1021C0000576DDE90754006842EA8141826C41EA04
:1021D000C3216FF3140241EA072141EA861141EA63
:1021E000C501214311438164BDE8F04070472DE9EA
:1021F000F041002876D0044600680022E16842627F
:102200002046002291F89351022100F04FF915B1B8
:1022100020B1002705E070B300262FE02068406859
:10222000C7B2E068152100220025C679204600F0DB
:102230003DF9002E18BF27EA0606C0B1204600214E
:10224000002200F033F92068032100224660456235
:10225000204600F02BF9206845622046022100222A
:1022600000F024F920684068C007F6D13AE0206801
:10227000466045623CE020684068C6B220461421B2
:102280000022002500F012F918B920684068000209
:1022900085B2E068152100224FF00008C77920467A
:1022A00000F004F9002F26EA070118BF0D43D8B14A
:1022B00020460021002200F0F9F8206801210022C8
:1022C000456041622046032100F0F0F82068C0F824
:1022D000248020460221002200F0E8F820684068AF
:1022E000C007F6D1BDE8F081206801214560416258
:1022F000204603210022BDE8F04100F0D7B8F0B538
:1023000085B0002840D00446C068D9B190F86A1062
:10231000D1B390F96E3090F96D2090F96C1090F96E
:102320006F5090F9706090F9717090F972008DE8BB
:10233000E00003902046FFF73FFFE168206891F836
:102340006A101AE090F84610F1B190F94A3090F90D
:10235000492090F9481090F94B5090F94C6090F951
:102360004D7090F94E008DE8E00003902046FFF795
:1023700023FFE168206891F84610026C22F0FF020A
:1023800011440164002000E0012005B0F0BDE0B17F
:10239000F0B585B00446C068C9B190F96A3190F9CA
:1023A000692190F9681190F96B5190F96C6190F97D
:1023B0006D7190F96E018DE8E00003902046FFF703
:1023C000FBFEE06800F5B37018E00120704790F95B
:1023D000583190F9572190F9561190F9595190F9C7
:1023E0005A6190F95B7190F95C018DE8E00003900F
:1023F0002046FFF7E1FEE06800F5AA70216800784A
:102400000A6C22F0FF0210440864002005B0F0BD01
:1024100080B578B102681168C9074FF001010AD090
:10242000936A61F31503B9219362002200F0EAF97F
:10243000014600E00121084680BD50B10068002936
:10244000026842F0010308BF22F00103036000208C
:10245000704701207047B0B50C4605465CF004FE9D
:1024600028462146BDE8B040FFF791BF10B590B1B6
:10247000044600680C4A816A62F3150100228162F9
:102480000221416220469F2100F0BCF9206840688B
:1024900020F07F4405E000209F210022002400F06E
:1024A000B1F9204610BD00BF010004002DE9F04144
:1024B00086B00546C06848B3382927D801EBC10665
:1024C0003044017C11B3144690F9133090F9122076
:1024D00090F9111090F9147090F915C090F916E068
:1024E00090F9178090F918008DE88050CDE90380AD
:1024F000284600F039F9E86822463044017C284635
:1025000000F080F9002818BF012000E0012006B08B
:10251000BDE8F0812DE9F0410125002800F0AF80F1
:102520000F46002900F0AB8039469846164604460F
:1025300001F0C0FA206800F0B4F905460220A66058
:1025400007F1080284F83A004FF0000084F82400F4
:1025500007CA84F838204FEA0151C4E90F01A2F1FB
:102560000100B0FA80F04FEA501084F82300FEB169
:10257000B8F1000F1CD000204FF480517062C6E902
:1025800007018021C6E90500C6E903011020B060FB
:10259000D8F80000D8F80C10C6E900016FF07F40B1
:1025A000854218BF002D29D12046012100F06EF987
:1025B0006FF07F40854218BF002D1FD1A069694987
:1025C000069F0022002688424FF00001204688BF67
:1025D000012101F092FAF9B2204600F00FF994F8C7
:1025E0003900012802D0022804D1012620463146B4
:1025F00000F029F920460121FFF71FFF94F823007E
:1026000070B96FF07F40854218BF002D63D120461E
:1026100000F0CAF80020FFF759FD3220FFF756FD01
:102620006FF07F40854201D02F461DB9204601F052
:102630005FFA07466763FEB2C7F30741C7F3072295
:10264000304668F019FAE06088B1390A380CC7B230
:102650005FFA81F830463946424668F043FA08B1DD
:102660006061206494F8230060B1002507E02046F3
:1026700000210025FFF7E1FEC4E90F55012528469A
:10268000BDE8F0816FF07F40854218BF002D24D156
:102690002046FFF7ACFD6069B0F1807F21D920466C
:1026A000212100220025FFF701FF94F8200070B3DC
:1026B00020460121FFF7CFFE94F82600012844D1DF
:1026C00030463946424668F017FAB0B32046012139
:1026D00000F082FF39E02F46ACE7002584F8265051
:1026E000CDE794F82000C8B12046012100F0B9F8E8
:1026F00094F82600012819D130463946424668F040
:10270000FBF938B32046012100F066FFADE7204613
:10271000002184F82650FFF79EFE16E00025204693
:10272000002184F8265000F09CF8A8E720460021FC
:102730000022002500F02EFFA1E720460021002204
:10274000002500F027FF84F826502046072100F0DE
:1027500093F88AE7204600210022002500F01AFFA6
:10276000BCE700BF00879303E8B1F0B59204DDE950
:102770000547DDE907650068DDF824C042EA4151FC
:10278000826A41EA43316FF3150241EAC42141EA0A
:10279000072141EA861141EAC50141EA0C011143D2
:1027A0008162BDE8F0407047B0B5D0B10446006822
:1027B000016811F0010503D1016841F001010160D8
:1027C000816A012262F31501002281622046AB2159
:1027D00000F018F825B921680A6822F001020A60A1
:1027E000B0BD0120B0BD38B10068026C22F0FF021C
:1027F00011440164002070470120704708B100684F
:10280000C1607047E8B1BCB505460C460068E96A8E
:10281000C26161B100208847302001900198411EBB
:1028200000280191FAD1E96A01208847286884616B
:102830000169C907FCD0416941F0010141610020F3
:10284000BCBD0120704750B100680029026842F009
:10285000807308BF22F0807303600020704701205E
:102860007047B0B50C4605465CF0FEFB2846214695
:10287000BDE8B040FFF743BD30B10068826861F346
:1028800002028260002070470120704740B100685A
:1028900001F01F01426D22F4F84242EA81214165B4
:1028A000704700207047000040F08051D64A9142A6
:1028B0001CBF012070474FF0FF317B4AC164C0F854
:1028C000CC1090424FF0000008BFC2F84C11704786
:1028D0001CB50DF106020446FFF7EAF980B1CA49BA
:1028E0008C420FD0BDF80610012202FA01F1C26D30
:1028F000114213D0026D0A4201D0C1650EE0FEE71D
:1029000001201CBDBDF80610012202FA01F1C26CC3
:10291000114203D0C2690A4202D0C16400201CBD2A
:10292000FEE700BFE8B1BCB589B20DF10602FFF7C2
:10293000BFF9A8B10446BDF80600012101FA00F56F
:10294000A0692843A061606A28436062A06D2843A3
:10295000A0650120FFF7BAFBE564E565E563A564C2
:10296000BCBDFEE72DE9F041154F0C46054607F1C9
:102970001C06FDF71BFE13498046F8682944B1FA8E
:1029800081F106EBC00049098180F86806EBC000C0
:10299000C48000F0E5FAF96846F831002146F8688D
:1029A000013001289ABFF86801300020F8602846FD
:1029B0005CF07AFC4046BDE8F041FDF7FBBD00BF8E
:1029C000D8114E200000F8BF7CB50DF106020C4670
:1029D0000546FFF76DF9A8B18B4EB54214D0BDF88E
:1029E0000610012202FA01F1C26D11420AD0026DF5
:1029F0000A4208D0C16528462146FFF7B3FFC04808
:102A0000854226D07CBDFEE7BDF80610012202FA01
:102A100001F1C26C1142F5D0C2690A4218D0C164FA
:102A200030462146FFF79EFF3046214600F0B4FBBA
:102A30000028E7D400F10801012203300D4B02FA0F
:102A400001F102FA00F041F0004119600A490DE07D
:102A5000FEE7214600F0B0FA0028D3D4C0B24FF40C
:102A6000807101FA00F0024940F0004008607CBD2E
:102A700024000440240004500CA0045070B5044607
:102A80009F48844205D06048844201D13C2501E042
:102A9000FEE75E250026B54208BF70BDB1B22046F4
:102AA000FFF792FF0136F6E7000008407CB5A0B1C1
:102AB000054648680E46112810D94D49884212D063
:102AC0004C4988420FD04C4988421CBF4B49884230
:102AD00009D04B49884206D0FEE7FEE70121434A70
:102AE00081401142E9D0B068032821D231880DF12C
:102AF00006022846FFF7DCF8002871D0044670680B
:102B0000112816D0012829D1BDF80600012101FAAB
:102B100000F5606A28436062A06D2843A06501202B
:102B2000FFF7D4FAE564E565E563A56465617CBDFE
:102B3000FEE7BDF80600012101FA00F5606A2843AE
:102B40006062A06D2843A0650120FFF7BFFAE5642D
:102B5000E565E5602563A56365647CBDBDF8061089
:102B6000012202FA01F678B12649A66108444FEA2B
:102B7000305004282ED8DFE800F003161A1F260074
:102B8000E06A3043E0621AE0606A30436062A06D40
:102B90003043A0650120FFF799FAE664E665E66335
:102BA000A664A6617CBDE06A3043E0620EE0E06AA4
:102BB0003043E062A6630AE0206B30432063A663E3
:102BC00004F1480005E0206B30432063E66304F124
:102BD000440006600C48854203D0606D3043606558
:102BE0007CBD206A304320627CBD00BF0300020030
:102BF00000001110000021100000311000004110F1
:102C0000000051100000EFEF00000850F0B1E0B5F7
:102C10000DF10602FFF74CF818B3BDF806100122BB
:102C200002FA01F14268114211D1826A0A420ED1C0
:102C3000426B0A4091420AD1026C0A40914206D18D
:102C400000690840B0FA80F0400906E0FEE702693A
:102C50000A420CBF006840680840002818BF0120E5
:102C60008CBD00208CBD0000254B98421DD0022A4F
:102C70001DD15030BAB10B68013A40F84C3C4B685A
:102C800040F8403CCB6840F8283C0B6940F8183CC1
:102C90004B6940F80C3C8B6903608B681C3140F831
:102CA000343C8030E6E700207047032AE1D0012061
:102CB000704700BF124B98421DD0022A1DD15030E0
:102CC000BAB150F84C3C013A0B6050F8403C4B60B4
:102CD00050F8343C8B6050F8283CCB6050F81C3CDA
:102CE0000B6150F8103C4B61036880308B611C31E4
:102CF000E6E700207047032AE1D00120704700BFBB
:102D0000000008401CB518B11446022A01D3FEE7A2
:102D1000FEE70DF10602FEF7CBFFD8B1BDF80610B5
:102D2000012202FA01F1426811420FD1826A0A427D
:102D30000CD1426B0A40914208D1026C0A40914288
:102D400004D144B18269114381611CBD0CB1816021
:102D50001CBDC1601CBD4269114341611CBD000026
:102D600070B5002875D004460068724DA84203D1A2
:102D70001B2000F0CFFE206805F58051884203D16A
:102D80001C2000F0C7FE206805F18051884203D165
:102D90001D2000F0BFFE206805F11021884203D1FC
:102DA0001E2000F0B7FE20686A4EB04203D11F20FB
:102DB00000F0B0FE206805F59831884203D1462026
:102DC00000F0A8FE206805F5A031884203D1472015
:102DD00000F0A0FE2068A84216D05749884213D0C0
:102DE0005649884210D0564988420DD055498842EC
:102DF0000AD05549884207D05449884204D05449E2
:102E0000884218BFB04226D1A16819B1102918BF55
:102E100060291DD194F83610251D31B9002084F8A1
:102E20003400204600F01EF82068022184F8361095
:102E30002946FEF751FF20686FF00101016101682A
:102E400041F004010160012084F83600002070BDCB
:102E5000FEE7012070BD40498842D5D03F498842F5
:102E6000D2D0FEE7704700000068324988421DD08A
:102E7000314988421AD03149884217D030498842B6
:102E800014D03049884211D02F4988420ED02F49A2
:102E900088420BD02E49884208D02E49884205D05E
:102EA0002D49884202D02D49884209D1C16841F09C
:102EB0000101C160016841F001010160002070471B
:102EC000FEE700BF00681B4988421DD01A498842AE
:102ED0001AD01A49884217D01949884214D0194982
:102EE000884211D0184988420ED0184988420BD028
:102EF0001749884208D01749884205D016498842A8
:102F000002D01649884213D1C16841F2111221F052
:102F10000101C160016A114208D1016A40F24442D4
:102F2000114203D1016821F00101016000207047C6
:102F3000FEE700BF000001400010014000200140FA
:102F400000300140003002400040024000000150CB
:102F5000001001500020015000300150004001508D
:102F60000F480178FF2905D1E8490122096822EAC2
:102F7000010101700B48006841B10B494A68002A01
:102F80000CBF0A210988B0FBF1F07047C10B4FF468
:102F90007A726FF3DF305043514301EBD03070470A
:102FA000480E4E204400045064124E20014951F84E
:102FB0002000704730B0045010B5094B0022122A8F
:102FC0000AD053F83240844204D103EBC204A488EF
:102FD0008C4202D00132F2E7FF2250B210BD00BF96
:102FE00058BE06000248016801310160704700BF09
:102FF000B4394E2080B500F041FD00F03DFD00F0F9
:1030000039FE032000F09EFB002000F004F80028A9
:1030100018BF012080BD002070470000FD280FD898
:1030200071B16AB1B0B50F4C064B256805B9236084
:103030001B68054CA342BDE8B04008BF00F006B8CD
:1030400001207047003E4E207878454580B51346F4
:103050000A4601460348006801F0B6FD002818BF83
:10306000012080BD38184E202DE9F041044610386B
:103070008846414EC1B23546112925D84FF480719A
:103080001C2C01FA00F747F00040286205D3A4F198
:103090001C000021C0B2FDF7BFF82046172C88BFE6
:1030A0000838C1B2172C88BF04363268490051FA7B
:1030B00080F007213038814008FA00F0084022EA09
:1030C00001010843306002E0012000FA04F7A8691A
:1030D0003843A8610020BDE8F08100BF04480168C2
:1030E00041F0040101600168B1F1FF3FFBDC704772
:1030F0000C0004501148016821F0030101600168CF
:1031000041F0020101600020704700BF0B480168D8
:1031100021F003010160016841F00101016000201C
:10312000704700BF0548016821F003010160016894
:1031300041F0030101600020704700BF000004500F
:103140000122112816D8A9B110B5024607280A4C49
:1031500088BF083AD3B2072888BF043420685B00D0
:1031600053FA82F2072393401840D040002208709F
:10317000BDE810401046704704000450024600208D
:10318000112A07D831B10E4800EBC20350F83200C3
:103190009B880B80704700BF10B5094B0022122A94
:1031A0000AD053F83240844204D103EBC204A4880D
:1031B0008C4202D00132F2E7FF2250B210BD00BFB4
:1031C000E8BE060001281CBF0120704704480168C2
:1031D00041F00101016001688906FCD500207047BB
:1031E0002800045004490068896E884218BF70475F
:1031F00001485EF083BB00BF4C0E4E200268D84BE6
:103200009A421CBFD74B9A4210D1B1F1807F00D3B4
:10321000FEE7022380F833304368012B10D0C36AE5
:10322000B3F5000F06D1836833B1FEE7CE4B9A4267
:10323000EBD0FEE7D36803E0D36823F46063D36088
:10324000136943F00803136113691B07FCD49368E7
:1032500043F002039360936843F40073936013692F
:1032600043F0010313619161022390F832100129A8
:1032700008BF0423116919431161012180F833103B
:10328000002070470168B64A91421CBFB54A91427E
:1032900013D1022280F833200A6922F001020A6168
:1032A0008A6822F002028A608A6822F400728A60C8
:1032B000012180F8331000207047AB4A9142E8D0DA
:1032C000FEE700BF80B52DED028B10480068C007F7
:1032D00013D100F03FFD98B100EE100A9FED0E1AD9
:1032E000B8EE400A81EE008A00F024FD00EE100ADC
:1032F000B8EE400A28EE000A04E09FED050A01E05E
:103300009FED040ABDEC028B80BD00BF00A00450FD
:103310000000004700901746001B374C10B50446CC
:1033200000680168C9071CBF81685FEAC17142D1AA
:103330000168890705D5022141602046FFF752FF49
:1033400020680168490744BF81685FEA417139D448
:103350000168090744BF81685FEA017139D40168D7
:10336000C9050AD5816821F4807181604FF48071AC
:103370004160204600F0E4F82068016889050AD51C
:10338000816821F4007181604FF4807141602046B2
:1033900000F0D6F820680168490558BF10BD816863
:1033A00021F4806181604FF4807141602046BDE866
:1033B000104000F0C5B801214160204600F0D7F868
:1033C0002068B5E704214160204600F0B8F8206885
:1033D000BEE708214160204600F0C8F82068BEE73B
:1033E000F8B5D0B3044600685D4988421CBF5D490A
:1033F000884234D1616802292BD2A3684FEA732234
:10340000082A27D201290DD16269042A24D801256E
:1034100005FA02F212F0150F1ED0A2694FEAF2026D
:10342000042A18D2E26972B1B2F5005F0BD0B2F58E
:10343000804F18BFB2F5C04F05D0B2F5004F18BF8E
:10344000B2F5204F48D1A56A6FF4001635420AD074
:10345000FEE7FEE7FEE7FEE7FEE70120F8BD424992
:103460008842C7D0FEE7D4F82CC06FF400071CEAEE
:10347000070F00D0FEE794F8337057B9002084F8A6
:103480003100204600F05AF8D4E90A5C94E80B00B9
:10349000E26902271C4E0B43012984F83370B646BB
:1034A0004FF6FF7643EA0503C76843EA0C0308BFFB
:1034B00027F48F77B242154E18BF07EA0E073E4039
:1034C00043EA060369B101290DD1D4E90556E16843
:1034D0002B4333430B4306E04FF6FF75AA42B2D0AD
:1034E000FEE721690B434FF6FF718A4205D043EA9C
:1034F0000201D4E9082311430B43C360012084F87F
:1035000033000020F8BD00BF3E1159FFFEF159FF06
:1035100098B110B500214FF6FF744FF400324FF40C
:103520000013C0E90111C0E90412C0E90614C0E9A2
:103530000821C0E90A31BDE8104070477047704764
:10354000704700000068064988421CBF0549884250
:1035500001D1C069704704498842FAD0FEE700BF34
:1035600000100440001004500020045070477047C1
:1035700070B5044600680026056985604DB1E8070E
:1035800004D0A26812B1F1B22046904701366D080E
:10359000F4E770BDA8B110B500680E4C836D91B111
:1035A000911E98BF11460A064FF03A0201F06F01D2
:1035B00058BF2A2242EA013104F110021A40114395
:1035C00005E00120704703EA040141F48031816580
:1035D000002010BDC00FFEFFF0B585B0044649B312
:1035E000E06890F8FF1119B394F8201001B390F936
:1035F000033290F9022290F9011290F9045290F9E5
:10360000056290F9067290F907028DE8E0000390D8
:103610002046FEF7D1FDE06890F8FF112046FFF745
:10362000E2F894F8252020460121FFF7B3FF17E0C8
:10363000012516E0204600210022FFF7ABFF61695B
:1036400094F82000B1F1807F05D968B120460121AE
:10365000FEF79DFE04E068B120460121FEF74FFE13
:103660000025284605B0F0BD204600210025FEF7C4
:103670008EFEF6E7204600210025FEF740FEF0E72B
:10368000B0F1FF3F10DD00F01F010122C0B202FACD
:1036900001F1064A42EAD00020F003000160BFF3C6
:1036A0004F8FBFF36F8F7047FEE700BF80E100E0F0
:1036B000B0F1FF3F0CDD00F01F010122C0B202FAA1
:1036C00001F1044A42EAD00020F003000160704793
:1036D000FEE700BF00E100E0B0F1FF3F0CDD00F0CD
:1036E0001F010122C0B202FA01F1044A42EAD000ED
:1036F00020F0030001607047FEE700BF00E200E039
:10370000102A00D3FEE7102900D3FEE770B5154B51
:103710004FF0FF351B68C3F302231C1F83F0070320
:1037200038BF0024032B28BF032305FA04F605FA4B
:1037300003F3B2439943A1401143BDE8704002F046
:10374000E9BB00BFC11E05290AD206494FF6FF0397
:103750000A681A4060F30A22034810430860704761
:10376000FEE700BF0CED00E00000FA0580B500F0B8
:103770000BF800681049884218BF80BD0148BDE8B9
:103780008040004701A04F000048704700DF4F20F5
:1037900080B5FFF7F9FF0168074A91421CBF00207E
:1037A00080BD00F108024068C10810460022BDE853
:1037B000804000F003B800BF484354502DE9F04367
:1037C0002A4B002516464FF0010C4FF00008002A46
:1037D000C3F880509E46164B18BF01269946A94251
:1037E0001BD00CFA05F707EA0204B4FA84F4640962
:1037F000344210D150F835404B4648EA070873462A
:1038000004EA09044EF8254000EBC504CEF88470A4
:103810006468CEF888400135E1E70020002ACEF840
:103820008400404608BF4246CEF88020BDE8F083C1
:10383000FCFF0F0070B5034600200C4C0DE0D4F8DF
:103840008050C540ED070CD054F8205003EBC00663
:1038500043F8305001302D6875601F2898BF8842AA
:10386000EDD3D4F88010116070BD00BF004000504F
:1038700010B50A4B084C002A03EB401308BF04EBB9
:1038800040130020102805D033F810208A4201D0C0
:103890000130F7E710BD00BF641107008400070086
:1038A0000421B34A002808BF082104BF0822C5F23A
:1038B00000021368002841EA03011160034904BFB4
:1038C00043F20001C5F20001084670470030004095
:1038D0002DE9F04168B3044618461E4615460F46CA
:1038E000FFF7DEFF8046204639463246FFF7C0FF2D
:1038F0000F281EDC074620462946324600F032F8E3
:10390000432C1ADBCEB90821102047F2180301EA34
:10391000550100EA55002943084307F0070140EA32
:1039200001300F4951F824209A43104341F82400F4
:1039300013E04FF0FF30BDE8F08107F00F0005F015
:103940003001084408EB840151F8042C22F03F02B6
:10395000104440F0400041F8040C0020BDE8F08124
:10396000A8AF045010B5002A0F4B6FF0680208BFD3
:10397000043308BF6FF03C021044052813D800F14F
:103980000802012404FA02F204FA00F0CC068906C7
:1039900000EAE47440EA020048BF1443196821EACF
:1039A00000002043186010BDCCB004500649884286
:1039B00004D00649884206D1042000E002200449D0
:1039C0000A681043086070470040014000B0005092
:1039D00004A00450B0B5027D012303FA02F311B331
:1039E000D0E90041032A656845EA030543EA034339
:1039F00045F480356560A56843EA0503A360C37C90
:103A0000847D44EA0343847C43EAC4430B6008D8C2
:103A1000028A32B1CB689BB2CB60CB6843EA0242E8
:103A2000CA60022107E0026843EA0341936823EA7F
:103A300001019160012101760020B0BD017D006887
:103A4000012202FA01F1426811434160704710B54A
:103A500018B1017D082901D3FEE7FEE70268D0E92D
:103A6000023402EB011101224B61027601F11002D6
:103A7000426000208C6110BD7047000080B5FFF7E8
:103A80002DFB83480122016862F3010102220160DB
:103A900007490A800322016841F0100101600120FA
:103AA000012100F0F7F8BDE88040FCF7B3BB00BF90
:103AB000F4014E200122C8B1C1B170B591E83800BF
:103AC000C968FF264FF05022C3F884609A6701222C
:103AD0001E62090580F822200022C0E9003280F829
:103AE0002040C0E904515E64BDE870401046704754
:103AF00008B1FEF7BBBCFF20704750B1006840B171
:103B000002F00F0261F30412816D21F01F011144D4
:103B100081657047E0B5694601AA01F0D7FC009ABB
:103B2000B0F1804F124908BF002A15D0B0F1804F84
:103B300008BF012A0AD0B0F1A04F08BF002A07D061
:103B4000B0F1A04F08BF012A05D0FEE7043103E021
:103B500001F1805100E00749EFF31080012282F368
:103B60001088019A0B681A430A6080F310888CBD94
:103B7000080000400C00005010B50446002808BFA3
:103B80000224204600F030F81649012C06D0022C01
:103B900003D101F180513F2201E0FEE7FF220968D5
:103BA000114008BF0121B0FBF1F010BDB0B50546D2
:103BB00000280C4608BF02252846FFF7DDFF09490B
:103BC000012D03D0022D0BD101F180510822002CD0
:103BD00008BF0C220968D14001F00701C840B0BD00
:103BE000FEE700BF14000040012807D10C48006820
:103BF00000F00300032808BF00F016B80048704723
:103C0000006CDC020649102809689ABF054A52F880
:103C1000202001228240114021FA00F0C0B27047FA
:103C200010000040B8B50600012000F007B80220DF
:103C300000F004B8032000F001B800000B4901288F
:103C400006D0032803D002280ED1043100E0083149
:103C5000086848B1C0F38301054A00F00100404202
:103C600001FB022108407047002070471C00004003
:103C700000366E0100F048B80121054A002808BF4F
:103C8000032112688140114021FA00F0C0B2704750
:103C900010000050B0B50023002820EAE074C8BF2F
:103CA0003F2300290AD480F0010503F5E0630D43AA
:103CB0004FEA012108BF4FF480710C43B2F1FF3F7E
:103CC000C4BF03F5E04344EA0234A3B179490128B3
:103CD00003D10A6842F040020A600A68012822EA19
:103CE000030242EA04020A6005D0002803D40868EF
:103CF00020F0400008600220FFF73EFF0149086005
:103D0000B0BD00BF30004E207047000080B50220DB
:103D1000FFF732FF0649B0FBF1F066490A686FF31E
:103D2000184242EA004040F40000086080BD00BF35
:103D300000127A00C820704705480078704700BF1D
:103D400018B103490870002070474FF0FF307047EA
:103D5000F0004E2004480068704700BF014602484A
:103D60000160042000F0E8B8E8174E202DE9F84F74
:103D700005464D480068C0071CBF4FF0FF30BDE846
:103D8000F88F00200C46FFF777FF01281CBF6FF06B
:103D90000100BDE8F88F45480068C00644BF6FF0D9
:103DA0000300BDE8F88FDFF808A19AF8020018B107
:103DB0006FF00200BDE8F88F4FF0010B3D488AF824
:103DC00002B00068C0F30236C0F3022800F03F09D9
:103DD000072E06D04FF0FF304FF0FF310722FFF7DC
:103DE00059FF354F4FF6FF7138686BF3DC40386090
:103DF000386840F000503860386820F4803038600F
:103E000038683860386888433860386828433860D4
:103E1000386840F4003038600120FEF74AF97868CD
:103E2000B0F1FF3FFBDC7868072E20F0004504D09E
:103E3000484641463246FFF72DFFDAF808302A4659
:103E400003B3DAF80400191AFB2904D3834288BFAC
:103E5000B5EB00010AD8411B04D9C92928BFB0EB32
:103E6000030106D8C0EB0010284409E0FA2902D863
:103E7000F1E7C829F6D900EB40000D2105FB010050
:103E800008300209501B2946CAF8042000900BA0F4
:103E9000FDF75CFFDAF80400CAF808502060002043
:103EA0008AF80200BDE8F88F00A004503C000450DE
:103EB000DC134E2014000050140109504C5043797B
:103EC000636C6573206375723D2564202C206176D8
:103ED000652025642C206375725F6261636B757069
:103EE0003D25642064656C74612025640A0000002F
:103EF0006FF00401084200D0FEE70D4904280A686B
:103F000022F0040308BF42F004030B60704700BFB7
:103F1000411E0020B0EB116F1CBF01207047044A06
:103F2000E023516003490B700721906011607047D6
:103F300010E000E023ED00E0014A42F82010704755
:103F400030B004507047000010B50168044608689E
:103F500020F490700860886820F00100886088680C
:103F6000400605D400200F22A4F85A000A6217E088
:103F7000886820F040008860E06E40B10D49C16360
:103F8000FDF7E5FE98B1E06EC16B88470FE00020B9
:103F90000F22A4F85A000A628A6942F008028A6174
:103FA0006065202084F872002046FFF7CBFF0020D8
:103FB00010BD00BF015D00007047000010B5044651
:103FC0000068016821F0C0010160816809060ED512
:103FD000816821F080018160A06E40B10A49C1630F
:103FE000FDF7B5FE68B1A06EC16B884709E00020FF
:103FF000A4F852006066202084F871002046FFF784
:10400000DBFF002010BD00BF4F5D00002DE9F04137
:1040100005466820002B1646B3FA83F288461F46F1
:104020004FF0800108BF6C202C5852090020130368
:104030005201C4E90270C4E9041004F118010DC171
:104040002046FDF7ABFE00B1FEE72046FDF750FF2E
:1040500000B1FEE7B2B2284641461FB100F024F994
:1040600020B1FEE700F0A6F800B1FEE70020BDE8B1
:10407000F081000000B17047024803A140F206320F
:104080005DF056B84D25070048414C5F55415254EC
:104090005F4572726F7243616C6C6261636B0000AA
:1040A00000287BD0B0B504460068B0F1402F03D1A2
:1040B0000720FFF72FFD2068394DA84203D10820C3
:1040C000FFF728FD206805F51031884203D109204B
:1040D000FFF720FD2068B0F1502F03D10A20FFF731
:1040E00019FD206805F11021884203D10B20FFF74C
:1040F00011FD20682B49884204BF0C20FFF70AFD00
:1041000094F8710028B9002084F87000204600F06F
:104110004FF8242084F871002068016821F0010123
:104120000160204601F02CFE606A10B1204601F0CB
:104130001DFDD4E900011C4D426822F49042A942C1
:104140004260826822F02A028260026842F0010224
:104150000260026822F4804388BF42F480434FF03B
:104160000602036088BF0222C36AA94223F00D033E
:1041700042EA0302C2620D4A84BF4DF60002C0F259
:10418000B852B2FBF1F1C16000202021606784F8D1
:10419000711084F8700084F87210B0BD012070476F
:1041A0000050004000700050C0C62D00006CDC02C2
:1041B00070470000F8B5054690F87200202807D136
:1041C00013460A4631B12BB195F87000012803D18E
:1041D000022429E0012427E000240120144EDFF806
:1041E00038C1124F6C6785F870002220A5F858304E
:1041F0006A6585F872002968E86E00F1300E243196
:104200008EE8C010C463FDF71BFF2868016841F405
:1042100080710160816841F00101816085F8704022
:10422000816841F0400181602046F8BDFB5C0000E0
:10423000C75C0000AFF30080F8B5044628B9124807
:1042400012A14FF4F0725CF073FFFCF7AFF9E16F6D
:10425000D4F86861D4F8C8504968C6F38F22571A59
:10426000C4F8C870FCF7A6F9791B4FEA962038BF4E
:1042700011FA80F139B1090204F590700331BDE8FB
:10428000F8405DF0F5BFF8BD4D25070048414C5F93
:10429000554152545F527848616C6643706C744368
:1042A000616C6C6261636B00F8B5054690F8710053
:1042B000202806D139B113462AB195F8700001289B
:1042C00003D1022425E0012423E00024A5F8523084
:1042D0000120134EDFF840C0104F6C6785F8700066
:1042E000A5F85030E964A86E2A6800F1300E283233
:1042F0008EE8C0102126C46385F87160FDF7A0FE2A
:1043000028684021016285F87040816841F0800191
:1043100081602046F8BD00BF715C0000495D00006F
:10432000215D00007047704770B578B104460068A1
:1043300008B921482060214988421CBF1E49884293
:104340000BD16168B1F1807F02D3FEE7012070BD1F
:10435000A268B2F1807F04D3FEE719498842F0D009
:10436000FEE743699B0712D5342100254BF67F36C3
:10437000C1604169B54208D811F0020105D00120A1
:10438000FDF7E0FE20680135F3E7D4E90112016092
:10439000762100254BF67F364260C16041690020DE
:1043A000B542D4D811F00201D1D10120FDF7CAFEE7
:1043B00020680135F2E700BF00B000500040014026
:1043C00000C0045070B504460068762100254BF605
:1043D0007F36C1604069B54208D810F0020005D1AF
:1043E0000120FDF7AFFE20680135F3E7002070BD26
:1043F00080B55EF0FFFA0348FFF7BAF8BDE88040E9
:104400005EF00EBB88014E2000207047B0B50C4D09
:10441000044629465AF0CCFE30B904F12C0005F1CF
:104420002C015AF0C5FE08B10020B0BD04F15800BF
:1044300005F158015AF0BCFEB0FA80F04009B0BD59
:1044400054C806002DE9F04FBFB033AC0FC4DDE90E
:104450004868102E0BD233AD284600F096FE00209F
:10446000102810D0295C08F800100130F8E700206F
:1044700033A9102804BF3FB0BDE8F08F0A5C08F8EC
:1044800000200130F5E7DFF82807711E37AB2291D5
:1044900000EB01100021102903D0425C5A54013175
:1044A000F9E79DF8EB009DF8EA509DF8E9309DF89A
:1044B000E5209DF8E3C09DF8E0409DF8DCE09DF824
:1044C000DD109DF8DEB09DF8DFA04FF0FF37329091
:1044D0009DF8E80028909DF8E7002F909DF8E600F1
:1044E00027909DF8E4002E909DF8E20026909DF81C
:1044F000E100309031914FFA8EF1B1F1FF3F68DD6C
:104500001846329B6E00D9B25B0046EAD1114600D4
:104510002D91E9B2650046EAD1112C91C1B22898DB
:10452000460046EAD1112B91C1B22F98460046EAC7
:10453000D1112A91C1B22798460046EAD1115600FE
:104540002991C1B246EAD110D1B225902E984600E9
:1045500046EAD1112491C1B238464FEA4C0747EAE6
:10456000D11123915FFA8CF1269A570047EAD116B0
:10457000D1B2309A570047EAD119D1B22246074644
:1045800045EAD114D0B24FEA4A0152465D46013F96
:1045900041EAD01AD0B2319A4FEA4B01329341EA44
:1045A000D01BE8B22BAD510041EAD011D0B2C00906
:1045B00040EA4E0E29CD28902A982F9029982790CE
:1045C000DDE924022E90DDF88CC02696CDE93091ED
:1045D00091E732982B952A9329468DF8EA50554653
:1045E0008DF8E930A1468DF8E0408DF8DCE08DF8DB
:1045F000E5208DF8E3C05946289E279BDDF898A05A
:10460000AB468DF8DF508DF8EB002F980C468DF8F7
:10461000DE108DF8E8608DF8E6308DF8E2A08DF8B8
:10462000E7002E988DF8E4003098CDF8A4E0319999
:104630002F9D8DF8E1008DF8DD1000212D91802156
:104640002C91DDF8B8E02B98002F00F0E780289738
:104650002D992C9F2B9018F801100F4267D02F95A1
:10466000CDF8B8E098F8001010461A46334698F88E
:10467000016098F803E098F80250299F794088F883
:104680000010319971401E46134602468EEA0B0017
:10469000DDF8B8E088F8030098F8040088F8011005
:1046A00085EA04012F9D88F80210309980EA0900FC
:1046B00088F8040098F8050048402A9988F8050011
:1046C00098F8060080EA0A0088F8060098F80700C3
:1046D00080EA0C0088F8070098F8080080EA0E00CD
:1046E00088F8080098F80900504088F8090098F800
:1046F0000A00584088F80A0098F80B00684088F8CB
:104700000B0098F80C00704088F80C0098F80D0029
:1047100048402B9988F80D0098F80E0048403299CF
:1047200088F80E0098F80F00484088F80F002C9980
:104730002D9801294FEA510108BF01302D9008BF83
:1047400080212C91E0B2319FF90141EA5000E10152
:104750002F905FFA8BF041EA50004FEACB112E9078
:104760005FFA89F041EA50004FEAC9112790309C66
:10477000E0B241EA50095FFA8AF0E10141EA5000F3
:104780004FEACA1130905FFA8CF041EA500A5FFAA2
:104790008EF04FEACC1141EA50004FEACE1126903C
:1047A000D0B2D20141EA500ED8B22A9CDB012B993B
:1047B00042EA500CEAB2ED01304643EA5203F2B24B
:1047C0004FEAC41B45EA5206E2B2329CC5013846A4
:1047D00045EA5205CAB2C901E7B24BEA520241EAC0
:1047E00057013291C1B2299C490841EAC410E1B293
:1047F00031904808289F29902A9510461D46634607
:104800007246D446DDF898E0DDF8C0A0CDF8C0903F
:10481000DDF89C90DDE92EB4013715E7E548229AD2
:10482000E5A13BAB002537AF00EB0210895C00220D
:10483000102D08D018F8056008F805207E55465D53
:104840005E550135F4E7481C9DF8EB109DF8E6B085
:104850009DF8EF709DF8F3909DF8F4A09DF8F5E0B9
:104860009DF8F6C09DF8F7609DF8F8509DF8F93076
:104870009DF8FA2031919DF8EA1024919DF8E910F5
:104880001D919DF8E81023919DF8E71022919DF865
:10489000E51030919DF8E4102F919DF8E3102E91D2
:1048A0009DF8E2102D919DF8E1102C919DF8E010FB
:1048B0002B919DF8DC1028919DF8DD1026919DF834
:1048C000DE102A919DF8DF1029919DF8EC102791B8
:1048D0009DF8ED1021919DF8EE1025919DF8F010B6
:1048E00020919DF8F1101F919DF8F2101E919DF8F6
:1048F000FB103291002800F0558116A9013881E89B
:104900006850CDF86CA0CDE914721C905B46DDE9CF
:1049100022653298DDF8A0E0DDF898C0249F1D9C48
:10492000C0075BD098F8000098F8011098F80220B2
:1049300098F803A080EA0E0088F8000081EA0C00D5
:104940002B9988F801002A98504088F8020029988D
:1049500080EA0A0088F8030098F8040048402C997F
:1049600088F8040098F8050048402D9988F805005B
:1049700098F8060048402E9988F8060098F8070035
:1049800048402F9988F8070098F808004840309967
:1049900088F8080098F809004840319988F809001B
:1049A00098F80A00584088F80A0098F80B00704000
:1049B00088F80B0098F80C00684088F80C0098F80C
:1049C0000D00604088F80D0098F80E00784088F8D7
:1049D0000E0098F80F00484088F80F00DDF8C4B0CA
:1049E00079005FFA8BF041EAD01061001390F8B2C1
:1049F00041EAD01069001290E0B241EAD010710093
:104A00001190E8B241EAD01059001090F0B241EA9A
:104A1000D0100F90D8B2309A510041EAD0100E90C9
:104A2000D0B22F9A510041EAD0100D90D0B22E9AF8
:104A3000510041EAD0100C90D0B22D9A510041EAB9
:104A4000D0100B90D0B22C9A510041EAD0100A90AD
:104A5000D0B22B9A510041EAD0100990D0B2299AD5
:104A6000510041EAD0100890D0B22A9A510041EA90
:104A7000D0104FEA4C010790D0B241EAD0104FEA73
:104A80004E0106905FFA8CF041EAD0102890219BED
:104A90002799D8B2400840EAC1100590259AD0B2B3
:104AA000400840EAC3100490DDF850C05FFA8CF073
:104AB000400840EAC2100390209AD0B2400840EA71
:104AC000CC1014901F9BD8B2400840EAC21002904C
:104AD0001E9AD0B2400840EAC31001905FFA89F0F4
:104AE000400840EAC21000901B9A1A9B169CD0B254
:104AF000400840EAC91AD8B2DDF85490400840EAAC
:104B0000C21E199AD0B2400840EAC31C189BD8B202
:104B1000400840EAC216179AD0B2400840EAC315CE
:104B2000E0B2400840EAC2135FFA89F0400840EA68
:104B3000C412329C58465FFA84FB04464FEA5B0776
:104B4000640047EAC910CFB23290780831942790B8
:104B50001398249012981D901198239010982290E9
:104B6000DDE90E0B30900D982F900C982E900B983D
:104B70002D900A982C9009982B90089829900798C6
:104B80002A900698269005982190049825901498CC
:104B9000039F209002981F9001981E90DDF80090CE
:104BA0001C98A7E640463FB0BDE8F04F00F0EDBAD4
:104BB0007DC006007DC1060077706860584D473F94
:104BC000312A231C150E0700B0B514460A46198871
:104BD0000546104622F0DCFB38B141888288204629
:104BE0002944FBF71BFE0020B0BD0120B0BDB0B5CD
:104BF0000023102B08BFB0BDC45CCD5C2C44D45442
:104C00000133F6E7F0B589B0144600228DF8022092
:104C1000102A03D0835CA3540132F9E70DF1130588
:104C20000846294600F006FA08270DF1020637B1BA
:104C300020462946324600F051F8013FF7E70DF1D2
:104C400003050DF113000DF10202294600F02CFAC4
:104C500020462946224600F02FFB09B0F0BD2DE981
:104C6000F0418EB0144600220DF116038DF8052098
:104C7000102A05D0855CA554855C9D540132F7E768
:104C80000DF127050846294600F0D4F900260DF15C
:104C900016080DF10507022E02D0082E05D10BE0F3
:104CA00020464146224600F007FB204629463A4668
:104CB00000F014F80136EEE70DF106050DF12700BE
:104CC0000DF10502294600F0EFF92046294622465B
:104CD00000F0F2FA0EB0BDE8F08100002DE9F047D7
:104CE00088B0EA460446894608469046514600F098
:104CF000DBF920465146224600F0DEFA39493A4AAD
:104D000000200F280ED8235CCB5C235423180430DA
:104D10005E78DD789F78965D4D5D5E70D65DDD7066
:104D20009E70EEE748465146424600F0BDF900202D
:104D3000102818D2215C1AF800200AEB00067778B8
:104D4000B578F67811442154211804304A788B78CC
:104D500091F803C07A404A7085EA03028A7006EB34
:104D60000C02CA70E4E74FF0000C1AA104AABCF1CF
:104D7000030F1ED000230F2B09D8E618E55C7778C7
:104D800007EB4500E054781902337070F3E7002315
:104D9000102B03D0E05CD0540133F9E70023102B33
:104DA00004D0C85C105CE0540133F8E70CF1010C4E
:104DB000DDE700200F2884BF08B0BDE8F087221887
:104DC000215C537803EB410519445170255402309E
:104DD000F0E700BF080B0C0F020106050A090E0DD3
:104DE000000704037DBF06007DC2060043F20631C2
:104DF0000840401A18BF0120704700B952B900EAB4
:104E000001024CF6F843084343F20E311A400840C1
:104E100040EA02010846704710B500220023102B1B
:104E200008BF10BD845CCC54541C0133A21F18BFB2
:104E30002246F4E720F07F0110200AB2002A03D4B2
:104E400010B101384900F8E7C0B27047C1F3C2029F
:104E500001F00701805CC84000F0010070470000CD
:104E60002DE9FF410646324814460D4690F8CA0027
:104E7000C0070DD016480DF10F024FF480313346B4
:104E8000CDE9005407683220B8479DF80F00E8B11B
:104E9000DFF8A4800027D8F8400010B1FBF7FCFC35
:104EA00000E000202070B781B760776037600E2F78
:104EB0000CD0E819F72809D82178884206D2D8F80A
:104EC00040002844C05DF0550137F0E7BDE8FF81A0
:104ED0001C024E200A4890F85000704708491022E2
:104EE0004031FBF79BBC00BF054910222031FBF786
:104EF00095BC00BF024910223031FBF78FBC00BFC8
:104F0000542B4E20E0B50A4890F8CA0080070AD515
:104F100008480DF107024FF400310368322098472A
:104F20009DF8071009B10448807FC0B28CBD00BF56
:104F300040214E2028024E20B82D4E202DE9F84366
:104F40001D460C9B032B84BF0020BDE8F88314464C
:104F50000246DDE90A60DDE90889DFE803F0020ABC
:104F6000122B0978B9B3022937D001293BD012207E
:104F70003CE0318832B906293CBF1E20BDE8F883E9
:104F800000E0318821F00101318022F069F92849DF
:104F900040F27122484331885143B0FBF1F0206068
:104FA00000202860C8F800104FF0FF31C9F8001049
:104FB000BDE8F883087801281CBF2020BDE8F883ED
:104FC000308800210230308080B2C82888BF01219B
:104FD0004801BDE8F883C82006E022F041F92168C5
:104FE0004A1C022A15D2282030800020D8F8001050
:104FF0004A1CEED040F27122B1FBF2F1328821F06E
:1050000001019142E5D2052998BF06213180BDE812
:10501000F88340F271225143054A5043B0FBF1F04E
:105020004FF6FE710840062898BF0620DCE700BF57
:1050300040420F0010B500220023102A05D0845CE6
:105040008C54845C01326340F7E70B7410BD1CB5CF
:10505000ADF80410009000206946062808BF1CBD6A
:105060000B5C14181354A3710130F6E7B0B5044675
:105070000025102D08BFB0BDFBF7BEFB6055013504
:10508000F7E700F01E0100F4706200F4704006398A
:1050900018BF0121B2F5407F18BF0321B0F5405F72
:1050A00018BF052108467047F0B585B0144605467F
:1050B0000A4600212078102907D0102888BF002038
:1050C0002B5C013053540131F5E7207890B100EBAF
:1050D0000010104B002101AE1230102906D04718E5
:1050E000FFB2DF5DDF5D77540131F6E701A91046BD
:1050F000FFF77DFD0020112806D0295CCA0042EA96
:10510000511129540130F6E720780130207005B0A4
:10511000F0BD00BF7DBF06000278173A0A704278E2
:1051200082F0E5024A708278213A8A70C27882F071
:10513000C102CA7002794D3A0A71427982F0A7021F
:105140004A7182796B3A8A71C27982F08302CA719C
:10515000027A82F0E9020A72427A1B3A4A72827A31
:1051600082F0DF028A72C27A3F3ACA72027B82F010
:10517000B3020A73427B593A4A73827B82F09502EA
:105180008A73C07B7D38C873704784B0002269463B
:10519000102A03D0835C8B540132F9E70F22531C91
:1051A00004BF04B070478B5C013A00F8013BF6E79E
:1051B0000288052922F0E103038006D003290BD1E0
:1051C0004FF440714FF21E0303E04FF4405140F69C
:1051D0001E731A40114301807047F0B501F00205BB
:1051E0000124860752B284EA55044FEA440448BFBA
:1051F000022411F0040104F1040608BF34464707F5
:1052000048BF3446002D04F5807608BF3446C705F4
:1052100048BF3446002A58BF3446002944F400767B
:1052200008BF3446870548BF3446002A58BF344675
:1052300013F0010344F4805208BF1446002D08BF48
:105240001446C50448BF1446002B44F4005208BF5E
:105250001446002908BF1446800448BF1446A0B273
:10526000F0BD10B500F018024405134661F38A231F
:1052700058BF13461A46040561F3CB2258BF1A469D
:105280004B08144663F38E34430458BF1446890711
:10529000214648BF41F40041000458BF214688B26E
:1052A00010BDB0B50023102B08BFB0BDC45CCD5CF1
:1052B0006C40D4540133F6E7F0B500230F2B88BFC0
:1052C000F0BDC45CCD5CCE186C40D454C418657875
:1052D00077783D44D71804337D7094F802C0B578D0
:1052E0006544BD70E478F5786C40FC70E6E700003A
:1052F00080B55DF07FFB04486830FEF70FF8BDE82D
:1053000080405DF08DBB00BF4C0E4E2070B5144642
:10531000054608200022002809D455F82030002630
:10532000E3FB012644F8202001383246F3E720460B
:1053300063F0F8FFA86AA0622046BDE8704065F0FF
:105340004DBB00002DE9F04F9FB00DF12C0A8946AE
:105350008346502190465046FBF787FA09F120001A
:105360000AF144010822B2F1FF3F13DD5BF822305D
:105370000024002714F1080509D451F8245050F8EE
:105380002460E6FB635741F82450013CF2E70439FE
:10539000013AE8E70022122A04D05AF8220008B99C
:1053A0000132F8E7D9F82800DBF82810C2F112031F
:1053B00000261D930C1A18BF01241E945AF82610BB
:1053C000701C082E02D800290646F7D0082B0A9434
:1053D00015D8471E0A2A15D1204C0AF128020023AD
:1053E000082B0CD004EB830652F823500133B66A25
:1053F000AE42F5D003D305E05AF820100130002961
:10540000FAD0471E6E460AEB870124223046FBF78E
:1054100005FA304663F086FF07F10904371D304670
:1054200065F0DCFA112C0CD8304639462022FBF707
:10543000F5F95AF824000890304663F073FF013400
:10544000EDE7694640462422FBF7E8F9DDE909016A
:10545000C8E909011FB0BDE8F08F00BFFC2E0700AE
:1054600003480068400058BF00F0FCBCFBF7E0BFF9
:1054700014F0005010B5134804685DF0BBFAA007A3
:1054800004D51148FEF7DAFA02F0E2F9600705D513
:105490000D481C30FEF7D2FA02F0DAF9E00605D525
:1054A00009483830FEF7CAFA02F006FAA00605D518
:1054B00005485430FEF7C2FA02F0FEF9BDE810408C
:1054C0005DF0AEBA00B00150F8134E2070B503463F
:1054D0000020002900F0E581002A00F0E2815E2B27
:1054E00000F268804FF0804001240025DFE813F0CF
:1054F000D7016300660069006D00700074007700DA
:105500007B007E008300860089008C006200900092
:10551000940098009B009E00A100A600A900AC008A
:10552000B100B400B700BA00BF00C200C700CA0093
:10553000CD00D200D700DC00DF00E400E700EC0083
:10554000F1005F00F400F900FC00FF000201070118
:105550000C01110116011B01200123016200290128
:105560002C013101340139013C013F014201470165
:105570004B014E01510155015F0059015E0163016C
:1055800068016D01720177017C01810186018B0147
:10559000900195019A019F01A401A901AE01B301F7
:1055A000B801BD01C201C601CA01D301CE014FF04D
:1055B00080402AE1FEE74FF080404EE14FF0A040EE
:1055C00001E04FF08040022452E14FF0A04001E0A2
:1055D0004FF0804004244BE14FF0A04001E04FF039
:1055E0008040082444E14FF0804040E14FF080408B
:1055F0004FF4805452E14FF0A04007E04FF0A0403C
:1056000008E04FF0A04009E04FF0804020242FE157
:105610004FF0804040242BE14FF08040802427E170
:105620004FF0A04068E04FF0804004E04FF0804031
:1056300047E04FF0A0404FF4807419E14FF08040F4
:1056400044E04FF0A0400FE04FF080404FF4006482
:105650000EE14FF080405EE04FF0804060E04FF0A0
:10566000804062E04FF080404FF4004400E14FF092
:10567000804001E04FF0A0404FF48034F8E04FF05C
:10568000A04004E04FF0A04006E04FF080404FF40F
:105690000034EDE04FF080404FF48024E8E04FF01C
:1056A000A0404FF40024E3E04FF0A04001E04FF0B1
:1056B00080404FF48014DBE04FF080400EE04FF06C
:1056C000A0404FF40074D3E04FF0A0404FF480644A
:1056D000CEE04FF08040C5E04FF0A0404FF4001402
:1056E000C6E04FF08040B3E04FF08040ABE04FF0B9
:1056F00080402BE04FF080404FF08054B8E04FF0F6
:1057000080404FF48074C9E04FF080404FF0007447
:10571000C4E04FF0A0404FF48054A9E04FF0A04007
:105720004FF40054A4E04FF0A0404FF480449FE0B9
:105730004FF0804037E04FF0804400254FF080402C
:10574000ADE04FF080404CE04FF0A0404FF00064DF
:105750008EE04FF0804001E04FF0A0400125012491
:105760009DE04FF080400CE04FF080408CE04FF027
:10577000804085E04FF080404FF400648EE04FF0B1
:10578000A04002248AE04FF0804075E04FF0804056
:1057900083E04FF08040402480E04FF08040802440
:1057A0007CE04FF0A0404FF0005461E04FF08040AB
:1057B0004FF4007472E04FF080404FF480646DE06D
:1057C0004FF080404FF4804468E04FF0A0404FF02D
:1057D00080444DE04FF080404FF400445EE04FF0D5
:1057E000A0404FF0004443E04FF080404FF40034BD
:1057F00054E04FF080404FF480244FE04FF0804061
:105800004FF400244AE04FF0A0404FF080742FE0A6
:105810004FF080404FF4801440E04FF080404FF450
:1058200000143BE04FF080404FF4800436E04FF02E
:1058300080404FF4000431E04FF080404FF00044CE
:105840002CE04FF0A0404FF0806411E04FF0A040FA
:105850004FF000740CE04FF0A0404FF4000407E05C
:105860004FF0A0404FF4800402E04FF0A04010241D
:10587000002514E04FF0A04010240FE04FF0A040AE
:1058800008240BE04FF0A040042407E04FF08040D4
:105890004FF4803402E04FF0A040202401250D6039
:1058A000146070BDF0B59446002308240025002C38
:1058B00014D451F8247050F824607A19B21A4CF8B4
:1058C00024207A19A4F1010443F10005B21A73EB04
:1058D00005024FF0000538BF0125E8E76046BDE846
:1058E000F04063F01FBD000070B506460D46886AA3
:1058F0001446B16A41B170B12846314617F04EFFE7
:1059000078B12846314616E070B130462946224625
:10591000FBF76AFB12E0304629462246FBF764FBA0
:105920001FE03046294619E03046294617F036FF79
:1059300090B1304629462246FFF7B4FF00200C49BB
:10594000A062204617F02AFF28B109492046BDE889
:10595000704000F00FB870BD284631462246FFF770
:10596000A1FF0120A0622046BDE87040FBF772BB9A
:10597000A0C50600F0B5002208230024002B15D492
:1059800051F8236050F823503719A41942F100064A
:105990002C1BA5EB070772EB060440F82370A3F15C
:1059A00001034FF0000438BF0124E7E7BDE8F040F1
:1059B00063F0B8BC70B58CB004460D46886AA16A25
:1059C000B1B1B0B12846214617F0E8FEE8B101AE0A
:1059D000284621463246FFF765FF204631462422FD
:1059E000FAF71CFF00200A996162A0620CB070BD3A
:1059F00030B1204629460CB0BDE87040FBF7DABA5A
:105A00002046294617F0CAFE30B1204629460CB080
:105A1000BDE87040FFF7AEBF01AE284621463246D2
:105A2000FFF740FF204631462422FAF7F7FE012017
:105A3000D9E7000070B55CF0DDFF144D144928680B
:105A400008401CBF000A06F031FD06F03BFCFDF7E4
:105A5000C9FA5FF03BF96E6A0446FDF733FC651C3A
:105A600031460122284659F0E7FCA04209D00646FB
:105A70005FF030F9AE4204D05FF02CF9A01C59F071
:105A800045FDBDE870405CF0CBBF00BF2000045076
:105A900000FFFF0370470000F8B52D482B4C206035
:105AA000D4F8800040F03F00C4F88000D4F88000B3
:105AB00040F47000C4F8800017F0EEF959F056FA7F
:105AC000E068800312D4BFF34F8F0020BFF36F8FC5
:105AD000C4F84802BFF34F8FBFF36F8FE06840F404
