:020000040000FA
:10000000B81B4020150100006D2C000051020000BB
:100010008D020000290100002B0100002D010000CD
:100020000000000000000000000000002F010000A0
:100030003101000000000000B5010000E92E0000C1
:100040002D0E0000054F00003B0100003D010000A7
:100050003F01000041010000430100004501000094
:1000600047010000490100004B010000896D0000BC
:100070004F0100005101000053010000C95700006A
:100080005701000059010000092D00005D0100002A
:100090005F01000061010000630100003D1D0000E0
:1000A00067010000690100006B0100006D010000A4
:1000B0006F01000071010000730100007501000074
:1000C0000000000000000000000000000000000030
:1000D0000000000000000000000000000000000020
:1000E0000000000000000000000000000000000010
:1000F0000000000000000000000000000000000000
:10010000DFF80CD000F02EFA00480047810D000007
:10011000B81B4020184880F30A88184880471848C0
:100120000047FEE7FEE7FEE7FEE7FEE7FEE7FEE745
:10013000FEE7FEE7FEE7FEE7FEE7FEE7FEE7FEE797
:10014000FEE7FEE7FEE7FEE7FEE7FEE7FEE7FEE787
:10015000FEE7FEE7FEE7FEE7FEE7FEE7FEE7FEE777
:10016000FEE7FEE7FEE7FEE7FEE7FEE7FEE7FEE767
:10017000FEE7FEE7FEE70000B8174020492F000029
:1001800001010000EFF3108072B6704780F3108811
:10019000704740BF5D4A1368012B04D04FF0010344
:1001A00013605B4A10605B4A11605B484FF08051FE
:1001B00001607047EFF3108272B654480168C9B10C
:1001C0004FF0000101605248016849B1EFF3098125
:1001D00021E9F00FEFF30B8441F8044D0068016052
:1001E0004C490968096810C984F30B88B1E8F00F1D
:1001F00081F3098882F310884EF0040E7047474857
:100200004FF47F01D0F8002041EA020101607047FD
:10021000404908603E494FF0000008603B494FF0FC
:10022000010008603D484FF47F01D0F8002041EA0A
:100230000201016038484FF0805101603848006881
:10024000006880F3088861B662B6704720BF7047C7
:100250001EF0040F0CBFEFF30880EFF3098020E9D4
:10026000F00FEFF30B8440F8044D40F804ED1EF05E
:10027000040F0CBF80F3088880F3098800B551F0A3
:10028000FBFB5DF804EB4EF0040E70471EF0040F0C
:100290000CBFEFF30880EFF3098020E9F00FEFF3D4
:1002A0000B8440F8044D40F804ED1EF0040F0CBF21
:1002B00080F3088880F3098800B551F0E0FB5DF811
:1002C00004EB4EF0040E704710B4EFF3038410B447
:1002D0007C4610B400B54DF804CD0FB4089C2DE950
:1002E000F00FEFF30B8410B4684651F077FB10BCAD
:1002F00084F30B88BDE8F00F0FBC5DF804CB5DF80C
:1003000004EB10BC10BC10BCFEE700007C134020C6
:10031000201340202413402004ED00E020ED00E0F5
:1003200008ED00E00649074A0868504343F23902E5
:100330001044086040087047014908607047000099
:10034000000040206D4EC64110B5044604E00B7815
:1003500000F8013B03B1491C521EF8D2204610BDE3
:10036000421C10F8011B0029FBD1801A704730B5E0
:1003700004460020034600E05B1C934203D2E05C8D
:10038000CD5C401BF8D030BD034611F8012B00F8BE
:10039000012B002AF9D11846704730B505460020D8
:1003A000034600E05B1C934205D2EC5CC85C201A5B
:1003B00001D1002CF6D130BDF0B4002802DCF0BC35
:1003C00000207047C0F3C751C0F3160040F400008E
:1003D000CA0701D14000491E3F2202EB61050022FD
:1003E00011464FF4000626FA01F31344D418844250
:1003F00001D8001B1A464000491C1729F3DD5100A3
:10040000814202D24FF0FF3100E0002102EBC550E3
:10041000F0BC00F0DAB82DE9FE4F804681EA030017
:10042000C00F0C46009021F0004123F00045B8EBCE
:100430000200A94105D24046214690461C460B4683
:10044000024623F00040104347D0270DC7F30A00AF
:10045000C3F30A510290401A019040286BDAC3F3AB
:10046000130040F4801B0098924620B10023D2EB89
:10047000030A63EB0B0B01985946C0F1400250464A
:1004800000F082F806460D4650465946019A00F0A3
:100490008AF810EB08006141002487EA115284EACF
:1004A000E7731A4340D0009A62B3019A012A4FEAD7
:1004B000075215DC001B61EB02014FF0004202EA1B
:1004C0000752CDE90042001C41F5801132462B460F
:1004D00000F0C1F803B0BDE8F08F40462146F9E7CF
:1004E000001B61EB0201001C41F5801300185B4109
:1004F0002018A2F5001747EB030140EAD570B619A2
:100500006D4111E06D084FEA360645EAC0754FEAC5
:100510000752001B61EB0201001C41F580114908E4
:100520004FEA30000019514132462B4603B0BDE876
:10053000F04F00F081B80098012240000023D0EB7A
:10054000020263EBE073009821464FEAE074B8EBD7
:10055000000061EB0401E9E783F000435BE781F011
:10056000004158E7064C074D06E0E06840F0010303
:1005700094E8070098471034AC42F6D3FFF7C4FD67
:1005800030FA050050FA0500202A04DB203A00FA70
:1005900002F1002070479140C2F1200320FA03F3DA
:1005A000194390407047202A06DBCB17203A41FAC6
:1005B00002F043EAE07306E041FA02F3D040C2F1F0
:1005C000200291400843194670470029A8BF704790
:1005D000401C490008BF20F00100704710B4B0FA79
:1005E00080FC00FA0CF050EA010404BF10BC704714
:1005F00049B1CCF1200421FA04F411FA0CF118BF2E
:10060000012121430843A3EB0C01CB1D4FEA0061FC
:100610004FEA102042BF002010BC704700EBC350CF
:1006200010440029A4BF10BC7047401C490008BFFB
:1006300020F0010010BC704710B5141E73F10004C7
:1006400008DA401C41F1000192185B411A4301D1C4
:1006500020F0010010BD2DE9F04D92469B4611B1EE
:10066000B1FA81F202E0B0FA80F220329046FFF750
:100670008BFF04460F4640EA0A0041EA0B0153464D
:100680005A46084313D0114653EA010019D0C8F165
:100690004002504600F02DF805460E465046594699
:1006A0004246FFF771FF084305D0012004E02046D1
:1006B0003946BDE8F08D0020054346EAE0762C433C
:1006C00037430A986305E40AA0EB08000022FD0AFC
:1006D00044EA47540A3002D500200146E9E7010503
:1006E00010196941DDE9084500196941BDE8F04D7F
:1006F000A2E7202A04DB203A21FA02F00021704709
:1007000021FA02F3D040C2F1200291400843194679
:1007100070472DE9F05F0546002092469B468846CB
:100720000646814640241BE028464146474622466D
:10073000FFF7DFFF53465A46C01A914110D31146C6
:1007400018462246FFF720FF2D1A67EB01084F4697
:10075000224601200021FFF717FF17EB00094E4149
:10076000201EA4F10104DFDC484631462A464346F8
:10077000BDE8F09F10B5431A934209D28318881838
:1007800003E010F8011D03F8011D521EF9D210BD3F
:1007900040EA01039B0703D009E008C9121F08C003
:1007A000042AFAD203E011F8013B00F8013B521E83
:1007B000F9D210BDD2B201E000F8012B491EFBD2E4
:1007C00070470022F6E710B513460A46044619465C
:1007D000FFF7F0FF204610BDF0B480EA0102D40F0D
:1007E0004200B2EB410F02D20246084611464A00CF
:1007F00042D0C30DDDB2C1F3C752AD1A202D35DA98
:10080000C1F3160141F4000204B15242C5F12006C1
:1008100002FA06F12A411044B3EBD05F23D0C4B1F1
:10082000012DA0EBC35009DCF0BC4FF0004202EAFE
:10083000C352DBB200F50000FFF7D0BE400000F16C
:10084000807000EBC350A0F1807040EAD170490085
:1008500009E0490841EAC071A0EBC35000F500006F
:10086000400800EBC350F0BCFFF7AFBE614201226D
:1008700002EB4101001BF6E7F0BC704781F000413C
:10088000AAE780F00040A7E780EA010210B502F075
:100890000043400022D04A001FD0010E01EB12613C
:1008A000C0F35600C2F3560240F4000042F40002C6
:1008B000A0FB022000047F39140400D0401C50EA41
:1008C000124001D44000491EC2B20C0604EBD01005
:1008D000401C4008802A02D003E0002010BD20F018
:1008E0000100002900DA0020184310BD30B480EA6E
:1008F000010202F0004530F0004221F0004013D028
:1009000090B1C30DD40DC2F31601C0F31600E41A62
:1009100041F4000140F400027D34914201D3641C93
:1009200000E04900002C02DA30BC002070474FF490
:1009300000000023914201D3891A034340084FEA83
:100940004101F7D151B1914202D14FF0004105E090
:1009500002D24FF0010101E06FF0010103EBC4503E
:10096000284430BCFFF731BE2DE9FE4F81EA030475
:1009700004F0004421F0004100944FF0000B23F0FC
:10098000004350EA01045ED052EA03045BD0C3F393
:100990000A54C1F30A552C44A4F2F3340194A0FB89
:1009A0000254C1F3130141F48011C3F3130343F460
:1009B000801301FB024400FB034E840A970A44EAB9
:1009C000815447EA8357A4FB076802958D0A05FB0B
:1009D00007854FEA932C04FB0C542705029D4FEA30
:1009E000065847EA1637B5EB08056EEB070C870E7D
:1009F000920E47EA811742EA8312A7FB0201B6EB87
:100A00000B0164EB00042B0D43EA0C335E1844EB3E
:100A10001C50DA465146E7FB0201C5F313044FEAC6
:100A20000B3343EA14534FEA0432019C43EA0603B2
:100A3000A4F10C040294009CCDE900B4FFF70BFE76
:100A400003B0BDE8F08F00200146F9E72DE9F04D35
:100A500081EA030404F0004B21F0004514464FF0F6
:100A6000000A23F0004150EA050220D054EA0102B6
:100A70001DD0C5F30A570246C5F31303C1F3130093
:100A8000C1F30A5640F4801543F48013A7EB06081F
:100A9000101BD64608F2FD3873EB050002D308F1AF
:100AA000010801E092185B41B8F1000F03DA002061
:100AB0000146BDE8F08D00204FF4801106468446C3
:100AC0000EE0171B73EB050705D3121B63EB050341
:100AD00006434CEA010C49084FEA300092185B418A
:100AE00050EA0107EDD152EA030012D082EA040075
:100AF00083EA0501084305D0101BAB4106D2012251
:100B0000002306E000224FF0004302E06FF00102F4
:100B100053101AEB06004CEB085110EB0A0041EBA6
:100B20000B01BDE8F04DFFF787BD002801DBC0F1E8
:100B30000040002901DBC1F10041814201D20120C6
:100B4000704700207047002801DBC0F100400029F9
:100B500001DBC1F10041814201D301207047002037
:100B60007047002801DBC0F10040002901DBC1F122
:100B70000041814201D9012070470020704730B503
:100B8000041E71F1000404DB4FF00044404264EBAA
:100B90000101141E73F1000405DB1C464FF00043F5
:100BA000524263EB0403801A994101D3012030BD06
:100BB000002030BD30B5041E71F1000404DB4FF09D
:100BC0000044404264EB0101141E73F1000405DB94
:100BD0001C464FF00043524263EB0403101A8B4152
:100BE00001D2012030BD002030BD30B5041E71F1AE
:100BF000000404DB4FF00044404264EB0101141E8A
:100C000073F1000405DB1C464FF00043524263EBD6
:100C10000403101A8B4101D3012030BD002030BDE8
:100C200030B5041E71F1000404DB4FF00044404273
:100C300064EB0101141E73F1000405DB1C464FF048
:100C40000043524263EB040342404B401A4301D03D
:100C5000002030BD012030BDC10F80EAE0700844A3
:100C6000CA0796230021FFF7B9BC9623002211463C
:100C7000FFF7B4BC30B4044696230800214604D0E4
:100C8000B62330BC0022FFF7A9BC20460021F8E7BC
:100C900000F0004220F00040C10DC0F3160040F407
:100CA00000007F2901DA00207047962903DCC1F19A
:100CB0009601C84001E096398840002AF4D04042AD
:100CC000704720F00040C10DC0F3160040F4000052
:100CD0007F2901DA00207047962903DCC1F19601D3
:100CE000C840704796398840704770B5C1F30A52C2
:100CF00001F000450024C1F3130140F2FF3341F439
:100D000080119A4201DA002070BD40F233439A42CA
:100D1000A2F2334203DC5242FFF7EBFC00E09040CA
:100D20002C43F1D0404270BD70B58C1810F8015BB7
:100D300015F0070301D110F8013B2A1106D110F874
:100D4000012B03E010F8016B01F8016B5B1EF9D178
:100D50002B0705D40023521E0DD401F8013BFAE7FE
:100D600010F8013BCB1A921C03E013F8015B01F869
:100D7000015B521EF9D5A142D8D3002070BD0000FE
:100D8000B0B5AAB015AC522152252046FFF719FD87
:100D9000002018211490CDE912000CA8FFF711FDD6
:100DA00001A82C21FFF70DFD0DF1A6020920214617
:100DB000ADF8A65000F010FD38B99DF8540020B1F0
:100DC0001948A11C4422FFF7D5FC0C2012A90DF1F3
:100DD000A602ADF8A6000A2000F0FEFC10B912A889
:100DE0004FF094FB18200CA90DF1A602ADF8A60057
:100DF0000B2000F0F1FC10B90CA84FF00DFC2C20DA
:100E000001A90DF1A602ADF8A6000C2000F0E4FC4B
:100E100010B901A84FF0BAFB04F03CFC55F030FDCE
:100E200000202AB0B0BD00BFF80040201CB551F032
:100E30003DF816480121016015480021BFF34F8F8E
:100E4000BFF36F8F0160446A44F000418162114832
:100E500090F8A000C00709D00F480DF1070201214A
:100E60000368282098479DF8070010B10B480068D8
:100E70008047C4F31420002120B1142902D8013185
:100E80004008F9E7BDE81C4051F02AB880E100E0D5
:100E900000000440A8084020B80140208000402005
:100EA00070B5002208230024002B0FD450F82350E3
:100EB00051F82360641942F10005A41940F8234059
:100EC00045F10004013B04F00104EDE7BDE870408A
:100ED00058F074BFF8B51446002208230025002BF3
:100EE0000FD450F8236051F82370AD1942F1000679
:100EF000ED1944F8235046F10005013B05F00105CA
:100F0000EDE7204658F05AFF0020A062F8BD00002F
:100F100010B51446FFF7DEFFA06A20B12046BDE8F9
:100F2000104000F00DB84149204617F0DDFD28B112
:100F30003E492046BDE8104001F076BF10BD00BF1D
:100F4000B0B58CB0044601AD384821462A4601F0C0
:100F500003FF204629462422FFF70CFC0A990020B3
:100F6000C4E909100CB0B0BDF0B58BB00446806A7E
:100F700000B32E4D2046294617F09EFD80B3082071
:100F80000021002200283AD455F8206054F820307F
:100F9000B718921941F100069A1AA3EB070771EBF3
:100FA000060244F82070A0F101004FF0000238BFA3
:100FB0000122E7E71D4A00200821002300291ED452
:100FC00054F8215052F821605B1940F100059B193B
:100FD00044F8213045F10003013903F00103EDE746
:100FE0006D46124821462A4601F0B6FE20462946A3
:100FF0002422FFF7BFFB09990020C4E90910002053
:10100000002109290BD054F821205FEA50004FEA53
:10101000320044F8210002F001000131F1E72046DE
:101020000BB0BDE8F04058F0C9BE00BF84C0050059
:10103000F0B597B007AC01AD07AE0FC41D983146AF
:1010400013ACADF818001C98224605902198049026
:10105000209803901F9802901E980190284601F056
:1010600062FA28462146224601F02BFD0FAD05A865
:10107000294601F049FB204629462A4601F048FA54
:101080000BAF3046394601F057FC28463946224618
:1010900001F076FADDE922200021042903D0635C07
:1010A00053540131F9E7211D00220C2A04BF17B067
:1010B000F0BD8B5C83540132F7E7B0B58EB002AC63
:1010C0000FC4139900220AAB149CADF804101299B6
:1010D000009102A901310F2A03D09854885C013293
:1010E000F9E780F0060006AD8DF83700684629461E
:1010F00001F00AFB0AA92846224601F041FA0EB087
:10110000B0BDF0B593B007AC0FC4199901ABDDE9E0
:101110001E42ADF818101899254605911D990491A5
:101120001C9903911B9902911A9901910FA90E46DE
:101130002DB113F8017B013D06F8017BF8E70D198D
:10114000002605AFA319052E98BF102B03D2BB5D57
:10115000AB550136F6E700241D46102D08D20E5D72
:101160004E551E1B0135013E18BF661C3446F4E780
:1011700007A900240BAD01310F2C03D02855085DC1
:101180000134F9E758400FA98DF83B000BA801F096
:10119000F7F913B0F0BD70B598B008AC14AD0FC43A
:1011A0001E9808A92A4601AC07901D9806901C9825
:1011B00005902298049021980390209802901F98FF
:1011C0000190204601F0AFF9204629462A4601F059
:1011D00078FC239C002005A910AA0023102B08D01E
:1011E0000D5CD554451C0133B5F10C0018BF2846E1
:1011F000F4E710AD14A829462A4601F089F90CAE8F
:1012000008A8314601F098FB28463146224601F0F5
:10121000B7F918B070BD00002DE9F04FAFB00E4621
:1012200007464FF404700221934618F073FA0446FF
:1012300058468421FFF7C5FA20464FF40471FFF7A2
:10124000C0FA384600F086FD0546304600F082FDC3
:1012500015B120B1EB4803E058B1384600E0304604
:10126000594600F0EDF820462FB0BDE8F04F18F0D9
:1012700007B93046394606F12C0807F12C054EF027
:10128000ADF8002800F0C08004F1840004F12C01C6
:1012900007F1580AD94B224604F158090C904046F0
:1012A000884651460D9506F1580598470D98CDF89A
:1012B00034804246DFF844832946C04730465146D1
:1012C0004A46CDF81CA04646C047089529463846F0
:1012D0000C9D2A46C04748462946CA46A8464EF0B5
:1012E0007DF8002800F0A08004F5F27004F59A75EE
:1012F00004F1B002C04F04F1DC060A9004F5DC7082
:10130000039004F5C670029004F5B070019004F5E6
:1013100084700B9504900BF15800099206900BF124
:101320002C00059020460D99B8475046414632465C
:10133000B847DDE90701DFF8C4922A46C84724A868
:101340002C21FFF73EFA19A82C21FFF73AFA0EA834
:101350002C21FFF736FA019F304631463A46C847FE
:10136000DDF808A0384631465246C8474D46099830
:10137000DDF80C9001464A46A84738460A9F414688
:101380003A46A8470DF1380838460221424601F096
:10139000BEFB24AF0B994846A9463A46A8473846B3
:1013A00019AD954F51462A46B8472846049D4146F7
:1013B0002A46B847304629465A46B846C84724AE5A
:1013C0002C213046FFF7FDF90DF1640B2C21584616
:1013D000FFF7F7F90EAF2C213846FFF7F2F90A981C
:1013E00029463246C047099831465A46C8470D99A2
:1013F00050463A46C847059A58463946C0470B9961
:10140000069A5046C8472EE7404629464DF0E6FF6B
:1014100000287FF41FAF306D01283FF635AFF06C28
:1014200000287FF431AF15E70D9920464DF0D6FF27
:1014300000287FF40FAF3846594600F025F812E730
:10144000B0B505460C46084624222946FFF792F916
:10145000D5E909012422C4E9090104F12C0005F1B0
:101460002C01FFF787F9D5E914012422C4E91401FE
:1014700004F1580005F15801FFF77CF9D5E91F0187
:10148000C4E91F01B0BD00002DE9F04FA7B00E4622
:1014900005464FF4F270022118F03CF90446286D1D
:1014A000012801D8E86C18B1284600F053FC20B19F
:1014B00054483146FFF7C4FF97E004F1B00005F14E
:1014C000580805F12C0B039004F18400414602906A
:1014D00004F15800049004F12C00019005961CAE14
:1014E00028463246FFF714FD0DF1440A424B2846C8
:1014F0004146524698470DF11809404F3046514633
:101500004A46B8473E463E4F484603212246B84722
:101510004146DDF804805846B9464246B0471CAF04
:10152000584641463A46B0472846049D39462A4621
:10153000B0470DF1700A204621465246B04711AF20
:10154000284608213A46C8475046DDF808A02A4BED
:101550003946524698471CAD5046414637462A46C2
:10156000B047059A28460221C84704F1DC055846D1
:1015700059462A46B04740464146C346DDF80C80EE
:101580004246B04704F58476284641463246B8477D
:10159000B94604F59A751A4F304608212A46B847CD
:1015A00004F5B076049804213246B84704F5C677AE
:1015B0005146DFF844A030463A46D04704F5DC7681
:1015C000204639463246C847059F3046294607F12E
:1015D0002C02D0471CAD404659462A46C847084B06
:1015E00007F15802284608219847204627B0BDE851
:1015F000F04F17F045BF00BF9D2D0000452B0000A8
:101600000F2B000094C205002DE9FE4F0120DFF8EA
:10161000C0A02E4C42F2107500264FF00C084FF47B
:101620007A7900902B488346009800284CD04FF4DC
:101630007A77002F44D0791B34BF31462F4620687B
:10164000C00738460F4624D10290DAF8000002990C
:1016500001B150B9002000F049FAB0FBFBF0594647
:10166000CAF8000002990029E3D0312802D3029978
:101670000139029102990029DBD0029901394843CE
:10168000B0FBF8F001900198411E00280191FAD1B9
:10169000CFE70290606802994143B1FBF9F10291F2
:1016A0000021A268A3689A42FCD011449A42A1EB9F
:1016B000030198BF0144029A91421A46F2D3B8E757
:1016C000009801380090AFE7BDE8FE8F10E000E021
:1016D000B806402040420F001CB501240DF107015F
:1016E00001AA0020ADF8044000F076F810B18DF8A2
:1016F000074001E09DF8074020461CBD10B50D4C89
:101700002078FF2805D1FFF7E7FFB0FA80F0400905
:1017100020700949096818B10A20B1FBF0F010BD2A
:10172000C80B4FF47A726FF3DF315143504300EB33
:10173000D13010BD50024020480004401CB5204C60
:1017400094F8E000C00709D01E480DF107020121FE
:101750000368382098479DF80700E8B11A480168E7
:1017600041F0020101600168B1F1FF3FFBDC174865
:101770000122016862F3010147F23F7201600168D2
:1017800041F0100101604168914343F2021211439C
:101790004160022000F0AAF997484FF6FF02016865
:1017A00011400B4A1143016094F8E000000706D590
:1017B00008480DF1060208210368382098471CBD2F
:1017C000A8084020B801402010000440100000404C
:1017D0000003FA05B401402070B50346012000293A
:1017E00000F08280002A00F07F80404D4048AC6CC1
:1017F0000CB90446A86405683E4EB54210D10E2BC4
:1018000013D8DFE803F00814191E23282E33393EBD
:10181000475059646A001288012A06D1807E29E067
:101820003548016821F001010160012070BD128876
:10183000042AFAD1406855E01288042AF5D180685C
:1018400050E01288042AF0D1C0684BE01288042AC4
:10185000EBD1006946E01288022AE6D1008B0880AD
:1018600041E01288042AE0D140693BE01288012A55
:10187000DBD1C07E087036E01288042AD5D1C06959
:1018800030E010885228D0D104F1200208461146D9
:10189000522219E010880C28C7D104F174020846BE
:1018A00011460C2210E010881828BED104F1AC02B9
:1018B00008461146182207E010882C28B5D104F1FB
:1018C0008002084611462C22FEF754FF0BE01288D6
:1018D000042AAAD1D0F8C40004E01288042AA4D1B2
:1018E000D0F8C8000860002070BD00BF580240203A
:1018F000002A4020787845452C000C5004480168A7
:1019000041F00101016001688906FCD5704700BF04
:101910002C000440E0B5FFF7DFFE10B14FF08E4021
:101920008CBD042001A90DF10202ADF802000220D5
:10193000FFF752FF00B1FEE7019848B1FFF795F9B4
:1019400001460548FEF7D2FF0449FEF79DFF8CBD16
:1019500000488CBD00901746001B374C00004843E0
:1019600070B5044600680026056985604DB1E8073A
:1019700004D0A26812B1F1B22046904701366D083A
:10198000F4E770BDB0F1FF3F0CDD00F01F01012254
:10199000C0B202FA01F1044A42EAD00020F003008A
:1019A00001607047FEE700BF00E100E010B500F005
:1019B0000F03114C0F4AB0F1FF3FA3F1040323447E
:1019C00003F10C03C8BF831820684FF0FF34C0F345
:1019D0000220021F80F0070038BF0022032828BF22
:1019E000032004FA00F021EA000090404001187042
:1019F00010BD00BF00E400E00CED00E00B480C4916
:101A00000068884218BF70470048004701604000E6
:101A10000649074A086890421CBF0020704701F140
:101A2000080049680022C90800F004B8007F40207F
:101A3000484354502DE9F0472B4B002591464FF079
:101A4000010E4FF0402C002A1D609846174B18BF1E
:101A50004FF001099A460023A9421BD00EFA05F463
:101A600004EA0207B7FA87F77F0917EA090F0FD1CF
:101A700050F8357056462343464607EA0A074CF8A5
:101A8000257000EBC507C8F804407F68C8F80870E7
:101A90000135E1E70020002AC8F80400184608BF15
:101AA0001A46C8F80020BDE8F08700BFFCFF070019
:101AB000F0B5034600200C4C4FF040250CE02668A2
:101AC000C640F6070CD055F8206003EBC00743F87A
:101AD0003060013036687E601F2898BF8842EED3A0
:101AE00021681160F0BD00BF80400040002808BFA1
:101AF00002201449012805D0022802D13F221048B3
:101B000016E0FEE7104850F8042C02F00302032A06
:101B10000AD1816851B1C1F383020C4B01F001017C
:101B2000494202FB03321140FF2201E0FF22002163
:101B30000068104008BF0120B1FBF0F0704700BF03
:101B400014000040006CDC022400005000366E01DE
:101B500010B510480168002907D4016841F002015E
:101B600001600168B1F1FF3FFBDC0B4C01212068F3
:101B700061F3010020600220FFF7B8FF0749B0FBC6
:101B8000F1F061686FF3184141EA004040F4000051
:101B9000606010BD100004401000004000127A0088
:101BA000F8B50C460546FFF797FD10B14FF0FF3032
:101BB000F8BD304E3068002805D410F00F001CBF6F
:101BC0006FF00200F8BD2C4F0121386861F3DC4052
:101BD0004FF6FF713860386840F000503860386860
:101BE00020F480303860386838603868884338605E
:101BF000386828433860386840F400303860FFF7B0
:101C000003FD7868B0F1FF3FFBDC1C487968C36CCA
:101C100021F000410A46FBB1026D9D1AFB2D04D351
:101C2000934288BFB1EB02050AD8551A04D9C92DD1
:101C300028BFB2EB030306D8C2EB02120A4409E044
:101C4000FA2D02D8F1E7C82BF6D902EB42020D2398
:101C500001FB032208321209C0E913120849836C00
:101C600003B981648A602260306840F000403060CF
:101C70000020F8BD14200040140109405802402003
:101C8000002A4020B0B52C4C206B08B91C482063BA
:101C90001B4988421CBF1B49884209D1A16CB1F184
:101CA000807F00D3FEE7E26CB2F1807F04D3FEE7D1
:101CB00015498842F2D0FEE743699B070FD53421CE
:101CC0000025C16041692F2D07D811F0020104D011
:101CD0000135FFF799FC206BF4E7D4E9121201609B
:101CE000002576214260C16040692F2D07D810F091
:101CF000020004D10135FFF787FC206BF4E7B0BD8B
:101D000000B000400040095000C00C50B0B5094878
:101D10007621094C00250160206B40692F2D07D8E2
:101D200010F0020004D10135FFF76EFC206BF4E7E0
:101D3000B0BD00BF0CB00040CC03402080B550F0D7
:101D4000B5F80348FFF70CFEBDE8804050F0C8B876
:101D50003C014020B0B50C4D044629464DF03EFBF9
:101D600030B904F12C0005F12C014DF037FB08B11E
:101D70000020B0BD04F1580005F158014DF02EFBD4
:101D8000B0FA80F04009B0BD94C205002DE9F04FD3
:101D9000BFB033AC0FC4DDE94868102E0BD233ADB1
:101DA000284600F002FE0020102810D0295C08F818
:101DB00000100130F8E7002033A9102804BF3FB01D
:101DC000BDE8F08F0A5C08F800200130F5E7DFF885
:101DD0002807711E37AB229100EB0110002110295A
:101DE00003D0425C5A540131F9E79DF8EB009DF8AD
:101DF000EA509DF8E9309DF8E5209DF8E3C09DF894
:101E0000E0409DF8DCE09DF8DD109DF8DEB09DF827
:101E1000DFA04FF0FF3732909DF8E80028909DF842
:101E2000E7002F909DF8E60027909DF8E4002E90A3
:101E30009DF8E20026909DF8E100309031914FFA34
:101E40008EF1B1F1FF3F68DD1846329B6E00D9B2CA
:101E50005B0046EAD11146002D91E9B2650046EAE1
:101E6000D1112C91C1B22898460046EAD1112B918C
:101E7000C1B22F98460046EAD1112A91C1B22798E3
:101E8000460046EAD11156002991C1B246EAD11066
:101E9000D1B225902E98460046EAD1112491C1B2C4
:101EA00038464FEA4C0747EAD11123915FFA8CF18B
:101EB000269A570047EAD116D1B2309A570047EA1E
:101EC000D119D1B22246074645EAD114D0B24FEA21
:101ED0004A0152465D46013F41EAD01AD0B2319ADA
:101EE0004FEA4B01329341EAD01BE8B22BAD5100CF
:101EF00041EAD011D0B2C00940EA4E0E29CD289057
:101F00002A982F9029982790DDE924022E90DDF859
:101F10008CC02696CDE9309191E732982B952A9383
:101F200029468DF8EA5055468DF8E930A1468DF8DE
:101F3000E0408DF8DCE08DF8E5208DF8E3C05946EF
:101F4000289E279BDDF898A0AB468DF8DF508DF8D2
:101F5000EB002F980C468DF8DE108DF8E8608DF8B8
:101F6000E6308DF8E2A08DF8E7002E988DF8E400B9
:101F70003098CDF8A4E031992F9D8DF8E1008DF8CF
:101F8000DD1000212D9180212C91DDF8B8E02B98F7
:101F9000002F00F0E78028972D992C9F2B9018F8A0
:101FA00001100F4267D02F95CDF8B8E098F80010D7
:101FB00010461A46334698F8016098F803E098F8FE
:101FC0000250299F794088F80010319971401E46CF
:101FD000134602468EEA0B00DDF8B8E088F80300ED
:101FE00098F8040088F8011085EA04012F9D88F80C
:101FF0000210309980EA090088F8040098F805007A
:1020000048402A9988F8050098F8060080EA0A00F6
:1020100088F8060098F8070080EA0C0088F80700A6
:1020200098F8080080EA0E0088F8080098F809007F
:10203000504088F8090098F80A00584088F80A00CB
:1020400098F80B00684088F80B0098F80C00704076
:1020500088F80C0098F80D0048402B9988F80D007E
:1020600098F80E004840329988F80E0098F80F0052
:10207000484088F80F002C992D9801294FEA51010A
:1020800008BF01302D9008BF80212C91E0B2319F14
:10209000F90141EA5000E1012F905FFA8BF041EA2B
:1020A00050004FEACB112E905FFA89F041EA5000C0
:1020B0004FEAC9112790309CE0B241EA50095FFA1B
:1020C0008AF0E10141EA50004FEACA1130905FFA0C
:1020D0008CF041EA500A5FFA8EF04FEACC1141EAE7
:1020E00050004FEACE112690D0B2D20141EA500EF4
:1020F000D8B22A9CDB012B9942EA500CEAB2ED01DE
:10210000304643EA5203F2B24FEAC41B45EA520694
:10211000E2B2329CC501384645EA5205CAB2C9014D
:10212000E7B24BEA520241EA57013291C1B2299C0F
:10213000490841EAC410E1B231904808289F29902B
:102140002A9510461D4663467246D446DDF898E04F
:10215000DDF8C0A0CDF8C090DDF89C90DDE92EB48C
:10216000013715E7E548229AE5A13BAB002537AFDB
:1021700000EB0210895C0022102D08D018F80560D1
:1021800008F805207E55465D5E550135F4E7481C8C
:102190009DF8EB109DF8E6B09DF8EF709DF8F39078
:1021A0009DF8F4A09DF8F5E09DF8F6C09DF8F76065
:1021B0009DF8F8509DF8F9309DF8FA2031919DF87E
:1021C000EA1024919DF8E9101D919DF8E8102391E3
:1021D0009DF8E71022919DF8E51030919DF8E410EC
:1021E0002F919DF8E3102E919DF8E2102D919DF80E
:1021F000E1102C919DF8E0102B919DF8DC102891B6
:102200009DF8DD1026919DF8DE102A919DF8DF10D3
:1022100029919DF8EC1027919DF8ED1021919DF8E2
:10222000EE1025919DF8F01020919DF8F1101F916E
:102230009DF8F2101E919DF8FB103291002800F0DD
:10224000558116A9013881E86850CDF86CA0CDE918
:1022500014721C905B46DDE922653298DDF8A0E03F
:10226000DDF898C0249F1D9CC0075BD098F8000043
:1022700098F8011098F8022098F803A080EA0E0060
:1022800088F8000081EA0C002B9988F801002A9850
:10229000504088F80200299880EA0A0088F8030074
:1022A00098F8040048402C9988F8040098F8050034
:1022B00048402D9988F8050098F8060048402E9966
:1022C00088F8060098F8070048402F9988F807001A
:1022D00098F808004840309988F8080098F80900F4
:1022E0004840319988F8090098F80A00584088F861
:1022F0000A0098F80B00704088F80B0098F80C0062
:10230000684088F80C0098F80D00604088F80D00CF
:1023100098F80E00784088F80E0098F80F004840B2
:1023200088F80F00DDF8C4B079005FFA8BF041EA5D
:10233000D01061001390F8B241EAD01069001290F9
:10234000E0B241EAD01071001190E8B241EAD01039
:1023500059001090F0B241EAD0100F90D8B2309AE4
:10236000510041EAD0100E90D0B22F9A510041EAAC
:10237000D0100D90D0B22E9A510041EAD0100C909E
:10238000D0B22D9A510041EAD0100B90D0B22C9AC5
:10239000510041EAD0100A90D0B22B9A510041EA84
:1023A000D0100990D0B2299A510041EAD01008907B
:1023B000D0B22A9A510041EAD0104FEA4C0107905E
:1023C000D0B241EAD0104FEA4E0106905FFA8CF08D
:1023D00041EAD0102890219B2799D8B2400840EAC2
:1023E000C1100590259AD0B2400840EAC31004906D
:1023F000DDF850C05FFA8CF0400840EAC21003904C
:10240000209AD0B2400840EACC1014901F9BD8B25A
:10241000400840EAC21002901E9AD0B2400840EA3A
:10242000C31001905FFA89F0400840EAC2100090A2
:102430001B9A1A9B169CD0B2400840EAC91AD8B21F
:10244000DDF85490400840EAC21E199AD0B2400804
:1024500040EAC31C189BD8B2400840EAC216179A3B
:10246000D0B2400840EAC315E0B2400840EAC213C7
:102470005FFA89F0400840EAC412329C58465FFA7D
:1024800084FB04464FEA5B07640047EAC910CFB2F9
:1024900032907808319427901398249012981D90C8
:1024A0001198239010982290DDE90E0B30900D9832
:1024B0002F900C982E900B982D900A982C9009989C
:1024C0002B900898299007982A90069826900598AE
:1024D0002190049825901498039F209002981F90B3
:1024E00001981E90DDF800901C98A7E640463FB08A
:1024F000BDE8F04F00F059BAD6BB0500D6BC0500C8
:1025000077706860584D473F312A231C150E07002D
:10251000B0B50023102B08BFB0BDC45CCD5C2C440B
:10252000D4540133F6E7F0B589B0144600228DF893
:102530000220102A03D0835CA3540132F9E70DF185
:1025400013050846294600F085F908270DF1020613
:1025500037B120462946324600F050F8013FF7E7F0
:102560000DF103050DF113000DF10202294600F0F3
:10257000ABF920462946224600F0AEFA09B0F0BD7C
:102580002DE9F0418EB0144600220DF116038DF8AE
:102590000520102A05D0855CA554855C9D54013228
:1025A000F7E70DF127050846294600F053F9002604
:1025B0000DF116080DF10507022E02D0082E05D1E7
:1025C0000BE020464146224600F086FA2046294686
:1025D0003A4600F013F80136EEE70DF106050DF16D
:1025E00027000DF10502294600F06EF92046294624
:1025F000224600F071FA0EB0BDE8F0812DE9F047F7
:1026000088B0EA460446894608469046514600F09E
:102610005BF920465146224600F05EFAC549394A28
:1026200000200F280ED8235CCB5C235423180430E1
:102630005E78DD789F78965D4D5D5E70D65DDD706D
:102640009E70EEE748465146424600F03DF90020B4
:10265000102818D2215C1AF800200AEB00067778BF
:10266000B578F67811442154211804304A788B78D3
:1026700091F803C07A404A7085EA03028A7006EB3B
:102680000C02CA70E4E74FF0000C1AA104AABCF1D6
:10269000030F1ED000230F2B09D8E618E55C7778CE
:1026A00007EB4500E054781902337070F3E700231C
:1026B000102B03D0E05CD0540133F9E70023102B3A
:1026C00004D0C85C105CE0540133F8E70CF1010C55
:1026D000DDE700200F2884BF08B0BDE8F08722188E
:1026E000215C537803EB41051944517025540230A5
:1026F000F0E700BF080B0C0F020106050A090E0DDA
:1027000000070403D6BD050010B500220023102BDE
:1027100008BF10BD845CCC54541C0133A21F18BFE9
:102720002246F4E7E0B50A4890F8CA0080070AD5C7
:1027300008480DF107024FF4003103683220984732
:102740009DF8071009B10448807FC0B28CBD00BF5E
:10275000A8084020B40140208C1240202DE9F84305
:102760001D460C9B032B84BF0020BDE8F883144654
:102770000246DDE90A60DDE90889DFE803F0020AC4
:10278000122B0978B9B3022937D001293BD0122086
:102790003CE0318832B906293CBF1E20BDE8F883F1
:1027A00000E0318821F00101318020F03FFA284912
:1027B00040F27122484331885143B0FBF1F0206070
:1027C00000202860C8F800104FF0FF31C9F8001051
:1027D000BDE8F883087801281CBF2020BDE8F883F5
:1027E000308800210230308080B2C82888BF0121A3
:1027F0004801BDE8F883C82006E020F017FA2168F8
:102800004A1C022A15D2282030800020D8F8001057
:102810004A1CEED040F27122B1FBF2F1328821F075
:1028200001019142E5D2052998BF06213180BDE81A
:10283000F88340F271225143054A5043B0FBF1F056
:102840004FF6FE710840062898BF0620DCE700BF5F
:1028500040420F0010B500220023102A05D0845CEE
:102860008C54845C01326340F7E70B7410BD1CB5D7
:10287000ADF80410009000206946062808BF1CBD72
:102880000B5C14181354A3710130F6E7B0B504467D
:102890000025102D08BFB0BDFDF744FD6055013582
:1028A000F7E700F01E0100F4706200F47040063992
:1028B00018BF0121B2F5407F18BF0321B0F5405F7A
:1028C00018BF052108467047F0B585B01446054687
:1028D0000A4600212078102907D0102888BF002040
:1028E0002B5C013053540131F5E7207890B100EBB7
:1028F0000010104B002101AE1230102906D04718ED
:10290000FFB2DF5DDF5D77540131F6E701A91046C4
:10291000FFF7FEFD0020112806D0295CCA0042EA1C
:10292000511129540130F6E720780130207005B0AC
:10293000F0BD00BFD6BA05000278173A0A70427897
:1029400082F0E5024A708278213A8A70C27882F079
:10295000C102CA7002794D3A0A71427982F0A70227
:102960004A7182796B3A8A71C27982F08302CA71A4
:10297000027A82F0E9020A72427A1B3A4A72827A39
:1029800082F0DF028A72C27A3F3ACA72027B82F018
:10299000B3020A73427B593A4A73827B82F09502F2
:1029A0008A73C07B7D38C873704784B00022694643
:1029B000102A03D0835C8B540132F9E70F22531C99
:1029C00004BF04B070478B5C013A00F8013BF6E7A6
:1029D0000288052922F0E103038006D003290BD1E8
:1029E0004FF440714FF21E0303E04FF4405140F6A4
:1029F0001E731A40114301807047F0B501F00205C3
:102A00000124860752B284EA55044FEA440448BFC1
:102A1000022411F0040104F1040608BF34464707FC
:102A200048BF3446002D04F5807608BF3446C705FC
:102A300048BF3446002A58BF3446002944F4007683
:102A400008BF3446870548BF3446002A58BF34467D
:102A500013F0010344F4805208BF1446002D08BF50
:102A60001446C50448BF1446002B44F4005208BF66
:102A70001446002908BF1446800448BF1446A0B27B
:102A8000F0BD10B500F018024405134661F38A2327
:102A900058BF13461A46040561F3CB2258BF1A46A5
:102AA0004B08144663F38E34430458BF1446890719
:102AB000214648BF41F40041000458BF214688B276
:102AC00010BDB0B50023102B08BFB0BDC45CCD5CF9
:102AD0006C40D4540133F6E7F0B500230F2B88BFC8
:102AE000F0BDC45CCD5CCE186C40D454C41865787D
:102AF00077783D44D71804337D7094F802C0B578D8
:102B00006544BD70E478F5786C40FC70E6E770B51C
:102B10001446054608200022002809D455F8203024
:102B20000026E3FB012644F8202001383246F3E773
:102B3000204657F043F9A86AA0622046BDE87040DD
:102B400057F060BF2DE9F04F9FB00DF12C0A894678
:102B50008346502190465046FDF733FE0AF144006B
:102B600009F120014FF0080C0023BCF1FF3F17DDF5
:102B70005BF82C400027002517F108060CD450F80C
:102B8000272051F82760521943F10005E6FB042580
:102B900040F82720013FEFE70438ACF1010CE4E7EF
:102BA0000020122804D05AF8201011B90130F8E79B
:102BB0001220C0F11202D9F82800DBF828100024F6
:102BC0001D920B1A18BF01231E935AF82410601C83
:102BD000082C02D800290446F7D0082A0A9315D8F1
:102BE000A0F1010715D1204C0AF128020023082B7F
:102BF0000CD004EB830652F823500133B66AAE4280
:102C0000F5D003D305E05AF8201001300029FAD09E
:102C1000471E6E460AEB870124223046FDF7AAFDC7
:102C2000304657F0CBF807F10904371D304657F00E
:102C3000E9FE112C0CD8304639462022FDF79AFDCA
:102C40005AF824000890304657F0B8F80134EDE700
:102C5000694640462422FDF78DFDDDE90901C8E9FA
:102C600009011FB0BDE8F08FB0F9050070B51C4C2C
:102C70002069400023D4B248017F81BB0121017744
:102C8000206940002BD4FEF739FE1D4D1D4E2E63EA
:102C9000206940F080502061FFF738F8FEF7B4FC5F
:102CA0003420F0600026286B40692F2E13D810F0D6
:102CB000020010D00136FEF7A7FC286BF4E74FF0B6
:102CC000F5F8084808A140F25D124DF041FDBDE85D
:102CD00070404FF005B9206840F00100206070BDE1
:102CE00000F0004027EC05004442475F54726967DA
:102CF0006765725F49525148616E646C657200008D
:102D0000CC03402000B00040B0B5104C25684FF017
:102D1000CDF8A80716D5DC480121002290F8340030
:102D200001FA00F06168084340F6FF7160600848EE
:102D300000686FF31F30B2EBD02F18BF484008B1C6
:102D400004490860BDE8B0404FF0CAB800C0004078
:102D50009840084090270840F0B594460023082486
:102D60000025002C14D451F8247050F824607A19EE
:102D7000B21A4CF824207A19A4F1010443F1000599
:102D8000B21A73EB05024FF0000538BF0125E8E7E2
:102D90006046BDE8F04057F011B8000070B5064637
:102DA0000D46886A1446B16A41B170B12846314671
:102DB00015F09AFE78B12846314616E070B13046DB
:102DC00029462246FEF786F812E03046294622467A
:102DD000FEF780F81FE03046294619E030462946C4
:102DE00015F082FE90B1304629462246FFF7B4FF27
:102DF00000200C49A062204615F076FE28B1094952
:102E00002046BDE8704000F00FB870BD284631463E
:102E10002246FFF7A1FF0120A0622046BDE87040D6
:102E2000FEF78EB884C00500F0B500220823002408
:102E3000002B15D451F8236050F823503719A419EA
:102E400042F100062C1BA5EB070772EB060440F8C5
:102E50002370A3F101034FF0000438BF0124E7E71A
:102E6000BDE8F04056F0AABF70B58CB004460D46E0
:102E7000886AA16AB1B1B0B12846214615F034FE86
:102E8000E8B101AE284621463246FFF765FF2046ED
:102E900031462422FDF76EFC00200A996162A0628F
:102EA0000CB070BD30B1204629460CB0BDE8704072
:102EB000FDF7F6BF2046294615F016FE30B1204634
:102EC00029460CB0BDE87040FFF7AEBF01AE284602
:102ED00021463246FFF740FF204631462422FDF7C7
:102EE00049FC0120D9E70000F8B54EF0DFFF134898
:102EF000144E016864494A6C01324A64B7688168BB
:102F0000890602D452F014FC13E0456A7C1CFEF7DB
:102F100001FD0246204629464CF02AFBB84208D063
:102F2000054652F005FCA54203D052F001FCB81C46
:102F30007060BDE8F8404EF0D3BF00BF24000440ED
:102F40005802402050034020B0B588B04A49494853
:102F50000DF11E020160D0F8801041F03F01C0F871
:102F60008010182001A9ADF81E000B20FEF734FCDC
:102F7000424CA8B99DF80500800711D59DF81400B2
:102F800002280CD001280BD1D4F8BC0080F30A88A9
:102F9000D4F8BC008546D4F8C000874600E0FEE7C0
:102FA0004CF0B4F902F0C8FF54F8440C344900F076
:102FB00003000338B0FA80F04FEA5010087056D181
:102FC00053F00EFA2F48016841F00051016020686B
:102FD00020F002002060206820F001002060FEF751
:102FE000ADFBFDF7CFF82848012404754EF080FDB5
:102FF000FDF705F96A4890F8E400C00709D0694870
:1030000001AA01210368392098479DF8040000288F
:103010002DD01E4A506C80F31088D06C80F311883C
:10302000906C80F31388106D80F31488906D80F39A
:103030000988D06D80F30B88506D80F30888106E7E
:1030400080F30A8812480460D2E90F34956D84F346
:10305000008885F30988194602B4114601C901B4F4
:103060000846B0E8FE1FD0F804E001BC00BD08B07F
:10307000B0BD00BF08ED00E00000000044000440C7
:10308000B81B402010F0004058024020501740204C
:1030900000E100E080B588B004AF0FC70D980E9A2C
:1030A000694603900C9802900B9801900A98009042
:1030B00004A8FFF706FD08B080BD000018B1C1B23A
:1030C00019B101200EE00020704710F47F4102D0BA
:1030D000090A092006E010F47F0107BF010E19203C
:1030E000090C1120014A515C0844704774BF050067
:1030F000002070470022F22809D080B90A4801292F
:103100000A4A18BF0020002918BF024607E00848F5
:10311000012908BF02460748002908BF02460648A1
:10312000002A18BF104670477CD5050064D50500FD
:1031300034D505004CD5050074C2050070B50446B1
:10314000FDF720F804F114060546304652F080FDE4
:10315000304652F045FC208A20F0020020822846AA
:10316000FDF714F8606C2146BDE8704001F09CBB8F
:10317000E0B5C94890F89400400709D509480DF119
:10318000070204210368252098479DF8070030B105
:103190000549C86A18B1054A898F126890478CBDE5
:1031A000A8084020B801402008004020B800402076
:1031B0002DE9F04385B00C4605460A2800D81CB915
:1031C0002E48F12153F089FB0A2D2AD82C4E06EB0C
:1031D000850004612B480168284688470446701919
:1031E00080F854400120A84006EB84052F4657F88C
:1031F0003C1F57F8382C40EA020047F8380CC9BB8E
:1032000021A000210022002651F0AEF9A864022C72
:10321000254628BF022506D3254851F019FF04464C
:1032200027E0032027E019480DF1080818A20A2119
:103230002B46ADF81060CDE90266D0F8009040460C
:1032400051F062FB14204946224640F2645301903B
:1032500012A010F825000090404651F0E5FD04460C
:1032600018B1204652F032F903E00FA0502153F07C
:1032700031FB3C60002005B0BDE8F083E2F10500C1
:10328000C0104020780040204B4500007C004020CA
:103290004B455F45565425640000000006000000C1
:1032A000040000000300000072775F6F732E63005C
:1032B00052F7050010B50B2809D2012101FA00F4DC
:1032C000FCF760FF68490A68A2430A6006E05248BA
:1032D00040F2231153F001FBFCF754FFBDE810400E
:1032E000FCF754BF6048002101607047B0B5044648
:1032F0000B2804D348484FF49A7153F0EEFAFCF7C8
:1033000041FF59490D68FCF741FF002025FA04F1FF
:103310000B2C38BF01F00100B0BD00BF524800685F
:10332000704700BF80B550486021FDF74AFA80BD64
:1033300070B54D4D384C286888B1B0FA80F080F0F7
:103340001F060B2E04D3204640F2591153F0C5FA44
:1033500005EB860000690028EDD08047EBE770BDE3
:103360002DE9F047DFF80091DFF8AC80824616487F
:10337000D9F800700568044617EA0A0008BFBDE8DE
:10338000F087B0FA80F080F01F070B2F04D340467F
:103390004FF4C97153F0A1FA09EB8700006900B13D
:1033A00080472068D9F80070461BFEF795F9002881
:1033B0004FF4803008BF44F620608642DCD94EF0DE
:1033C0000DFC2046D6E700BF4800044070B5044617
:1033D0000B280CD2244E301990F85450012000FADA
:1033E00004F4FCF7CFFE3168214331600AE00A485B
:1033F00040F20F1153F071FA1B48204490F85450DA
:10340000FCF7C0FEFCF7C2FE174800EB8500806C9D
:10341000BDE8704051F096B9E2F105000A280DD8D8
:10342000074A00210B2909D012F8113001318342DB
:10343000F8D102EB410010F8010C704702207047F0
:1034400094D505000849C0B2084E01EB8000041D68
:1034500000F1480528684FF0FF3151F0A9F93168B3
:1034600020688847F6E700BFC01040207000402069
:10347000E0B5094890F8A10040060AD507480DF1CB
:1034800007024FF480410368282098479DF80710F1
:1034900001B100208CBD00BFA8084020B40140202D
:1034A0000020704780B5414A12689047002818BF35
:1034B000012080BD1CB53D4A12689047B0B104465A
:1034C00050F8041F013107D003F08AF820B1684694
:1034D00002F08AFF02F0D6FF39482146103002F090
:1034E00085FE2046BDE81C4015F0CABF1CBD00BFCC
:1034F00010B50446C1898089FF2216F0D3F93048FF
:10350000043C2146103002F071FE2046BDE8104018
:1035100015F0B6BF10B52A4800F11004204602F09D
:10352000C8FE10B115F0ACFFF8E710BD0246244804
:103530001030006838B1038A9342FAD1438A8B4233
:1035400008BF7047F5E70020704700BFF8B5064692
:10355000164814460F460268304690470546B0B9F3
:103560001420012116F0D6F8054618B910A0A221A2
:1035700053F0B0F911494FF0FF306F822E82096885
:10358000C5E901010E482946103002F09CFE002CCE
:1035900008BF01246FF00040844228BF0446281D64
:1035A0002146BDE8F84003F099B800BF98004020DC
:1035B0006B655F74696D65722E630000900040203A
:1035C0008805402070B5154E0446002596F8480041
:1035D000854228BF70BDF06C00EBC50149688A6860
:1035E0001AB150F83500214690470135EEE700BF8B
:1035F00070B50A4E0446002596F84800854228BF5B
:1036000070BDF06C00EBC50149684A681AB150F80A
:103610003500214690470135EEE700BFBC0640204B
:1036200080B5202905D0212906D1D0B250F020F84C
:1036300002E0D0B250F006F8002080BDF8B51C467C
:1036400015460E46074628B90AA00EA140F2BA2236
:103650004DF07EF8052EC4BF0020F8BDB8190EA2AB
:10366000214690F84030284601B0BDE8F04051F0C6
:103670004BB900BF706D20213D2052545F4E554C18
:103680004C0000005F72745F706D5F646576696303
:10369000655F7265616400002564000080B553B108
:1036A000107828B1012806D1C8B24FF0E1FF02E03E
:1036B000C8B24FF0C7FF012080BD000010B504461E
:1036C00020B90A480AA14B224DF042F8A06A0178BD
:1036D000232906D1E169814203D9E26A104481427B
:1036E00003D9FCF74FFD00B1FEE710BD6BEF0500FD
:1036F0005F72745F7363686564756C65725F737421
:1037000061636B5F636865636B0000007CB5069D59
:1037100000F12006044614302EC6C4E90500184600
:1037200023212A464EF062FF04F120030FCB1A44F6
:10373000164B043A4EF0BEF9A16AE0610160DDE982
:103740000756082D04D312A01AA199224DF000F8B3
:1037500000201C4A21462346C4E90E06266484F84C
:10376000355084F83650C4E91D0084F834002063D5
:10377000CDE9000004F1440052F08CF912480168D0
:1037800019B12046BDE87C4008477CBDF94F0500D3
:103790007072696F72697479203C2052545F54488A
:1037A000524541445F5052494F524954595F4D412F
:1037B000580000005F72745F7468726561645F69CD
:1037C0006E697400F555050030134020012898BF3C
:1037D0004CF01EBE80B503A0B52153F07EF800204A
:1037E00080BD00BF72775F6F735F746C2E630000E3
:1037F0002DE9F04F87B0DFF8949E804699F8940049
:10380000C0060CD5DFF80C0601AA10214346046857
:103810002520A0479DF80400002800F0F782DFF87B
:103820000C5C122105F11800FCF7CBFFDFF8E8056E
:103830000068804728461821FCF7C3FFDFF8C80B53
:103840002421FCF7BEFFDFF8D805DFF8D8150268A1
:1038500004209047DFF8D00500688047DFF8AC7B94
:10386000F96919B1BA8E002015F06EFF396A19B1E5
:10387000FA8E012015F068FF796A19B13A8F02209B
:1038800015F062FFDFF8A4150820012216F0D2F827
:10389000002054F047FB002002F01EFC002002F044
:1038A000CFFDDFF8FC4DA06F08B115F0E9FDDFF8A2
:1038B00074ABDAF8000008B115F0E2FD3820002101
:1038C00015F028FF3821A067FCF77BFF4CF03CFD8A
:1038D0001424002104EB800015F01CFF0646CAF8F2
:1038E00000004CF031FD04EB80013046FCF769FF2D
:1038F0004CF024F899F8950000070AD5DFF8A80DD8
:1039000001AA4FF400610368252098479DF8040040
:10391000E8B101A854F06AFD06200DF11B0104AACC
:103920008DF81B006D480468DFF8E80ABDF8085000
:10393000019E0368012098477119DDE904230028DE
:1039400021440A4408BFD1180846FCF7F5FC0020C2
:10395000002405F0DFFB002004F0C4FB0020FFF78B
:1039600035FFDFF8486D4FF47F410022A6F8431081
:1039700000213061242907D07318D5430C3101325E
:1039800083F822509C61F5E780688047DFF8A8043F
:10399000DFF8A8240021C6E90012C6E9021030466B
:1039A00006F098FC002008F051FD99F8B800C00717
:1039B0000BD0DFF8F40C01AA012103682E209847F0
:1039C0009DF80400002800F0D6814CF0B7FC0028D8
:1039D00000F0D181002002F095F8D9F84440DFF8DA
:1039E000285A60060DD5DFF8C00C01AA40210368F3
:1039F000112098479DF80400002800F05E81D9F856
:103A0000444005F14C0B28215846FCF7DAFEE0074C
:103A1000334E0BD0DFF8900C01AA0121036811206E
:103A200098479DF80400002800F08180042004A934
:103A300001AACDF800808DF81000DFF8D8090368DE
:103A400030209847274918B9019840F08030086520
:103A5000DFF8BC5906F10C094FF0000A4FF01008CE
:103A6000288D698D091A91FBF8F18A451FDA0AF150
:103A7000010409EB0002B4FBF1F303FB114100EB7D
:103A80000110800822F80C0C01F0B2FF298D00898A
:103A9000494421F8020C0AEB8A00A246A98D01EBE9
:103AA0008000298D29F8010009F11009D8E7DDF817
:103AB0000080DFF8D89BDFF86CA9063600244CF0B4
:103AC00043FC073084420FD2E88CE2B20134315A11
:103AD00021F01F01114331526036F0E718E000E099
:103AE0000080402000040940288DD64A0D21CB4D8E
:103AF000D34E80089062106861F305001060D348CF
:103B0000D0604FF0FF305061D2F8900000F07F009D
:103B100085F86E00D2F89000C0F3062085F86F009B
:103B20004430116841F48071116085F87000C14C17
:103B300000200DF11B015A4685F86D000620236810
:103B40008DF81B000120984728B1C1488188006882
:103B5000A5F85010E8640820236805F155020DF11E
:103B60001B018DF81B002D20984728B1B948C5F8D6
:103B70005900B948C5F8550005F16501584627F0C8
:103B8000AFFB99F85C00800608D5A94801AA20215E
:103B90000368172098479DF8040010B10020CAF868
:103BA000600099F86000000608D5A14801AA8021AC
:103BB0000368182098479DF8040040B10020F021C8
:103BC000CAF86400A048808E3044FCF7FAFD99F8EA
:103BD0006400000608D5964801AA802103681920D0
:103BE00098479DF8040010B10020CAF8680099F8C1
:103BF0006D00800709D58E4801AA4FF40071036853
:103C00001B2098479DF8040010B10020CAF86C00F2
:103C100099F84C00C00708D0854801AA0121036823
:103C2000132098479DF8040028B3DAF8540008B12F
:103C300015F026FC4CF088FB8000002115F06AFD91
:103C40000546CAF854004CF07FFB81002846FCF77B
:103C5000B8FDDAF8580008B115F012FC38680021F8
:103C60004078800015F056FD3968CAF85800497848
:103C70008900FCF7A6FD99F85800800708D56C4824
:103C800001AA02210368162098479DF8040020B17C
:103C90000020CAF85C0023F073FC99F878008007D4
:103CA00008D5634801AA022103681E2098479DF8A1
:103CB000040010B10020CAF87000684DA86908B16E
:103CC00015F0DEFB28465421FCF77BFD4CF03CFB55
:103CD00000EB400000210024400015F01BFD0646CB
:103CE000A8614CF031FB00EB400041003046FCF78E
:103CF00068FD02214FF0FF3001222975C5E900005F
:103D000047F6FF7056492881022015F093FE0220E5
:103D1000002115F023FE16F0DFF8DAF8440008B1B0
:103D200015F0AEFB4F4EB0478000002115F0F2FCBD
:103D30000546CAF84400B04781002846FCF741FD1B
:103D4000B047388307F110010120002215F072FE00
:103D500000254CF0F9FA854203D2786944550135C3
:103D6000F7E700201DF0F8FC1AF04CFC45F01EFEB1
:103D7000002045F063FD3C484FF4C6714030FCF72D
:103D800020FD002052F0ACFD002000F095FF002047
:103D900054F092FE002055F05BFC002055F052F9E3
:103DA000002054F0A7FC002055F09AFE002002F0FD
:103DB00047FBB8F1A53F05D0B8F1000F23D0B8F10B
:103DC000C33F0FD14FF4885000214FF61142012319
:103DD00015F0DEFCB8F1A53F11D0B8F1C33F10D10A
:103DE00000210DE041F2021000211022012315F004
:103DF000CFFC0221B8F1F23F08BF012100E003210E
:103E0000017011F0A7FB19480068804707B0BDE8B2
:103E1000F08F00BF9801402068004020140540202A
:103E2000540040206D9A01008400402038BF0500F6
:103E3000B8014020B4004020F1A8000009A3000010
:103E40000080402000040940F800402016000100D6
:103E5000D8C005000100008000002530201140205E
:103E600044BF05004903050084134020A8004020FA
:103E70002DE9FE4FDFF8149899F89500C0060CD58F
:103E8000DFF8240801AA4FF48051036825209847E1
:103E90009DF80400002800F0AD824CF081FAE8BBE8
:103EA00099F8C50040070AD5DFF8FC0701AA4FF4CE
:103EB00080610368312098479DF8040070B30420A6
:103EC00001A90DF10202ADF802000620FDF784FC05
:103ED0009DF80710DFF8C8078172F9B199F8C4009E
:103EE00000060AD5DFF8C0070DF10B028021036838
:103EF000312098479DF80B0030B1D4488021002331
:103F00006022C0E9003182604FF4004054F018FA9A
:103F1000CF484FF48021C0F880110160FCF732F9DE
:103F20008046DFF8D80400688047DFF8D404002119
:103F3000C0E90511C0E90711012002F081FA012052
:103F400005F0E8F8012004F0CDF8012008F07EFA31
:103F5000012053F0E7FF99F8B80080070BD5DFF890
:103F6000480701AA022103682E2098479DF8040003
:103F7000002800F00E824CF0E1F9002800F00982E0
:103F8000012001F0BFFDD9F84440B24F20060DD505
:103F9000DFF8140701AA80210368112098479DF8D3
:103FA0000400002800F08781D9F84440DFF858B4B5
:103FB00028210BF14C0A5046FCF703FCA007A64D44
:103FC0000AD5DFF8E40601AA022103681120984708
:103FD0009DF80400002869D0386820F480703860AB
:103FE000386840F00040386038680028FCD4D7F8C2
:103FF0008002DFF8C41F20F00100C7F8800207F537
:10400000047009684978013131B10268013922F43C
:10401000804240F8202BF7E7DFF8F473C14605F142
:104020000C064FF000081025388D798D091A91FB88
:10403000F5F188451CDA08F101043218B4FBF1F3FC
:1040400003FB114100EB0110800822F80C0C01F079
:10405000CFFC398D0089314421F8020C08EB88002F
:10406000A046B98D01EB8000398D70521036DBE728
:104070008008784FC846DFF8209F774DB8627748B0
:10408000F8604FF0FF30786140F60D603860D7F887
:10409000900000F07F008BF86E00D7F89000C0F31E
:1040A00006208BF86F0044308BF87000DFF8644313
:1040B00006200DF1020152468DF80200012023680E
:1040C000984738B1DFF8500381880068ABF850108A
:1040D000CBF84C00082023680BF155020DF10201CA
:1040E0008DF802002D20984728B1CC48CBF8590014
:1040F000CB48CBF855000BF16501504627F0F0F89E
:1041000099F85C00000608D5BB4801AA8021036825
:10411000172098479DF8040030B1C24C206E18B1AA
:1041200015F0AEF90020206699F86100000709D566
:10413000B14801AA4FF400610368182098479DF820
:10414000040060B1B74C606E18B115F099F9002009
:104150006066AF48F021808E2844FCF732FB99F866
:104160006500800709D5A44801AA4FF400710368CF
:10417000192098479DF8040030B1AA4CA06E18B1E0
:1041800015F07EF90020A06699F86D00400609D56B
:10419000994801AA4FF4804103681B2098479DF875
:1041A000040030B19F4CE06E18B115F069F90020A1
:1041B000E06699F84D0080070AD58F4801AA4FF4B0
:1041C00000710368132098479DF8040000284DD023
:1041D0004CF0BAF8934C461E701C00281FDD606D31
:1041E000D8B150F82650C5B1D5F8E40068B1D7F879
:1041F000D41021F40031C7F8D410D7F8D41021F42A
:104200008031C7F8D41015F03BF9D5F8E00008B1BB
:1042100015F036F9284615F033F9013EDCE7656DF7
:104220004CF092F881002846FCF7CBFA774D2868CD
:104230004078461E701C002812DDA06D20B150F899
:10424000260008B115F01CF9013EF3E79427084059
:1042500000E100E000040940008040201600010059
:104260002968A06D49788900FCF7ABFA99F85800E5
:10427000400708D5604801AA042103681620984722
:104280009DF8040040B1674CE06D18B115F0F8F8E6
:104290000020E06523F074F999F87800800708D5CC
:1042A000554801AA022103681E2098479DF8040082
:1042B00008B126F0C9FB5C4D5421AC692846FCF7D7
:1042C00080FA4FF0FF30AC6100210027C5E9000003
:1042D00047F6FF70288102202875022015F03EFB6A
:1042E00015F0FAFD082054F00DF84E4C474D00260D
:1042F0004CF02AF886421CD2616C51F82620A2B1FB
:10430000D2F8640120B115F0BBF8616C51F8262099
:10431000D2F8840010B115F0B3F8616C51F82600A2
:1043200015F0AEF8606C40F8267068698755013664
:10433000DEE701201DF010FA0026324F2868407891
:1043400086420ED2A16C51F8360010B115F098F8E3
:10435000A16C01EBC600406808B115F091F8013678
:10436000ECE71AF04FF9002628684078864207D219
:10437000206D50F8260008B115F082F80136F3E7F9
:1043800045F014FB012045F059FA386840F480707C
:104390003860C0484FF4C6714030FCF712FA012073
:1043A00052F09EFA012000F087FC012054F084FBBB
:1043B000012055F04DF9012054F044FE012054F045
:1043C00099F9012055F08CFB184D284601F071FF3A
:1043D00010B115F005FAF8E70835284601F069FF35
:1043E00010B115F0FDF9F8E7B44800688047404681
:1043F000FBF7CCFEBDE8FE8FB801402094004020C2
:10440000B00440200004094014054020080040206A
:10441000F8004020B4004020D8C005000100008012
:1044200000002530D4024020201140208805402083
:104430002DE9F04385B0DFF8308F98F89B00C00776
:104440000CD093486A464FF0807103682620984745
:1044500004469DF80000002800F0CD808D4E3068A5
:10446000C10706D18C480068804708B10024C2E02B
:104470003068002840F0BE80B56A3069B6F82C90EC
:10448000B5F1FF3118BF4946421C10D06A1C0AD052
:10449000421B824B22F070429A4204D8A84207D1B4
:1044A000B28A914204D9B6F81490054600E08946D4
:1044B0007068411C26D07A49097801443089A0F5FA
:1044C000876000B2B0F1FF3F0ADC6FF41C7240F26B
:1044D000712390FBF2F2013202FB030092B2891ABF
:1044E00021F070426B1C0AD0491B6C4B21F07041CB
:1044F000994204D8AA4207D181B2894504D9154608
:10450000814601E0681C29D0684653F06FFF00988F
:1045100062492F1A27F070448C426BD8854205D12E
:104520001FFA89F0BDF80410884263D998F89B00FF
:1045300000070BD55B4803AA4FF0006123460568CE
:104540002620A84705469DF80C00E0B34BF04EFF2F
:1045500038B1B8026421B0FBF1F534E0D6F8CC51A3
:1045600052E04BF025FF054698F89A00400609D521
:104570004D4803AA4FF480010368262098479DF810
:104580000C0060B1042003A90DF11202ADF8120075
:104590000220FDF721F9039808B1C6F8D801A4FB61
:1045A000050143F69822A0FB024001FB020553F0EF
:1045B00011FE02462046294600230027FCF7A9F8F1
:1045C000851F38BF3D461FFA89F0BDF804108842A8
:1045D00005D2081A401054F033F8281A04E0401AA3
:1045E000401054F02DF82844D6F8D4111138013178
:1045F000884204DA0124E0B205B0BDE8F083D6F8C1
:10460000CC51A84238BF0546284F00240120C007DE
:1046100005D024B93869C06880470124F7E748B35A
:1046200023480560234D98F89B00800709D51E4854
:104630006A464FF000710368262098479DF80000F5
:1046400060B11D4800683062D5F8F40370622868D4
:10465000F061002028604FF0FF30A86002244FF086
:10466000FF302C60A860022053F06AFE1348406BB4
:104670008047C0E707F11005002C3FF4F7AE55F86E
:10468000480B80688047013CF6E700BFA80840203F
:10469000B40140208413402060004020FEFFFF074B
:1046A0005802402094014020B8014020800C402056
:1046B00030000440180009400C0809406C154020E7
:1046C0002DE9F0415F4D297801291CBF0120BDE88B
:1046D000F081411EC9B28E2925D855F05DFE10B378
:1046E0006C68012190F801802D89E18004F10807B0
:1046F000A688417801440231CA1B93B2B34205D85F
:10470000B21A130402D092B2FCF734F8A6EB0800F8
:10471000861EB1B27818691AFCF753F80020A680FB
:10472000E080BDE8F0810220BDE8F081B0B50D4623
:104730004449097801291CBF0120B0BD411EC9B2FE
:104740008E290CD8144655F027FE40B141782970C7
:10475000811C42782046FCF70DF80020B0BD0220F5
:10476000B0BD00BF10B5374C2181606055F0E8FD49
:1047700000B110BD0121217010BD00BF01207047A4
:10478000F8B5304F0646387801281CBF0120F8BD27
:10479000701EC0B28E2884BF0220F8BD3046144679
:1047A0000D4655F0F9FD68B141787E68A9420FD1F8
:1047B000012102302A46F1802146FBF7DBFF002071
:1047C000F080F8BD30462946224655F09DFDF8BDE3
:1047D00007D2B3883A892B44591A9142C4BF0320A7
:1047E000F8BD0649067809683046884730462946AC
:1047F000224655F089FD0020F8BD00BFB0004020E2
:1048000070B5104E05463078012805D10C46318927
:10481000A1F10800A04201D2012070BD7068FBF731
:10482000D0FF55F08DFD00B170BD7668012029469E
:104830002246F08006F10800FBF79CFF0020B480C0
:10484000F08070BD740C402070B50446406CB8B167
:10485000218ACA0717D188071AD5FBF793FC04F100
:1048600014060546304651F0F3F9304651F0B8F8D9
:10487000208A20F0020020822846FBF787FC07E010
:104880006FF015050EE0214651F0E4FD054648B9EC
:10489000FBF778FC218A0025656421F00101218263
:1048A000FBF774FC284670BDF8B50E460446FBF7CE
:1048B00069FC0546308AC0071BD1A068B04218D0F9
:1048C00030464DF062FBD4E90107016831604E606B
:1048D000318A06607060284641F001013182FBF7A1
:1048E00055FC27B9E06A50F011FD4FF061FD002042
:1048F000F8BD2846FBF74AFC6FF00600F8BD000043
:10490000044620B91D481EA139224BF021FFDFF8D3
:10491000D48C04F10C054FF000092068A04205D1A9
:10492000D8F85C0050F026FE4FF042FDFBF72AFC61
:104930002768064638464DF028FB388AA76020F0E5
:10494000010038823046FBF721FCD7E902213846C6
:104950009047FBF717FCC4F80890FBF717FC4CF0E6
:10496000B7FD28464FF0B6FF023003D128464FF07E
:10497000E9FEF6E74CF0B8FDCFE700BF7DEF05009C
:104980005F776F726B71756575655F74687265616D
:10499000645F656E7472790070B5044690F82C00FF
:1049A00001281ED020BB002594F82D2001230126CC
:1049B00084F82B50C4F82750C4F82350C4F81F5073
:1049C0008878A07700F03F00098810432246A0773E
:1049D000204622F81C1FA16900F018FA84F82C6008
:1049E0000BE0A07F01254871A08BA1F8030004E033
:1049F00003A09A2151F071FF0025284670BD00BF29
:104A00006165735F7270612E6300000070B50E46C1
:104A100002211C46154614F07DFE4461C0E9016583
:104A200070BD0000F0B589B0044690F8322090F8CF
:104A30003300904215D2228E04F12005A2EB001023
:104A4000A2690244284600F0FDF9E16920462A46A1
:104A5000012300F0DBF994F83300013084F83300CF
:104A600070E0FD280BD8FE20102284F8330004F1FA
:104A70002000FBF77FFEE169344A20465FE0FF2813
:104A800001D101205FE0FF2005AA258E84F83300C4
:104A9000084691F90F60114600F0A4F905F00F05E2
:104AA000B6F1FF3F05DC9DF8140080F087008DF81B
:104AB00014005DB305A89DF92360014600F092F94A
:104AC000B6F1FF3F05DC9DF8140080F087008DF8FB
:104AD000140001A885F00F034FF0000C4FF0800E7A
:104AE0000026411B00F10F021031102E17D0AE42EC
:104AF00003D2A769BF5D8F5505E0B54214BF82F8A8
:104B000000C000F803E0013A0136EEE794F8320005
:104B10000028CFD0A16901A81022FBF72BFE01AD20
:104B200005AA2846294600F08DF904F120062946F9
:104B30003046324600F086F9E169204632460123CC
:104B400000F064F9002009B0F0BD00BF74C005009A
:104B500010B50124038680F83340C0E9062103F133
:104B60000F0100220909C0E90922C26280F832104F
:104B7000014641F8202FBDE81040FFF753BFF8B5BC
:104B80000C46054638200021FFF740FF00F11807CA
:104B90000646294610223846FBF7ECFD06F12805AB
:104BA000214610222846FBF7E5FD304639462A46C5
:104BB000012301B0BDE8F04000F028B9FFF732BF93
:104BC000F8B50B461049114A04465420FFF71EFF62
:104BD00005460FA0D0E90112C0682E4605F1340742
:104BE000C5E9121228650A482146102246F8440FEA
:104BF0003846FBF7BFFD284631463A46102301B040
:104C0000BDE8F040FFF7A4BF214C0000D1470400ED
:104C10003147494200000000000000000000000091
:104C2000FFF700BFF8B513460C461149114A054677
:104C30005C20FFF7EBFE00F1340706462946102200
:104C40003846FBF797FD06F1440521461022284619
:104C5000FBF790FD002029463A46102386F85800BD
:104C600005487065304601B0BDE8F040FFF770BF01
:104C70007D4C0000D14704003347494270B50D46D2
:104C80000446FFF7CFFEA0B194F85810012001B1FF
:104C900070BD04F1440684F85800294610223046BD
:104CA000FBF768FD04F15402204631460423FFF768
:104CB0004FFF002070BD000010B540B1604C20686F
:104CC00028B1204601F0F5FA14F0DAFBF7E75C486A
:104CD00000210172C0E9001110BD00BFF0B589B01C
:104CE0000C460546002701AE082F05D0FBF71AFB3E
:104CF00046F827000137F7E706F1100130462A464B
:104D00002346FFF73CFF09B0F0BD000070B50B462D
:104D10000F49104A05463020FFF778FE0446402030
:104D20001C26A56104F11C0584F82D002C2E04D04E
:104D3000FBF7F8FAA0550136F8E7A16920462A46A4
:104D4000012300F063F8002084F82C0070BD00BF40
:104D500099490000497104002DE9F84300F11C084D
:104D6000054603224046FBF702FB10B395F83C4092
:104D700095F83D60DFF868900134E0B2B04216D299
:104D800005EB00104946102200F13E073846FBF7BC
:104D9000EEFA0028F0D005F12C022846394601230E
:104DA00085F83C4000F032F80020BDE8F88385F833
:104DB0003C40AC6984B195F83C1095F83D306A6987
:104DC00005EB01109942434600F13E0000904FF080
:104DD0001F0038BF0020A0470120BDE8F88300BFB6
:104DE000E4C0050010B5002212F10F0309D08318AA
:104DF0009C7BDB7BE40944EA43038C18013AE373B0
:104E0000F2E700784000087010BD00002DE9F04185
:104E10000B4F04460E46984615462146384601F08B
:104E200052FAC4E90365387A08B1BDE8F08101207F
:104E30002946424638723046BDE8F04152F0FEBD88
:104E400024074020B0B50F235C1C012CB8BFB0BDB7
:104E5000CC5CD55C6C40C454013BF5E710B5054C07
:104E60002068400005D4FCF749FD206840F08050E0
:104E7000206010BD10F000407CB516460D4601AA1A
:104E80000121044641F0D0FB00B17CBD0198817E38
:104E900001F003010229F8D1EA8847F6FE73B11A3E
:104EA00089B2994202D84078282108E0691C20463E
:104EB00031F0E0FA0028E8D001982421407831F060
:104EC00093FC7CBDBCB514460D4601AA012141F0FE
:104ED000ABFB00B1BCBD0198817E01F00302022A48
:104EE000F8D16B8841F003016A788176E11A47F6C0
:104EF000FF7389B2994238BF28224078D1B231F08D
:104F000073FCBCBD7CB5B04C94F8B400400709D527
:104F10009A480DF10602042103682D2098479DF858
:104F2000060018B31D4D6E68F00306D54FF48030AF
:104F3000A8602020696D53F065F9300616D58020F1
:104F4000A86094F82C00400709D58C480DF10702A1
:104F5000042103680B2098479DF8070030B1104EDC
:104F600096F82C0018B1002086F82C007CBD06F1C4
:104F7000240001F09EF90446802053F0C3F900207C
:104F80006073286820F080002860706A0028EDD0E7
:104F900038F0E4F97CBD00BFA80840200C080940A7
:104FA00044044020074890F94000704701460548F6
:104FB00028221C30FBF7DEBB0800402001481C30D3
:104FC000704700BF0800402070B54BF0E9F9012898
:104FD00040F09A8051485221534B0324554D1C26D2
:104FE00041610160416001614D49086820F47870B9
:104FF0000860086840F438700860086840F4006091
:105000000860086840F001000860C86B20F07F006D
:10501000C863C86B40F00400C863C86B40F480707C
:10502000C863486840F480604860886840F00800C1
:1050300088603C481031426922F0010242610268F6
:1050400022F0010202604E4A126F1A6000F10C0257
:10505000036244F29003C2610022826143614369AA
:1050600043F400634361436943F40073436143695C
:1050700043F001034361C260816001462B4B41F85C
:10508000042F4266426E22F018024266426E42F0DF
:10509000E052426690220260026842F400620260BE
:1050A000026842F400720260026842F0010202608B
:1050B0001F4ADC6015605360946005F101141461AF
:1050C0006FF0030453619461EC1C1B4D14620124C6
:1050D00053629462156353636FF00103174D93633A
:1050E0006223136400F118034038536494642E6003
:1050F00069600421A96065211166536694662E6279
:1051000068624FF48030A862FCF722FD00F018F8C6
:105110000020BDE870404AF067BF00BF94300050E7
:1051200000500950441008508000094004000A5003
:1051300010C00040630005006700060060000850D2
:10514000E0B5894890F8A000000709D50B480DF19B
:10515000070208210368282098479DF8070058B1E6
:105160000748426F1AB107482021FCF763FC4AF058
:10517000E5FB0548006880478CBD00BFB8014020B2
:1051800058024020A8074020C8004020AFF300800C
:10519000E0B5754890F8A000C00609D50B480DF1A0
:1051A000070210210368282098479DF8071051B185
:1051B00007480068400644BF4FF0FF308CBD0548EB
:1051C0000068804700208CBDA8084020B401402022
:1051D00040000440CC004020B0B5FAF7D3FF0546AC
:1051E0008848103001F065F804462846FAF7CEFFEB
:1051F000002C14BFA0880020B0BD00BFB0B57F490F
:10520000C98A401A00EB1060C0F30725FAF7BAFF0D
:1052100004467C48016C103001EBC50101F053F8E5
:105220002046BDE8B040FAF7B1BF00BFB0B5FAF70D
:10523000A9FF05467348183001F03BF8044628469C
:10524000FAF7A4FF002C14BFA0880020B0BD00BF57
:10525000B0B56A49098A401A4FF4FE7190FBF1F02B
:10526000C5B2FAF78FFF04466648416C183001EB6F
:10527000C50101F028F82046BDE8B040FAF786BF26
:1052800080B56048203001F014F8002814BF807900
:10529000FF2080BD5B4A916C01EBC00102F1200050
:1052A00001F011B8B0B5FAF76DFF0446554801F0AA
:1052B00000F805462046FAF769FF2846B0BD00BF52
:1052C000B0B54E498989401A242190FBF1F0C5B24E
:1052D000FAF758FF04464B48816B01EBC50100F01B
:1052E000F2FF2046BDE8B040FAF750BF80B5454810
:1052F000083000F0DEFF002814BF8088002080BD49
:105300002DE9FC413D49DFF8FC80898AD8F83C70E2
:10531000401A4FF48271053890FBF1F0C5B2FAF7EC
:1053200031FF0446D7488078400606D407EBC50114
:1053300008F1080000F0C7FF10E007EBC5000DF111
:1053400007024FF480018388084806680020B047B0
:105350009DF807100029E9D10028E7D02046BDE8D4
:10536000FC41FAF713BF00BFA80840209401402079
:1053700080B52448303000F09CFF08B1808880BDA3
:105380001F484FF4FB7151F0A5FA002080BD00BF0B
:105390001A491C4A098B401A202190FBF1F0116D2B
:1053A000C0B201EBC00102F1300000F08CBF00BFC1
:1053B00080B51448283000F07CFF08B1007980BD2A
:1053C0000F4840F2D51151F085FAFF2080BD00BF93
:1053D0000A494A8B898B891A0C2291FBF2F181428E
:1053E00007DD084AD16C01EBC00102F1280000F092
:1053F0006ABF034840F2E51151F06FBAF80040204F
:10540000C2F0050030074020B0B5094B002104224E
:10541000B2F1FF3FDCBFC8B2B0BD845C013A2509E0
:1054200004F00F041C5D5D5D21442944F0E700BFDA
:10543000BCC10500032907D8DFE801F0020D1116F1
:10544000502101EBC000704780B50AA0662151F0E1
:1054500044FA002080BD2C2101EB800070474FF4FE
:10546000347101EB801070474FF4E77101EB0010CD
:10547000704700BF626C655F7574696C2E630000D5
:1054800014F08AB8B0B58AB001204AF0ADFD4CF0F6
:1054900037FA4A4800240E21C0E9144480F8481025
:1054A000474934304DF0DCFF46484FF0BDFE4648DA
:1054B000464941654AF074FF012803D144484549F3
:1054C0000068086702A90DF106020E200294FCF79D
:1054D00083F908B9029808B93F4802904FF4007167
:1054E0003E4A0791002106928DF80C100991CDE9F2
:1054F00004023B48089003A813F042F8394CA06717
:1055000030B9454938A040F292324BF021F9A06FF2
:1055100013F09AF828B1404940A040F293324BF082
:1055200017F9484800214AF0E9FF47A04BF0B6FDC3
:10553000474DE862D0B1C18A0A054FF4006258BFF6
:105540004FF48062890540F2032158BF40F20311F5
:1055500011444BF071FE28B13EA043A140F26A32E3
:105560004BF0F6F8E86A45494BF028FF4448012122
:105570004AF0C4FFFCF7ECFA022002AA02218DF8DF
:105580000800E06D4FF008FCAA4890F89400C007AE
:1055900009D03D4803AA0121002304682520A04723
:1055A0009DF80C0038B139480068804738480168D8
:1055B0004FF0C330884700200AB0B0BD44064020F9
:1055C00020C4050081540000BC064020D1560000D4
:1055D000800009405802402000FE072A0028402091
:1055E000B9F10400500340204950435F51554555DF
:1055F000455F494E56414C49445F48414E444C45F5
:1056000020213D206D626F785F656E762E69706334
:105610005F706F727400000066F9050030203D3D38
:10562000206970635F71756575655F6F70656E2861
:105630006D626F785F656E762E6970635F706F72F2
:10564000742900001CEA05007561727434000000C2
:10565000CC03402052545F454F4B203D3D207265A6
:1056600073756C7400000000706F72745F636F6E0E
:105670006669675F7561727431000000D5AE050020
:10568000A0F90500A80840209801402050004020C3
:10569000A40040200448054A0168914202D1806874
:1056A00000B10047704700BF0050402050414348C0
:1056B000064A343290421CBF0020704702293CBF8A
:1056C0004FF0FF30704714F0F5B800BF440640209B
:1056D00001301CBF0120704780B514F0EBF80121A8
:1056E000002808BF0421084680BD000070B5204A8C
:1056F000A4481E49BD4D146B016013682046002C60
:1057000004BF4EF20000C2F2400000F1400600F17A
:105710005001D28F6865002CEE6500F120062966E5
:10572000AE6508BF4FF480625B78841803EB830397
:105730005B4202EB830204EB83040E4B1A446FF0CE
:105740000303AC664FF6FC7403EA520304EA520208
:105750001CB20A442B876A6622464EF095FCA86D5F
:10576000696E22464EF090FC002070BDCD580000BE
:1057700008004020B0FF01004901400141EA021148
:10578000009A41EAC3011143024A01F580311150E8
:10579000704700BF200609401204400142EA01514F
:1057A000009A41EA03111143064A1150704700BFA5
:1057B000090441EA0050034940EA02101843086016
:1057C000704700BF24060940BCB5B54890F8B80042
:1057D000400709D518480DF10702042103682E205F
:1057E00098479DF8070018B3144C54F8045CE8037C
:1057F00006D54FF4803020604020E16C52F002FD6D
:10580000A80405D54FF400502060002024F064FB6C
:10581000680405D54FF480402060012024F05CFB33
:10582000280405D54FF400402060022024F054FBEA
:10583000BCBD00BFA8084020B801402014040940A6
:105840002DE9F0411F4E05460C4601220A2C306816
:1058500050F8251021F40061C8BF01F5006140F83F
:105860002510204600214AF059FC31685F4F0B2C6F
:1058700051F8252060F30A2241F82520124905DB62
:10588000B87A18B1086840F00C000860787B884648
:10589000022803D0022078734AF01CFC2046012124
:1058A00000224AF03BFC316801F82500B87A38B193
:1058B0000A2C05DCD8F8000020F00C00C8F8000025
:1058C000BDE8F081D4024020EC400840B0B5044669
:1058D0000078032815D0022819D000284AD1434D5A
:1058E000686D4EF0ADFA014620792A8F01440431EB
:1058F000914227D900F048F8E86DC1880131C18094
:105900002FE03A48C06D01890131018132E02179EF
:10591000364D1422A86E01EB810100EB810016497F
:105920005631FAF727FF686D4EF0FCFCA86D4EF07B
:10593000F9FCE86D00210022062A1BD020F8121085
:105940000132F9E7D4E9010141F8040C2279A16898
:10595000686D043904324EF0B3FB207900F014F87E
:10596000E86D41890022002301314181E86E002168
:1059700012F0D8FF0020B0BD440440200149086067
:10598000704700BF84074020FEB504464AF014FD6E
:10599000002818BF04348DF804400120E4B22146E9
:1059A0004AF09CFF114F05460290BE6D30464EF006
:1059B00047FAA04202D2F86D04300FE03046294683
:1059C00022464EF073FA01A814F048FF022804D0D2
:1059D000012806D1F86D023000E0F86D0188013130
:1059E000018002984BF09AFDFEBD00BF5802402096
:1059F000B0B5FAF7C7FB0446C8482C3000F059FC94
:105A000005462046FAF7C2FB2846B0BD2DE9F8430B
:105A1000DFF82085DFF81495B8F83C10401A40F202
:105A20000441053890FBF1F0D9F84010C0B200EB0A
:105A3000400001EB8005FAF7A5FB044618482E89C3
:105A400090F84500C0060BD516480DF103024FF43F
:105A50008051334607681120B8479DF8031099B16B
:105A600099F8640088B190FAA0F10F4AB8F828308C
:105A7000B1FA81F142EA0112D652012202FA01F191
:105A8000884389F8640005E020B909F12C00294613
:105A900000F019FC2046BDE8F843FAF777BB00BFD9
:105AA000A8084020940140200A804020B0B5FAF7B1
:105AB00069FB0546E348343000F0FBFB044628460A
:105AC000FAF764FB002C14BF20890020B0BD00BF92
:105AD000B0B5F549C98F401A40F2044190FBF1F08E
