:020000040000FA
:1000000054FD4020D5070000000000000000000063
:1000100000000000000000000000000000000000E0
:1000200000000000000000000000000000000000D0
:1000300000000000000000000000000000000000C0
:1000400000000000000000000000000000000000B0
:1007C000DFF80CD000F0C2FD00480047C71300005E
:1007D00054FD402000488047FDF90100EFF31080F0
:1007E00072B6704780F31088704740BF5D4A136847
:1007F000012B04D04FF0010313605B4A10605B4A89
:1008000011605B484FF0805101607047EFF3108238
:1008100072B654480168C9B14FF0000101605248F6
:10082000016849B1EFF3098121E9F00FEFF30B847F
:1008300041F8044D006801604C490968096810C915
:1008400084F30B88B1E8F00F81F3098882F31088F4
:100850004EF0040E704747484FF47F01D0F8002057
:1008600041EA020101607047404908603E494FF08B
:10087000000008603B494FF0010008603D484FF41C
:100880007F01D0F8002041EA0201016038484FF0B2
:100890008051016038480068006880F3088861B6BC
:1008A00062B6704720BF70471EF0040F0CBFEFF315
:1008B0000880EFF3098020E9F00FEFF30B8440F894
:1008C000044D40F804ED1EF0040F0CBF80F30888BF
:1008D00080F3098800B551F0A2FE5DF804EB4EF0FC
:1008E000040E70471EF0040F0CBFEFF30880EFF307
:1008F000098020E9F00FEFF30B8440F8044D40F835
:1009000004ED1EF0040F0CBF80F3088880F3098803
:1009100000B551F087FE5DF804EB4EF0040E704711
:1009200010B4EFF3038410B47C4610B400B54DF856
:1009300004CD0FB4089C2DE9F00FEFF30B8410B435
:10094000684651F02BFE10BC84F30B88BDE8F00F15
:100950000FBC5DF804CB5DF804EB10BC10BC10BC00
:10096000FEE70000A4F8402074F8402078F840200A
:1009700004ED00E020ED00E008ED00E02DE9F05F7F
:100980000546002092469B468846064681464024FE
:100990001BE0284641464746224600F0F2FB5346FC
:1009A0005A46C01A914110D311461846224600F00B
:1009B000D9FB2D1A67EB01084F4622460120002182
:1009C00000F0D0FB17EB00094E41201EA4F10104FA
:1009D000DFDC484631462A464346BDE8F09F00002A
:1009E0000649074A0868504343F239021044086038
:1009F00040087047014908607047000000E440204B
:100A00006D4EC64110B5431A934209D28318881817
:100A100003E010F8011D03F8011D521EF9D210BDAC
:100A200040EA01039B0703D009E008C9121F08C070
:100A3000042AFAD203E011F8013B00F8013B521EF0
:100A4000F9D210BDD2B201E000F8012B491EFBD251
:100A500070470022F6E710B513460A4604461946C9
:100A6000FFF7F0FF204610BD10B5044604E00B78F8
:100A700000F8013B03B1491C521EF8D2204610BDBC
:100A8000421C10F8011B0029FBD1801A704730B5B9
:100A900004460020034600E05B1C934203D2E05C66
:100AA000CD5C401BF8D030BD30B505460020034674
:100AB00000E05B1C934205D2EC5CC85C201A01D1BB
:100AC000002CF6D130BDF0B480EA0102D40F420010
:100AD000B2EB410F02D20246084611464A0042D00C
:100AE000C30DDDB2C1F3C752AD1A202D35DAC1F303
:100AF000160141F4000204B15242C5F1200602FA87
:100B000006F12A411044B3EBD05F23D0C4B1012DCC
:100B1000A0EBC35009DCF0BC4FF0004202EAC35224
:100B2000DBB200F5000000F057BB400000F1807020
:100B300000EBC350A0F1807040EAD170490009E099
:100B4000490841EAC071A0EBC35000F5000040081D
:100B500000EBC350F0BC00F036BB6142012202EB57
:100B60004101001BF6E7F0BC704781F00041AAE7A5
:100B700080F00040A7E780EA010210B502F00043D0
:100B8000400022D04A001FD0010E01EB1261C0F3D9
:100B90005600C2F3560240F4000042F40002A0FBEB
:100BA000022000047F39140400D0401C50EA124097
:100BB00001D44000491EC2B20C0604EBD010401C08
:100BC0004008802A02D003E0002010BD20F0010080
:100BD000002900DA0020184310BD30B480EA010279
:100BE00002F0004530F0004221F0004013D090B1F7
:100BF000C30DD40DC2F31601C0F31600E41A41F47C
:100C0000000140F400027D34914201D3641C00E0F5
:100C10004900002C02DA30BC002070474FF400007D
:100C20000023914201D3891A034340084FEA41014E
:100C3000F7D151B1914202D14FF0004105E002D20B
:100C40004FF0010101E06FF0010103EBC4502844B3
:100C500030BC00F0B8BA2DE9FE4F804681EA0300AF
:100C6000C00F0C46009021F0004123F00045B8EB86
:100C70000200A94105D24046214690461C460B463B
:100C8000024623F00040104347D0270DC7F30A0067
:100C9000C3F30A510290401A019040286BDAC3F363
:100CA000130040F4801B0098924620B10023D2EB41
:100CB000030A63EB0B0B01985946C0F14002504602
:100CC00000F050FA06460D4650465946019A00F08B
:100CD00068FA10EB08006141002487EA115284EAA7
:100CE000E7731A4340D0009A62B3019A012A4FEA8F
:100CF000075215DC001B61EB02014FF0004202EAD3
:100D00000752CDE90042001C41F5801132462B46C6
:100D100000F0CEFA03B0BDE8F08F40462146F9E777
:100D2000001B61EB0201001C41F5801300185B41C0
:100D30002018A2F5001747EB030140EAD570B61959
:100D40006D4111E06D084FEA360645EAC0754FEA7D
:100D50000752001B61EB0201001C41F5801149089C
:100D60004FEA30000019514132462B4603B0BDE82E
:100D7000F04F00F08EBA0098012240000023D0EB23
:100D8000020263EBE073009821464FEAE074B8EB8F
:100D9000000061EB0401E9E783F000435BE781F0C9
:100DA000004158E72DE9FE4F81EA030404F00044B6
:100DB00021F0004100944FF0000B23F0004350EA73
:100DC00001045ED052EA03045BD0C3F30A54C1F3BA
:100DD0000A552C44A4F2F3340194A0FB0254C1F34D
:100DE000130141F48011C3F3130343F4801301FB97
:100DF000024400FB034E840A970A44EA815447EAFE
:100E00008357A4FB076802958D0A05FB07854FEA07
:100E1000932C04FB0C542705029D4FEA065847EA21
:100E20001637B5EB08056EEB070C870E920E47EAF6
:100E3000811742EA8312A7FB0201B6EB0B0164EBB8
:100E400000042B0D43EA0C335E1844EB1C50DA46C9
:100E50005146E7FB0201C5F313044FEA0B3343EAA3
:100E600014534FEA0432019C43EA0603A4F10C0434
:100E70000294009CCDE900B400F01AFA03B0BDE87A
:100E8000F08F00200146F9E72DE9F04D81EA0304D7
:100E900004F0004B21F0004514464FF0000A23F007
:100EA000004150EA050220D054EA01021DD0C5F3EA
:100EB0000A570246C5F31303C1F31300C1F30A56E0
:100EC00040F4801543F48013A7EB0608101BD646A8
:100ED00008F2FD3873EB050002D308F1010801E0C8
:100EE00092185B41B8F1000F03DA00200146BDE81B
:100EF000F08D00204FF48011064684460EE0171B4B
:100F000073EB050705D3121B63EB050306434CEA9D
:100F1000010C49084FEA300092185B4150EA010782
:100F2000EDD152EA030012D082EA040083EA0501FF
:100F3000084305D0101BAB4106D20122002306E076
:100F400000224FF0004302E06FF0010253101AEB51
:100F500006004CEB085110EB0A0041EB0B01BDE819
:100F6000F04D00F096B9002801DBC0F100400029E7
:100F700001DBC1F10041814201D201207047002014
:100F80007047002801DBC0F10040002901DBC1F1FE
:100F90000041814201D301207047002070470028A2
:100FA00001DBC0F10040002901DBC1F100418142B9
:100FB00001D9012070470020704730B5041E71F13F
:100FC000000404DB4FF00044404264EB0101141EB6
:100FD00073F1000405DB1C464FF00043524263EB03
:100FE0000403801A994101D3012030BD002030BD97
:100FF00030B5041E71F1000404DB4FF000444042A0
:1010000064EB0101141E73F1000405DB1C464FF074
:101010000043524263EB0403101A8B4101D20120BA
:1010200030BD002030BD30B5041E71F1000404DB7A
:101030004FF00044404264EB0101141E73F10004C0
:1010400005DB1C464FF00043524263EB0403101AC9
:101050008B4101D3012030BD002030BD30B5041ECE
:1010600071F1000404DB4FF00044404264EB0101E5
:10107000141E73F1000405DB1C464FF0004352427E
:1010800063EB040342404B401A4301D0002030BDC3
:10109000012030BDC10F80EAE0700844CA079623E2
:1010A000002100F099B896230022114600F094B870
:1010B00030B4044696230800214604D0B62330BC41
:1010C000002200F089B820460021F8E700F0004235
:1010D00020F00040C10DC0F3160040F400007F294D
:1010E00001DA00207047962903DCC1F19601C8405F
:1010F00001E096398840002AF4D04042704720F041
:101100000040C10DC0F3160040F400007F2901DA51
:1011100000207047962903DCC1F19601C840704752
:1011200096398840704770B5C1F30A5201F0004506
:101130000024C1F3130140F2FF3341F480119A42BD
:1011400001DA002070BD40F233439A42A2F23342EA
:1011500003DC524200F015F800E090402C43F1D03F
:10116000404270BD202A04DB203A00FA02F1002040
:1011700070479140C2F1200320FA03F319439040D5
:101180007047202A04DB203A21FA02F00021704740
:1011900021FA02F3D040C2F12002914008431946DF
:1011A0007047202A06DBCB17203A41FA02F043EAC7
:1011B000E07306E041FA02F3D040C2F12002914010
:1011C0000843194670470029A8BF7047401C4900D2
:1011D00008BF20F00100704710B4B0FA80FC00FA9C
:1011E0000CF050EA010404BF10BC704749B1CCF1C7
:1011F000200421FA04F411FA0CF118BF0121214353
:101200000843A3EB0C01CB1D4FEA00614FEA10200D
:1012100042BF002010BC704700EBC35010440029AF
:10122000A4BF10BC7047401C490008BF20F001005B
:1012300010BC7047F0B4002802DCF0BC00207047FE
:10124000C0F3C751C0F3160040F40000CA0701D133
:101250004000491E3F2202EB6105002211464FF477
:10126000000626FA01F31344D418844201D8001B67
:101270001A464000491C1729F3DD5100814202D271
:101280004FF0FF3100E0002102EBC550F0BCFFF74A
:101290009ABF10B5141E73F1000408DA401C41F126
:1012A000000192185B411A4301D120F0010010BDEA
:1012B0002DE9F04D92469B4611B1B1FA81F202E060
:1012C000B0FA80F220329046FFF74CFF04460F46FA
:1012D00040EA0A0041EA0B0153465A46084313D03C
:1012E000114653EA010019D0C8F140025046FFF7F9
:1012F00048FF05460E46504659464246FFF732FF24
:10130000084305D0012004E020463946BDE8F08DB1
:101310000020054346EAE0762C4337430A986305EC
:10132000E40AA0EB08000022FD0A44EA47540A3010
:1013300002D500200146E9E7010510196941DDE900
:10134000084500196941BDE8F04DA2E7064C074D7C
:1013500006E0E06840F0010394E807009847103485
:10136000AC42F6D3FFF730FA74FE050094FE050098
:1013700070B58C1810F8015B15F0070301D110F857
:10138000013B2A1106D110F8012B03E010F8016B84
:1013900001F8016B5B1EF9D12B0705D40023521E07
:1013A0000DD401F8013BFAE710F8013BCB1A921C6F
:1013B00003E013F8015B01F8015B521EF9D5A1426D
:1013C000D8D3002070BD80B555F0EBFE002080BD65
:1013D00080B551F041FB00F005F8BDE8804051F0C8
:1013E00053BB00002DE9FC471F4801210027016085
:1013F0001E48BFF34F8FBFF36F8F0760D0F824A054
:101400004AF00041BAF1000F8162194808BF4FF05D
:10141000040AC0F800A003F06BFDCAF314240DF118
:1014200006050FF250080FF25409BCB1152F15D262
:10143000E00710D0F8B2294600F0DAFD064628B9D8
:101440004046494640F2EE724FF088FFBDF8061064
:10145000304600F079FC01376408E6E7504603F0B7
:1014600058FCBDE8FC8700BF80E100E000000440BC
:1014700058FD40206770696F00000000414F4E5FCB
:101480004C4350555F49525148616E646C6572001F
:1014900070B5002208230024002B0FD450F82350ED
:1014A00051F82360641942F10005A41940F8234063
:1014B00045F10004013B04F00104EDE7BDE8704094
:1014C00058F048BDF8B51446002208230025002B2B
:1014D0000FD450F8236051F82370AD1942F1000683
:1014E000ED1944F8235046F10005013B05F00105D4
:1014F000EDE7204658F02EFD0020A062F8BD000068
:1015000010B51446FFF7DEFFA06A20B12046BDE803
:10151000104000F00DB84149204615F029FB28B1D4
:101520003E492046BDE8104002F0EAB810BD00BFB9
:10153000B0B58CB0044601AD384821462A4602F0C9
:1015400077F8204629462422FFF75CFA0A99002002
:10155000C4E909100CB0B0BDF0B58BB00446806A88
:1015600000B32E4D2046294615F0EAFA80B3082034
:101570000021002200283AD455F8206054F8203089
:10158000B718921941F100069A1AA3EB070771EBFD
:10159000060244F82070A0F101004FF0000238BFAD
:1015A0000122E7E71D4A00200821002300291ED45C
:1015B00054F8215052F821605B1940F100059B1945
:1015C00044F8213045F10003013903F00103EDE750
:1015D0006D46124821462A4602F02AF8204629463E
:1015E0002422FFF70FFA09990020C4E9091000200E
:1015F000002109290BD054F821205FEA50004FEA5E
:10160000320044F8210002F001000131F1E72046E8
:101610000BB0BDE8F04058F09DBC00BF64C30500AE
:10162000704770477047F0B597B007AC01AD07AE93
:101630000FC41D98314613ACADF818001C98224613
:10164000059021980490209803901F9802901E986E
:101650000190284601F0C9FB28462146224601F0A8
:1016600012FF0FAD05A8294601F0C8FC2046294607
:101670002A4601F0AFFB0BAF3046394601F03EFE83
:1016800028463946224601F0DDFBDDE92220002113
:10169000042903D0635C53540131F9E7211D002272
:1016A0000C2A04BF17B0F0BD8B5C83540132F7E7FE
:1016B000B0B58EB002AC0FC4139900220AAB149CD3
:1016C000ADF804101299009102A901310F2A03D03C
:1016D0009854885C0132F9E780F0060006AD8DF879
:1016E00037006846294601F089FC0AA928462246A7
:1016F00001F0A8FB0EB0B0BDF0B593B007AC0FC4BD
:10170000199901ABDDE91E42ADF81810189925466C
:1017100005911D9904911C9903911B9902911A99A5
:1017200001910FA90E462DB113F8017B013D06F87A
:10173000017BF8E70D19002605AFA319052E98BF08
:10174000102B03D2BB5DAB550136F6E700241D46D6
:10175000102D08D20E5D4E551E1B0135013E18BFDF
:10176000661C3446F4E707A900240BAD01310F2CA9
:1017700003D02855085D0134F9E758400FA98DF8CA
:101780003B000BA801F05EFB13B0F0BD70B598B044
:1017900008AC14AD0FC41E9808A92A4601AC0790E6
:1017A0001D9806901C98059022980490219803900B
:1017B000209802901F980190204601F016FB2046C9
:1017C00029462A4601F05FFE239C002005A910AAA5
:1017D0000023102B08D00D5CD554451C0133B5F106
:1017E0000C0018BF2846F4E710AD14A829462A4675
:1017F00001F0F0FA0CAE08A8314601F07FFD284652
:101800003146224601F01EFB18B070BD2DE9F04FA5
:10181000AFB00E4607464FF404700221154616F08D
:10182000B3F9834628468421FFF713F958464FF44D
:101830000471FFF70EF9384600F0EEFE044630461C
:1018400000F0EAFE14B120B1ED4803E068B138467B
:1018500000E03046294600F0F1F80025584615F022
:1018600095FF28462FB0BDE8F08F3046394606F187
:101870002C0807F12C044EF011FF002800F0C18065
:101880000BF184000BF12C0107F1580ADA4B5A4690
:101890000D940BF1580906F158040C904046884607
:1018A000514698470D98CDF834804246DFF848837A
:1018B0002146C047304651464A46CDF81CA0464610
:1018C000C047089421460C9C38462246C0474846EB
:1018D0002146CA46A0464EF0E1FE002800F0A18055
:1018E0000BF5F270C34E0D990BF59A740BF1B00223
:1018F0000BF1DC070A900BF5DC700B940992039056
:101900000BF5C67002900BF5B07001900BF584706A
:10191000049005F15800069005F12C0005905846FA
:10192000B047504641463A46B047DDE90701DFF887
:10193000C8922246C84724A82C21CA46FFF789F836
:1019400019A82C21FFF785F80EA82C21FFF781F8A4
:10195000019E38463946B9463246D0473946029F3D
:1019600030463A46D0470998039C01462246D04764
:1019700030460A9E41463246D0470DF1380830467F
:101980000221424601F0A5FD204624AC0B995646A3
:101990002246D047204619ACDFF858A239462246E5
:1019A000D0472046049C41462246D047484621461F
:1019B0002A46B0470DF190082C21B1464046FFF76A
:1019C00048F819AD2C212846FFF743F80EAE2C211C
:1019D0003046FFF73EF80A9821464246D04709981C
:1019E00041462A46C8470D9938463246C847059AA7
:1019F00028463146D0470B99069A3846C8470125F4
:101A00002CE7404621464EF049FE00287FF41CAFEB
:101A1000306D01283FF634AFF06C00287FF430AF12
:101A200012E70D9958464EF039FE00287FF40CAFAE
:101A30003846294600F026F80FE700BFB0B5054646
:101A40000C46084624222946FEF7DCFFD5E90901A9
:101A50002422C4E9090104F12C0005F12C01FEF750
:101A6000D1FFD5E914012422C4E9140104F158007E
:101A700005F15801FEF7C6FFD5E91F01C4E91F01B2
:101A8000B0BD00002DE9F04FA7B00E4605464FF45B
:101A9000F270022116F078F80446286D012801D86A
:101AA000E86C18B1284600F0B7FD20B15448314623
:101AB000FFF7C4FF97E004F1B00005F15808059660
:101AC0001CAE05F12C0B039004F184004146324614
:101AD000029004F15800049004F12C000190284673
:101AE000FFF70EFD0DF1440A424B2846414652468F
:101AF00098470DF11809404F304651464A46B847BD
:101B00003E463E4F484603212246B8474146DDF84F
:101B100004805846B9464246B0471CAF5846414635
:101B20003A46B0472846049D39462A46B0470DF14B
:101B3000700A204621465246B04711AF2846082178
:101B40003A46C8475046DDF808A02A4B3946524667
:101B500098471CAD5046414637462A46B047059A3D
:101B600028460221C84704F1DC05584659462A4652
:101B7000B04740464146C346DDF80C804246B04778
:101B800004F58476284641463246B847B94604F5FE
:101B90009A751A4F304608212A46B84704F5B076A0
:101BA000049804213246B84704F5C6775146DFF859
:101BB00044A030463A46D04704F5DC762046394604
:101BC0003246C847059F3046294607F12C02D047C8
:101BD0001CAD404659462A46C847084B07F15802F3
:101BE000284608219847204615F0D0FD002027B050
:101BF000BDE8F08F7536000009350000D3340000D1
:101C000050C50500F0B58BB06F460D4606465830FE
:101C10001446394603F092F8304639462A4601F018
:101C200073FC06F12C003946224601F06DFC0BB026
:101C3000F0BDE0B50190019830B14FF47A7000F03A
:101C400005F801980138F5E78CBD0000F8B50446A9
:101C50000E4D28B92868C00704BF002000F036F8F0
:101C600042F2107684B1A71B34BF0027344628689F
:101C7000C00704D1204600F029F83C46F2E7204690
:101C800000F006F83C46EDE7F8BD00BF10E000E0CC
:101C900018B500900C484FF47A730168009A4A43D3
:101CA000B2FBF3F20092002243684468A342FCD0E6
:101CB0001A44A342A2EB040298BF0A44009B9A4232
:101CC000234628BF18BDF0E714E000E01CB5114C16
:101CD00001902068019901B140B9002000F0EAFAB2
:101CE0000D49B0FBF1F02060019991B1312802D388
:101CF000019901390191019959B10199013948437B
:101D00000C21B0FBF1F000900098411E00280091DA
:101D1000FAD11CBDE8E9402040420F003349884217
:101D200004D0084A90421CBF012070474FF0FF3298
:101D30008842C264C0F8CC204FF0000008BFC1F850
:101D40004C2170470000084070471CB501240DF17C
:101D5000070101AA0020ADF8044000F05DF810B1C1
:101D60008DF8074001E09DF8074020461CBD0000AB
:101D700010B5124C2178FF2905D1FFF7E6FFB0FA24
:101D800080F0410921700E48006849B10D49096889
:101D900081B1A1FB00010C4A0023FEF7EFFD10BD4D
:101DA000C10B4FF47A726FF3DF305043514301EBB4
:101DB000D03010BD0A21B0FBF1F010BDA8E54020E5
:101DC0004800044054FC4020007C9200014951F836
:101DD0002000704730B00C5002460020142A04D86E
:101DE00019B102F1180008800048704700000A503D
:101DF00080B500F049FA00F046FA00F0A3FA03209B
:101E000000F076F9002000F004F8002818BF012047
:101E100080BD002070470000B0B503460120062BAE
:101E20003AD8002938D0002A36D03F4C3F482568A0
:101E300005B9206004681A4DAC422ED1062B2CD86F
:101E4000DFE803F0040A0F14191E24001288012A87
:101E500023D1807E08701EE01288042A1DD14068BC
:101E600018E01288042A18D1806813E01288042A26
:101E700013D1C0680EE01288042A0ED1006909E06F
:101E80001288022A09D1008B088004E01288042AF3
:101E900003D1406908600020B0BD0120B0BD00BF83
:101EA0007878454510B503460120062B38D800291F
:101EB00036D01D4804680CB91C4C0460062B30D881
:101EC000DFE803F0040A10161C222800012A28D19A
:101ED00008781649887622E0042A22D10868134936
:101EE00048601CE0042A1CD108681049886016E08C
:101EF000042A16D108680D49C86010E0042A10D1E0
:101F000008680A4908610AE0022A0AD108880749D4
:101F1000088304E0042A04D10868044948610020C9
:101F200010BD012010BD00BFF8EA4020C0FD4020D8
:101F300001214FF4807281401038152838BF02FA11
:101F400000F10348026822EA0101016000207047A5
:101F500020000440B0B5A0F11003144ADCB2142CE8
:101F60001CD84FF4807417284FF0070504FA03F3C8
:101F700043F000445462044688BF083C17281046CA
:101F8000E4B288BF043004EB4404303CA540A140D7
:101F900004682940AC432143016002E0012101FAB9
:101FA00000F3D0691843D0610020B0BD04000440A4
:101FB0000448016841F0020101600168B1F1FF3F8E
:101FC000FBDC70471000044008480221016000203B
:101FD000704700BF0548012101600020704700BF25
:101FE0000248032101600020704700BF0000044048
:101FF000FFF7F2BE01281CBF0120704704480168AA
:1020000041F00101016001688906FCD5002070479C
:102010002C00044080B5FFF798FE10B14FF08E40C1
:1020200080BD0420FFF7D2FE48B1FFF73CF801461F
:102030000548FEF7D2FD0549FEF79DFD80BD01482C
:1020400080BD00BF00901746001B374C000048437E
:1020500070470000B0F1FF3F10DD00F01F010122CA
:10206000C0B202FA01F1064A42EAD00020F00300B1
:102070000160BFF34F8FBFF36F8F7047FEE700BF64
:1020800080E100E0B0F1FF3F0CDD00F01F01012214
:10209000C0B202FA01F1044A42EAD00020F0030083
:1020A00001607047FEE700BF00E100E0102A00D3A6
:1020B000FEE7102900D3FEE770B5154B4FF0FF3552
:1020C0001B68C3F302231C1F83F0070338BF0024DF
:1020D000032B28BF032305FA04F605FA03F3B243E2
:1020E0009943A1401143BDE8704001F0A9BB00BF76
:1020F000C11E05290AD206494FF6FF030A681A4095
:1021000060F30A220348104308607047FEE700BFEF
:102110000CED00E00000FA050B480C49006888420D
:1021200018BF70470048004700E540000649074ACD
:10213000086890421CBF0020704701F10800496800
:102140000022C90800F004B800E44020484354507D
:102150002DE9F0472B4B002591464FF0010E4FF033
:10216000402C002A1D609846174B18BF4FF00109FC
:102170009A460023A9421BD00EFA05F404EA02078E
:10218000B7FA87F77F0917EA090F0FD150F83570B2
:1021900056462343464607EA0A074CF8257000EBEB
:1021A000C507C8F804407F68C8F808700135E1E742
:1021B0000020002AC8F80400184608BF1A46C8F8CC
:1021C0000020BDE8F08700BFFCFF0700F0B5034624
:1021D00000200C4C4FF040250CE02668C640F60766
:1021E0000CD055F8206003EBC00743F83060013095
:1021F00036687E601F2898BF8842EED32168116040
:10220000F0BD00BF80400040052884BF012070471A
:10221000082101FA00F01A490A6822EA0000086061
:10222000002070471648016821F00101016000207C
:10223000704700BF02460120052A98BF042900D933
:10224000704710B50820A94B7024904002EB420261
:10225000D8609440043291401A682140A24311434F
:1022600019605968084358600020BDE81040704765
:102270000348016841F0010101600020704700BF80
:1022800004A00C507047704780B5FFF791FE564888
:102290000122016862F3010103220160016841F03B
:1022A000100101600220012100F04EF8BDE88040DD
:1022B000FFF7CEBE10B50446002808BF0224204612
:1022C00000F014F8012C05D0022C02D13F21884ADD
:1022D00002E0FEE7FF21044A1268114008BF012115
:1022E000B0FBF1F010BD00BF24000050012807D161
:1022F0000548006800F00300032808BF00F006B896
:1023000000487047006CDC0220000050012000F003
:1023100001B800000949012802D002280CD104317B
:10232000086848B1C0F38301054A00F0010040424B
:1023300001FB022108407047002070472C0000502C
:1023400000366E017047000010B50023002820EA17
:10235000E074C8BF3F2300290AD480F0010003F5D0
:10236000E06308434FEA012008BF4FF48070044344
:10237000B2F1FF3FC8BF03F5E0434BB15C48B2F197
:10238000FF3FC8BF44EA023401689943214301601A
:102390000220FFF78FFF0149086010BD28E44020AC
:1023A00010B510480168002907D4016841F0020106
:1023B00001600168B1F1FF3FFBDC0B4C012120689B
:1023C00061F3010020600220FFF774FF0749B0FBB2
:1023D000F1F061686FF3184141EA004040F40000F9
:1023E000606010BD100004401000004000127A0030
:1023F0000320FFF7EBBC00002DE9F04707463B4800
:102400000068C00746D13A480068C0F3023AC0F3FA
:10241000022800F03F09BAF1070F06D04FF0FF3055
:102420004FF0FF310722FFF78FFF32480021324A79
:102430004FF6FF73314D324E002484460A2C1ED0D5
:10244000116821F48031116011681160116899439D
:102450001160116839431160116841F40031116055
:102460005168B1F1FF3FFBDC51686046013421F057
:102470000041BCEB010038BF4819B042DED8032050
:1024800000F066F8BAF1070F04D0484641465246BC
:10249000FFF75AFF1B4E3068632803D800F1010094
:1024A00030600DD10420FFF791FC05460024032085
:1024B000C6E90254FFF78AFC6321E5FB010407E04B
:1024C0000320FFF783FCD6E90212401842F1000412
:1024D000C6E90204214600233268FEF74FFA01469E
:1024E0000420BDE8F04700F033B800BF00A00C5056
:1024F0001400004040420F0014010940C0BDF0FF2D
:10250000DF930400D8E640206FF00401084200D0B9
:10251000FEE70D4904280A6822F0040308BF42F0D0
:1025200004030B60704700BF411E0020B0EB116F29
:102530001CBF01207047044AE023516003490B701F
:10254000072190601160704710E000E023ED00E08B
:10255000014A42F82010704730B00C50B0B578B145
:102560000446006808B91F4820601E4988421CBF05
:102570001D4988420BD16168B1F1807F02D3FEE72B
:102580000120B0BDA268B2F1807F04D3FEE71749F5
:102590008842F0D0FEE743699B0710D5342100251F
:1025A000C16041692F2D08D811F0020105D001202A
:1025B000FFF73FFB20680135F3E7D4E90112016022
:1025C000002576214260C160416900202F2DD8D8B6
:1025D00011F00201D5D10120FFF72BFB2068013556
:1025E000F2E700BF00B000400040095000C00C50AE
:1025F000B0B50446006876210025C16040692F2DE2
:1026000008D810F0020005D10120FFF712FB206866
:102610000135F3E70020B0BDB0B50C4D04462946A6
:102620004EF03CF830B904F12C0005F12C014EF0CD
:1026300035F808B10020B0BD04F1580005F158018B
:102640004EF02CF8B0FA80F04009B0BD50C505003E
:102650002DE9F04FBFB033AC0FC4DDE94868102E50
:102660000BD233AD284600F082FE0020102810D097
:10267000295C08F800100130F8E7002033A9102881
:1026800004BF3FB0BDE8F08F0A5C08F800200130BD
:10269000F5E7DFF82807711E37AB229100EB011038
:1026A0000021102903D0425C5A540131F9E79DF80A
:1026B000EB009DF8EA509DF8E9309DF8E5209DF883
:1026C000E3C09DF8E0409DF8DCE09DF8DD109DF84A
:1026D000DEB09DF8DFA04FF0FF3732909DF8E800A4
:1026E00028909DF8E7002F909DF8E60027909DF830
:1026F000E4002E909DF8E20026909DF8E1003090D5
:1027000031914FFA8EF1B1F1FF3F68DD1846329BEF
:102710006E00D9B25B0046EAD11146002D91E9B2B4
:10272000650046EAD1112C91C1B22898460046EACC
:10273000D1112B91C1B22F98460046EAD1112A91AE
:10274000C1B22798460046EAD11156002991C1B27C
:1027500046EAD110D1B225902E98460046EAD11112
:102760002491C1B238464FEA4C0747EAD111239170
:102770005FFA8CF1269A570047EAD116D1B2309A07
:10278000570047EAD119D1B22246074645EAD1148B
:10279000D0B24FEA4A0152465D46013F41EAD01AA3
:1027A000D0B2319A4FEA4B01329341EAD01BE8B2E2
:1027B0002BAD510041EAD011D0B2C00940EA4E0E13
:1027C00029CD28902A982F9029982790DDE9240276
:1027D0002E90DDF88CC02696CDE9309191E73298A5
:1027E0002B952A9329468DF8EA5055468DF8E93005
:1027F000A1468DF8E0408DF8DCE08DF8E5208DF8FD
:10280000E3C05946289E279BDDF898A0AB468DF87B
:10281000DF508DF8EB002F980C468DF8DE108DF808
:10282000E8608DF8E6308DF8E2A08DF8E7002E988C
:102830008DF8E4003098CDF8A4E031992F9D8DF803
:10284000E1008DF8DD1000212D9180212C91DDF823
:10285000B8E02B98002F00F0E78028972D992C9F47
:102860002B9018F801100F4267D02F95CDF8B8E0E3
:1028700098F8001010461A46334698F8016098F808
:1028800003E098F80250299F794088F800103199A8
:1028900071401E46134602468EEA0B00DDF8B8E092
:1028A00088F8030098F8040088F8011085EA04010C
:1028B0002F9D88F80210309980EA090088F80400FA
:1028C00098F8050048402A9988F8050098F806000D
:1028D00080EA0A0088F8060098F8070080EA0C00F1
:1028E00088F8070098F8080080EA0E0088F80800C9
:1028F00098F80900504088F8090098F80A005840F4
:1029000088F80A0098F80B00684088F80B0098F8DF
:102910000C00704088F80C0098F80D0048402B9986
:1029200088F80D0098F80E004840329988F80E009B
:1029300098F80F00484088F80F002C992D9801292D
:102940004FEA510108BF01302D9008BF80212C9122
:10295000E0B2319FF90141EA5000E1012F905FFAA6
:102960008BF041EA50004FEACB112E905FFA89F0CC
:1029700041EA50004FEAC9112790309CE0B241EA89
:1029800050095FFA8AF0E10141EA50004FEACA11AA
:1029900030905FFA8CF041EA500A5FFA8EF04FEA0D
:1029A000CC1141EA50004FEACE112690D0B2D201AC
:1029B00041EA500ED8B22A9CDB012B9942EA500C16
:1029C000EAB2ED01304643EA5203F2B24FEAC41BC9
:1029D00045EA5206E2B2329CC501384645EA520544
:1029E000CAB2C901E7B24BEA520241EA5701329139
:1029F000C1B2299C490841EAC410E1B231904808AB
:102A0000289F29902A9510461D4663467246D44653
:102A1000DDF898E0DDF8C0A0CDF8C090DDF89C901E
:102A2000DDE92EB4013715E7E548229AE5A13BAB75
:102A3000002537AF00EB0210895C0022102D08D072
:102A400018F8056008F805207E55465D5E5501358D
:102A5000F4E7481C9DF8EB109DF8E6B09DF8EF7088
:102A60009DF8F3909DF8F4A09DF8F5E09DF8F6C070
:102A70009DF8F7609DF8F8509DF8F9309DF8FA2020
:102A800031919DF8EA1024919DF8E9101D919DF86F
:102A9000E81023919DF8E71022919DF8E510309100
:102AA0009DF8E4102F919DF8E3102E919DF8E2100F
:102AB0002D919DF8E1102C919DF8E0102B919DF83F
:102AC000DC1028919DF8DD1026919DF8DE102A91EA
:102AD0009DF8DF1029919DF8EC1027919DF8ED10DD
:102AE00021919DF8EE1025919DF8F01020919DF810
:102AF000F1101F919DF8F2101E919DF8FB1032917C
:102B0000002800F0558116A9013881E86850CDF8F9
:102B10006CA0CDE914721C905B46DDE92265329809
:102B2000DDF8A0E0DDF898C0249F1D9CC0075BD0B5
:102B300098F8000098F8011098F8022098F803A07F
:102B400080EA0E0088F8000081EA0C002B9988F8D2
:102B500001002A98504088F80200299880EA0A006B
:102B600088F8030098F8040048402C9988F804007D
:102B700098F8050048402D9988F8050098F8060057
:102B800048402E9988F8060098F8070048402F9989
:102B900088F8070098F808004840309988F808003D
:102BA00098F809004840319988F8090098F80A0017
:102BB000584088F80A0098F80B00704088F80B001D
:102BC00098F80C00684088F80C0098F80D006040F8
:102BD00088F80D0098F80E00784088F80E0098F8F4
:102BE0000F00484088F80F00DDF8C4B079005FFAA4
:102BF0008BF041EAD01061001390F8B241EAD01096
:102C000069001290E0B241EAD01071001190E8B270
:102C100041EAD01059001090F0B241EAD0100F9064
:102C2000D8B2309A510041EAD0100E90D0B22F9A0B
:102C3000510041EAD0100D90D0B22E9A510041EAD5
:102C4000D0100C90D0B22D9A510041EAD0100B90C8
:102C5000D0B22C9A510041EAD0100A90D0B22B9AEF
:102C6000510041EAD0100990D0B2299A510041EAAE
:102C7000D0100890D0B22A9A510041EAD0104FEA01
:102C80004C010790D0B241EAD0104FEA4E010690B5
:102C90005FFA8CF041EAD0102890219B2799D8B296
:102CA000400840EAC1100590259AD0B2400840EA99
:102CB000C3100490DDF850C05FFA8CF0400840EA81
:102CC000C2100390209AD0B2400840EACC10149071
:102CD0001F9BD8B2400840EAC21002901E9AD0B2A0
:102CE000400840EAC31001905FFA89F0400840EACA
:102CF000C21000901B9A1A9B169CD0B2400840EA62
:102D0000C91AD8B2DDF85490400840EAC21E199A98
:102D1000D0B2400840EAC31C189BD8B2400840EA31
:102D2000C216179AD0B2400840EAC315E0B2400874
:102D300040EAC2135FFA89F0400840EAC412329CAC
:102D400058465FFA84FB04464FEA5B07640047EA93
:102D5000C910CFB2329078083194279013982490FC
:102D600012981D901198239010982290DDE90E0B77
:102D700030900D982F900C982E900B982D900A98CB
:102D80002C9009982B900898299007982A900698DB
:102D9000269005982190049825901498039F2090E0
:102DA00002981F9001981E90DDF800901C98A7E6ED
:102DB00040463FB0BDE8F04F00F0D9BAFDBE050077
:102DC000FDBF050077706860584D473F312A231CCE
:102DD000150E0700B0B50023102B08BFB0BDC45CB2
:102DE000CD5C2C44D4540133F6E7F0B589B01446D9
:102DF00000228DF80220102A03D0835CA3540132F4
:102E0000F9E70DF113050846294600F005FA0827F1
:102E10000DF1020637B120462946324600F050F83F
:102E2000013FF7E70DF103050DF113000DF102026B
:102E3000294600F02BFA20462946224600F02EFBB8
:102E400009B0F0BD2DE9F0418EB0144600220DF11D
:102E500016038DF80520102A05D0855CA554855CE5
:102E60009D540132F7E70DF127050846294600F089
:102E7000D3F900260DF116080DF10507022E02D038
:102E8000082E05D10BE020464146224600F006FB05
:102E9000204629463A4600F013F80136EEE70DF1D8
:102EA00006050DF127000DF10502294600F0EEF9A7
:102EB00020462946224600F0F1FA0EB0BDE8F08126
:102EC0002DE9F04788B0EA46044689460846904610
:102ED000514600F0DBF920465146224600F0DEFA6A
:102EE00039493A4A00200F280ED8235CCB5C235482
:102EF000231804305E78DD789F78965D4D5D5E70B6
:102F0000D65DDD709E70EEE748465146424600F0C1
:102F1000BDF90020102818D2215C1AF800200AEB15
:102F200000067778B578F6781144215421180430DA
:102F30004A788B7891F803C07A404A7085EA030298
:102F40008A7006EB0C02CA70E4E74FF0000C1AA17D
:102F500004AABCF1030F1ED000230F2B09D8E618DA
:102F6000E55C777807EB4500E05478190233707020
:102F7000F3E70023102B03D0E05CD0540133F9E7D2
:102F80000023102B04D0C85C105CE0540133F8E738
:102F90000CF1010CDDE700200F2884BF08B0BDE86C
:102FA000F0872218215C537803EB410519445170D6
:102FB00025540230F0E700BF080B0C0F0201060594
:102FC0000A090E0D00070403FDBD0500FDC0050044
:102FD00043F206310840401A18BF0120704700B97B
:102FE00052B900EA01024CF6F843084343F20E31AD
:102FF0001A40084040EA02010846704710B5002216
:103000000023102B08BF10BD845CCC54541C01332A
:10301000A21F18BF2246F4E720F07F0110200AB259
:10302000002A03D410B101384900F8E7C0B2704754
:10303000C1F3C20201F00701805CC84000F001004A
:10304000704700002DE9FF410646324814460D4600
:1030500090F8CA00C0070DD016480DF10F024FF4CA
:1030600080313346CDE9005407683220B8479DF8D7
:103070000F00E8B1DFF8A4800027D8F8500010B1A5
:10308000FDF7FEFC00E000202070B781B76077609C
:1030900037600E2F0CD0E819F72809D8217888421C
:1030A00006D2D8F850002844C05DF0550137F0E74B
:1030B000BDE8FF81FCE440200A4890F856007047C4
:1030C000084910224631FDF79DBC00BF054910227A
:1030D0002631FDF797BC00BF024910223631FDF7BB
:1030E00091BC00BFA8F34020E0B50A4890F8CA00A0
:1030F00080070AD508480DF107024FF40031036834
:10310000322098479DF8071009B10448807FC0B26B
:103110008CBD00BF28EC402008E5402050F740203F
:103120002DE9F8431D460C9B032B84BF0020BDE80E
:10313000F88314460246DDE90A60DDE90889DFE824
:1031400003F0020A122B0978B9B3022937D00129FA
:103150003BD012203CE0318832B906293CBF1E200A
:10316000BDE8F88300E0318821F0010131801CF0D6
:10317000D1FB284940F27122484331885143B0FBCA
:10318000F1F0206000202860C8F800104FF0FF31F7
:10319000C9F80010BDE8F883087801281CBF20207A
:1031A000BDE8F883308800210230308080B2C82822
:1031B00088BF01214801BDE8F883C82006E01CF063
:1031C000A9FB21684A1C022A15D228203080002041
:1031D000D8F800104A1CEED040F27122B1FBF2F197
:1031E000328821F001019142E5D2052998BF0621DC
:1031F0003180BDE8F88340F271225143054A5043C3
:10320000B0FBF1F04FF6FE710840062898BF06208B
:10321000DCE700BF40420F0010B500220023102A57
:1032200005D0845C8C54845C01326340F7E70B74F6
:1032300010BD1CB5ADF804100090002069460628AA
:1032400008BF1CBD0B5C14181354A3710130F6E7C2
:10325000B0B504460025102D08BFB0BDFDF7C0FB7A
:1032600060550135F7E700F01E0100F4706200F4CC
:103270007040063918BF0121B2F5407F18BF032105
:10328000B0F5405F18BF052108467047F0B585B01E
:10329000144605460A4600212078102907D0102838
:1032A00088BF00202B5C013053540131F5E72078B2
:1032B00090B100EB0010104B002101AE123010292C
:1032C00006D04718FFB2DF5DDF5D77540131F6E7C6
:1032D00001A91046FFF77EFD0020112806D0295CC9
:1032E000CA0042EA511129540130F6E72078013032
:1032F000207005B0F0BD00BFFDBD05000278173A93
:103300000A70427882F0E5024A708278213A8A7027
:10331000C27882F0C102CA7002794D3A0A714279CC
:1033200082F0A7024A7182796B3A8A71C27982F07F
:103330008302CA71027A82F0E9020A72427A1B3A67
:103340004A72827A82F0DF028A72C27A3F3ACA7285
:10335000027B82F0B3020A73427B593A4A73827B42
:1033600082F095028A73C07B7D38C873704784B041
:1033700000226946102A03D0835C8B540132F9E79E
:103380000F22531C04BF04B070478B5C013A00F855
:10339000013BF6E70288052922F0E103038006D00D
:1033A00003290BD14FF440714FF21E0303E04FF499
:1033B000405140F61E731A40114301807047F0B52A
:1033C00001F002050124860752B284EA55044FEA4F
:1033D000440448BF022411F0040104F1040608BFAC
:1033E0003446470748BF3446002D04F5807608BFB1
:1033F0003446C70548BF3446002A58BF3446002922
:1034000044F4007608BF3446870548BF3446002A96
:1034100058BF344613F0010344F4805208BF1446E9
:10342000002D08BF1446C50448BF1446002B44F4C1
:10343000005208BF1446002908BF1446800448BF44
:103440001446A0B2F0BD10B500F0180244051346B2
:1034500061F38A2358BF13461A46040561F3CB2251
:1034600058BF1A464B08144663F38E34430458BFC2
:1034700014468907214648BF41F40041000458BF63
:10348000214688B210BDB0B50023102B08BFB0BDD7
:10349000C45CCD5C6C40D4540133F6E7F0B5002336
:1034A0000F2B88BFF0BDC45CCD5CCE186C40D454EB
:1034B000C418657877783D44D71804337D7094F844
:1034C00002C0B5786544BD70E478F5786C40FC7056
:1034D000E6E770B51446054608200022002809D406
:1034E00055F820300026E3FB012644F8202001385F
:1034F0003246F3E7204656F02DFDA86AA06220462A
:10350000BDE8704057F090BB2DE9F04F9FB00DF132
:103510002C0A89468346502190465046FDF799FA79
:1035200009F120000AF144014FF0080C0023BCF11E
:10353000FF3F17DD5BF82C400027002517F1080638
:103540000CD451F8272050F82760521943F1000598
:10355000E6FB042541F82720013FEFE70439ACF1F1
:10356000010CE4E70022122A04D05AF8220008B91C
:103570000132F8E7D9F82800DBF82810C2F112036D
:1035800000251D930C1A18BF01241E945AF825100B
:10359000681C082D02D800290546F7D0082B0A948C
:1035A00015D8471E0A2A15D1204C0AF128020023FB
:1035B000082B0CD004EB830652F823500133B66A73
:1035C000AE42F5D003D305E05AF8201001300029AF
:1035D000FAD0471E6E460AEB870124223046FDF7DB
:1035E00011FA304656F0B6FC07F10904371D304693
:1035F00057F01AFB112C0CD8304639462022FDF723
:1036000001FA5AF824000890304656F0A3FC013421
:10361000EDE7694640462422FDF7F4F9DDE90901AA
:10362000C8E909011FB0BDE8F08F00BFFCFD05002F
:10363000F0B59446002308240025002C14D451F83A
:10364000247050F824607A19B21A4CF824207A19A0
:10365000A4F1010443F10005B21A73EB05024FF027
:10366000000538BF0125E8E76046BDE8F04056F0A8
:1036700071BC000070B506460D46886A1446B16AF2
:1036800041B170B12846314613F072FA78B128463C
:10369000314616E070B1304629462246FDF712FF4A
:1036A00012E0304629462246FDF70CFF1FE0304667
:1036B000294619E03046294613F05AFA90B13046AF
:1036C00029462246FFF7B4FF00200C49A06220469D
:1036D00013F04EFA28B109492046BDE8704000F0C9
:1036E0000FB870BD284631462246FFF7A1FF0120E2
:1036F000A0622046BDE87040FDF71ABF64C3050014
:10370000F0B5002208230024002B15D451F82360C3
:1037100050F823503719A41942F100062C1BA5EBD1
:10372000070772EB060440F82370A3F101034FF082
:10373000000438BF0124E7E7BDE8F04056F00ABCBA
:1037400070B58CB004460D46886AA16AB1B1B0B1BB
:103750002846214613F00CFAE8B101AE284621466E
:103760003246FFF765FF204631462422FDF74AF92D
:1037700000200A996162A0620CB070BD30B1204691
:1037800029460CB0BDE87040FDF782BE20462946B0
:1037900013F0EEF930B1204629460CB0BDE8704078
:1037A000FFF7AEBF01AE284621463246FFF740FF85
:1037B000204631462422FDF725F90120D9E770473C
:1037C00010B5104C1249206800F003000338B0FA1D
:1037D00080F04FEA5010087018BF10BD53F092FAF5
:1037E000606C20F002006064FEF702FBFCF7F6FF5D
:1037F000FFF7E5FF4EF050FFFDF72DF8BDE8104054
:103800004DF03CBA0000044001480078704700BF0A
:1038100054FD4020FFF7D4BF80B588B004AF0FC778
:103820000D980E9A694603900C9802900B9801909F
:103830000A98009004A8FFF726FE08B080BD00009B
:1038400010B500F00F03064C044AB0F1FF3F2344CB
:10385000C8BF83184801187010BD00BF00E400E025
:1038600014ED00E018B1C1B219B101200EE0002042
:10387000704710F47F4102D0090A092006E010F4D5
:103880007F0107BF010E1920090C1120014A515C6C
:103890000844704754C205000020704780B5FF28D7
:1038A00006D0F22806D048B9084613F0DFFD07E03D
:1038B000002005E0084613F0C5F901E04CF03AFF9E
:1038C0000249002818BF0146084680BD30C50500E2
:1038D00070B50446FCF782FF04F114060546304635
:1038E00052F00EFF304652F0DFFD208A20F0020039
:1038F00020822846FCF776FF606C2146BDE87040C8
:1039000000F076BEE0B5C84890F89400400709D5AD
:103910000A480DF1070204210368252098479DF805
:10392000070048B101F06EFB30B1426922B1418C11
:1039300003480368104698478CBD00BF0CE5402043
:1039400078E440202DE9F0410D4604460A2800D8CD
:1039500025B91CA028A1EF224DF000FD0A2C1DD88E
:103960002B4EDFF8B08006EB8400D8F8001005611C
:10397000204688470546301906EB850680F85450E6
:103980000120A040374657F83C1F57F8382C40EA32
:10399000020047F8380C19B100240FE003240DE0B1
:1039A0001DA00021002453F016FCD8F80410B064C8
:1039B0001AA02A462B4653F017FC38602046BDE873
:1039C000F08100BF286576656E745F74797065203C
:1039D0003C204B455F4556454E545F4D415829208C
:1039E00026262028705F63616C6C6261636B202106
:1039F0003D203029000000005F6B655F6576656ED5
:103A0000745F63616C6C6261636B5F73657400000B
:103A100020F3402008E440204B4500004B455F4523
:103A20005654000010B50B2809D2012101FA00F408
:103A3000FCF7D4FE70490A68A2430A6007E0064812
:103A400006A140F221124DF089FCFCF7C7FEBDE84B
:103A50001040FCF7C7BE00BF20F905005F6B655F33
:103A60006576656E745F636C6561720062480068BC
:103A7000704700BF80B560486021FCF7EAFF80BD59
:103A8000F8B50D4E0D4C0EA53068A0B1B0FA80F01F
:103A900080F01F070B2F05D32046294640F257120E
:103AA0004DF05CFC06EB8700006908B18047EBE74E
:103AB0004CF02EFEE8E7F8BD20F340203CF905006D
:103AC0005F6B655F6576656E745F7363686564756B
:103AD0006C6500002DE9F0410F4FDFF8408004468F
:103AE0000FA63868204008BFBDE8F081B0FA80F02A
:103AF00080F01F050B2D05D3404631464FF4BE72B2
:103B00004DF02CFC07EB8500006908B18047E8E721
:103B10004CF0FEFDE5E700BF20F340203CF9050036
:103B20005F6B655F6576656E745F7363686564750A
:103B30006C655F7669615F6576745F6D61736B005C
:103B400070B504460B280CD22B4E301990F8545007
:103B5000012000FA04F4FCF741FE31682143316092
:103B60000BE00B480BA140F20D124DF0F7FB224881
:103B7000204490F85450FCF731FEFCF733FE1E4809
:103B800000EB8500806CBDE8704053F02BBB00BF9C
:103B900020F905005F6B655F6576656E745F736520
:103BA000740000000A280ED810B50A4B002200212C
:103BB0000B2A0AD013F81240844204BF03EB4201DF
:103BC00049780132F4E7002101E0BDE81040C8B2B5
:103BD000704700BF64D805000749C0B2074E01EB2B
:103BE0008000041D00F14805286853F0F7FA2068AA
:103BF00031688847F8E700BF20F3402044E44020C4
:103C0000E0B5094890F8A10040060AD507480DF133
:103C100007024FF480410368282098479DF8071059
:103C200001B100208CBD00BF28EC402008E54020F9
:103C30000020704710B5354A1268904768B10446B5
:103C4000043002F006FE38482146103002F0CCFB6A
:103C50002046BDE8104013F099BD10BD10B50446D4
:103C6000C1898089FF2214F043F82F48043C214683
:103C7000103002F0B9FB2046BDE8104013F086BDBD
:103C800010B5294800F11004204602F022FC10B1C2
:103C900013F07CFDF8E710BD0246234810300068A1
:103CA00038B1038A9342FAD1438A8B4208BF7047E6
:103CB000F5E70020704700BF2DE9F041DFF84C80A8
:103CC00014460F460646D8F8002090470546B0B97E
:103CD0001420012113F058FF054620B90CA00EA1B5
:103CE000A2224DF03BFBD8F80410281D6F822E82D3
:103CF00002F048FD0C482946103002F0F4FB281D64
:103D00002146BDE8F04102F09ABD00BF10E440201A
:103D1000705F74696D6572005F6B655F74696D6576
:103D2000725F736574000000F4F240200020704759
:103D300070B5154E0446002596F85400854228BFFC
:103D400070BDB06D00EBC50149688A681AB150F8C2
:103D50003500214690470135EEE700BF70B50A4EA9
:103D60000446002596F85400854228BF70BDB06D0A
:103D700000EBC50149684A681AB150F83500214680
:103D800090470135EEE700BF28E9402070B50D46A9
:103D9000044620B9104811A1AB224DF0DFFA616D45
:103DA00011B12846884714E094F8580001280FDB29
:103DB000E16D461E01EBC00050F8080C52F0FCF912
:103DC000A8423046F2D8E06D00EBC600007900E072
:103DD000012084F8460070BD1DFC05005F706D5F1A
:103DE00073656C6563745F736C6565705F6D6F643C
:103DF0006500000080B5202905D0212906D1D0B268
:103E000050F002FA02E0D0B250F0EAF9002080BD92
:103E1000F8B51C4615460E46074628B90AA00EA15D
:103E200040F2BA224DF09AFA052EC4BF0020F8BD28
:103E3000B8190EA2214690F84030284601B0BDE8DE
:103E4000F04051F0F7BA00BF706D20213D20525470
:103E50005F4E554C4C0000005F72745F706D5F6484
:103E600065766963655F72656164000025640000C2
:103E700080B553B1107828B1012806D1C8B250F0EE
:103E8000C3F902E0C8B250F0ABF9012080BD0000D8
:103E900010B5044620B90A480AA14B224DF05EFA3B
:103EA000A06A0178232906D1E169814203D9E26A37
:103EB0001044814203D9FCF791FC00B1FEE710BD2C
:103EC00008F405005F72745F7363686564756C6500
:103ED000725F737461636B5F636865636B0000009E
:103EE0007CB5069D00F12006044614302EC6C4E9B8
:103EF0000500184623212A464FF052F904F1200309
:103F00000FCB1A44174B043A4EF0A8FBA16AE061AC
:103F10004EF08BFBDDE90756082D04D312A01BA140
:103F200099224DF01BFA00201C4A21462346C4E981
:103F30000E06266484F8355084F83650C4E91D0016
:103F400084F834002063CDE9000004F1440052F00D
:103F500001FB1348016819B12046BDE87C400847C1
:103F60007CBD00BFD15A05007072696F72697479A7
:103F7000203C2052545F5448524541445F505249BE
:103F80004F524954595F4D41580000005F72745FB1
:103F90007468726561645F696E697400B160050080
:103FA00098F84020012898BF4DF03AB980B54CF000
:103FB000AFFB002080BD00007CB50446784890F837
:103FC0009400C0060CD548480DF107021021234685
:103FD00005682520A8479DF80700002800F082808A
:103FE000714E42484249434AC6E90021B06013F08D
:103FF000CDFC01F007F80168054619B12A8B0020B5
:1040000013F000FE696819B16A8B012013F0FAFD04
:10401000E96819B1EA8B022013F0F4FD002002F0E8
:104020001DFF002053F03CFE002002F04BF9002061
:1040300002F02EFB06F10C004CF066FE54F040F846
:10404000002005F06FF9002004F02AF92A480068E2
:104050000168002088470146002006F067FC002028
:1040600008F0F8F853F028F9DF484FF4C6714030F3
:10407000FCF7EFFC002053F0F1F8002000F020FDE9
:10408000002054F08DFC002055F03EFB002054F041
:104090005FFF002054F08AFA002055F083FE0020D4
:1040A00002F0F6FAB4F1A53F03D0C4B1B4F1C33FB6
:1040B00003D1204603F034F811E041F20210002150
:1040C00010220123012613F0BFFD0546B4F1F23F93
:1040D0000CBF2E704CF01CFB284610F0DDF9074891
:1040E000006880477CBD00BFECE44020C9A6050005
:1040F000E1A60500D5A6050088E5402068E440203B
:104100001CB5B74890F89500C0060AD5BA480DF11D
:1041100007024FF480510368252098479DF8070057
:10412000E0B3FCF75BFB04461E48006880470120B3
:1041300002F0C8F8012002F0ABFA012005F0F2F815
:10414000012004F0ADF8012008F084F8012053F0BC
:10415000A7FD53F0D1F8A4484FF4C6714030FCF7E6
:1041600078FC012053F07AF8012000F0A9FC01202E
:1041700054F016FC012055F0C7FA012054F0E8FE77
:10418000012054F013FA012055F00CFE13F0ECFA64
:104190000548C06880472046FCF724FB1CBD00BFD3
:1041A00028EC402058E440209CE940202DE9F043D1
:1041B00085B0DFF8E48E98F89B00C0070CD08948E2
:1041C0006A464FF0807103682620984704469DF8A0
:1041D0000000002800F00081834E3068C10705D13F
:1041E00013F0D6FD002800F0F6803068002840F07B
:1041F000BE80B56A3069B6F82C90B5F1FF3118BFB2
:104200004946421C10D06A1C0AD0421B774B22F050
:1042100070429A4204D8A84207D1B28A914204D986
:10422000B6F81490054600E089467068411C26D017
:104230006F49097801443089A0F5876000B2B0F178
:10424000FF3F0ADC6FF41C7240F2712390FBF2F224
:10425000013202FB030092B2891A21F070426B1CFA
:104260000AD0491B614B21F07041994204D8AA42FF
:1042700007D181B2894504D91546814601E0681C01
:1042800029D0684653F0C6FF009858492F1A27F0E6
:1042900070448C426BD8854205D11FFA89F0BDF875
:1042A0000410884263D998F89B0000070BD5514849
:1042B00003AA4FF00061234605682620A84705465B
:1042C0009DF80C00E0B34CF099FF38B1B8026421BE
:1042D000B0FBF1F534E0D6F8CC414FE04CF086FF6E
:1042E000054698F89A00400609D5434803AA4FF4BA
:1042F00080010368262098479DF80C0060B10420D7
:1043000003A90DF11202ADF812000220FDF784FDA1
:10431000039808B1C6F8D801A4FB050143F698221A
:10432000A0FB024001FB020553F010FE02462046AE
:10433000294600230027FCF721FB851F38BF3D4697
:104340001FFA89F0BDF80410884205D2081A4010FF
:1043500054F0AEF8281A04E0401A401054F0A8F8BF
:104360002844D6F8D41111380131884201DA0124E9
:1043700032E0D6F8CC41A04238BF044606F078FCC3
:1043800048B31E481E4D046098F89B00800709D56D
:1043900019486A464FF000710368262098479DF837
:1043A000000060B1174800683062D5F8F40370620D
:1043B0002868F061002028604FF0FF30A8600224D8
:1043C0004FF0FF302C60A860022053F05BFE0E48D7
:1043D000406B804700E00024E0B205B0BDE8F08308
:1043E00028EC402008E54020B0F84020FEFFFF0701
:1043F00094FA4020E8E440200CE5402030000440DE
:10440000180009400C080940A8E940202DE9F041B6
:104410005E4D297801291CBF0120BDE8F081411EB5
:10442000C9B28E2925D856F061F910B36C68012104
:1044300090F801802D89E18004F10807A688417871
:1044400001440231CA1B93B2B34205D8B21A130415
:1044500002D092B2FCF7D6FAA6EB0800861EB1B2E3
:104460007818691AFCF7F5FA0020A680E080BDE80C
:10447000F0810220BDE8F081B0B50D4643490978CE
:1044800001291CBF0120B0BD411EC9B28E290CD824
:10449000144656F02BF940B141782970811C4278BE
:1044A0002046FCF7AFFA0020B0BD0220B0BD00BF2F
:1044B00010B5364C2181606056F0DAF800B110BDBD
:1044C0000121217010BD00BFF8B5304F0646387885
:1044D00001281CBF0120F8BD701EC0B28E2884BF09
:1044E0000220F8BD304614460D4656F0FFF868B17C
:1044F00041787E68A9420FD1012102302A46F1801D
:104500002146FCF77FFA0020F080F8BD30462946AE
:10451000224656F091F8F8BD07D2B3883A892B4469
:10452000591A9142C4BF0320F8BD064906780968AC
:104530003046884730462946224656F07DF800200E
:10454000F8BD00BF70E4402070B5104E05463078CD
:10455000012805D10C463189A1F10800A04201D201
:10456000012070BD7068FCF774FA56F081F800B154
:1045700070BD7668012029462246F08006F10800C9
:10458000FCF740FA0020B480F08070BD54EE40206B
:1045900070B50446406CB8B1218ACA0717D18807A4
:1045A0001AD5FCF71BF904F114060546304652F003
:1045B000A7F8304651F078FF208A20F002002082D0
:1045C0002846FCF70FF907E06FF015050EE02146CD
:1045D00052F0D8FB054648B9FCF700F9218A0025BE
:1045E000656421F001012182FCF7FCF8284670BDCA
:1045F000F8B50E460446FCF7F1F80546308AC007C8
:104600001BD1A068B04218D030464EF092FAD4E9DF
:104610000107016831604E60318A0660706028468B
:1046200041F001013182FCF7DDF827B9E06A51F071
:10463000CBFB50F05BFC0020F8BD2846FCF7D2F81D
:104640006FF00600F8BD0000044620B91C481DA10B
:1046500039224CF083FE04F10C054FF0000820686D
:10466000A04205D151F0F2FB51F0E2FC50F03EFCCB
:10467000FCF7B4F82768064638464EF05AFA388AEE
:10468000A76020F0010038823046FCF7ABF8D7E98C
:10469000022138469047FCF7A1F8C4F80880FCF7DF
:1046A000A1F84DF013FD284650F0A8FE023003D1CA
:1046B000284650F0DDFDF6E74DF014FDCFE700BFD2
:1046C00049FC05005F776F726B71756575655F7486
:1046D00068726561645F656E7472790070B50446D6
:1046E00090F82C0001281ED020BB002594F82D2026
:1046F0000123012684F82B50C4F82750C4F8235016
:10470000C4F81F508878A07700F03F000988104354
:104710002246A077204622F81C1FA16900F0D2FA99
:1047200084F82C6009E0A07F01254871A08BA1F8D6
:10473000030002E04BF0ECFF0025284670BD70B589
:104740000E4602211C46154613F01EFA4461C0E9CC
:10475000016570BDF0B589B0044690F8322090F83C
:104760003300904216D2228E04F120051023A2EBD2
:104770000010A2690244284600F0C0FAE169204610
:104780002A46012300F09EFA94F83300013084F8A1
:10479000330072E0FD280BD8FE20102284F833008D
:1047A00004F12000FCF72EF9E169354A204661E06A
:1047B000FF2801D1012061E0FF2005AA258E84F8A1
:1047C0003300084691F90F60114600F067FA05F0D2
:1047D0000F05B6F1FF3F05DC9DF8140080F087005F
:1047E0008DF814005DB305A89DF92360014600F023
:1047F00055FAB6F1FF3F05DC9DF8140080F0870004
:104800008DF8140001A885F00F034FF0000C4FF055
:10481000800E0026411B00F10F021031102E17D020
:10482000AE4203D2A769BF5D8F5505E0B54214BF04
:1048300082F800C000F803E0013A0136EEE794F890
:1048400032000028CFD0A16901A81022FCF7DAF8C5
:1048500001AD05AA10232846294600F04FFA04F1BD
:104860002006294610233046324600F047FAE16917
:1048700020463246012300F025FA002009B0F0BDA1
:1048800054C3050010B50124038680F83340C0E905
:10489000062103F10F0100220909C0E90922C262C1
:1048A00080F83210014641F8202FBDE81040FFF794
:1048B00051BFF8B51E46069B0C460546BAB13820D6
:1048C00000213246FFF73BFF00F118070646294654
:1048D00010223846FCF796F806F1280521461022EA
:1048E0002846FCF78FF8304639462A4606E018205D
:1048F00000213246FFF723FF29462246002301B05C
:10490000BDE8F04000F0DEB9F8B51E46069B0C4647
:104910000546BAB1382000213246FFF710FF00F1FA
:1049200018070646294610223846FCF76BF806F1B0
:104930002805214610222846FCF764F830463946FF
:104940002A4606E0182000213246FFF7F8FE2946E5
:104950002246012301B0BDE8F04000F0B3B90000E9
:1049600070B50D460E4906463020FFF7E8FE80F888
:104970002D508661044600F11C051C262C2E04D007
:10498000FCF72EF8A0550136F8E7A16920462A4623
:10499000012300F097F9002084F82C0070BD00BFBF
:1049A000DD460000F8B50C460C4905464820FFF7E7
:1049B000C6FE0646206829461022344606F138070E
:1049C00044F8340F3846FCF71DF830463946224685
:1049D000042301B0BDE8F040FFF754BFE1490000F7
:1049E000FFF7B8BEF8B50C460E4905465420FFF750
:1049F000A6FE00F144070646294610223846FCF779
:104A000001F806F13405214610222846FBF7FAFF8B
:104A1000304639462A46102301B0BDE8F040FFF782
:104A200031BF00BF294A0000FFF794BE2DE9F041D5
:104A30001F460D461249069B904606465C203A46A4
:104A4000FFF77DFE00F13404074631461022204670
:104A5000FBF7D8FF07F14406294610223046FBF742
:104A6000D1FFD8F800003146224610237865002097
:104A700087F858003846BDE8F041FFF703BF00BF94
:104A8000854A000070B50D460446FFF763FEA0B1ED
:104A900094F85810012001B170BD04F1440684F867
:104AA0005800294610223046FBF7ACFF04F15402AF
:104AB000204631460423FFF7E5FE002070BD0000CC
:104AC00010B540B18C4C206828B1204601F001FDA2
:104AD00012F05CFEF7E7884C204601F0C0FC002095
:104AE000207210BDF0B589B00D460446002701AE16
:104AF000082F05D0FBF774FF46F827000137F7E7CA
:104B000006F110013046012223460095FFF7FCFE16
:104B100009B0F0BDF8B5784F06460C46384601F0AE
:104B2000D8FC396805460020387231B101200122D5
:104B30003872D1E9030152F035FC9DB156B1AB6832
:104B40001BB16A693046214698472846BDE8F840BF
:104B500012F01CBE6A68002AF1D028462146904710
:104B60000028ECD1F8BD00BF13460A464021FFF7EC
:104B7000F7BE00002DE9F8430646402099468846D6
:104B80002249089B15460022002700EB0610FFF77C
:104B9000D6FD0446C0F818903E3032014146FBF77E
:104BA00031FFA888296884F83D60C4F82F70C4F8E4
:104BB0003370C4F8377084F83B70A046DFF8D890A3
:104BC000E1612084687984F82E00B5F80300751E31
:104BD00028F82C0FFEB2B54209DD04EB0610494659
:104BE00010223E30FBF753FF08B90137F2E704EB20
:104BF000061084F83C704246012300F13E01204635
:104C000001B0BDE8F04300F05DB800BF114C0000FA
:104C10002DE9F84300F11C08054603224046FBF746
:104C200036FF10B395F83C4095F83D60DFF868908A
:104C30000134E0B2B04216D205EB00104946102212
:104C400000F13E073846FBF722FF0028F0D005F1BF
:104C50002C0228463946012385F83C4000F032F802
:104C60000020BDE8F88385F83C40AC6984B195F834
:104C70003C1095F83D306A6905EB011099424346B6
:104C800000F13E0000904FF01F0038BF0020A04709
:104C90000120BDE8F88300BFF6C3050010B500226F
:104CA00012F10F0309D083189C7BDB7BE40944EAF3
:104CB00043038C18013AE373F2E700784000087070
:104CC00010BD00002DE9F0410B4F04460E469846FA
:104CD00015462146384601F006FCC4E90365387ADA
:104CE00008B1BDE8F08101202946424638723046BD
:104CF000BDE8F04152F056BBF0E94020B0B5013BB1
:104D00005BB2002B04D4CC5CD55C6C40C454F6E799
:104D1000B0BD704710B5064C2068400006D4012095
:104D2000FDF768F9206840F08050206010BD00BF9A
:104D300010F000404CF0D8BB4DF0F0B92DE9F04731
:104D4000ACB04FF000090BAD884604462C21C0F8EA
:104D500028902846FBF77DFE6E462C213046FBF757
:104D600078FE21AF214624223846FBF74BFED4F8CB
:104D700024A016AC3A492422CDF8AC902046CDF8B8
:104D8000A8A0FBF73FFE0820CDF880901F900120DF
:104D9000CDE91300CDE90890BAF1000F0ED13BE048
:104DA000384602F0CBFA9DF84C00C00703D12846E4
:104DB00002F0C4FA02E02846FCF7CEFB9DF8A400FE
:104DC000C007EDD00DE0204602F0B8FA9DF82000B3
:104DD000C00703D1304602F0B1FA02E03046FCF7DA
:104DE000BBFB9DF87800C007EDD03846214611F096
:104DF000BFFE30B138462146FEF782FC28463146D8
:104E000005E020463946FEF77BFC30462946FEF792
:104E100097FCDDF8A8A0BFE70A9868B16C46204669
:104E200055F002FF404621462422FBF7EBFDDDE969
:104E30000910C8F824100EE00948694611F080FEF8
:104E40000028EBD0694640462422FBF7DBFD099899
:104E5000C8F824000020C8F828002CB0BDE8F0876E
:104E600064C305007CB516460D4601AA012104461F
:104E700042F09CF900B17CBD0198817E01F00301F4
:104E80000229F8D1EA8847F6FE73B11A89B299422D
:104E900002D84078282108E0691C204630F088F8C4
:104EA0000028E8D001982421407831F0E3F87CBD57
:104EB000BCB514460D4601AA012142F077F900B1B4
:104EC000BCBD0198817E01F00302022AF8D16B88F3
:104ED00041F003016A788176E11A47F6FF7389B2DF
:104EE000994238BF28224078D1B231F0C3F8BCBD16
:104EF000E0B5694890F8A000C00709D053480DF10B
:104F0000070201210368282098479DF8070010B187
:104F10000148006880478CBD4CE440201CB5034626
:104F20005D4890F89400C00709D009480DF10702C8
:104F3000012104682520A0479DF8070030B1054CE9
:104F40002068804761684FF0C33088471CBD00BFB0
:104F5000ECE4402018E44020E0B54F4890F8A00071
:104F6000800706D539480DF1070202210368282081
:104F700098478CBDE0B5484890F8A000400709D597
:104F800046480DF1070204210368282098479DF840
:104F9000071019B14248006840F380108CBD00BF73
:104FA000BCB53D4890F8B400400709D527480DF13D
:104FB0000702042103682D2098479DF8070090B14F
:104FC000094C2568E80308D54FF480306060202044
:104FD000216D52F0D1FF4BF09BFB280603D58020BA
:104FE000606039F079FABCBD10080940064890F9B4
:104FF0002400704770470000014603482822FBF751
:1050000001BD00BF0048704700EB40207047000022
:10501000E0B5214890F8A000000709D50B480DF134
:10502000070208210368282098479DF8070060B10F
:10503000074802681AB107482021FDF789F8064899
:105040004BF062FE0548006880478CBD0CE54020AF
:1050500004E7402028EB4020A8E9402084E44020D9
:10506000E0B50D4890F8A000C00609D50B480DF139
:10507000070210210368282098479DF8071051B1B6
:1050800007480068400644BF4FF0FF308CBD05481C
:105090000068804700208CBD28EC402008E54020B7
:1050A0004000044088E44020F8B5424F04460846DA
:1050B00016460D46B847C10EA171C0F3CB31A18091
:1050C000C0F380316FF39F302080A17028794009B0
:1050D0002072287900F01F00E0716879A979EA79D7
:1050E00040EA012002F00F011309237440EA014055
:1050F000E060287A697AAA7A40EA012002F00F017A
:105100001309237640EA01406061E87A607605F190
:105110000D00B847A06205F11100B847010D6FF30B
:105120001F506184E061687DA97D40EA0120E08430
:10513000D5F81700E062E87E00F01F0084F8300028
:10514000E87E5F2807D81C49002701EB5010407803
:1051500084F8240000E01127E869212EC4F831000A
:1051600095F8200000F07F0084F8350095F82000C5
:105170004FEAD01084F8200014D0392E16D1012027
:10518000102284F83600D5F82100D5F82510C4F88F
:105190003B10C4F8370004F13F0005F12901FBF78B
:1051A00031FC04E0002084F8360000E01E27384679
:1051B000F8BD00BF1366000014C40500B0B5FBF7CE
:1051C0000DFB0546F248103001F083F904462846ED
:1051D000FBF708FB002C14BFA0880020B0BD00BF67
:1051E000DC49C98A401AF24900EB1060C0F307207D
:1051F000096C01EBC0007047B0B5D649C98A401AA6
:1052000000EB1060C0F30725FBF7E8FA0446F54809
:10521000016C103001EBC50101F065F92046BDE8D5
:10522000B040FBF7DFBA00BFB0B5FBF7D7FA0546D1
:10523000F248183001F04DF904462846FBF7D2FA3F
:10524000002C14BFA0880020B0BD00BFB0B5E44959
:10525000098A401A4FF4FE7190FBF1F0C5B2FBF7DA
:10526000BDFA0446F748416C183001EBC50101F066
:105270003AF92046BDE8B040FBF7B4BA2DE9F04159
:10528000002853D0F648816BED4DF54CB34FA889FB
:10529000EA89101A242290FBF2F320460822B8472C
:1052A000A88AE98A4FF482760822081AE16B90FBFB
:1052B000F6F304F10800B847E88A298B0822081A97
:1052C000216C00EB1060031204F11000B847288A2B
:1052D000698A0822081A4FF4FE7190FBF1F3616CA1
:1052E00004F11800B847A88BE98B0822081AA16CB2
:1052F00090FBF6F304F12000B847288B698B082255
:10530000081A202190FBF1F3216D04F13000B84719
:10531000688BA98B0822BC46081A0C2190FBF1F37C
:10532000E16C04F12800BDE8F04160474BF05AFF02
:1053300020B981A082A187224CF010F8E24CA06B2A
:1053400008B112F023FAE06B08B112F01FFA206CDA
:1053500008B112F01BFA606C08B112F017FAA06CD9
:1053600008B112F013FAE06C08B112F00FFA206DD8
:1053700008B112F00BFA20465421FBF76AFBD14D1D
:105380004FF02408744FA889E989081A002190FB7E
:10539000F8F0C000B847A063A88AE98A4FF4827683
:1053A000081A002190FBF6F0C000B847E063E88AD5
:1053B000298B081A002100EB10600012C000B847CA
:1053C0002064288A698A081A4FF4FE7190FBF1F074
:1053D0000021C000B8476064A88BE98B081A00213F
:1053E00090FBF6F0C000B847A064688BA98B081A40
:1053F0000C2190FBF1F00021C000B847E064288B3D
:10540000698B081A202190FBF1F00021C000B847F9
:105410002065A889E989081AA16B90FBF8F002B20F
:10542000012A0ADB0138AE8982B200EBC00301EB2E
:10543000C20206EB83039380F1E7A88AEA8A101A76
:105440004FF4827290FBF2F0E26B03B2012B0BDBA4
:105450000138AF8A00EB801683B207EB860602EBB9
:10546000C30305369E80F0E7E88A2A8B101A226C67
:1054700000EB1060001203B2012B08DB0138EE8A4A
:1054800083B206EB002602EBC3039E80F3E7288A73
:105490006A8A101A4FF4FE7290FBF2F0626C03B24B
:1054A000012B0ADB01382F8A83B2C0EBC01602EB56
:1054B000C30307EB86069E80F1E7A88BEA8BA36CFB
:1054C000101A4FF4827290FBF2F2501E03EBC202EC
:1054D000023A431C012B0ADB00EB8013AE8B1070E9
:1054E000013806EB830322F8023C083AF1E7288BE7
:1054F0006A8B101A202290FBF2F0226D03B2012B6E
:1055000008DB01382E8B83B206EB401602EBC30397
:105510009E80F3E7688BAA8B101A0C2290FBF2F0A6
:10552000E26C03B2012BFFF6AFAE013883B202EB9F
:10553000C3031871F5E700BF726F6D5F63666700A4
:10554000626C655F7574696C5F6275665F696E69D0
:10555000740000000CEE4020897B0100B364000061
:1055600080B55948203000F0B4FF002814BF80797E
:10557000FF2080BD5449896C01EBC00080887047D2
:10558000514A916C01EBC00102F1200000F0ABBF69
:10559000FCE94020B0B5FBF721F904464A4800F089
:1055A00098FF05462046FBF71DF92846B0BD00BF11
:1055B000FCE94020B0B543498989401A242190FB79
:1055C000F1F0C5B2FBF70AF904463F48816B01EBE5
:1055D000C50100F088FF2046BDE8B040FBF702B9E6
:1055E0000CEE4020FCE9402080B53748083000F040
:1055F00070FF002814BF8088002080BDFCE9402097
:1056000070B53049304E898A401A4FF4827105389E
:1056100090FBF1F0F16BC0B201EBC005FBF7DEF8D7
:105620000446A8883BF0E6FE20B906F108002946AA
:1056300000F059FF2046BDE87040FBF7D3B800BF2B
:105640000CEE4020FCE9402080B51F48303000F0CF
:1056500040FF08B1808880BD4BF05AF8002080BD23
:10566000FCE940201749184A098B401A202190FB79
:10567000F1F0116DC0B201EBC00102F1300000F099
:1056800032BF00BF80B51048283000F022FF08B1BB
:10569000007980BD4BF03CF8FF2080BD09494A8B62
:1056A000898B891A0C2291FBF2F18142D8BF4BF011
:1056B0002FB8054AD16C01EBC00102F1280000F0BF
:1056C00012BF00BF0CEE4020FCE94020B0B5094BF2
:1056D00000210422B2F1FF3FDCBFC8B2B0BD845C40
:1056E000013A250904F00F041C5D5D5D2144294445
:1056F000F0E700BF78ED0500032907D8DFE801F0E7
:10570000020B0F14502101EBC000704780B54AF026
:10571000FFFF002080BD2C2101EB800070474FF47B
:10572000347101EB801070474FF4E77101EB00100A
:105730007047000010B50E4C022020710D4820600B
:1057400004204BF049FD80780238E07114204BF0C2
:1057500043FD0021A4F8051080780238207220460D
:105760004BF06AFD4AF082FEBDE810404BF016B9DE
:10577000D4EA40200201060380B54CF0BDFEFCF7E0
:10578000E4FA40B900204BF069FDC8204BF05AFD07
:1057900002204BF067FDFFF7CDFFFCF701FE002074
:1057A000FFF7BCFB002080BD26490862704700BFA0
:1057B000F8B5064601F128000C464DF0C3F9054640
:1057C00028B91F491CA040F28A224BF0C7FD05F101
:1057D0000800314622466C60FBF714F9194F07F1B7
:1057E0001406FAF7FBFF044630463668002EFBD15C
:1057F0000560B86800262E60C8B1B96931B110499A
:1058000011A040F292224BF0A9FDB868F96855F05A
:10581000FBFAF968884208D13A680026BE6032B1C6
:10582000786800210026904701E04FF0FF362046BF
:10583000FAF7D8FF3046F8BD735F6C6973740000E7
:105840003FF6050058FC4020656E762D3E6375726C
:105850005F6C697374203D3D204E554C4C00000038
:1058600070B51148944C00F1200600F57B7100F5ED
:10587000077200F1500300F14005C4E900060B482F
:10588000C4E90253C4E9042100F0E0F82068E168AB
:105890004FF4E6724FF0AEF9606821694FF4E6729A
:1058A0004FF0A8F9002070BD00E040207D590000B5
:1058B0004901400141EA0211009A41EAC301114342
:1058C000024A01F580311150704700BF200609409F
:1058D0001204400142EA0151009A41EA03111143C6
:1058E000064A1150704700BF090441EA00500349BD
:1058F00040EA021018430860704700BF24060940C0
:10590000BCB51B4890F8B800400709D519480DF1FF
:105910000702042103682E2098479DF8070028B34A
:10592000154C54F8045CE80308D54FF4803020602F
:105930004020E16C52F020FB4AF0EAFEA80405D5B5
:105940004FF400502060002022F096FD680405D539
:105950004FF480402060012022F08EFD280405D500
:105960004FF400402060022022F086FDBCBD00BF45
:1059700028EC40200CE540201404094070B586B0A6
:105980000546044615F8040B032811D0022815D04B
:10599000002855D1484EB0684189B1F5FA7F27D12A
:1059A00000210022062A23D020F812100132F9E744
:1059B0004148806801890131018141E03E4E01ADDD
:1059C0002846746913F07EFF204629461422FBF70F
:1059D00019F830684FF044FA70684FF041FAB06837
:1059E00000210022062A2BD020F812100132F9E7FC
:1059F00030684EF0E1FF0146287801440431B1F5EA
:105A0000E67F0ED83068294604224FF00FF930683F
:105A1000A16822794FF00AF9207900F01DF8B068EA
:105A200005E000F019F8B068C1880131C1804189F2
:105A300000220023013141810021B06911F010F8EA
:105A4000002006B070BD00BF00207047014908600B
:105A5000704700BF50EA40207CB504468DF8000036
:105A600001202146FFF766F9134E05460190706844
:105A70004EF0A2FFA04208D228462146FAF7E9FFDD
:105A8000B06881880131818004E07068294622462F
:105A90004EF0C8FF684613F099F8022804D0012898
:105AA00006D1B068023000E0B068018801310180A1
:105AB0000198FFF741F97CBDE8E64020E548083051
:105AC00000F007BD70B5DB49E24E898F401A40F205
:105AD0000441053890FBF1F0F169C0B200EB4000E1
:105AE00001EB8005FAF77AFE0446288922F012FCC1
:105AF00020B906F10800294600F0F5FC2046BDE873
:105B00007040FAF76FBE00BFB0B5FAF767FE054602
:105B1000ED48103000F0DDFC04462846FAF762FE3E
:105B2000002C14BF20890020B0BD00BFDD49C98F03
:105B3000401A40F2044190FBF1F0F149C0B2096A09
:105B400000EB400001EB8000704700BFB0B5EB49AF
:105B5000C98F401A40F2044190FBF1F0C0B200EB53
:105B60004005FAF73BFE0446F448016A103001EBA9
:105B7000850100F0B8FC2046BDE8B040FAF732BE1F
:105B80002DE9F843B0B34BF02DFB20B95CA05EA12A
:105B90007F224BF0E3FB574C606A18B111F0F6FD21
:105BA00000206062A169544D524C5C4FE88D2A8EF2
:105BB000101A182290FBF2F320460822B847A88F4B
:105BC000E98F40F204460C22081AE16990FBF6F3D3
:105BD00004F10800B847E88FB5F840100C22BC4625
:105BE000081A216A90FBF6F304F1100001B0BDE839
:105BF000F0436047DFF8FC80D8F8180008B111F0D6
:105C0000C5FDD8F81C0008B111F0C0FDD8F820007F
:105C100008B111F0BBFD40462821FAF71AFF364DB6
:105C20001826DFF8D8900027E88D298E081A002161
:105C300090FBF6F0C000C847C8F81800A88FE98F9D
:105C400040F20444081A002190FBF4F000EB4000FD
:105C50008000C847C8F81C00E88FB5F84010081A43
:105C6000002190FBF4F000EB40008000C847D8F81A
:105C70001810C8F82000081DEA8D2B8E9B1A93FB84
:105C8000F6F39F4207DA07EB470302EBC30220F863
:105C900037200137F0E7D8F81C00002340F2044613
:105CA00000F10802AF8FE88FC41B94FBF6F4A34207
:105CB00008DA03EB0320013307EB8000053022F8FC
:105CC0000C0BEFE7D8F82020002340F20444083200
:105CD00086B2B5F84070BE1B96FBF4F6B342BFF631
:105CE00062AF03EB0326013300EB860022F80C0BB6
:105CF000E88FEDE754EA40200CEE4020897B01005C
:105D0000726F6D5F6366670062745F7574696C5F64
:105D10006275665F696E697400000000B36400001C
:105D2000864800F0D6BB00BF8649C98D401A1821AD
:105D300090FBF1F0C1B28148826902EBC10100F031
:105D4000D2BB00BF10B57D4901EB800454F8240F8D
:105D500018B111F01BFD0020206010BD2DE9F84F97
:105D6000064601EB410003EB430B884600219A46AF
:105D70001446850005EB8B001C3011F005FF07462B
:105D80006E48002F00EB860047624ED007F11C01E1
:105D9000DDF828900C2243464819C7E9041038461C
:105DA00000F087FB796907F108000C22534600F0E8
:105DB00080FB4FF4076004F1030E009406FB00FC27
:105DC00020462EF0030300265E486146B54208D007
:105DD0003C69B0F8402034440A4419440C36A2808F
:105DE000F4E74FEA9E0109F103034FEA8B02002515
:105DF00001FB08F123F0030304330CEB8101AA42F9
:105E000009D0B0F840607C690E442C4419440C352C
:105E10000436A680F3E7009887F81B9087F81AA04D
:105E200087F818807876BDE8F88FBDE8F84F4AF01B
:105E30006FBC00BF0CEE4020404A02EB8000406A7D
:105E400028B1C27E8A4224BF083000F042BB002045
:105E5000704700BF54EA4020384A02EB8002526A81
:105E6000F2B1374B00FB03103649537EB1F84010B6
:105E7000033323F00303401A117E03FB1100D17E8C
:105E80000731043821F0030190FBF1F05169C0B2F1
:105E900000EB400001EB800102F1080000F023BBA1
:105EA000704700BF0CEE402080B5244A02EB800012
:105EB000406A38B1427E8A4204D300F00AFB08B13E
:105EC000808880BD002080BD54EA40201C4A00FB31
:105ED00002111C4AB2F84020891A184A02EB8000CD
:105EE000406A427E0069033222F0030291FBF2F124
:105EF000C9B201EB410100EB810070470CEE40207C
:105F000054EA402002460D4800EB8200406AA0B1EE
:105F10000B4B02FB03110B4AB2F84020891A427E58
:105F2000033222F0030291FBF2F10269C9B201EBE4
:105F3000410102EB810100F0D6BA704754EA4020DB
:105F400090F7FFFF0CEE4020F0B52148016889036F
:105F500012D4BFF34F8F0021BFF36F8FC0F83C12F4
:105F6000BFF34F8FBFF36F8F016841F400310160C1
:105F7000BFF34F8FBFF36F8F0168C90326D4002191
:105F800043F6E07C0167BFF34F8FC26EC2F34E3120
:105F9000C2F3C9039A0701330CEA411516461F469E
:105FA00046EA050406F14046013FC0F84C42F7D1ED
:105FB0004C1E00292146EFD1BFF34F8F016841F4F9
:105FC00080310160BFF34F8FBFF36F8FF0BD00BF13
:105FD00014ED00E010B5D0E9021282EA0104A3B288
:105FE000002B18BF0123B4F5803F28BF022323B143
:105FF000012B04D1B0F9100010BD002010BD120C0F
:106000000B0CB2EB114F8FBFD01AD11AB0F91000A0
:10601000084410BD2DE9F843994615460F4604463D
:1060200028B92B482BA140F23D124BF097F920469E
:10603000FFF7D0FF20B3A368B4F910202168A8426D
:1060400038BF0546ADB2A2EB134201EB13411FFA74
:1060500083F81E0CAA4215D938462A46FAF7D2FC14
:10606000FAF7BCFB0746B9F1000F05D02046FFF751
:10607000B1FF401BC9F80000701948EA004020E059
:10608000002522E03846FAF7BDFCB4F91000811B68
:1060900078186A1A2168FAF7B5FCFAF79FFB0746E9
:1060A000B9F1000F05D02046FFF794FF401BC9F857
:1060B0000000218A7019401A4FF6FF7148EA00402B
:1060C0004840A0603846FAF78DFB2846BDE8F883C3
:1060D0009AF5050063697263756C61725F6275663B
:1060E0005F6765745F616E645F7570646174655F3E
:1060F0006C656E002DE9F04115468846044620B9CE
:106100001F4820A18C224BF029F9B4F910602046D9
:10611000FFF760FF301A010416D081B2A94238BFE0
:106120000546E7686068ADB2A6EB174200EB174082
:106130003E0CAA420AD941462A46FAF763FCB9B294
:10614000701941EA004016E0002515E04146FAF7D3
:1061500059FCB4F91000801B08EB00012A1A606892
:10616000FAF750FC218A7019401AB9B241EA00408E
:106170004FF6FF714840E0602846BDE8F08100BF5F
:106180009AF5050063697263756C61725F6275668A
:106190005F707574000000000160704770B51446B0
:1061A0000E46054620B90A480A496B224BF0D6F83C
:1061B000002C04DC084807496C224BF0CFF8002083
:1061C000C5E90160E86024F00300288270BD00BFCB
:1061D0009AF50500A5F5050091F5050010B50A4AE8
:1061E000002008494FF0FF33102808BF10BD51F8B8
:1061F000204042F8204001EB80040130C4F8803098
:10620000F2E700BF00E100E0C0F1402010B50C460D
:1062100002464FF488500021012311F015FD04704F
:10622000BDE810400EF038B9C088401AB0FA80F0CE
:106230004009704710B50022062A04BF012010BD96
:106240008B5C845C01329C421CBF002010BDF3E7D4
