:020000040000FA
:1000000004FC4E20D50700000000000000000000A6
:1000100000000000000000000000000000000000E0
:1000200000000000000000000000000000000000D0
:1000300000000000000000000000000000000000C0
:1000400000000000000000000000000000000000B0
:1007C000DFF80CD000F060FE00480047C5150000BF
:1007D00004FC4E2000488047F5EE0300EFF3108044
:1007E00072B6704780F31088704740BF644A136840
:1007F000012B04D04FF001031360624A1060624A7B
:10080000116062484FF0805101607047EFF3108231
:1008100072B65B48016851B34FF00001016059485E
:10082000016891B1EFF309811EF0100F08BF21EDAF
:10083000108B21E9F00F4FF000041EF0100F08BFDD
:10084000012441F8044D006801604F4909680968B6
:1008500008C9B1E8F00F002B18BFB1EC108B81F381
:1008600009884EF0100E002B18BF2EF0100E82F3E8
:1008700010884EF0040E704745484FF47F01D0F8C1
:10088000002041EA0201016070473F490860EFF330
:10089000148222F0040282F314883A494FF00000D7
:1008A000086037494FF00100086039484FF47F0174
:1008B000D0F8002041EA0201016034484FF0805135
:1008C000016034480068006880F3088861B662B649
:1008D000704720BF70471EF0040F0CBFEFF3088075
:1008E000EFF3098020E9F00F40F804ED40F804ED43
:1008F0001EF0040F0CBF80F3088880F3098800B550
:100900007CF0C8FA5DF804EB4EF0040E70471EF060
:10091000040F0CBFEFF30880EFF3098020E9F00F1C
:1009200040F804ED40F804ED1EF0040F0CBF80F316
:10093000088880F3098800B57CF006FC5DF804EBBC
:100940004EF0040E704710B4EFF3038410B47C46ED
:1009500010B400B54DF804CD0FB4089C2DE9F00F8C
:1009600000B568467CF0EAF901BCBDE8F00F0FBCA9
:100970005DF804CB5DF804EB10BC10BC10BCFEE7C6
:1009800040F04E2090ED4E2094ED4E2004ED00E01E
:1009900020ED00E008ED00E02DE9F05F05460020C5
:1009A00092469B4688460646814640241BE02846E0
:1009B00041464746224600F07CFB53465A46C01A41
:1009C000914110D311461846224600F063FB2D1AC0
:1009D00067EB01084F4622460120002100F05AFB38
:1009E00017EB00094E41201EA4F10104DFDC48464C
:1009F00031462A464346BDE8F09F00000649074AB3
:100A00000868504343F239021044086040087047B8
:100A1000014908607047000000C04E206D4EC6417D
:100A200038B5D0E90221491E01EB410102EBC101B9
:100A30004268C1EB011102EB81010268C1EB0111B7
:100A400002EB8102D0E9043101EB410103EB8101AA
:100A50003023A1F5527191FBF3F4174D6C4302EB77
:100A6000C41291FBF3F403FB141100921A2902DB68
:100A7000124B1A4400920C2291FBF2F3104C634388
:100A8000009C04EBC313009391FBF2F302FB1311E0
:100A90000C4A08E0491E40F2A324535C6343009CC7
:100AA00004EBC31300930029F4DC0146684600F010
:100AB00029FB009838BD00003F0C0F008051010059
:100AC00067C20300D800090010B500F015FBBDE8AF
:100AD000104000F05DBB10B5431A934209D2831851
:100AE000881803E010F8011D03F8011D521EF9D209
:100AF00010BD40EA01039B0703D009E008C9121F9B
:100B000008C0042AFAD203E011F8013B00F8013BC7
:100B1000521EF9D210BDD2B201E000F8012B491EDD
:100B2000FBD270470022F6E710B513460A4604468A
:100B30001946FFF7F0FF204610BD421E12F8013F94
:100B4000002BFBD111F8013B02F8013B002BF9D13E
:100B5000704710B5044604E00B7800F8013B03B180
:100B6000491C521EF8D2204610BD421C10F8011B31
:100B70000029FBD1801A704710B5002200E0521CFA
:100B8000835C8C5CA34201D1002BF8D1D8B2E1B2D6
:100B9000401A10BD30B504460020034600E05B1C3F
:100BA000934203D2E05CCD5C401BF8D030BD0346DD
:100BB00011F8012B00F8012B002AF9D118467047D3
:100BC00030B505460020034600E05B1C934205D289
:100BD000EC5CC85C201A01D1002CF6D130BD00229B
:100BE000CBB20178994200D10246401C0029F8D1CD
:100BF0001046704770B506468FF0B0F90468054698
:100C00000A220021304600F021FB2C6070BD2DE946
:100C1000FE4F804681EA0300C00F0C46009021F091
:100C2000004123F00045B8EB0200A94105D240463F
:100C3000214690461C460B46024623F000401043D6
:100C400047D0270DC7F30A00C3F30A510290401A98
:100C5000019040286BDAC3F3130040F4801B009826
:100C6000924620B10023D2EB030A63EB0B0B0198F1
:100C70005946C0F14002504600F00CFA06460D46B7
:100C800050465946019A00F024FA10EB08006141E1
:100C9000002487EA115284EAE7731A4340D0009A8D
:100CA00062B3019A012A4FEA075215DC001B61EB7F
:100CB00002014FF0004202EA0752CDE90042001C57
:100CC00041F5801132462B4600F03EFB03B0BDE8F3
:100CD000F08F40462146F9E7001B61EB0201001C42
:100CE00041F5801300185B412018A2F5001747EB6F
:100CF000030140EAD570B6196D4111E06D084FEA65
:100D0000360645EAC0754FEA0752001B61EB020147
:100D1000001C41F5801149084FEA3000001951418B
:100D200032462B4603B0BDE8F04F00F0FEBA009803
:100D3000012240000023D0EB020263EBE073009835
:100D400021464FEAE074B8EB000061EB0401E9E7EB
:100D500083F000435BE781F0004158E72DE9FE4F47
:100D600081EA030404F0004421F0004100944FF0B4
:100D7000000B23F0004350EA01045ED052EA030462
:100D80005BD0C3F30A54C1F30A552C44A4F2F334E4
:100D90000194A0FB0254C1F3130141F48011C3F389
:100DA000130343F4801301FB024400FB034E840A47
:100DB000970A44EA815447EA8357A4FB07680295DF
:100DC0008D0A05FB07854FEA932C04FB0C5427057D
:100DD000029D4FEA065847EA1637B5EB08056EEB59
:100DE000070C870E920E47EA811742EA8312A7FB8F
:100DF0000201B6EB0B0164EB00042B0D43EA0C334C
:100E00005E1844EB1C50DA465146E7FB0201C5F37D
:100E100013044FEA0B3343EA14534FEA0432019CA4
:100E200043EA0603A4F10C040294009CCDE900B44B
:100E300000F08AFA03B0BDE8F08F00200146F9E720
:100E40002DE9F04D81EA030404F0004B21F0004548
:100E500014464FF0000A23F0004150EA050220D06A
:100E600054EA01021DD0C5F30A570246C5F3130325
:100E7000C1F31300C1F30A5640F4801543F4801304
:100E8000A7EB0608101BD64608F2FD3873EB0500E9
:100E900002D308F1010801E092185B41B8F1000F9C
:100EA00003DA00200146BDE8F08D00204FF48011E8
:100EB000064684460EE0171B73EB050705D3121B8D
:100EC00063EB050306434CEA010C49084FEA300086
:100ED00092185B4150EA0107EDD152EA030012D0AB
:100EE00082EA040083EA0501084305D0101BAB41E8
:100EF00006D20122002306E000224FF0004302E068
:100F00006FF0010253101AEB06004CEB085110EB86
:100F10000A0041EB0B01BDE8F04D00F006BA30B518
:100F2000041E71F1000404DB4FF00044404264EB06
:100F30000101141E73F1000405DB1C464FF0004351
:100F4000524263EB0403801A994101D3012030BD62
:100F5000002030BD30B5041E71F1000404DB4FF0F9
:100F60000044404264EB0101141E73F1000405DBF0
:100F70001C464FF00043524263EB0403101A8B41AE
:100F800001D2012030BD002030BD30B5041E71F10A
:100F9000000404DB4FF00044404264EB0101141EE6
:100FA00073F1000405DB1C464FF00043524263EB33
:100FB0000403101A8B4101D3012030BD002030BD45
:100FC00030B5041E71F1000404DB4FF000444042D0
:100FD00064EB0101141E73F1000405DB1C464FF0A5
:100FE0000043524263EB040342404B401A4301D09A
:100FF000002030BD012030BD70B5C1F30A5201F0B0
:1010000000450024C1F3130140F2FF3341F4801185
:101010009A4201DA002070BD40F233439A42A2F2B4
:10102000334203DC524200F044F800E090402C438D
:10103000F1D0404270BD00F0004230F000400AD0D4
:10104000C10D01F56071C0F3160042EA0151C208FA
:1010500040071143704700200146704701F00043EC
:1010600030B421F0004150EA010206D00A0DA2F589
:101070006072C1F31301002A02DC30BC002070470B
:10108000440F44EAC104C100E01830BC00EBC25078
:1010900000F014B9202A04DB203A00FA02F1002003
:1010A00070479140C2F1200320FA03F319439040A6
:1010B0007047202A04DB203A21FA02F00021704711
:1010C00021FA02F3D040C2F12002914008431946B0
:1010D0007047202A06DBCB17203A41FA02F043EA98
:1010E000E07306E041FA02F3D040C2F120029140E1
:1010F0000843194670470000014900F003B800009A
:1011000068C34E2010B500683C22B0FBF2F302FB2E
:101110001303B0FBF2F00B60B0FBF2F302FB13031E
:10112000B0FBF2F018224B60B0FBF2F302FB1303AA
:10113000B0FBF2F0021D8B600723B2FBF3F403FB5C
:101140001422800040F2B55300F66C308A61B0FB87
:10115000F3F2B0FBF3F403FB1400443280084A615D
:10116000C8613B2802D3920700D0401C0022074CE4
:1011700013460A61E25C824203D8801A5B1C0B6151
:10118000F8E7401CC860084610BD0000E4000900F4
:10119000F0B52A4B2A4C85B00021826902EB42024D
:1011A0000A44491CA25C03F8012B0329F5DB244CFB
:1011B0004FF0200C002103F801CB1534026902EB3B
:1011C00042020A44491CA25C03F8012B0329F5DB07
:1011D000C1680091816801914168029101680391A1
:1011E000406918A200F26C706C460A27049017E060
:1011F00003F8010B12F8010F08B1022500E00425E5
:1012000002CC284607E091FBF7F607FB161691FB88
:10121000F7F130361E54061EA0F10100F3DC2B441A
:1012200010780028E4D11F7058700448017A3029E2
:1012300001D180F808C005B00048F0BD94C34E202D
:10124000F000090020203A3A200000002DE9F04784
:1012500091460F4680460446002614F8015B2DB1E6
:1012600000F024F90068405DC007F6D12B2D02D0B4
:101270002D2D18D0641E4A463946204600F01AF932
:1012800027B13968A14201D1C7F8008071054FF03C
:1012900002040BD54042002803DD8EF05FFE04609F
:1012A000A007BDE8F08746F48066E4E70028F8DA96
:1012B0008EF054FE04606FF00040F2E70029A8BFF2
:1012C0007047401C490008BF20F00100704710B46F
:1012D000B0FA80FC00FA0CF050EA010404BF10BC24
:1012E000704749B1CCF1200421FA04F411FA0CF151
:1012F00018BF012121430843A3EB0C01CB1D4FEA8A
:1013000000614FEA102042BF002010BC704700EB84
:10131000C35010440029A4BF10BC7047401C4900B2
:1013200008BF20F0010010BC704710B5141E73F107
:10133000000408DA401C41F1000192185B411A4395
:1013400001D120F0010010BD2DE9F04D92469B46E1
:1013500011B1B1FA81F202E0B0FA80F22032904687
:10136000FFF798FE04460F4640EA0A0041EA0B01E7
:1013700053465A46084313D0114653EA010019D088
:10138000C8F140025046FFF794FE05460E4650460F
:1013900059464246FFF77EFE084305D0012004E08F
:1013A00020463946BDE8F08D0020054346EAE07648
:1013B0002C4337430A986305E40AA0EB0800002297
:1013C000FD0A44EA47540A3002D500200146E9E705
:1013D000010510196941DDE9084500196941BDE8B9
:1013E000F04DA2E72DE9F04D00231A461B1A8A4161
:1013F00003DB00200146BDE8F08DC1F30A52C1F3C2
:10140000130141F480154FF0000BD10702D10018F1
:101410006D41521E0027044640F2FF11384601EB91
:10142000620A3E468046024600204FF48011FFF7D4
:1014300040FEC2197141BB1846EB0100B4EB030C2E
:1014400075EB000C04D3E41A65EB000517460E4655
:10145000241908F101006D4180463428E3DDF919B3
:1014600046EB0600091BA84103D24FF0FF3213469A
:1014700001E0002213461BEB070046EB0A51BDE8D2
:10148000F04DFFF752BF0000064C074D06E0E06844
:1014900040F0010394E8070098471034AC42F6D3BB
:1014A000FFF792F960CB090080CB09000048704734
:1014B000AC0109002DE9F05F82460078002715464F
:1014C0008B460AF10104B946302801D09DB113E0E2
:1014D00014F8010B0127782803D0582801D045B112
:1014E0000AE00DB1102D07D10027102514F8010BCB
:1014F00002E0082500E00A250026B0460EE005FBC4
:10150000080005FB06F1012701EB10461FFA80F8E1
:10151000B6F5803F00D3B94614F8010B294600F018
:1015200018F80028EBDABBF1000F05D00FB1641EEC
:1015300000E05446CBF80040B9F1000F06D08EF021
:101540000DFD02210160C81EBDE8F09F48EA06407B
:10155000FAE73A2800D2303820F02002412A01D39D
:10156000A2F13700884201D34FF0FF30704770B5C9
:101570008C1810F8015B15F0070301D110F8013B3E
:101580002A1106D110F8012B03E010F8016B01F8C5
:10159000016B5B1EF9D12B0705D40023521E0DD41D
:1015A00001F8013BFAE710F8013BCB1A921C03E06B
:1015B00013F8015B01F8015B521EF9D5A142D8D3A3
:1015C000002070BD80B584F0C6F9002080BD70B5E4
:1015D000002208230024002B0FD450F8235051F888
:1015E0002360641942F10005A41940F8234045F135
:1015F0000004013B04F00104EDE7BDE8704088F011
:10160000EBB9F8B51446002208230025002B0FD4AF
:1016100050F8236051F82370AD1942F10006ED191E
:1016200044F8235046F10005013B05F00105EDE7C4
:10163000204688F0D1F90020A062F8BD10B514460C
:10164000FFF7DFFFA06A20B12046BDE8104000F0A0
:101650000DB84149204631F0D7FA28B13E4920461D
:10166000BDE810400FF0FEB910BD00BFB0B58CB0A2
:10167000044601AD384821462A460FF08CF9204631
:1016800029462422FFF727FA0A990020C4E9091005
:101690000CB0B0BDF0B58BB00446806A00B32E4DDF
:1016A0002046294631F098FA80B308200021002214
:1016B00000283AD455F8206054F82030B718921911
:1016C00041F100069A1AA3EB070771EB060244F8F2
:1016D0002070A0F101004FF0000238BF0122E7E7BF
:1016E0001D4A00200821002300291ED454F821504F
:1016F00052F821605B1940F100059B1944F8213034
:1017000045F10003013903F00103EDE76D4612488E
:1017100021462A460FF03FF9204629462422FFF7AA
:10172000DAF909990020C4E90910002000210929EB
:101730000BD054F821205FEA50004FEA320044F801
:10174000210002F001000131F1E720460BB0BDE8B5
:10175000F04088F041B900BF5414090010B5234C83
:1017600015204FF4A27130220023A047142040F22C
:10177000431130220023A0473220EC210022002315
:10178000A0472C204FF49E7130220023A0472B202D
:1017900040F23B1130220023A04719204FF4A071E2
:1017A00030220023A047182040F23F1130220023AE
:1017B000A047372040F24F1130220023A0473620A7
:1017C0004FF4A87130220023A047232040F251118A
:1017D00030220023A04724204FF4A9713022002397
:1017E000A04703483421016010BD00BFD5A400000C
:1017F0000CB00050704770477047F0B585680468BA
:10180000D0E911600127102D00F01C0007FA00F04C
:1018100070600846636008BF1046A06008BF0A46B3
:10182000E260F0BDF0B597B007AC01AD07AE0FC4F4
:101830001D98314613ACADF818001C98224605904F
:1018400021980490209803901F9802901E98019070
:1018500028460DF0F6F92846214622460DF00FFDE8
:101860000FAD05A829460DF0F3FA204629462A4671
:101870000DF0DCF90BAF304639460DF03BFC284645
:10188000394622460DF00AFADDE92220002104291A
:1018900003D0635C53540131F9E7211D00220C2A67
:1018A00004BF17B0F0BD8B5C83540132F7E7B0B5CD
:1018B0008EB002AC0FC4139900220AAB149CADF891
:1018C00004101299009102A901310F2A03D09854F3
:1018D000885C0132F9E780F0060006AD8DF837002C
:1018E000684629460DF0B4FA0AA9284622460DF0AA
:1018F000D5F90EB0B0BDF0B593B007AC0FC41999CF
:1019000001ABDDE91E42ADF8181018992546059186
:101910001D9904911C9903911B9902911A990191A7
:101920000FA90E462DB113F8017B013D06F8017B8E
:10193000F8E70D19002605AFA319052E98BF102B47
:1019400003D2BB5DAB550136F6E700241D46102DD2
:1019500008D20E5D4E551E1B0135013E18BF661C98
:101960003446F4E707A900240BAD01310F2C03D056
:101970002855085D0134F9E758400FA98DF83B0060
:101980000BA80DF08BF913B0F0BD70B598B008AC92
:1019900014AD0FC41E9808A92A4601AC07901D98E3
:1019A00006901C9805902298049021980390209806
:1019B00002901F98019020460DF043F920462946D9
:1019C0002A460DF05CFC239C002005A910AA0023E8
:1019D000102B08D00D5CD554451C0133B5F10C001B
:1019E00018BF2846F4E710AD14A829462A460DF082
:1019F0001DF90CAE08A831460DF07CFB2846314697
:101A000022460DF04BF918B070BD00002DE9F041F1
:101A1000A6B02C9E98461F230DAD05AF5C1C07D0C9
:101A2000C45C05F8014BCC5C013B07F8014BF5E7C2
:101A30000F2001A9431C04D0135C013801F8013BBD
:101A4000F8E715AD0DA920222846FFF744F805F167
:101A5000200005A92022FFF73EF898F80000802119
:101A60002A464FF402738DF8940001A80CF096F901
:101A700072490F20421C04BF26B0BDE8F0810A5C09
:101A8000013806F8012BF5E72DE9F041A0B0DDE9BA
:101A900026ECDDF8A0800F2710AD0CAE7C1C07D023
:101AA000CC5D05F8014BD45D013F06F8014BF5E72D
:101AB00005210DF12A0209AD4C1C09D01EF8014088
:101AC00002F8014B1CF80140013905F8014BF3E71E
:101AD000D91C002208AB042A04D011F801499C54F7
:101AE0000132F8E71F216A464B1C04D0435C0139E0
:101AF00002F8013BF8E710AB14AC0FCB0FC40CABF2
:101B00000FCB18AC0FC4089814AA4FF480714FF48F
:101B1000C0731C90BDF82E00ADF87800DDF82A00E7
:101B20001D90BDF82800ADF87E000998CDF87A0028
:101B300068460CF033F941490F20421C04BF20B025
:101B4000BDE8F0810A5C013808F8012BF5E700BF19
:101B50002DE9F047A8B0DDE932E9DDE930C80F250D
:101B60000DF1500A10AF0CAC6E1C0AD04E5D0AF895
:101B7000016B565D07F8016B5E5D013D04F8016B7A
:101B8000F2E705210DF12A0209AB4C1C09D018F827
:101B9000014002F8014B1EF80140013903F8014BE6
:101BA000F3E702210DF121024B1C05D01CF8013096
:101BB000013902F8013BF7E71F210DF101024B1C2F
:101BC00004D0435C013902F8013BF8E714AB18ACD0
:101BD0000FCB0FC410AB0FCB1CAC0FC40CAB0FCB97
:101BE00020AC0FC49DF8230018AA4FF480714FF465
:101BF000FC738DF89200BDF82100ADF89000BDF89F
:101C00002E00ADF89700DDF82A00CDF89300BDF85E
:101C10002800ADF89D000998CDF899000DF101005C
:101C20000CF0BCF805490F20421C04BF28B0BDE8E9
:101C3000F0870A5C013809F8012BF5E7A0C84E20AF
:101C400070B5174A904204D0164A90420CD1062231
:101C500000E008224C78A24206D34A68930704BFEA
:101C60008B685FEA837501D0012070BD78258E787E
:101C700005EAC4040D78C97865F34A2405F0030524
:101C800001F0010144EAC51444EA410106F00104EF
:101C900041EA8401016042608360002070BD00BFA2
:101CA0000070024000E001502DE9F04FADF5277DB6
:101CB0000E460546104684211446FEF733FF9CA8C5
:101CC0002C21FEF72FFF91A82C21FEF72BFF86A8D1
:101CD0002C21FEF727FF7BA82C21FEF723FF70A8FD
:101CE0002C21FEF71FFF65A82C21FEF71BFF5AA829
:101CF0002C21FEF717FF4FA82C21FEF713FF44A855
:101D00002C21FEF70FFF39A82C21FEF70BFF2EA880
:101D10002C21FEF707FF23A82C21FEF703FF2846FE
:101D20000CF092FB074630460CF08EFB17B120B149
:101D3000C74803E050B1284600E03046214600F095
:101D4000C3F800200DF5277DBDE8F08F3046294609
:101D500006F12C0705F12C0A78F05FF8002800F056
:101D6000978005F15809DFF8E0B29CAA384606F1E1
:101D700058084946D84791AA50464146D84786AFA9
:101D8000304649463A46D8477BAE28464146324619
:101D9000D8473846314678F040F8002800F088806F
:101DA00004F15800A74D91A970AA019004F12C00EC
:101DB00000909CA8A84765AF86A87BA93A46A8478B
:101DC0004FAA48464146D84718A82C21FEF7AAFE3C
:101DD0000DA82C21FEF7A6FE0DF1080A2C21504675
:101DE000FEF7A0FE44AE384639463246D84739ADF4
:101DF000304639462A46D8470DF1B80870A8014642
:101E00004246D8470DF18C0930467BA94A46D8474F
:101E10004846022152460DF097FB18AE40464FA9A6
:101E20003246D84729460DADDFF8188230462A469B
:101E3000C0475AAE284651463246C047384631461A
:101E40002246D84718AF2C213846FEF76BFE0DAC62
:101E50002C212046FEF766FE02AD2C212846FEF717
:101E600061FE484631463A46C04770A83946224688
:101E7000D84739AE91A92A463046D847009A20461D
:101E80002946C047019A30464FA9D847012059E753
:101E90003846514677F0C1FF00287FF449AF306DD6
:101EA00001283FF65EAFF06C00287FF45AAF3FE7A1
:101EB0009CA891A977F0B1FF00287FF439AF28469C
:101EC000214600F025F83CE7B0B505460C4608462B
:101ED00024222946FEF7FFFDD5E909012422C4E9A1
:101EE000090104F12C0005F12C01FEF7F4FDD5E900
:101EF00014012422C4E9140104F1580005F1580129
:101F0000FEF7E9FDD5E91F01C4E91F01B0BD0000DE
:101F10002DE9F04FF9B00646006D8B46012801D837
:101F2000F06C18B130460CF08FFA20B14848594691
:101F3000FFF7CAFF81E006F1580563AC304606F1B1
:101F40002C0729462246FFF779FB0DF5B0783D4B6B
:101F500030462946424698470DF59A79DFF8E8A0C1
:101F6000204641464A46D0470DF5DC78374B484677
:101F70000321424698470DF5C679384629464A4618
:101F8000D0474DAC384649462246D04758AA30463D
:101F900021461646D04742AC404641462246D047ED
:101FA00037ADDFF8A880304608212A46C0474DAE3D
:101FB000244B204629463246984742AC3046494693
:101FC0002246D047204602215A46C04737AC384601
:101FD000394646462246D04742AD484649462A46FB
:101FE000D0470DF1B00820462946A9464246D047C1
:101FF00021AD404608212A46B04716AC58A8042116
:102000002246B047B0460BAE0E4F20464DA9324691
:10201000B8476C466EA831462246D0470BF12C02D9
:1020200020462946B84737AC484663A92246D047E0
:102030000BF1580220460821C047002079B0BDE8C6
:10204000F08F00BFD909010081F5000049F50000BB
:102050003C170900F0B58BB0184F054614460E46E4
:10206000F87DFF2809D015F071FBF97D1022C90019
:1020700002FA01F1084315F077FB05F158006946B3
:1020800014F026F9F87DFF2809D015F05FFBF97DE3
:102090001022C90002FA01F1884315F065FB6F4672
:1020A0002846324639460DF06BFA05F12C003946C8
:1020B00022460DF065FA0BB0F0BD00BF64C54E209E
:1020C00010B5094B4024984208BF60248C4291BF50
:1020D000002001F01F0313806FF07C0284BF02EA2E
:1020E0008101084410BD00BF00000840E04B0268B9
:1020F000984208D0DF4B984205D0E04B98421CBF75
:10210000DF4B984213D14B6822F070021A430260F1
:102110000A688B68C3628262954A904202D0954AEF
:10212000904201D1C9680163012141617047D24BDE
:102130009842E8D0EBE700BF10B50123046A8B405A
:1021400002FA01F124EA03030362026A1143016205
:1021500010BD10B5C46A012184F83610E2698242CC
:102160000DD0216A814207D0616A814206D0A16AFE
:10217000814205D1082102E0022100E004212175FD
:10218000204603F0C5F90020207510BD10B5C46AC3
:10219000E16981420AD0216A814209D0616A8142A3
:1021A00008D0A16A814207D1082004E0012002E0A2
:1021B000022000E004202075204603F0AAF9002048
:1021C000207510BD10B5C46A012184F83610E2698B
:1021D00082420DD0216A814207D0616A814206D0D5
:1021E000A16A814205D1082102E0022100E0042118
:1021F0002175204603F02DFF0020207510BDC06A18
:10220000012180F8361003F071B9C06A012180F80D
:10221000361004F057B80000F0B5026A404E22F0C4
:10222000010202620B688A68046A24F002042243F5
:102230004468856935402B434D4DA84202D04D4D31
:10224000A8420BD1D1E90567CD6824F4407422F08F
:102250000C02344325F004052A433C434460836167
:10226000496841630262F0BDF0B5026A3F4E22F058
:10227000100202620C688A68036A23F0200343EAB2
:10228000021243688569354045EA0424384DA84266
:1022900002D0384DA8420FD1D1E9056723F440633D
:1022A000CD6822F0C00243EA86036FF0400606EADA
:1022B000051543EA87032A434360846149688163C3
:1022C0000262F0BDF0B5026A154E22F4807202621D
:1022D0000C688A68036A23F4007343EA02224368A5
:1022E000C56935402C43224DA84202D0214DA84259
:1022F0000FD1D1E90567CD6823F4405322F4406241
:1023000043EA06132D0240F2FF46B54343EA0713A2
:102310002A434360C4614968C1630262F0BD00BFE3
:10232000FCFF0FFF70B5026A104E22F48052026269
:102330000C688A68036A23F4005343EA0232436854
:10234000C569354045EA0424094DA84202D0094D2B
:10235000A84204D14D6923F4804343EA85134360C6
:10236000C46149680164026270BD00BFFFFCFF0FD9
:102370000040024000300240B0B500681D4B82684A
:102380001A40D1E9003424F470252A431A438260AC
:102390006FF0030202EB3412032A2AD8DFE802F0BE
:1023A0000210171E026A036A23F00103036209691F
:1023B000836923F0F00343EA011181610262B0BD39
:1023C0008B680A691946BDE8B04000F015B88B6803
:1023D0000A691946BDE8B04000F054B8D1E90223BB
:1023E00009691A4342EA0121826822F47F421143BB
:1023F0008160B0BD8FFFF0FF10B5036A046A24F05E
:1024000001040462846924F0F00444EA0212826147
:1024100023F00A021143016210BD000070B5046A86
:10242000134EB04224F0010404628569046A08D0A6
:10243000104EB04205D0104EB04202D00F4EB04206
:102440000FD125F0F30522F0F0021B0101F00A0183
:10245000DBB22B431A43826124F00A021144016269
:1024600070BD074E25F0F305B042ECD00122ECE739
:102470000000014000100140001001500000015018
:1024800000200150036A23F010030362836923F4E0
:10249000704343EA0232036A826123F0A00242EAF7
:1024A00001110162704710B5046A120201F00A01BD
:1024B00024F0100404624FF2FF04A24363F30F32CE
:1024C000836923F473431A43036A826123F0A002F1
:1024D00042EA0111016210BD2DE9F041B8B0DDF80A
:1024E000F880002418AE0027202F02D0F4550137C1
:1024F000FAE71F2410AE08AF651C07D0055D06F88B
:10250000015B0D5D013C07F8015BF5E70F2004A9B5
:102510006C46451C07D0155C01F8015B1D5C013859
:1025200004F8015BF5E720AC10A920222046FEF755
:10253000D2FA04F1200008A92022FEF7CCFA04AB5D
:1025400030AD0FCB0FC59DE80F0034AD0FC518AAF5
:1025500020464FF440710DF047FC1F98054900BA22
:10256000B0FBF1F202FB1100C8F8000038B0BDE882
:10257000F08100BF40420F002DE9F04190B0DDF83E
:102580005880052507AE0DF122076C1C07D04C5D65
:1025900007F8014B545D013D06F8014BF5E7D91DE5
:1025A000002204AB082A04D011F801499C540132DE
:1025B000F8E70F216A464B1C04D0435C013902F84E
:1025C000013BF8E7DDE904010AAAC023CDE90E01C9
:1025D000114880210A90DDF822000B90BDF82600FA
:1025E000ADF830000798CDF83200BDF82000ADF806
:1025F000360068460BF0D2FB424800210F3010290C
:1026000005D010F8012908F801200131F7E740460C
:1026100010B0BDE8F08100BF6274616B70B58CB022
:102620001C460F2301AD5E1C04D0C65C013B05F8BF
:10263000016BF8E7052005AB0DF11A05461C07D024
:102640000E5C05F8016B165C013803F8016BF5E7C9
:10265000114808AA802180230890DDF81A0009900B
:10266000BDF81E00ADF828000598CDF82A00BDF889
:102670001800ADF82E0001A80BF090FB21480021B6
:102680000F30102904D010F8012962540131F8E705
:1026900020460CB070BD00BF6274646B2DE9F04140
:1026A00094B098460F236D4604AE08AF5C1C0AD068
:1026B000CC5C07F8014BD45C06F8014BC45C013BD1
:1026C00005F8014BF2E708AB0CAC0FCB0FC404AB21
:1026D0000FCB10AC0FC468460CAA80214FF4807356
:1026E0000BF05CFB074800210F30102905D010F8D3
:1026F000012908F801200131F7E7404614B0BDE890
:10270000F08100BFA0C84E20F0B5012298B391B36C
:102710000A78072A01D901222DE0037C012B01D17F
:10272000022228E003680124144E047404FA02FC17
:1027300003F1040E5EF82250CF780C794B793540C6
:102740004E7804F0070167F3CD2545EA012106F034
:102750000304857A41EA444123B145EA0C0341F080
:10276000010103E025EA0C0321F0010183724EF818
:102770002210002202741046F0BD00BFFFC0F9FF16
:1027800070470000B0B5012488B10546406940F0AB
:10279000020068617648016821F0010101606C6106
:1027A00000242846AC616C6100F0E4F82C742046EB
:1027B000B0BD00BF10B5012358B3072929D803685D
:1027C00003F1040353F8214024F0010443F82140AD
:1027D00053F8214024F4C02443F821408AB153F82F
:1027E000212042F0010243F8212053F8212042F435
:1027F000C02243F82120012202FA01F1827A11431A
:1028000005E0012202FA01F1827A22EA01010023A5
:102810008172184610BD8069704740697047024652
:1028200001206AB107290BD86FF00200126800EA94
:102830004100C9071044406A18BF000C6FF31F30F5
:1028400070470000B0B5B74D0446286840F001005D
:1028500028602068016841F400210160016841F4AA
:1028600080710160416821F4C0214160416841F4F8
:10287000C0214160142000F011FE2068816B41F0FE
:1028800002018163416C4907FCD5416A426C42F008
:1028900001026FF31F314264026822F400220260D9
:1028A000026822F480720260286820F0010028602B
:1028B000A1F50070B0BD00BF01684A6C42F0010292
:1028C0004A64416941F4805141617047002842D017
:1028D000B0B50546044655F8140F10B90020207411
:1028E000A061204600F047F861696069C90634D4E8
:1028F00020F481700025023060612068016821F0B9
:102900008001016021790268002918BF42F080022D
:102910000260816B21F45E7178318163C16B01F0DB
:102920007F41C163E179C36B4A1C01F0FE0143EAB8
:102930005202C263C26B22F07F42C263C26B42EAA0
:10294000C151C163082D0CD0204629460022FFF753
:1029500031FF0135F6E70120704740F010010120FA
:1029600004E0034D286840F0010100202960B0BD5B
:1029700014A0015070477047F8B5C8B10D46044621
:1029800003F004FD06466F1C2068416C490711D412
:10299000002FF9D025B103F0F9FC801BA842F3D930
:1029A00000202074606940F0040060610320F8BDDD
:1029B0000120F8BD416C41F001014164606940F4BF
:1029C000007060610020F8BD024601203AB1022982
:1029D00005D81068826B42EA0121816300207047AC
:1029E000024601203AB1042905D81068826B42EAF8
:1029F0000131816300207047B0B504464948016841
:102A000041F0010101602068816B41F40061816344
:102A1000207C012801D1022513E0606940F2017198
:102A20000025884300F58070606101202074142027
:102A3000A56100F033FD20682574816B41F002012F
:102A400081632846B0BD00BF0020704778B135498A
:102A50000A6842F001020A600068416C41F002011C
:102A60004164816B41F002018163002070470120C5
:102A7000704700BF017C012901D1022119E0012129
:102A8000427A017401681AB18A6B42F004028A63C7
:102A9000426940F201139A43013242618A6B22F487
:102AA00000628A63002101741E48026822F001025C
:102AB00002600846704700BF10B50446007C01283C
:102AC00004BF022010BD012021682074E0688A6BD9
:102AD00022F080028A6300F040FA0021217411493B
:102AE0000A6822F001020A6010BD00BF017C0129C2
:102AF00001D1022113E00121427A017401681AB167
:102B00008A6B42F004028A634A6C22F002024A6431
:102B1000002101740348026822F0010202600846A5
:102B2000704700BF10A00150827D012303FA02F21A
:102B300061B10168D1F884301343C1F88430D1F811
:102B400080301A43C1F88020022107E00168D1F8E3
:102B5000803023EA0202C1F88020012101760020A2
:102B60007047027E3AB14068426822F000420A6033
:102B70004068C00F7047012070470000F8B5056835
:102B800004461748854206D0164885421CBF0120DE
:102B9000F8BD154800E01148227D04F116011AF035
:102BA00017F801460120002917D4A27DD4E902C7F5
:102BB0002669C9B205EB02131201002EDF60C3F8CB
:102BC00008C0677D41EA071141EA062718BF47F0B0
:102BD0008001A950207600206360F8BD6C0B0900CD
:102BE0000010024000E00240B10F09002DE9F04161
:102BF00004680223A5680679012E57D0437101238A
:102C000025F0060C037111F003031DD063F00306D9
:102C1000C3F10403002788464FF0000E3EB118F8B8
:102C2000015B0136BD4008374EEA050EF6E76FF04E
:102C3000010505EB430545EA0C05A560C4F800E075
:102C40006568ED07FCD000E00023A56845F00605A7
:102C5000A560D51EAB4206D2CE5826606668F60740
:102C6000FCD00433F6E7934214D26FF0010E002734
:102C70000025934207D2CE5C0EF1020E0133BE4016
:102C800008373543F5E74EEA0C01A160256061681D
:102C9000C907FCD0012141710021017180793549BA
:102CA00001EB00102168C06880EA01031846BDE806
:102CB000F08100BF10B503689C6844F001049C607B
:102CC000BDE81040FFF792BF50B110B50446022096
:102CD0006071204600F02AF800202071607110BD5C
:102CE0000120704740797047D0B110B504460068A4
:102CF00008B90C482060617929B90020207120466C
:102D000000F015F8206802216171A62181604FF062
:102D1000FF3101610449416101206071002010BD53
:102D20000120704700500850B71DC104704770471C
:102D3000B0B5104A056802EB0113D3E901432C61D9
:102D40000C0112596A61AB608171A86840F0010002
:102D5000A860B0BD10B5046821610649626101EB4D
:102D600003118968A1608371A06840F00100A06030
:102D700010BD00BF4C270900F0B5224A6FF0C00516
:102D8000C028144605F1600502F1805388BF1C4637
:102D900088BF6FF0C0052E18B0B24FF63F754028BF
:102DA00003D3403E04F5807403E0202824BF203E76
:102DB0008034B6B20120DFF8E8C0271DC02900FA30
:102DC00006F0CCE90007266940EA060020618CBFC6
:102DD0001A46603529448BB2402B03D3403902F5A3
:102DE000807203E0202B24BF2039803289B2012376
:102DF000101D03FA01F1CCE90210106908431061BB
:102E0000F0BD00BF0000084070B50C460546002626
:102E1000A642A8BF70BDA85D00F002F80136F7E732
:102E20002DE9F0411E4CE168B9B30B68D4F808C035
:102E3000072743EA0C036FEA0C080B6063681D6800
:102E4000D4F800E045EA0E056FEA0E061D600D6835
:102E500025EA0C050D601A68002F02EA06021A60C6
:102E60000FD40A6820FA07F5013FED0742EA0C0487
:102E700008BF02EA08040C601A6842EA0E021A60EF
:102E8000E9E7086800EA08000860186840EA0E00F0
:102E90001860086840EA0C000860BDE8F08100BFD7
:102EA000E4C44E202DE9FE4F294D14460E468046BF
:102EB0004F2120224FF0200B2846FDF72CFE002743
:102EC000A81C0296B04405F106092E4685F84F70FD
:102ED0000190A7422FDA17F00F0A17D1029829465E
:102EE000C6191C4800F038F828464F212022FDF76B
:102EF00012FEC6F30721284677F02AFA0198F1B2AC
:102F000077F026FA42F23A004E46A88018F80700F9
:102F1000A0F121015D290AEB050128BF2E2081F8CF
:102F20003C00304618F8071077F012FA86F802B025
:102F300001370336CDE7064C0648214600F00CF871
:102F400020464F212022FDF7E6FDBDE8FE8F00BFA1
:102F5000C0C84E2059C30900704701460120C1B1C5
:102F6000B0B50A68D1E91134156825F00E05156071
:102F7000156825F00105156004F01C0200FA02F244
:102F80005A60002281F8282081F829000020BDE83D
:102F9000B0407047B0B590F8291002291CD10168E3
:102FA000C26BD0E911340D6825F00E050D600D6877
:102FB00025F001050D6004F01C014FF0010404FA36
:102FC00001F159604FF0000180F8281080F8294085
:102FD0002AB19047002102E0042101640121084642
:102FE000B0BD000068B1B0B50268116821F0010100
:102FF00011608249114401F5B8338C2B03D8804B02
:103000000EE001213EE08C2903D87D4901F5B8335B
:1030100006E07C4911448D2936D2794901F180536B
:10302000A2F1080114244364C9B2B1FBF4F18C008D
:10303000846400210125102C116004F01C0205FAA3
:1030400002F24FF018055A604FF0380205EA4405C5
:1030500038BF02EA44054FF03F024FF0AC0402FAD9
:1030600005F238BFA8241D5925EA02021A5101644D
:1030700080F82810C0E90C11C0E90E1180F8291061
:10308000BDE8B04008467047D0E91134D1E700BF31
:10309000006C704790F829007047F0B5D0E9111323
:1030A00002680C68156803F01C036E070ED5042631
:1030B0009E4016EA040709D013689B0603D41368E0
:1030C00023F0040313604E60416B2BE0AE0714D570
:1030D00002269E4016EA04070FD013689B0606D40A
:1030E000136823F00A031360012280F829200022CC
:1030F00080F828204E60016B14E02D0716D50825B6
:103100009D402C4012D0146824F00E04146001225B
:1031100002FA03F34B600021026480F8281080F863
:103120002920816B11B1BDE8F0400847F0BD0000D7
:1031300068B170B50168314A8B18314A03F5B8346B
:103140008D2C0CD38D2B04D202F5B83207E001216F
:1031500052E02C4B0B448C2B0AD802F18052A1F187
:1031600008031424DBB2B3FBF4F39B00C0E9112382
:10317000022247F6F07300F1080680F82920426A1F
:103180000A610A689A4378CE1A43B3F5804F42EA3F
:103190000402846942EA050242EA060242EA0402A3
:1031A000C46942EA0402046A42EA04020A601AD0CC
:1031B000816CC1F38202032A03D8D100426CA83289
:1031C00005E08908182202EAC101426CAC323F23B3
:1031D00014688B4024EA03031360436803FA01F187
:1031E00013681943116000210122016480F828103E
:1031F00080F82920BDE8704008467047F87FFEBF80
:1032000000100040F8EFFFAF2DE9F843044690F8B6
:10321000290002282DD12068006880062ED40420C1
:1032200000298846164608BF0220A16C01F01C0147
:1032300000FA01F503F0AAF88146771C616C086872
:10324000284221D10868A26C02F01C02D04000077D
:1032500025D4002FF2D003F099F81EB1A0EB09009D
:10326000B042EBD920202064002084F828000120FF
:103270001DE0002084F82800042001E04FF4807055
:1032800020640120BDE8F883A06CB8F1000F00F0C5
:103290001C0010D0042202FA00F0486012E0012065
:1032A00000FA02F24A600021206484F8281084F8B1
:1032B0002900BDE8F883022202FA00F048600120EC
:1032C00084F82900002084F82800BDE8F883000075
:1032D00010B590F82830012B01D1022319E0012309
:1032E00080F8283090F82940012C0FD1032905D807
:1032F000DFE801F00206080A026306E0012305E0A8
:10330000426302E0826300E0C2630023002180F890
:103310002810184610BD3F291BD840F6FF7220EA3E
:1033200002026FF31F30A0F108031420B3FBF0F08A
:103330004F2B01D8C00005E09F2B0AD86FF01F0368
:1033400003EBC00001FA00F0D2F8A8100843C2F85D
:10335000A800704770B5044690F8280001281CD0DA
:10336000012084F8280094F82900012812D10220B5
:10337000002584F8290025642068066826F00106E7
:1033800006602046FEF739FA2068016841F0010125
:10339000016003E0002084F828000225284670BD63
:1033A000B0B5044690F8280001281DD0012084F80B
:1033B000280094F82900012813D1022084F829005C
:1033C000002020642068056825F00105056020467E
:1033D000FEF713FA2068626B01683AB141F00E0102
:1033E0000AE0002084F828000220B0BD21F004018A
:1033F0000160016841F00A010160016841F00101CA
:1034000001600020B0BD000090F82820012A01D101
:10341000022222E0012280F8282090F82930012B96
:1034200018D1042907D8DFE801F003080B0E1000BB
:10343000002202630EE001220CE00022426309E058
:103440000022826306E0002203E00022C0E90C2291
:103450008263C263002180F828101046704780B54F
:1034600006F08CF9002080BDE0B50190019830B1E4
:103470004FF47A7000F012F801980138F5E78CBD2E
:10348000B0B5451C28BF4FF0FF3502F07FFF044662
:1034900002F07CFF001BA842FAD3B0BDF8B5044689
:1034A0000E4D28B92868C00704BF002000F036F888
:1034B00042F2107684B1A71B34BF00273446286837
:1034C000C00704D1204600F029F83C46F2E7204628
:1034D00000F006F83C46EDE7F8BD00BF10E000E064
:1034E00018B500900C484FF47A730168009A4A436B
:1034F000B2FBF3F20092002243684468A342FCD07E
:103500001A44A342A2EB040298BF0A44009B9A42C9
:10351000234628BF18BDF0E714E000E01CB5114CAD
:1035200001902068019901B140B9002008F0F6F837
:103530000D49B0FBF1F02060019991B1312802D31F
:10354000019901390191019959B101990139484312
:103550000521B0FBF1F000900098411E0028009179
:10356000FAD11CBD10C94E2040420F0080B5026840
:10357000084B9A4204D0084B9A421CBF012080BDE0
:10358000836843F40063836004A05161FFF7E4FCA7
:10359000002080BD00F00150008002404255465F8F
:1035A000414444523D253038580A0000027B012A2C
:1035B00011BF012009688160002070470146007B2F
:1035C000012812BF012000200873704780B50268EF
:1035D000134B014601209A4202D0124B9A4205D168
:1035E00010634A680AB108469047002080BD00BFBA
:1035F000B0B50546007B08B101240FE028680849F2
:103600000124884202D00749884207D14A2008F0A5
:10361000A3F92868046384622C7300242046B0BD9B
:1036200000F0015000800240F8B50446007B0128FC
:103630001CBF0220F8BD1D4616460F46980707D04E
:103640000FA0FFF789FCA06840F01000A06000E028
:10365000A0682168486015A04968FFF77DFC2068D4
:103660008760C6600126A16826EA112125FA01F1CA
:10367000016113A0FFF770FC206806630020F8BD0D
:103680004E6F6E652033322D627420616C69676EF7
:1036900065642C2073686F756C64206265206C61B2
:1036A000737420626C6F636B0A00000046414343F1
:1036B00020706172616D3D253038580A00000000AD
:1036C0004641434320424C4B5F4C454E3D25640AE6
:1036D0000000000000680121016381620020704742
:1036E0002DE9F8430446007B012805D1089E1546C4
:1036F000B018B0F5807F02D90120BDE8F883207AA8
:103700001F46400607D5802D4FF0010098BF802E40
:1037100001D9BDE8F88320684FF00109DDF8248065
:10372000C0F83090C0F828904346A268C2F3002247
:10373000009200F120020846294600F02BF85EB105
:10374000A16820684346C1F3002100F124023846F5
:103750000091314600F01EF8607A29EA0000C54069
:1037600018BF013D36FA00F018BF05EB002504A094
:103770002946FFF7F1FB2068C5610020BDE8F8830A
:10378000566563746F7220706172616D3D253038CB
:10379000580A0000F0B5E3B1059CD4B949080238D5
:1037A0004FF0000C00250B4693B315F0010630F8DE
:1037B0001340A3F1010305F101054FEA061604FACF
:1037C00006F44CEA040C1CBFC2F800C04FF0000C19
:1037D000EAE7A1F1010E4FF0000C00261EF10107EF
:1037E00016D07746002B06F00304AEF1010E08BF99
:1037F0003746E500032C06F10106C75D07FA05F51B
:103800004CEA050C04BFC2F800C04FF0000CE5E71D
:10381000880718BFC2F800C0F0BD10B50446FFF716
:1038200003FF68B9216801220A63CA6A22F0010213
:10383000CA620A6842F001020A600A6BD207FCD031
:1038400010BD10B50446FFF7EFFE00B110BD2168B2
:103850000122CA620A6842F001020A6010BD0146F4
:10386000007A012812BF0120002008727047000072
:1038700080B501680F4A914204D00F4A91421CBFA3
:10388000012080BD0C22CA60416801B18847002038
:1038900080BD00BF0146007A08B1012070470A6868
:1038A000044B01209A4202D0034B9A4201D1087284
:1038B0000020704700E001500070024010B504463F
:1038C000007A01281CBF022010BD2068FEF7B8F95D
:1038D00000B110BD2068C16841F00801C1600168F5
:1038E00041F001010160C168890704D400BF00BF35
:1038F00000BF2068F7E70421C160002010BD10B5AB
:103900000446007A01281CBF022010BD2068FEF783
:1039100097F900B110BD2068C16821F00801C160AD
:10392000016841F001010160002010BD60B110B5D7
:10393000002918BF0121044600F0BEFE20460121E7
:10394000BDE8104000F0BABA704780B1B0B5054686
:1039500040691C460B1A284638BF0B46194600F032
:10396000DAFE28462146BDE8B04000F0CABE7047E6
:103970002DE9F04104460120002C64D00F460029B7
:1039800061D0DDF81880204639461E46154607F0FE
:1039900037FC0220E56007F1080284F82A004FF0A6
:1039A000000084F82000207107CA84F828204FEA1C
:1039B0000151C4E90B0195B18EB108204FF480513B
:1039C000C5E9081000208021E861C5E90500C5E9C6
:1039D00003011020A8603068F168C5E900015FFAB2
:1039E00088F1204600F0A8FE94F82900012803D0B1
:1039F000022805D1012100E00021204600F0D2FE7E
:103A0000204600F0A5FA84F821002046012100F0AC
:103A10007FFA204607F0D3FC94F82030010C020A0C
:103A20006062C0B2C9B2D2B213B18BF0BDFA01E08C
:103A30008BF060FA206140B1204607F0A3F91E2008
:103A4000FFF72CFD0020BDE8F0810120BDE8F081EA
:103A5000C0B1F0B55203DDE90576DDE90754006831
:103A600042EA8141826C41EAC3216FF3140241EAC8
:103A7000072141EA861141EAC501214311438164CE
:103A8000BDE8F0407047C0B1F0B55203DDE90576FE
:103A9000DDE90754006842EA8141026D41EAC32131
:103AA0006FF3140241EA072141EA861141EAC50198
:103AB000214311430165BDE8F0407047A8B10329D7
:103AC00008D002290CD001290FD10068416D41F0C6
:103AD000010109E0006840F20112416D114303E069
:103AE0000068416D41F480714165704720B1006804
:103AF000416941F00101416170472DE9F041002821
:103B000000F09280044690F82100012101FA00F5AE
:103B10002069294690F89361204600F09EFE2046D9
:103B20000221002200F07EFA16B128B1002706E03B
:103B3000A8B34FF0000836E020684068C7B220699B
:103B400015210022C679204600F06CFA002E18BF1D
:103B500027EA060600B320460021002200F062FAA0
:103B6000206829464660204600F077FE2046032163
:103B7000002200F057FA94F82100012181402046EC
:103B800000F06BFE20460221002200F04BFA206874
:103B90004068C007F6D147E02068294648E0206821
:103BA00040685FFA80F8204614210022002600F0C9
:103BB00039FA10B920684068C6B22069C779002F69
:103BC00018BF28EA070794F8210028B1300640EA18
:103BD000064040EA072600E0360220461521002272
:103BE00000F020FA3E4308B320460021002200F0F6
:103BF00019FA206869004660204600F02EFE204633
:103C00000321002200F00EFA94F8210001218140E6
:103C1000204600F022FE20460221002200F002FA97
:103C200020684068C007F6D1BDE8F08120686900CF
:103C30004660204600F011FE204603210022BDE828
:103C4000F04100F0EFB918B10068426911434161D9
:103C50007047F0B585B0002840D004460069D9B15E
:103C600090F86A10D1B390F96E3090F96D2090F908
:103C70006C1090F96F5090F9706090F9717090F934
:103C800072008DE8E00003902046FFF7E1FE216915
:103C9000206891F86A101AE090F84610F1B190F996
:103CA0004A3090F9492090F9481090F94B5090F91A
:103CB0004C6090F94D7090F94E008DE8E000039053
:103CC0002046FFF7C5FE2169206891F84610026C76
:103CD00022F0FF0211440164002000E0012005B041
:103CE000F0BDE0B1F0B585B004460069C9B190F906
:103CF0006A3190F9692190F9681190F96B5190F946
:103D00006C6190F96D7190F96E018DE8E00003909F
:103D10002046FFF79DFE206900F5B37018E00120F2
:103D2000704790F9583190F9572190F9561190F950
:103D3000595190F95A6190F95B7190F95C018DE8E5
:103D4000E00003902046FFF783FE206900F5AA708B
:103D5000216800780A6C22F0FF02104408640020F9
:103D600005B0F0BD80B578B102681168C9074FF0A1
:103D700001010AD0936A61F31503B921936200220D
:103D800000F0DEFC014600E00121084680BDD0B114
:103D9000C9B1B0B5044607F033FA2046012100F05E
:103DA00001FD2046012100F0B3F8204600F00AF999
:103DB00005462046002100F0ABF82046002100F027
:103DC000F1FC2846B0BD0020704770B50024E0B17A
:103DD000D9B1054607F014FA28460021002400F066
:103DE000E1FC2846012185F8214000F091F82846A1
:103DF00000F0B6F806462846002100F089F826B102
:103E00006FF07F40864218BF0124204670BD2DE927
:103E1000F84390B10D461C46012133B30646C068F5
:103E200018B33168D1F800904AB1102201F10408AA
:103E300000212746826000220CE0012115E00022CB
:103E40000B1DE11CA84682608F084FF400624FF4FE
:103E500000711D46C0E90512FFF7C4F8014620B9FC
:103E6000F068FFF765F9014610B10846BDE8F88330
:103E7000316849F02002F0683B460A60621E4A62DF
:103E80002946424601B0BDE8F043FFF763BA10B5DA
:103E900060B10446C06848B10A460021FFF7B4F992
:103EA00021680A6822F020020A6010BD012010BDBE
:103EB00080B5002100F02CF8002080BD50B10068D2
:103EC0000029026842F0400308BF22F0400303606B
:103ED000002070470120704750B100680029026837
:103EE00042F4A02308BF22F4A023036000207047FF
:103EF0000120704750B100680029026842F40013A5
:103F000008BF22F4001303600020704701207047AF
:103F100050B100680029026842F0010308BF22F096
:103F2000010303600020704701207047B0B50C46C4
:103F3000054675F034FE28462146BDE8B040FFF73F
:103F4000D0BE10B10068C06800E00020C0B2704769
:103F500020B100680068C0F300607047002070471F
:103F6000B0B5044628B120682D4A816A62F3150174
:103F7000816294F8210003218140204600F06DFC0D
:103F800020469F210022002500F0DAFB0CB12068BA
:103F9000456894F8210050B14FF47F40E9B200EA3F
:103FA0001520084421684968C9B240EA014525F056
:103FB0007F40B0BD20B10068D0F88800C00F7047C6
:103FC00000207047B0B528B3054600680168C901F4
:103FD00020D5816A124A002462F315010022816211
:103FE0000521416228469F2100F0AAFB2968486804
:103FF000421C022A0FD380EA10224968120609D116
:10400000C0F30742B2EB106F04BF81EA11205FEAF0
:10401000006002D000242046B0BD0124FBE700BFB1
:10402000010004002DE9F04186B00546006948B35F
:10403000382927D801EBC1063044017C11B314465E
:1040400090F9133090F9122090F9111090F9147032
:1040500090F915C090F916E090F9178090F91800C2
:104060008DE88050CDE90380284600F0EBF92869FF
:1040700022463044017C284600F062FB002818BF2D
:10408000012000E0012006B0BDE8F0812DE9F047F5
:1040900086B014460269002A61D038295FD801EB46
:1040A000C10605469019017C002958D0382B56D8F6
:1040B00003EBC307D119097C002950D090F91330C4
:1040C00090F9122090F9111090F914C090F915E0B0
:1040D00090F9169090F917A090F91800DDF8388043
:1040E000CDE900CECDE9029A0490284600F0AAF965
:1040F0002869384490F9133090F9122090F9111082
:1041000090F914C090F915E090F9169090F917A065
:1041100090F91800CDE900CECDE9029A0490284626
:1041200000F0B0F9296928680022C2671031CA5D21
:10413000C262C0F88080026842F4A0220260C461BA
:10414000895D816101690907FCD5416941F0090177
:104150004161016821F4A0210160002000E00120FC
:1041600006B0BDE8F08718B100680069C00F70475D
:104170000020704720B10068006900F0010070471E
:10418000002070470146012011B109684968884341
:10419000704720B10068406DC0F3400070470020B8
:1041A000704720B100680069C0F3400070470020EC
:1041B000704720B10068406DC0F340207047002078
:1041C00070472DE9FF414FF00108002800F03681CB
:1041D0000D46002900F03281DDF8288029461F466F
:1041E0001646044607F00CF80220E66005F10802C6
:1041F00084F82A0007CA84F828204FEA0151C4E94C
:104200000B01A2F10100B0FA80F04FEA501084F8DF
:104210002000B6B1AFB101204FF48051C6E90810BB
:1042200000208021F061C6E90500C6E903011020E5
:10423000B0603868F968C6E900012046012100F045
:10424000E1FA5FFA88F1204600F076FA94F8290046
:10425000012803D0022805D1012100E000212046D9
:1042600000F0A0FA2046FFF773FE84F821002046F4
:104270000121FFF74DFE94F8200040B9204600F0E0
:10428000FCF90020FFF70AF90820FFF707F9656A33
:10429000FF2D18BF002D04D1204607F090F80546E9
:1042A000606294F820002E0C2F0A28B1E8B2F1B217
:1042B000FAB28AF079FE04E0E8B2F1B2FAB28AF01A
:1042C00019FE206140B194F82000E0B1E8B2F1B2EB
:1042D000FAB28AF095FE1BE094F8200000286DD019
:1042E0002046082175F0A6FB05466062C0B2C5F302
:1042F0000741C5F307228AF057FE002820615DD0F0
:104300002E0C2F0ADFE7E8B2F1B2FAB28AF026FEED
:1043100018B194F821108840A06194F8200060B191
:10432000204675F048FB2079002851D02046012115
:1043300005F0E4FA4FF0000880E02046FFF7DDFBCF
:10434000A069B0F1807F06D9B0F1007F50D894F811
:10435000210000284CD02079002840D0204601219F
:1043600000F03BFA94F82300012856D1206990F818
:10437000FF11002959D090F9033290F9022290F9E7
:10438000011290F9045290F9056290F9067290F9C1
:1043900007028DE8E00003902046FFF759FB2069F3
:1043A00090F8FF11204600F095F904200121042225
:1043B00084F82200204605F0D1F8BBE72046002112
:1043C0000025FFF7A5FDC4E90B554FF0010835E0C6
:1043D000204600214FF0000805F090FA2EE04FF043
:1043E00000082046002184F8238000F0F6F925E03B
:1043F0004FF0000820462121002284F82380FFF797
:1044000011FE21792046002918BF0121FFF78EFDFA
:104410002046072100F0ECF910E0204600210022A0
:104420004FF0000805F09AF808E02046002100222D
:104430004FF0000805F092F884F82380404604B05D
:10444000BDE8F081E8B1F0B59204DDE90547DDE9AA
:1044500007650068DDF824C042EA4151826A41EAFA
:1044600043316FF3150241EAC42141EA072141EAD1
:10447000861141EAC50141EA0C0111438162BDE8A0
:10448000F0407047E8B1F0B59204DDE90547DDE999
:1044900007650068DDF824C042EA4151C26B41EA79
:1044A00043316FF3150241EAC42141EA072141EA91
:1044B000861141EAC50141EA0C011143C163BDE81F
:1044C000F040704798B193B170B50E461946144646
:1044D000054600F075F96869311A38BF3146221A6D
:1044E000284638BF2246BDE8704000F04CB97047FE
:1044F000F0B585B00122382921D80369FBB101EB61
:10450000C1021A44127CCAB101EBC1015C1894F9D2
:10451000133094F9122094F9111094F9145094F96D
:10452000156094F9167094F917C094F918408DE845
:10453000E0100494FFF786FF002200E001221046FD
:1045400005B0F0BD70B50125002868D004460020F4
:10455000FF224FF05023A060A5712168C1F884208C
:104560008B670A62207184F82000E0604A6420466C
:10457000012100F0E1F820680168C1F3006184F8CE
:104580002110016841F0010101602046FFF7E8FCBD
:10459000C0F30741C5B2C0F30722064628468AF099
:1045A000A9FC206110B3320A300CC1B2D2B2284645
:1045B0008AF0D4FC18B194F821108840A06194F8D6
:1045C000200058BB2046FFF798FAA069B0F1807F21
:1045D00005D9B0F1007F16D894F8210098B1207960
:1045E00058B12046012100F0F8F817E020680125B5
:1045F000016821F00101016011E020460021002541
:1046000000F0EBF80BE0204621210022FFF70AFD25
:10461000207930B120460121FFF788FC002528468B
:1046200070BD204600210025FFF780FCF7E710B1A0
:1046300000684068704700207047F8B506460020C3
:10464000D6B10D461C4613F0030115D13046214664
:10465000174600F002F9304638213A46FFF7E2FCEF
:1046600008B10020F8BDA7082FB13046FFF7DFFFE3
:1046700001C5013FF8E72046F8BDB0B5D0B104460A
:104680000068016811F0010503D1016841F00101E2
:104690000160816A012262F31501002281622046D5
:1046A000AB2100F04DF825B921680A6822F001021B
:1046B0000A60B0BD0120B0BD50B100680129026898
:1046C00022F0800308BF42F080030360002070479F
:1046D0000120704738B10068026C22F0FF021144DB
:1046E0000164002070470120704740B10068026CEF
:1046F00022F47F4242EA0121016400207047012038
:10470000704730B140F2FF320068914341670020AA
:1047100070470120704768B140F2FF33006821EA1A
:104720000303114401F2FF31C3666FF3090101670E
:10473000002070470120704708B10068C1607047D1
:1047400058B10068C26181610169C907FCD0416943
:1047500041F001014161002070470120704780B1A4
:1047600010B592010068029C42EA8141826841EAE8
:1047700083516FF39E1241EA8461114381600020EE
:1047800010BD0120704758B140F2FF3300689943D3
:10479000C16502F2FF316FF3090101660020704725
:1047A0000120704750B100680029026842F0807310
:1047B00008BF22F08073036000207047012070471B
:1047C0000246012042B139B110680A6812BA426645
:1047D000496809BA816600207047B0B50C460546A5
:1047E00075F0DDF928462146BDE8B040FFF731BA43
:1047F00030B10068826861F3020282600020704775
:104800000120704740B1006801F01F01426D22F4A1
:10481000F84242EA81214165704730B100686FF388
:104820001F31C0F88810002070470120704750B138
:1048300000680029026842F4000308BF22F4000364
:104840000360002070470120704720B100680069B4
:10485000C0F3C00070470020704730B101390068D4
:104860006FF31F514162002070470120704730B143
:10487000013900686FF31F518163002070470120E8
:10488000704718B1006841600020704701207047F0
:10489000E0B589B20DF10602FDF712FC78B1BDF862
:1048A0000610012202FA01F182690A438261426A1A
:1048B0000A434262826D0A438265C16381648CBD92
:1048C000F8B5134E0C460546104828443746B0FA52
:1048D00080F002CF400907EBC1018880306807EB08
:1048E000C000C48001F052FD316847F83100214614
:1048F0003068013001289ABF3068013000203060F4
:104900002846BDE8F84075F05FBB00BF0000F8BF67
:1049100044C44E20704700007CB50DF106020C46E1
:104920000546FDF7CDFB90B1864EB54210D0BDF8DF
:104930000610012202FA01F1C26D114207D0C165D1
:1049400028462146FFF7BCFFBB48854221D07CBDED
:10495000BDF80610012202FA01F1C26C1142F6D034
:10496000C16430462146FFF7ABFF3046214604F0D4
:1049700005FA0028EBD400F10801012203300D4BA9
:1049800002FA01F102FA00F041F0004119600A490F
:104990000CE0214601F0DCFD0028D8D4C0B24FF471
:1049A000807101FA00F0024940F0004008607CBDCF
:1049B00024000440240004500CA00450E0B50DF184
:1049C0000602FDF77DFB70B3BDF8061001228A4098
:1049D00041680A420CD1816A114209D1416B1140F0
:1049E0008A4205D1016C11408A4201D111211CE09B
:1049F0000169114201D0012117E0C16911420CD0B7
:104A0000816A436B1340114209D014497BB1036C96
:104A100013420CD001F5001107E0002105E06BB155
:104A2000016C11420AD04FF0FF3108468CBD436B38
:104A30001342FAD1006C01F5801109E0436B07497C
:104A4000134202D001F54011EFE7006C01F580013F
:104A5000104208BF4FF0FF31E7E700BF0000111020
:104A6000BCB50D4609880DF106020446FDF728FB8A
:104A7000002860D06A68112A10D0012A1ED1BDF822
:104A80000610012202FA01F1426A0A434262826D73
:104A90000A438265C16381644161BCBDBDF80610F3
:104AA000012202FA01F1426A0A434262826D0A431C
:104AB0008265C160016381634164BCBDBDF80610BD
:104AC000012303FA01F17AB11D4B81611A444FEAC7
:104AD0003252042A29D8DFE802F00311151A210006
:104AE000C26A0A43C26215E0426A0A434262826DA8
:104AF0000A438265C16381648161BCBDC26A0A43A5
:104B0000C2620EE0C26A0A43C26281630AE0026BBB
:104B10000A430263816300F1480205E0026B0A4325
:104B20000263C16300F144021160064A944203D05B
:104B3000426D11434165BCBD026A11430162BCBDB7
:104B40000000EFEF00000850E0B50DF10602FDF7A0
:104B5000B7FA10B3BDF80610012202FA01F142685B
:104B6000114210D1826A0A420DD1426B0A40914231
:104B700009D1026C0A40914205D100690840B0FA9F
:104B800080F0400905E002690A420CBF00684068F5
:104B90000840002818BF01208CBD00208CBD0000FB
:104BA000254B98421DD0022A1DD15030BAB10B6856
:104BB000013A40F84C3C4B6840F8403CCB6840F828
:104BC000283C0B6940F8183C4B6940F80C3C8B6959
:104BD00003608B681C3140F8343C8030E6E70020ED
:104BE0007047032AE1D00120704700BF124B984262
:104BF0001DD0022A1DD15030BAB150F84C3C013AB8
:104C00000B6050F8403C4B6050F8343C8B6050F8DF
:104C1000283CCB6050F81C3C0B6150F8103C4B61B9
:104C2000036880308B611C31E6E700207047032A5F
:104C3000E1D00120704700BF00000840E0B50DF151
:104C40000602FDF73DFAF0B1BDF80610012202FAA6
:104C500001F14268114210D1826A0A420DD1426BC1
:104C60000A40914209D1026C0A40914205D1026981
:104C70000A420CBF1430183004E042680A420CBFEC
:104C800008300C3001608CBD1CB514460DF10602D5
:104C9000FDF716FAD8B1BDF80610012202FA01F1AB
:104CA000426811420FD1826A0A420CD1426B0A401B
:104CB000914208D1026C0A40914204D144B1826908
:104CC000114381611CBD0CB181601CBDC1601CBD64
:104CD0004269114341611CBD10B50446022041F2F6
:104CE000111284F836002068016A114208D1016A65
:104CF00040F24442114203D1016821F001010160F8
:104D0000204600F02CF8002084F8340084F83600A7
:104D1000002010BD90F836007047F0B110B5044681
:104D200090F8360028B9002084F83400204600F0BE
:104D300017F80220211D84F836002068FDF7D6F907
:104D400020686FF001010161016841F00401016018
:104D5000012084F83600002010BD01207047704704
:104D60007047022180F8361001680A6842F001029B
:104D70000A60012180F8361000207047B0B5044663
:104D800090F83600022804BF0220B0BD94F8360027
:104D90001346012806D111B90BB10120B0BD022084
:104DA00084F83600A0690A4D22680563094D2C324B
:104DB000A0698563A069FEF7F3FA2068C16841F431
:104DC0008071C160016841F0010101600020B0BD47
:104DD0000B220000FF2100000068C16841F00101C2
:104DE000C160016841F001010160002070470221AB
:104DF00041F2111380F8361001680A6A1A4208D18C
:104E00000A6A40F244431A4203D10A6822F00102BE
:104E10000A60012180F8361000207047016841F2D5
:104E20001113CA6822F48072CA600A6A1A4208D151
:104E30000A6A40F244431A4203D10A6822F001028E
:104E40000A60012180F8361000207047006841F2A6
:104E50001112C16821F00101C160016A114208D13B
:104E6000016A40F24442114203D1016821F001017C
:104E7000016000207047000010B590F8342004460F
:104E80000220012A00F0858084F836000120414B81
:104E900084F83400206882681A4082600A68BAB1D7
:104EA000102A1BD0202A1FD0302A23D0402A27D0F6
:104EB000502A31D0602A3BD0702A45D0B2F5005F2D
:104EC00052D0B2F5805F5ED1816821F4702159E043
:104ED000816841F0070121F0700153E0816841F0E1
:104EE000170121F060014DE0816841F0270121F0B8
:104EF000500147E0816841F0370121F0400141E075
:104F00004B68CA681946FDF777FA2068816841F056
:104F1000470121F0300135E04B68CA681946FDF7BA
:104F20006BFA2068816841F0570121F0200129E0E7
:104F30004B68CA681946FDF7A5FA2068816841F0F8
:104F4000670121F010011DE0D1E90123C9681A436E
:104F500042EA0121826822F47F4211430E4A8160B5
:104F60008168114077310DE0D1E90123C9681A4306
:104F700042EA0121826822F47F4211438160816804
:104F800041F4804181600020012184F8340084F8DC
:104F9000361010BD8F00F0FF88FFF0FFB0B590F81D
:104FA00034400223012C4AD080F83630012380F8A7
:104FB00034304B68012B0BD101F1080538CD234368
:104FC000046843EA0523A56825F47F452B43A360C5
:104FD0004FEAB202032A2CD8DFE802F0020C1721B4
:104FE00002689369096800290CBF23F4803143F4F7
:104FF000803108E002689369096800290CBF23F03A
:10500000807143F08071916113E00268D36909688F
:1050100000290CBF23F4803143F4803108E002689A
:10502000D369096811B143F0807101E023F0807108
:10503000D1610023012180F8343080F83610184601
:10504000B0BD0068426822F0800211434160002038
:10505000704701207047B0B50C460546B1F5804F4A
:1050600014D0B4F5007F14D0B4F5806F14D0B4F52B
:10507000006F14D0B4F5805F14D0B4F5005F14D085
:10508000B4F5807F16D105F1180010E005F130006D
:105090000DE005F11C000AE005F1200007E005F134
:1050A000240004E005F1280001E005F12C0000686F
:1050B000FDF753FF2868C168A143C1600020B0BD5F
:1050C00001207047B0B50C460546B1F5804F14D0AD
:1050D000B4F5007F14D0B4F5806F14D0B4F5006F30
:1050E00014D0B4F5805F14D0B4F5005F14D0B4F5DB
:1050F000807F16D105F1180010E005F130000DE0B9
:1051000005F11C000AE005F1200007E005F124008C
:1051100004E005F1280001E005F12C000068FDF72E
:105120001CFF2868C168A143C1600020B0BD10B554
:105130000446022041F2111284F836002068016A08
:10514000114208D1016A40F24442114203D1016880
:1051500021F001010160204600F052F8002084F89F
:10516000340084F83600002010BD90F836007047F7
:10517000002843D0F8B5044690F836000D4628B90B
:10518000002084F83400204600F03BF8022084F828
:1051900036002068816821F470218160211DFCF7B0
:1051A000A5FF2668D5E9000CD5E90223B768384386
:1051B000B769316AB060A86942EA00204FF6FC4244
:1051C00090434FF6FF7227EA02021A431043EA693E
:1051D00040EA02202A6940EA02102A6A40EA0230C4
:1051E000B06121F0AA00696940EA0C0040EA0110B0
:1051F0003062012084F836000020F8BD012070479D
:105200007047704710B50446042907D009B900213A
:1052100005E0206800210122FCF78EFF04212068B0
:105220000122FCF789FF2068016841F0010101605B
:10523000002010BD2DE9F041044690F83600022808
:1052400001D1022584E094F83600069D1E4601280F
:105250000FD1002E3046134618BF0120002A18BF78
:105260000123034202D10DB1012571E0022084F82F
:10527000360018291ED004294FD0002967D1E069D3
:10528000354B21680363354B3431E06983632B462A
:10529000E069FEF785F8206801220025C16841F425
:1052A0000071C160016841F0010101600021FCF75B
:1052B00043FF4DE0E069DFF8A084284F21682B46CA
:1052C000C0F830803431E0698763E069FEF768F840
:1052D000206A216832462B46C0F830803831206A77
:1052E0008763206AFEF75CF82068012200250168C8
:1052F00041F0010101600021FCF71EFF206804213C
:105300000122FCF719FF2068C16841F40071C160F7
:10531000C16841F48061C1601AE0206A0E4A2168C8
:105320002B4602630D4A3831206A82633246206A76
:10533000FEF736F820680122C16841F48061C1603F
:10534000016841F0010101600421FCF7F5FE002530
:105350002846BDE8F08100BF53210000FF21000076
:10536000B0B50446042908D079B92068002101228B
:10537000FCF7E2FE2068022517E0206804210122E4
:105380000425FCF7D9FE20680FE0206800210122E7
:10539000FCF7D2FE2068042101220425FCF7CCFE94
:1053A0002068C16841F00201C160C1682943C16041
:1053B000016841F0010101600020B0BD10B5044654
:1053C000042907D009B9002105E020680021002246
:1053D000FCF7B2FE042120680022FCF7ADFE206835
:1053E00041F21112016A114208D1016A40F24442AD
:1053F000114203D1016821F001010160002010BDBC
:1054000010B5044641B1206804290ED104210022C0
:10541000FCF792FE206816E0206800210022FCF7CD
:105420008BFE20686FF400710FE000210022FCF772
:1054300083FE206804210022FCF77EFE2068C168FC
:1054400021F40071C1606FF48061C268114041F2C3
:105450001112C160016A114208D1016A40F244424E
:10546000114203D1016821F001010160012084F89B
:105470003600002010BD10B5044641B12068042953
:105480000ED104210022FCF757FE206816E02068A8
:1054900000210022FCF750FE20686FF002010FE0AF
:1054A00000210022FCF748FE206804210022FCF7BE
:1054B00043FE2068C16821F00201C1606FF0040161
:1054C000C268114041F21112C160016A114208D153
:1054D000016A40F24442114203D1016821F0010106
:1054E0000160012084F83600002010BD704790F85C
:1054F00034300222012B09D080F836200268516135
:105500000022012180F8342080F8361010467047C0
:1055100070477047F8B50D4690F8341004460220E5
:10552000012963D084F836000120042A84F834006D
:105530000AD09AB9D5E90012EB682068FCF76EFF33
:10554000206850F8181F25E0D5E90012EB682068A4
:10555000FCF7A9FF206850F8181F39E0D5E900369C
:105560002168E868082A0F6A19D127F4807260F36D
:10557000071608460A6250F81C2F22F0F302324345
:105580000E6A026003F00A0226F4206343EA022254
:105590000A62016821F00C010160A9681DE027F48E
:1055A00080520A6232024FF2FF06B24360F30F32BA
:1055B000084650F81C6F26F4734632430E6A0260A8
:1055C00003F00A0226F4204343EA02320A62016829
:1055D00021F440610160A968090202681143016079
:1055E0000020012184F8340084F83610F8BD10B58D
:1055F0000446022041F2111284F836002068016A44
:10560000114208D1016A40F24442114203D10168BB
:1056100021F001010160204600F024F8002084F808
:10562000340084F83600002010BD90F83600704732
:10563000B0B110B5044690F8360028B9002084F8BF
:105640003400204600F00FF80220211D84F83600B7
:105650002068FCF74BFD012084F83600002010BDC7
:10566000012070477047704710B50446006801225A
:10567000FCF762FD2068016841F001010160002033
:1056800010BD000070B5044690F83600022804BF33
:10569000022070BD94F836000D46012806D112B9DB
:1056A0000BB1012070BD022084F836004FEAB5002E
:1056B000032813D8DFE800F002142434E069264EF2
:1056C00021680663254E3431E0698663E069FDF7A1
:1056D00067FE2068C16841F4007130E020682FE067
:1056E000206A1D4E216806631C4E3831206A86638D
:1056F000206AFDF755FE2068C16841F480611EE014
:10570000606A154E21680663144E3C31606A8663F8
:10571000606AFDF745FE2068C16841F400610EE053
:10572000A06A0D4E216806630C4E4031A06A866364
:10573000A06AFDF735FE2068C16841F48051C16060
:1057400029460122FCF7F8FC2068016841F00101BC
:105750000160002070BD00BF53210000FF21000048
:1057600010B504464FEAB100032808D8DFE800F07E
:1057700002090E132068C26842F002020FE020689E
:105780000EE02068C26842F0040208E02068C268A7
:1057900042F0080203E02068C26842F01002C260D2
:1057A0000122FCF7C9FC2068016841F00101016099
:1057B000002010BD10B5044600680022FCF7BCFCB8
:1057C000206841F21112016A114208D1016A40F2C7
:1057D0004442114203D1016821F00101016000201F
:1057E00010BD000010B504464FEAB100032808D8E8
:1057F000DFE800F002090E132068C26822F400728C
:105800000FE020680EE02068C26822F4806208E0A1
:105810002068C26822F4006203E02068C26822F4B3
:105820008052C2600022FCF787FC206841F211120E
:10583000016A114208D1016A40F24442114203D187
:10584000016821F001010160012084F83600002088
:1058500010BD000010B504464FEAB100032808D877
:10586000DFE800F002090E132068C26822F002028D
:105870000FE020680EE02068C26822F0040208E011
:105880002068C26822F0080203E02068C26822F0A3
:105890001002C2600022FCF74FFC206841F2111296
:1058A000016A114208D1016A40F24442114203D117
:1058B000016821F001010160002010BD10B504460F
:1058C00000680169890744BFC1685FEA817139D402
:1058D0000169490744BFC1685FEA41713ED401696B
:1058E000090744BFC1685FEA017144D40169C90670
:1058F00044BFC1685FEAC16149D40169C9071CBFDF
:10590000C1685FEAC1714FD10169090644BFC1682E
:105910005FEA016150D40169490644BFC1685FEA8A
:10592000416151D40169890644BFC1685FEA816160
:1059300000D410BD6FF0200101612046BDE8104089
:1059400007F0F1BB6FF0020101610121217580694F
:10595000800741D02046FFF7DBFD43E06FF00401F4
:10596000016102212175806910F4407F3ED02046FC
:10597000FFF7CEFD40E06FF00801016104212175C1
:10598000C06980073CD02046FFF7C2FD3EE06FF0C3
:105990001001016108212175C06910F4407F39D0E0
:1059A0002046FFF7B5FD3BE06FF0010101612046A5
:1059B00000F088FC2068A7E76FF0800101612046B5
:1059C00007F0B0FB2068A6E76FF0400101612046B8
:1059D00000F0DAFC2068A5E7204600F06CF82046CD
:1059E00000F037FB00202075206871E7204600F0AA
:1059F00062F8204600F02DFB0020207520686EE73D
:105A0000204600F058F8204600F023FB00202075C7
:105A100020686BE7204600F04EF8204600F019FBA6
:105A200000202075206868E7B0B590F8343004464F
:105A30000220012B20D084F836004FEAB200012565
:105A4000032884F8345012D8DFE800F002060A0E6A
:105A50002068FCF7E1FB0AE02068FCF705FC06E0A3
:105A60002068FCF72FFC02E02068FCF75BFC0020BC
:105A700084F8340084F83650B0BD10B504460220D6
:105A800041F2111284F836002068016A114208D1EF
:105A9000016A40F24442114203D1016821F0010140
:105AA0000160204600F025F8002084F8340084F8D6
:105AB0003600002010BD704790F836007047B0B136
:105AC00010B5044690F8360028B9002084F8340058
:105AD000204600F00FF80220211D84F836002068CF
:105AE000FCF704FB012084F83600002010BD0120E3
:105AF00070477047704710B5044600680122FCF7F4
:105B00001BFB2068016841F001010160002010BD0D
:105B100070B5044690F83600022804BF022070BD1C
:105B200094F836000D46012806D112B90BB10120B8
:105B300070BD022084F836004FEAB500032816D85D
:105B4000DFE800F002172A3DE0692C4E2168066369
:105B50002B4EE069866301F134061146E069324656
:105B6000FDF71EFC2068C16841F4007139E020682F
:105B700038E0206A214E21680663214E206A866340
:105B800001F138061146206A3246FDF709FC20680B
:105B9000C16841F4806124E0606A184E21680663A0
:105BA000174E606A866301F13C061146606A324610
:105BB000FDF7F6FB2068C16841F4006111E0A06ABE
:105BC0000E4E216806630E4EA06A866301F1400600
:105BD0001146A06A3246FDF7E3FB2068C16841F434
:105BE0008051C16029460122FCF7A6FA20680168AD
:105BF00041F001010160002070BD00BFC52100001F
:105C0000FF21000010B504464FEAB100032808D870
:105C1000DFE800F002090E132068C26842F00202B9
:105C20000FE020680EE02068C26842F0040208E03D
:105C30002068C26842F0080203E02068C26842F0AF
:105C40001002C2600122FCF777FA2068016841F077
:105C500001010160002010BD10B50446006800225B
:105C6000FCF76AFA206841F21112016A114208D168
:105C7000016A40F24442114203D1016821F001015E
:105C80000160002010BD000010B504464FEAB100CD
:105C9000032808D8DFE800F002090E132068C26864
:105CA00022F400720FE020680EE02068C26822F43F
:105CB000806208E02068C26822F4006203E0206885
:105CC000C26822F48052C2600022FCF735FA2068D4
:105CD00041F21112016A114208D1016A40F24442B4
:105CE000114203D1016821F001010160012084F813
:105CF0003600002010BD000010B504464FEAB10088
:105D0000032808D8DFE800F002090E132068C268F3
:105D100022F002020FE020680EE02068C26822F044
:105D2000040208E02068C26822F0080203E020684C
:105D3000C26822F01002C2600022FCF7FDF9206860
:105D400041F21112016A114208D1016A40F2444243
:105D5000114203D1016821F001010160002010BD52
:105D6000F0B587B09A4201D101204DE00D4690F880
:105D7000341004460220012946D084F83600012060
:105D80001E46042A84F8340095E88B508DE88B0079
:105D9000CDE905CE05D042B920686946FCF73CFA4A
:105DA00003E020686946FCF75FFA042E0AD02EBB98
:105DB00005F1180320680ECBFCF730FB50206FF084
:105DC0000C0108E005F1180320680ECBFCF76BFB13
:105DD00060206FF440612268936919409161916875
:105DE00021F070019160916808439060906820F400
:105DF00070209060906840F00600906000200121C3
:105E000084F8340084F8361007B0F0BD10B50446AD
:105E1000022041F2111284F836002068016A114212
:105E200008D1016A40F24442114203D1016821F0D5
:105E300001010160204600F02DF8002084F83400B4
:105E400084F83600002010BD90F836007047F8B195
:105E5000B0B5044690F836000D4628B9002084F805
:105E60003400204600F017F80220211D84F8360087
:105E70002068FCF73BF92068016821F00801016007
:105E8000016829430160012084F836000020B0BD7C
:105E9000012070477047704710B504460068002124
:105EA0000122FCF749F9206804210122FCF744F99A
:105EB000002010BD10B5044600680122C16841F001
:105EC0000201C160C16841F00401C1600021FCF71A
:105ED00033F9206804210122FCF72EF9002010BDBF
:105EE00010B50446006800210022FCF725F920685F
:105EF00004210022FCF720F9206841F21112016A06
:105F0000114208D1016A40F24442114203D10168B2
:105F100021F001010160002010BD10B504460068A9
:105F20000022C16821F00201C160C16821F00401B2
:105F3000C1600021FCF700F9206804210022FCF771
:105F4000FBF8206841F21112016A114208D1016A7E
:105F500040F24442114203D1016821F00101016085
:105F6000002010BDB0B590F8343004460220012B5B
:105F700031D084F836004FEAB2000125032884F8B6
:105F8000345023D8DFE800F0020A10182068FCF72C
:105F900043F920684FF40021183014E02068FCF722
:105FA00063F9206818300CE02068FCF78BF9206852
:105FB0004FF400211C3006E02068FCF7B3F920689C
:105FC0001C304FF00061026811430160002084F82A
:105FD000340084F83650B0BD10B50446022041F2BA
:105FE000111284F836002068016A114208D1016A52
:105FF00040F24442114203D1016821F001010160E5
:10600000204600F024F8002084F8340084F836009C
:10601000002010BD90F836007047B0B110B50446AE
:1060200090F8360028B9002084F83400204600F0AB
:106030000FF80220211D84F836002068FCF756F87E
:10604000012084F83600002010BD01207047704701
:1060500070477047704710B5044600680122FCF78E
:106060006BF82068016841F001010160002010BD5B
:1060700070B5044690F83600022804BF022070BDB7
:1060800094F836000D46012806D112B90BB1012053
:1060900070BD022084F836004FEAB500032816D8F8
:1060A000DFE800F002172A3DE0692C4E2168066304
:1060B0002B4EE069866301F134061146E0693246F1
:1060C000FDF76EF92068C16841F4007139E020687D
:1060D00038E0206A214E21680663214E206A8663DB
:1060E00001F138061146206A3246FDF759F9206859
:1060F000C16841F4806124E0606A184E216806633B
:10610000174E606A866301F13C061146606A3246AA
:10611000FDF746F92068C16841F4006111E0A06A0A
:106120000E4E216806630E4EA06A866301F140069A
:106130001146A06A3246FDF733F92068C16841F480
:106140008051C16029460122FBF7F6FF20680168F3
:1061500041F001010160002070BD00BFC5210000B9
:10616000FF21000010B504464FEAB100032808D80B
:10617000DFE800F002090E132068C26842F0020254
:106180000FE020680EE02068C26842F0040208E0D8
:106190002068C26842F0080203E02068C26842F04A
:1061A0001002C2600122FBF7C7FF2068016841F0BE
:1061B00001010160002010BD10B5044600680022F6
:1061C000FBF7BAFF206841F21112016A114208D1AF
:1061D000016A40F24442114203D1016821F00101F9
:1061E0000160012084F83600002010BD10B504467F
:1061F0004FEAB100032808D8DFE800F002090E13C7
:106200002068C26822F400720FE020680EE0206867
:10621000C26822F4806208E02068C26822F400624A
:1062200003E02068C26822F48052C2600022FBF7BB
:1062300083FF206841F21112016A114208D1016AFC
:1062400040F24442114203D1016821F00101016092
