:020000041C00DE
:10C000002DE9F05F0546002092469B46884606468D
:10C01000814640241BE0284641464746224600F020
:10C02000E8FA53465A46C01A914110D311461846B1
:10C03000224600F0CFFA2D1A67EB01084F46224640
:10C040000120002100F0C6FA17EB00094E41201E26
:10C05000A4F10104DFDC484631462A464346BDE8E8
:10C06000F09F00000649074A0868504343F239022E
:10C07000104408604008704701490860704700009C
:10C08000004041206D4EC641D2B201E000F8012BC4
:10C09000491EFBD270470022F6E710B513460A4648
:10C0A00004461946FFF7F0FF204610BD10B50446C0
:10C0B00004E00B7800F8013B03B1491C521EF8D292
:10C0C000204610BD421C10F8011B0029FBD1801A2C
:10C0D000704730B504460020034600E05B1C9342E5
:10C0E00003D2E05CCD5C401BF8D030BD034611F8B4
:10C0F000012B00F8012B002AF9D11846704730B502
:10C1000005460020034600E05B1C934205D2EC5C30
:10C11000C85C201A01D1002CF6D130BD0022CBB270
:10C120000178994200D10246401C0029F8D11046FE
:10C1300070472DE9FE4F804681EA0300C00F0C4690
:10C14000009021F0004123F00045B8EB0200A94126
:10C1500005D24046214690461C460B46024623F037
:10C160000040104347D0270DC7F30A00C3F30A511C
:10C170000290401A019040286BDAC3F3130040F498
:10C18000801B0098924620B10023D2EB030A63EB98
:10C190000B0B01985946C0F14002504600F01AFAC4
:10C1A00006460D4650465946019A00F032FA10EB09
:10C1B00008006141002487EA115284EAE7731A43B8
:10C1C00040D0009A62B3019A012A4FEA075215DC67
:10C1D000001B61EB02014FF0004202EA0752CDE979
:10C1E0000042001C41F5801132462B4600F069FAEE
:10C1F00003B0BDE8F08F40462146F9E7001B61EB34
:10C200000201001C41F5801300185B412018A2F5C3
:10C21000001747EB030140EAD570B6196D4111E0F4
:10C220006D084FEA360645EAC0754FEA0752001B13
:10C2300061EB0201001C41F5801149084FEA300012
:10C240000019514132462B4603B0BDE8F04F00F0D3
:10C2500029BA0098012240000023D0EB020263EBD0
:10C26000E073009821464FEAE074B8EB000061EB00
:10C270000401E9E783F000435BE781F0004158E700
:10C280002DE9FE4F81EA030404F0004421F000414F
:10C2900000944FF0000B23F0004350EA01045ED0FD
:10C2A00052EA03045BD0C3F30A54C1F30A552C4489
:10C2B000A4F2F3340194A0FB0254C1F3130141F43E
:10C2C0008011C3F3130343F4801301FB024400FB0A
:10C2D000034E840A970A44EA815447EA8357A4FB31
:10C2E000076802958D0A05FB07854FEA932C04FB2E
:10C2F0000C542705029D4FEA065847EA1637B5EB5E
:10C3000008056EEB070C870E920E47EA811742EA8A
:10C310008312A7FB0201B6EB0B0164EB00042B0DAB
:10C3200043EA0C335E1844EB1C50DA465146E7FBF7
:10C330000201C5F313044FEA0B3343EA14534FEAE7
:10C340000432019C43EA0603A4F10C040294009C0D
:10C35000CDE900B400F0B5F903B0BDE8F08F0020DE
:10C360000146F9E72DE9F04D81EA030404F0004BA2
:10C3700021F0004514464FF0000A23F0004150EA36
:10C38000050220D054EA01021DD0C5F30A57024627
:10C39000C5F31303C1F31300C1F30A5640F480152B
:10C3A00043F48013A7EB0608101BD64608F2FD38AD
:10C3B00073EB050002D308F1010801E092185B411C
:10C3C000B8F1000F03DA00200146BDE8F08D00202F
:10C3D0004FF48011064684460EE0171B73EB0507E9
:10C3E00005D3121B63EB050306434CEA010C490815
:10C3F0004FEA300092185B4150EA0107EDD152EA52
:10C40000030012D082EA040083EA0501084305D044
:10C41000101BAB4106D20122002306E000224FF0A0
:10C42000004302E06FF0010253101AEB06004CEBE0
:10C43000085110EB0A0041EB0B01BDE8F04D00F094
:10C4400031B930B5041E71F1000404DB4FF0004433
:10C45000404264EB0101141E73F1000405DB1C462D
:10C460004FF00043524263EB0403801A994101D319
:10C47000012030BD002030BD30B5041E71F1000434
:10C4800004DB4FF00044404264EB0101141E73F1E1
:10C49000000405DB1C464FF00043524263EB0403EB
:10C4A000101A8B4101D2012030BD002030BD30B5C3
:10C4B000041E71F1000404DB4FF00044404264EBC1
:10C4C0000101141E73F1000405DB1C464FF000430C
:10C4D000524263EB0403101A8B4101D3012030BD9B
:10C4E000002030BD30B5041E71F1000404DB4FF0B4
:10C4F0000044404264EB0101141E73F1000405DBAB
:10C500001C464FF00043524263EB040342404B4051
:10C510001A4301D0002030BD012030BD30B40446A4
:10C5200096230800214604D0B62330BC002200F038
:10C530008BB820460021F8E770B5C1F30A5201F02C
:10C5400000450024C1F3130140F2FF3341F4801190
:10C550009A4201DA002070BD40F233439A42A2F2BF
:10C56000334203DC524200F044F800E090402C4398
:10C57000F1D0404270BD00F0004230F000400AD0DF
:10C58000C10D01F56071C0F3160042EA0151C20805
:10C5900040071143704700200146704701F00043F7
:10C5A00030B421F0004150EA010206D00A0DA2F594
:10C5B0006072C1F31301002A02DC30BC0020704716
:10C5C000440F44EAC104C100E01830BC00EBC25083
:10C5D00000F031B8202A04DB203A00FA02F10020F2
:10C5E00070479140C2F1200320FA03F319439040B1
:10C5F0007047202A04DB203A21FA02F0002170471C
:10C6000021FA02F3D040C2F12002914008431946BA
:10C610007047202A06DBCB17203A41FA02F043EAA2
:10C62000E07306E041FA02F3D040C2F120029140EB
:10C630000843194670470029A8BF7047401C4900AD
:10C6400008BF20F00100704710B4B0FA80FC00FA77
:10C650000CF050EA010404BF10BC704749B1CCF1A2
:10C66000200421FA04F411FA0CF118BF012121432E
:10C670000843A3EB0C01CB1D4FEA00614FEA1020E9
:10C6800042BF002010BC704700EBC350104400298B
:10C69000A4BF10BC7047401C490008BF20F0010037
:10C6A00010BC704710B5141E73F1000408DA401C6A
:10C6B00041F1000192185B411A4301D120F00100C1
:10C6C00010BD2DE9F04D92469B4611B1B1FA81F2B1
:10C6D00002E0B0FA80F220329046FFF77BFF04467A
:10C6E0000F4640EA0A0041EA0B0153465A46084306
:10C6F00013D0114653EA010019D0C8F14002504648
:10C70000FFF777FF05460E46504659464246FFF76B
:10C7100061FF084305D0012004E020463946BDE80A
:10C72000F08D0020054346EAE0762C4337430A9813
:10C730006305E40AA0EB08000022FD0A44EA47541E
:10C740000A3002D500200146E9E7010510196941C8
:10C75000DDE9084500196941BDE8F04DA2E72DE982
:10C76000F04D00231A461B1A8A4103DB00200146C4
:10C77000BDE8F08DC1F30A52C1F3130141F48015F5
:10C780004FF0000BD10702D100186D41521E002757
:10C79000044640F2FF11384601EB620A3E468046ED
:10C7A000024600204FF48011FFF723FFC2197141A8
:10C7B000BB1846EB0100B4EB030C75EB000C04D383
:10C7C000E41A65EB000517460E46241908F101002E
:10C7D0006D4180463428E3DDF91946EB0600091B5C
:10C7E000A84103D24FF0FF32134601E00022134666
:10C7F0001BEB070046EB0A51BDE8F04DFFF752BFB7
:10C8000070B58C1810F8015B15F0070301D110F812
:10C81000013B2A1106D110F8012B03E010F8016B3F
:10C8200001F8016B5B1EF9D12B0705D40023521EC2
:10C830000DD401F8013BFAE710F8013BCB1A921C2A
:10C8400003E013F8015B01F8015B521EF9D5A14228
:10C85000D8D3002070BD80B55BF0E5FC5AF077F8C6
:10C86000002080BD70B5002208230024002B0FD4C7
:10C8700050F8235051F82360641942F10005A419BF
:10C8800040F8234045F10004013B04F00104EDE7CA
:10C89000BDE870405AF0EAB9F8B514460022082302
:10C8A0000025002B0FD450F8236051F82370AD19E8
:10C8B00042F10006ED1944F8235046F10005013B12
:10C8C00005F00105EDE720465AF0D0F90020A062FE
:10C8D000F8BD000010B51446FFF7DEFFA06A20B1D6
:10C8E0002046BDE8104000F00DB84149204619F03F
:10C8F00005F828B13E492046BDE8104002F002BDCF
:10C9000010BD00BFB0B58CB0044601AD384821461B
:10C910002A4602F08FFC2046294624225BF088FC40
:10C920000A990020C4E909100CB0B0BDF0B58BB075
:10C930000446806A00B32E4D2046294618F0C6FFF3
:10C9400080B308200021002200283AD455F8206046
:10C9500054F82030B718921941F100069A1AA3EB47
:10C96000070771EB060244F82070A0F101004FF0B8
:10C97000000238BF0122E7E71D4A002008210023FA
:10C9800000291ED454F8215052F821605B1940F15F
:10C9900000059B1944F8213045F10003013903F0EB
:10C9A0000103EDE76D46124821462A4602F042FC9B
:10C9B0002046294624225BF03BFC09990020C4E96B
:10C9C00009100020002109290BD054F821205FEA2A
:10C9D00050004FEA320044F8210002F0010001311A
:10C9E000F1E720460BB0BDE8F0405AF03FB900BF78
:10C9F000DC95061C10B554F091FB0B4C07A0A0472A
:10CA00000AA0A0470DA0A0470DA00EA140F25D1204
:10CA100052F07EFCBDE8104054F098BB5B452F44BB
:10CA200042475D2000000000F911061C437261734B
:10CA30006820747269676765726564000A000000A7
:10CA4000300000004442475F547269676765725F57
:10CA500049525148616E646C6572000080B554F0B3
:10CA60005DFB04487C3000F013FCBDE8804054F0CE
:10CA70006DBB00BF48684120B0B5436C144CA34265
:10CA80001CD18468134BB4F5804F18BF102C08D10B
:10CA90000C6804F160459D4238BF04F120640C60CD
:10CAA000846844F48040B0F5804F07D1106800F1ED
:10CAB00060449C4238BF00F120601060086800F1BB
:10CAC0007042920E022A9CBF00F1A0400860B0BDE7
:10CAD00000100050FF7F0C00FEB505461C460068A4
:10CAE0000127D5E9113606F01C0607FA06F65E6046
:10CAF0004460CDE9012102A901AA2846FFF7BCFF45
:10CB0000A96810290BD12868019981600299C16038
:10CB1000081948400021B1EB105F1AD113E02B68CF
:10CB2000029A9A600198D86071B1B1F5804F0AD12C
:10CB3000111951400022B2EB115F0AD102190549C7
:10CB40005040884205D8FEBD01194840B0F5801F0D
:10CB5000F9D3FEE7FFFF0F00F0B597B007AC01ADCA
:10CB600007AE0FC41D98314613ACADF818001C98E1
:10CB70002246059021980490209803901F980290D7
:10CB80001E980190284601F0FEFE284621462246C6
:10CB900002F01BFA0FAD05A8294601F0FBFF204665
:10CBA00029462A4601F0E4FE0BAF3046394602F032
:10CBB00047F928463946224601F012FFDDE92220D6
:10CBC0000021042903D0635C53540131F9E7211D8E
:10CBD00000220C2A04BF17B0F0BD8B5C83540132D5
:10CBE000F7E7B0B58EB002AC0FC4139900220AABC0
:10CBF000149CADF804101299009102A901310F2A7A
:10CC000003D09854885C0132F9E780F0060006AD45
:10CC10008DF837006846294601F0BCFF0AA928466E
:10CC2000224601F0DDFE0EB0B0BDF0B593B007AC0A
:10CC30000FC4199901ABDDE91E42ADF8181018991F
:10CC4000254605911D9904911C9903911B99029108
:10CC50001A9901910FA90E462DB113F8017B013DE0
:10CC600006F8017BF8E70D19002605AFA319052E7C
:10CC700098BF102B03D2BB5DAB550136F6E70024FD
:10CC80001D46102D08D20E5D4E551E1B0135013E6E
:10CC900018BF661C3446F4E707A900240BAD013128
:10CCA0000F2C03D02855085D0134F9E758400FA92F
:10CCB0008DF83B000BA801F093FE13B0F0BD70B5EA
:10CCC00098B008AC14AD0FC41E9808A92A4601AC50
:10CCD00007901D9806901C98059022980490219822
:10CCE0000390209802901F980190204601F04BFE7F
:10CCF000204629462A4602F068F9239C002005A90F
:10CD000010AA0023102B08D00D5CD554451C01330C
:10CD1000B5F10C0018BF2846F4E710AD14A8294659
:10CD20002A4601F025FE0CAE08A8314602F088F82C
:10CD300028463146224601F053FE18B070BD00006F
:10CD40002DE9F04FAFB00E4607464FF404700221B4
:10CD5000154619F0B1FF834628468421FFF79BF959
:10CD600058464FF40471FFF796F9384601F022FA5D
:10CD70000446304601F01EFA14B120B1ED4803E03C
:10CD800068B1384600E03046294600F0F1F8002549
:10CD9000584619F095FD28462FB0BDE8F08F304673
:10CDA000394606F12C0807F12C0451F053FD0028F8
:10CDB00000F0C1800BF184000BF12C0107F1580A3F
:10CDC000DA4B5A460D940BF1580906F158040C90B1
:10CDD00040468846514698470D98CDF834804246E3
:10CDE000DFF848832146C047304651464A46CDF8D1
:10CDF0001CA04646C047089421460C9C3846224653
:10CE0000C04748462146CA46A04651F023FD0028A7
:10CE100000F0A1800BF5F270C34E0D990BF59A74DA
:10CE20000BF1B0020BF1DC070A900BF5DC700B94F0
:10CE3000099203900BF5C67002900BF5B07001904B
:10CE40000BF58470049005F15800069005F12C0054
:10CE500005905846B047504641463A46B047DDE94E
:10CE60000701DFF8C8922246C84724A82C21CA46E9
:10CE7000FFF711F919A82C21FFF70DF90EA82C21A5
:10CE8000FFF709F9019E38463946B9463246D04780
:10CE90003946029F30463A46D0470998039C0146DE
:10CEA0002246D04730460A9E41463246D0470DF1D1
:10CEB000380830460221424602F0ADF8204624AC44
:10CEC0000B9956462246D047204619ACDFF858A2A7
:10CED00039462246D0472046049C41462246D04748
:10CEE000484621462A46B0470DF190082C21B1460C
:10CEF0004046FFF7D0F819AD2C212846FFF7CBF8B4
:10CF00000EAE2C213046FFF7C6F80A98214642465D
:10CF1000D047099841462A46C8470D9938463246B7
:10CF2000C847059A28463146D0470B99069A384695
:10CF3000C84701252CE74046214651F08BFC0028CC
:10CF40007FF41CAF306D01283FF634AFF06C002841
:10CF50007FF430AF12E70D99584651F07BFC002862
:10CF60007FF40CAF3846294600F026F80FE700BFE3
:10CF7000B0B505460C460846242229465BF058F910
:10CF8000D5E909012422C4E9090104F12C0005F1C5
:10CF90002C015BF04DF9D5E914012422C4E91401F8
:10CFA00004F1580005F158015BF042F9D5E91F0181
:10CFB000C4E91F01B0BD00002DE9F04FA7B00E4637
:10CFC00005464FF4F270022119F076FE0446286DF2
:10CFD000012801D8E86C18B1284601F0EBF820B11F
:10CFE00054483146FFF7C4FF97E004F1B00005F163
:10CFF000580805961CAE05F12C0B039004F1840033
:10D0000041463246029004F15800049004F12C008D
:10D0100001902846FFF75EFC0DF1440A424B28467A
:10D020004146524698470DF11809404F3046514647
:10D030004A46B8473E463E4F484603212246B84737
:10D040004146DDF804805846B9464246B0471CAF19
:10D05000584641463A46B0472846049D39462A4636
:10D06000B0470DF1700A204621465246B04711AF35
:10D07000284608213A46C8475046DDF808A02A4B02
:10D080003946524698471CAD5046414637462A46D7
:10D09000B047059A28460221C84704F1DC055846E6
:10D0A00059462A46B04740464146C346DDF80C8003
:10D0B0004246B04704F58476284641463246B84792
:10D0C000B94604F59A751A4F304608212A46B847E2
:10D0D00004F5B076049804213246B84704F5C677C3
:10D0E0005146DFF844A030463A46D04704F5DC7696
:10D0F000204639463246C847059F3046294607F143
:10D100002C02D0471CAD404659462A46C847084B1A
:10D1100007F15802284608219847204619F0D0FB0D
:10D12000002027B0BDE8F08F79F2001C4DF0001C04
:10D1300017F0001C8098061CF0B58BB0184F054600
:10D1400014460E46F87DFF2809D005F02FF9F97D29
:10D150001022C90002FA01F1084305F035F905F182
:10D160005800694603F0F6FCF87DFF2809D005F069
:10D170001DF9F97D1022C90002FA01F1884305F07A
:10D1800023F96F4628463246394601F05FFF05F124
:10D190002C003946224601F059FF0BB0F0BD00BF0C
:10D1A000A04341207047B0B590F8291002291CD146
:10D1B0000168C26BD0E911340D6825F00E050D60D1
:10D1C0000D6825F001050D6004F01C014FF001040D
:10D1D00004FA01F159604FF0000180F8281080F83E
:10D1E00029402AB19047002102E004210164012175
:10D1F0000846B0BD68B1B0B50268116821F0010100
:10D2000011609649114401F180538C2B03D8944B43
:10D2100006E0012139E08D290CD2914901F18053BA
:10D22000A2F1080114244364C9B2B1FBF4F18C00EB
:10D23000846401E0D0E9113400210125102C116033
:10D2400004F01C0205FA02F24FF018055A604FF084
:10D25000380205EA440538BF02EA44054FF03F02B0
:10D260004FF0AC0402FA05F238BFA8241D5925EA94
:10D2700002021A51016480F82810C0E90C11C0E9BB
:10D280000E1180F82910BDE8B0400846704700BF75
:10D29000F0B5D0E9111302680C68156803F01C039F
:10D2A0006E070ED504269E4016EA040709D01368BF
:10D2B0009B0603D4136823F0040313604E60416B94
:10D2C0002BE0AE0714D502269E4016EA04070FD0C5
:10D2D00013689B0606D4136823F00A031360012227
:10D2E00080F82920002280F828204E60016B14E08D
:10D2F0002D0716D508259D402C4012D0146824F027
:10D300000E041460012202FA03F34B600021026450
:10D3100080F8281080F82920816B11B1BDE8F04019
:10D320000847F0BD2DE9F04F68B1816821B110299F
:10D3300018BFB1F5804F05D1C2686FF040031A42A3
:10D3400005D0FEE7FEE701210846BDE8F08F03693E
:10D350006FF08004234200D0FEE745692DB1B5F59A
:10D36000807F18BFB5F5007F0DD186692EB1B6F567
:10D37000806F18BFB6F5006F06D1C7696FF0200443
:10D38000274202D0FEE7FEE7FEE7D0F820904FEA02
:10D390003934042C05D2D0F804C0BCF1400F01D3BD
:10D3A000FEE7FEE7D0F800E02C4C0EEB04082C4C16
:10D3B00008F1805BA246BBF18D0F05D3B8F18C0F4D
:10D3C0000CD854460AF1805AAEF108045FFA84F88A
:10D3D0001424B8FBF4F4A400C0E911A402240A4305
:10D3E000B1F5804F80F8294042EA0302446A42EADC
:10D3F000050242EA0602CEF8104042EA070247F66A
:10D40000F074DEF8008042EA090228EA040442EAE5
:10D410000402CEF8002019D0816CC1F38202032AE5
:10D4200003D8D100426CA83205E08908182202EA2C
:10D43000C101426CAC323F2314688B400CFA01F1FD
:10D4400024EA0303136013681943116000210122C9
:10D45000016480F8281080F8292075E7F8EFFFAF05
:10D46000001000402DE9F843044690F829000228F6
:10D470002DD12068006880062ED40420002988461B
:10D48000164608BF0220A16C01F01C0100FA01F54C
:10D490005AF0D3FE8146771C616C0868284221D17E
:10D4A0000868A26C02F01C02D040000725D4002FAF
:10D4B000F2D05AF0C2FE1EB1A0EB0900B042EBD987
:10D4C00020202064002084F8280001201DE0002096
:10D4D00084F82800042001E04FF4807020640120CB
:10D4E000BDE8F883A06CB8F1000F00F01C0010D06C
:10D4F000042202FA00F0486012E0012000FA02F271
:10D500004A600021206484F8281084F82900BDE8CE
:10D51000F883022202FA00F04860012084F8290012
:10D52000002084F82800BDE8F88370B50446581E32
:10D530004FF6FF75A84200D3FEE794F828000128B3
:10D540001CD0012084F8280094F82900012812D169
:10D550000220002584F8290025642068066826F04A
:10D56000010606602046FFF7B7FA2068016841F01F
:10D570000101016003E0002084F82800022528460C
:10D5800070BDB0B50446581E4FF6FF75A84200D3D3
:10D59000FEE794F8280001281DD0012084F8280017
:10D5A00094F82900012813D1022084F829000020D2
:10D5B00020642068056825F0010505602046FFF716
:10D5C0008BFA2068626B01683AB141F00E010AE003
:10D5D000002084F828000220B0BD21F00401016081
:10D5E000016841F00A010160016841F00101016038
:10D5F0000020B0BD18B500900C484FF47A73016854
:10D60000009A4A43B2FBF3F2009200224368446856
:10D61000A342FCD01A44A342A2EB040298BF0A44DE
:10D62000009B9A42234628BF18BDF0E714E000E0B3
:10D63000014951F82000704730B004500248016899
:10D6400001310160704700BFBC6941200020704774
:10D6500080B52DED028B10480068C00714D104205E
:10D66000FFF7E6FF98B100EE100A9FED0E1AB8EE34
:10D67000400A81EE008A00F0A0F900EE100AB8EE30
:10D68000400A28EE000A04E09FED040A01E09FED45
:10D69000040ABDEC028B80BD00A0045000000047CE
:10D6A00000901746001B374C70B5044600680026F2
:10D6B000056985604DB1E80704D0A26812B1F1B2E6
:10D6C0002046904701366D08F4E770BD5AF0BABDA8
:10D6D000B0F1FF3F10DD00F01F010122C0B202FADD
:10D6E00001F1064A42EAD00020F003000160BFF3D6
:10D6F0004F8FBFF36F8F7047FEE700BF80E100E000
:10D70000B0F1FF3F0CDD00F01F010122C0B202FAB0
:10D7100001F1044A42EAD00020F0030001607047A2
:10D72000FEE700BF00E100E0102A00D3FEE7102969
:10D7300000D3FEE770B5154B4FF0FF351B68C3F300
:10D7400002231C1F83F0070338BF0024032B28BFCC
:10D75000032305FA04F605FA03F3B2439943A14003
:10D760001143BDE8704002F02DB800BFC11E05296D
:10D770000AD206494FF6FF030A681A4060F30A22EC
:10D780000348104308607047FEE700BF0CED00E05F
:10D790000000FA050B480C490068884218BF704722
:10D7A0000048004701000E1C0649074A08689042DD
:10D7B0001CBF0020704701F1080049680022C90819
:10D7C00000F004B800744120484354502DE9F04360
:10D7D0002A4B002516464FF0010C4FF00008002A96
:10D7E000C3F880509E46164B18BF01269946A942A1
:10D7F0001BD00CFA05F707EA0204B4FA84F46409B2
:10D80000344210D150F835404B4648EA0708734679
:10D8100004EA09044EF8254000EBC504CEF88470F4
:10D820006468CEF888400135E1E70020002ACEF890
:10D830008400404608BF4246CEF88020BDE8F08311
:10D84000FCFF070070B5034600200C4C0DE0D4F837
:10D850008050C540ED070CD054F8205003EBC006B3
:10D8600043F8305001302D6875601F2898BF8842FA
:10D87000EDD3D4F88010116070BD00BF004000509F
:10D88000052884BF01207047082101FA00F01A49D9
:10D890000A6822EA00000860002070471648016804
:10D8A00021F0010101600020704700BF0246012005
:10D8B000052A98BF042900D9704710B50820CA4B23
:10D8C0007024904002EB4202D860944004329140B0
:10D8D0001A682140A24311431960596808435860EF
:10D8E0000020BDE8104070470348016841F0010185
:10D8F00001600020704700BF04A004500B4848227C
:10D90000016862F317410A4A0160416821F0007121
:10D910004160416841F0F0414160816862F3170164
:10D920008160016921F470710161704720A0045089
:10D93000030A0A0010B5027D012303FA02F291B135
:10D94000D0E900134C68144342EA024244F48034A4
:10D950004C608C6822438A60C17C827D42EA01412E
:10D960001960022107E042EA02410268936823EA53
:10D970000101916001210176002010BD017D006848
:10D98000012202FA01F1426811434160704710B56B
:10D9900018B1017D082901D3FEE7FEE70268D0E94E
:10D9A000023402EB011101224B61027601F11002F7
:10D9B000426000208C6110BD7047C8207047000095
:10D9C00005480078704700BF18B10349087000206F
:10D9D00070474FF0FF307047EA4041206FF0010080
:10D9E00070470320FFF724BE2DE9F04F87B07E4833
:10D9F0000068C00705D17D4FB87828B16FF00206E6
:10DA0000EEE04FF0FF36EBE00120CDE9051278495A
:10DA1000B870EFF3108280F310880B6843F00403B2
:10DA20000B60387082F310880A68002A03D40A68F1
:10DA3000B2F1FF3FFBDC6F490A6860F301020A6044
:10DA40004868C0F30239C0F3022100F03F000390A0
:10DA5000B9F1070F049106D04FF0FF304FF0FF31BE
:10DA600007225AF0F4FB4FF00008634E4FF6FF7A9E
:10DA700041F2883B00250024B8F10A0F36D0306807
:10DA800020F48030306030683060306820EA0A006E
:10DA90003060306840F0C8003060306840F40030DA
:10DAA000306001205AF0D8FB7068B0F1FF3FFBDC1A
:10DAB000706820F00044F86850B10420FFF7B8FD0A
:10DAC000051B38BF251A5D4502D308F10108D3E7CD
:10DAD0004A4821462A46FFF765FBB8F10A0F0AD0EB
:10DAE0000320214600F096F901250CE04348214629
:10DAF0002A46FFF757FB7878002501307870C0B2CE
:10DB0000042808BFFD60B9F1070F04D0DDE9030167
:10DB10004A465AF09CFB002038706DB10120C821A4
:10DB2000FA22C823009036A0FFF73CFB059838B1D5
:10DB300000200226F86005E0B8706FF001064FE0A3
:10DB4000F868002606990025224688423CBF01302D
:10DB5000F86002284FF0000028D3786904D12044EF
:10DB600001304208012021E0211A05D9FB2924BFF8
:10DB70003969B1EB00010FD8011B06D9C92904D3BB
:10DB80003969411A88BFC82908D8C0EBC0002044B1
:10DB90000430C208022009E0FA29EDD900EB400068
:10DBA0000D2104FB010008300209032000903B69AD
:10DBB0001E4821467A61FFF7F5FA796904203C6135
:10DBC00000F028F90320FFF733FD04460420FFF797
:10DBD0002FFDFB68024616A02146FFF7E3FABD7051
:10DBE000304607B0BDE8F08F00A00450A8424120A5
:10DBF0000C000450100000501401095023CF061CE3
:10DC00004C50206379636C65732025642C20746804
:10DC100064302025642C20746864312025642C2015
:10DC20007363616C6520256400000000DFCE061C74
:10DC30004C504379636C65733A2025642C206176DF
:10DC4000653D25642C20636F756E743D25642074DA
:10DC50006D703D25640D0A002DE9FC4705464948D5
:10DC60000068C0071CBF4FF0FF30BDE8FC870020F4
:10DC70000C465AF0F6FA01281CBF6FF00100BDE80F
:10DC8000FC8741480068C00644BF6FF00300BDE850
:10DC9000FC87DFF8F8A09AF8020018B16FF00200D4
:10DCA000BDE8FC8701208AF8020039480068C0F30B
:10DCB0000236C0F3022800F03F09072E06D04FF0CD
:10DCC000FF304FF0FF3107225AF0C1FA314F4FF6C3
:10DCD000FF71386820F48030386038683860386800
:10DCE00088433860386828433860386840F400302A
:10DCF000386001205AF0B0FA7868B0F1FF3FFBDCE1
:10DD00007868072E20F0004504D048464146324648
:10DD10005AF09DFADAF808302A4603B3DAF804001C
:10DD2000191AFB2904D3834288BFB5EB00010AD836
:10DD3000411B04D9C92928BFB0EB030106D8C0EBA9
:10DD40000010284409E0FA2902D8F1E7C829F6D9D9
:10DD500000EB40000D2105FB010008300209501BBB
:10DD60002946CAF8042000900BA0FFF71BFADAF846
:10DD70000400CAF80850206000208AF80200BDE8BC
:10DD8000FC8700BF00A004503C000450A842412082
:10DD900014000050140109504C504379636C6573B2
:10DDA000206375723D2564202C20617665202564F2
:10DDB0002C206375725F6261636B75703D25642012
:10DDC00064656C74612025640A0000006FF0040132
:10DDD000084200D0FEE70D4904280A6822F0040337
:10DDE00008BF42F004030B60704700BF411E0020D3
:10DDF000B0EB116F1CBF01207047044AE023516053
:10DE000003490B70072190601160704710E000E03B
:10DE100023ED00E0014A42F82010704730B0045072
:10DE20007047000010B501680446086820F490703F
:10DE30000860886820F0010088608868400605D482
:10DE400000200F22A4F85A000A6217E0886820F028
:10DE500040008860E06E40B10D49C163FFF7A3F94F
:10DE600098B1E06EC16B88470FE000200F22A4F844
:10DE70005A000A628A6942F008028A6160652020BD
:10DE800084F872002046FFF7CBFF002010BD00BFD2
:10DE9000A5F5001C7047000010B504460068016835
:10DEA00021F0C0010160816809060ED5816821F06A
:10DEB00080018160A06E40B10A49C163FFF773F928
:10DEC00068B1A06EC16B884709E00020A4F8520039
:10DED0006066202084F871002046FFF7DBFF0020F9
:10DEE00010BD00BFF3F5001C2DE9F0410546682088
:10DEF000002B1646B3FA83F288461F464FF0800186
:10DF000008BF6C202C585209002013035201C4E9A9
:10DF10000270C4E9041004F118010DC12046FFF796
:10DF200069F900B1FEE72046FFF7FCF900B1FEE712
:10DF3000B2B2284641461FB100F0F0F820B1FEE72A
:10DF400000F076F800B1FEE70020BDE8F0810000A7
:10DF500000B17047024803A140F2F62251F0D8B94F
:10DF60005DD7061C48414C5F554152545F45727263
:10DF70006F7243616C6C6261636B000000284FD06C
:10DF8000B0B5044690F8710028B9002084F87000FC
:10DF9000204600F04BF8242084F8710020680168C6
:10DFA00021F001010160204601F03CFB606A10B1E4
:10DFB000204601F02DFAD4E900011A4D426822F4FE
:10DFC0009042A9424260826822F02A02826002687E
:10DFD00042F001020260026822F4804388BF42F4EA
:10DFE00080434FF00602036088BF0222C36AA94241
:10DFF00023F00D0342EA0302C2620B4A84BF4DF6CE
:10E000000002C0F2B852B2FBF1F1C1600020202141
:10E01000606784F8711084F8700084F87210B0BDE5
:10E0200001207047C0C62D00006CDC027047000064
:10E03000F8B5054690F87200202807D113460A4625
:10E0400031B12BB195F87000012803D1022429E0E9
:10E05000012427E000240120144EDFF830C1124FC4
:10E060006C6785F870002220A5F858306A6585F83D
:10E0700072002968E86E00F1300E24318EE8C0107D
:10E08000C463FFF77EFA2868016841F4807101607B
:10E09000816841F00101816085F87040816841F03C
:10E0A000400181602046F8BD9FF5001C6BF5001C07
:10E0B000AFF3008070B5044628B9104810A14FF4A2
:10E0C000EB7251F025F95AF0D1F8E16FD4F86821DC
:10E0D000D4F8C8504968C2F38F22561AC4F8C860F1
:10E0E0005AF0C9F8711B08BF70BD090204F59070A1
:10E0F0000331BDE8704052F01DBC00BF5DD7061C67
:10E1000048414C5F554152545F527848616C6643B8
:10E11000706C7443616C6C6261636B00F8B50546AA
:10E1200090F87100202806D139B113462AB195F82C
:10E130007000012803D1022425E0012423E00024FB
:10E14000A5F852300120134EDFF840C0104F6C6725
:10E1500085F87000A5F85030E964A86E2A6800F1CF
:10E16000300E28328EE8C0102126C46385F8716015
:10E17000FFF707FA28684021016285F8704081683E
:10E1800041F0800181602046F8BD00BF15F5001CFC
:10E19000EDF5001CC5F5001C7047704780B552F0C6
:10E1A000BDFF0348FFF780FABDE8804052F0CEBFC4
:10E1B00078414120B0B50C4D0446294650F04AFB49
:10E1C00030B904F12C0005F12C0150F043FB08B1EB
:10E1D0000020B0BD04F1580005F1580150F03AFBA1
:10E1E000B0FA80F04009B0BD8098061C2DE9F04FD0
:10E1F000BFB033AC0FC4DDE94868102E0BD233AD8D
:10E20000284600F056FE0020102810D0295C08F89F
:10E2100000100130F8E7002033A9102804BF3FB0F8
:10E22000BDE8F08F0A5C08F800200130F5E7DFF860
:10E230002807711E37AB229100EB01100021102935
:10E2400003D0425C5A540131F9E79DF8EB009DF888
:10E25000EA509DF8E9309DF8E5209DF8E3C09DF86F
:10E26000E0409DF8DCE09DF8DD109DF8DEB09DF803
:10E27000DFA04FF0FF3732909DF8E80028909DF81E
:10E28000E7002F909DF8E60027909DF8E4002E907F
:10E290009DF8E20026909DF8E100309031914FFA10
:10E2A0008EF1B1F1FF3F68DD1846329B6E00D9B2A6
:10E2B0005B0046EAD11146002D91E9B2650046EABD
:10E2C000D1112C91C1B22898460046EAD1112B9168
:10E2D000C1B22F98460046EAD1112A91C1B22798BF
:10E2E000460046EAD11156002991C1B246EAD11042
:10E2F000D1B225902E98460046EAD1112491C1B2A0
:10E3000038464FEA4C0747EAD11123915FFA8CF166
:10E31000269A570047EAD116D1B2309A570047EAF9
:10E32000D119D1B22246074645EAD114D0B24FEAFC
:10E330004A0152465D46013F41EAD01AD0B2319AB5
:10E340004FEA4B01329341EAD01BE8B22BAD5100AA
:10E3500041EAD011D0B2C00940EA4E0E29CD289032
:10E360002A982F9029982790DDE924022E90DDF835
:10E370008CC02696CDE9309191E732982B952A935F
:10E3800029468DF8EA5055468DF8E930A1468DF8BA
:10E39000E0408DF8DCE08DF8E5208DF8E3C05946CB
:10E3A000289E279BDDF898A0AB468DF8DF508DF8AE
:10E3B000EB002F980C468DF8DE108DF8E8608DF894
:10E3C000E6308DF8E2A08DF8E7002E988DF8E40095
:10E3D0003098CDF8A4E031992F9D8DF8E1008DF8AB
:10E3E000DD1000212D9180212C91DDF8B8E02B98D3
:10E3F000002F00F0E78028972D992C9F2B9018F87C
:10E4000001100F4267D02F95CDF8B8E098F80010B2
:10E4100010461A46334698F8016098F803E098F8D9
:10E420000250299F794088F80010319971401E46AA
:10E43000134602468EEA0B00DDF8B8E088F80300C8
:10E4400098F8040088F8011085EA04012F9D88F8E7
:10E450000210309980EA090088F8040098F8050055
:10E4600048402A9988F8050098F8060080EA0A00D2
:10E4700088F8060098F8070080EA0C0088F8070082
:10E4800098F8080080EA0E0088F8080098F809005B
:10E49000504088F8090098F80A00584088F80A00A7
:10E4A00098F80B00684088F80B0098F80C00704052
:10E4B00088F80C0098F80D0048402B9988F80D005A
:10E4C00098F80E004840329988F80E0098F80F002E
:10E4D000484088F80F002C992D9801294FEA5101E6
:10E4E00008BF01302D9008BF80212C91E0B2319FF0
:10E4F000F90141EA5000E1012F905FFA8BF041EA07
:10E5000050004FEACB112E905FFA89F041EA50009B
:10E510004FEAC9112790309CE0B241EA50095FFAF6
:10E520008AF0E10141EA50004FEACA1130905FFAE7
:10E530008CF041EA500A5FFA8EF04FEACC1141EAC2
:10E5400050004FEACE112690D0B2D20141EA500ECF
:10E55000D8B22A9CDB012B9942EA500CEAB2ED01B9
:10E56000304643EA5203F2B24FEAC41B45EA520670
:10E57000E2B2329CC501384645EA5205CAB2C90129
:10E58000E7B24BEA520241EA57013291C1B2299CEB
:10E59000490841EAC410E1B231904808289F299007
:10E5A0002A9510461D4663467246D446DDF898E02B
:10E5B000DDF8C0A0CDF8C090DDF89C90DDE92EB468
:10E5C000013715E7E548229AE5A13BAB002537AFB7
:10E5D00000EB0210895C0022102D08D018F80560AD
:10E5E00008F805207E55465D5E550135F4E7481C68
:10E5F0009DF8EB109DF8E6B09DF8EF709DF8F39054
:10E600009DF8F4A09DF8F5E09DF8F6C09DF8F76040
:10E610009DF8F8509DF8F9309DF8FA2031919DF859
:10E62000EA1024919DF8E9101D919DF8E8102391BE
:10E630009DF8E71022919DF8E51030919DF8E410C7
:10E640002F919DF8E3102E919DF8E2102D919DF8E9
:10E65000E1102C919DF8E0102B919DF8DC10289191
:10E660009DF8DD1026919DF8DE102A919DF8DF10AF
:10E6700029919DF8EC1027919DF8ED1021919DF8BE
:10E68000EE1025919DF8F01020919DF8F1101F914A
:10E690009DF8F2101E919DF8FB103291002800F0B9
:10E6A000558116A9013881E86850CDF86CA0CDE9F4
:10E6B00014721C905B46DDE922653298DDF8A0E01B
:10E6C000DDF898C0249F1D9CC0075BD098F800001F
:10E6D00098F8011098F8022098F803A080EA0E003C
:10E6E00088F8000081EA0C002B9988F801002A982C
:10E6F000504088F80200299880EA0A0088F8030050
:10E7000098F8040048402C9988F8040098F805000F
:10E7100048402D9988F8050098F8060048402E9941
:10E7200088F8060098F8070048402F9988F80700F5
:10E7300098F808004840309988F8080098F80900CF
:10E740004840319988F8090098F80A00584088F83C
:10E750000A0098F80B00704088F80B0098F80C003D
:10E76000684088F80C0098F80D00604088F80D00AB
:10E7700098F80E00784088F80E0098F80F0048408E
:10E7800088F80F00DDF8C4B079005FFA8BF041EA39
:10E79000D01061001390F8B241EAD01069001290D5
:10E7A000E0B241EAD01071001190E8B241EAD01015
:10E7B00059001090F0B241EAD0100F90D8B2309AC0
:10E7C000510041EAD0100E90D0B22F9A510041EA88
:10E7D000D0100D90D0B22E9A510041EAD0100C907A
:10E7E000D0B22D9A510041EAD0100B90D0B22C9AA1
:10E7F000510041EAD0100A90D0B22B9A510041EA60
:10E80000D0100990D0B2299A510041EAD010089056
:10E81000D0B22A9A510041EAD0104FEA4C01079039
:10E82000D0B241EAD0104FEA4E0106905FFA8CF068
:10E8300041EAD0102890219B2799D8B2400840EA9D
:10E84000C1100590259AD0B2400840EAC310049048
:10E85000DDF850C05FFA8CF0400840EAC210039027
:10E86000209AD0B2400840EACC1014901F9BD8B236
:10E87000400840EAC21002901E9AD0B2400840EA16
:10E88000C31001905FFA89F0400840EAC21000907E
:10E890001B9A1A9B169CD0B2400840EAC91AD8B2FB
:10E8A000DDF85490400840EAC21E199AD0B24008E0
:10E8B00040EAC31C189BD8B2400840EAC216179A17
:10E8C000D0B2400840EAC315E0B2400840EAC213A3
:10E8D0005FFA89F0400840EAC412329C58465FFA59
:10E8E00084FB04464FEA5B07640047EAC910CFB2D5
:10E8F00032907808319427901398249012981D90A4
:10E900001198239010982290DDE90E0B30900D980D
:10E910002F900C982E900B982D900A982C90099877
:10E920002B900898299007982A9006982690059889
:10E930002190049825901498039F209002981F908E
:10E9400001981E90DDF800901C98A7E640463FB065
:10E95000BDE8F04F00F0ADBA2191061C2192061CD3
:10E9600077706860584D473F312A231C150E070009
:10E97000B0B50023102B08BFB0BDC45CCD5C2C44E7
:10E98000D4540133F6E7F0B589B0144600228DF86F
:10E990000220102A03D0835CA3540132F9E70DF161
:10E9A00013050846294600F0D9F908270DF102069B
:10E9B00037B120462946324600F050F8013FF7E7CC
:10E9C0000DF103050DF113000DF10202294600F0CF
:10E9D000FFF920462946224600F002FB09B0F0BDAF
:10E9E0002DE9F0418EB0144600220DF116038DF88A
:10E9F0000520102A05D0855CA554855C9D54013204
:10EA0000F7E70DF127050846294600F0A7F900268B
:10EA10000DF116080DF10507022E02D0082E05D1C2
:10EA20000BE020464146224600F0DAFA204629460D
:10EA30003A4600F013F80136EEE70DF106050DF148
:10EA400027000DF10502294600F0C2F920462946AB
:10EA5000224600F0C5FA0EB0BDE8F0812DE9F0477E
:10EA600088B0EA460446894608469046514600F07A
:10EA7000AFF920465146224600F0B2FAEF49394A32
:10EA800000200F280ED8235CCB5C235423180430BD
:10EA90005E78DD789F78965D4D5D5E70D65DDD7049
:10EAA0009E70EEE748465146424600F091F900203C
:10EAB000102818D2215C1AF800200AEB000677789B
:10EAC000B578F67811442154211804304A788B78AF
:10EAD00091F803C07A404A7085EA03028A7006EB17
:10EAE0000C02CA70E4E74FF0000C1AA104AABCF1B2
:10EAF000030F1ED000230F2B09D8E618E55C7778AA
:10EB000007EB4500E054781902337070F3E70023F7
:10EB1000102B03D0E05CD0540133F9E70023102B15
:10EB200004D0C85C105CE0540133F8E70CF1010C30
:10EB3000DDE700200F2884BF08B0BDE8F087221869
:10EB4000215C537803EB4105194451702554023080
:10EB5000F0E700BF080B0C0F020106050A090E0DB5
:10EB6000000704032193061C43F206310840401AB3
:10EB700018BF0120704700B952B900EA01024CF6F3
:10EB8000F843084343F20E311A40084040EA0201BC
:10EB90000846704710B500220023102B08BF10BD97
:10EBA000845CCC54541C0133A21F18BF2246F4E7E6
:10EBB00020F07F0110200AB2002A03D410B10138DE
:10EBC0004900F8E7C0B27047C1F3C20201F0070183
:10EBD000805CC84000F00100704700002DE9F04162
:10EBE000DFF87C80064614460D460027D8F8400022
:10EBF00010B1FDF767FA00E000202070B781B76020
:10EC0000776037600E2F0CD0E819F72809D82178E3
:10EC1000884206D2D8F840002844C05DF05501373C
:10EC2000F0E7BDE8F08100BF0A4890F85000704757
:10EC300008491022403159F0FBBA00BF05491022A3
:10EC4000203159F0F5BA00BF02491022303159F095
:10EC5000EFBA00BF245541200148807F704700BFB4
:10EC6000285741202DE9F8431D460C9B032B84BFF8
:10EC70000020BDE8F88314460246DDE90A60DDE9BC
:10EC80000889DFE803F0020A122B0978B9B30229D8
:10EC900037D001293BD012203CE0318832B9062917
:10ECA0003CBF1E20BDE8F88300E0318821F001015F
:10ECB000318020F02DFA284940F2712248433188F2
:10ECC0005143B0FBF1F0206000202860C8F800102C
:10ECD0004FF0FF31C9F80010BDE8F883087801282B
:10ECE0001CBF2020BDE8F88330880021023030802E
:10ECF00080B2C82888BF01214801BDE8F883C82038
:10ED000006E020F005FA21684A1C022A15D22820C4
:10ED100030800020D8F800104A1CEED040F271225A
:10ED2000B1FBF2F1328821F001019142E5D20529CF
:10ED300098BF06213180BDE8F88340F2712251432B
:10ED4000054A5043B0FBF1F04FF6FE71084006282B
:10ED500098BF0620DCE700BF40420F0010B500223C
:10ED60000023102A05D0845C8C54845C01326340FB
:10ED7000F7E70B7410BD1CB5ADF80410009000202F
:10ED80006946062808BF1CBD0B5C14181354A371F8
:10ED90000130F6E7B0B504460025102D08BFB0BD20
:10EDA000FDF760F960550135F7E700F01E0100F44A
:10EDB000706200F47040063918BF0121B2F5407F3F
:10EDC00018BF0321B0F5405F18BF05210846704702
:10EDD000F0B585B0144605460A4600212078102972
:10EDE00007D0102888BF00202B5C0130535401311C
:10EDF000F5E7207890B100EB0010104B002101AE38
:10EE00001230102906D04718FFB2DF5DDF5D77545E
:10EE10000131F6E701A91046FFF7AAFD00201128ED
:10EE200006D0295CCA0042EA511129540130F6E7A4
:10EE300020780130207005B0F0BD00BF2190061C85
:10EE40000278173A0A70427882F0E5024A708278B6
:10EE5000213A8A70C27882F0C102CA7002794D3AB2
:10EE60000A71427982F0A7024A7182796B3A8A71FB
:10EE7000C27982F08302CA71027A82F0E9020A72D0
:10EE8000427A1B3A4A72827A82F0DF028A72C27A2E
:10EE90003F3ACA72027B82F0B3020A73427B593A4C
:10EEA0004A73827B82F095028A73C07B7D38C87377
:10EEB000704784B000226946102A03D0835C8B54CB
:10EEC0000132F9E70F22531C04BF04B070478B5C7A
:10EED000013A00F8013BF6E70288052922F0E10338
:10EEE000038006D003290BD14FF440714FF21E036B
:10EEF00003E04FF4405140F61E731A401143018065
:10EF00007047F0B501F002050124860752B284EA89
:10EF100055044FEA440448BF022411F0040104F1EF
:10EF2000040608BF3446470748BF3446002D04F5A1
:10EF3000807608BF3446C70548BF3446002A58BF0C
:10EF40003446002944F4007608BF3446870548BF9C
:10EF50003446002A58BF344613F0010344F480526B
:10EF600008BF1446002D08BF1446C50448BF144608
:10EF7000002B44F4005208BF1446002908BF144671
:10EF8000800448BF1446A0B2F0BD10B500F01802CE
:10EF90004405134661F38A2358BF13461A460405F5
:10EFA00061F3CB2258BF1A464B08144663F38E34E4
:10EFB000430458BF14468907214648BF41F4004125
:10EFC000000458BF214688B210BDB0B50023102BF5
:10EFD00008BFB0BDC45CCD5C6C40D4540133F6E7CF
:10EFE000F0B500230F2B88BFF0BDC45CCD5CCE18FC
:10EFF0006C40D454C418657877783D44D7180433EE
:10F000007D7094F802C0B5786544BD70E478F578F9
:10F010006C40FC70E6E770B51446054608200022F7
:10F02000002809D455F820300026E3FB012644F8D7
:10F03000202001383246F3E7204657F017FEA86A31
:10F04000A0622046BDE8704058F092BC2DE9F04F18
:10F050009FB00DF12C0A89468346502190465046B8
:10F06000FDF719F809F120000AF144010822B2F174
:10F07000FF3F13DD5BF822300024002714F1080560
:10F0800009D451F8245050F82460E6FB635741F846
:10F090002450013CF2E70439013AE8E70022122A41
:10F0A00004D05AF8220008B90132F8E7D9F828004C
:10F0B000DBF82810C2F1120300261D930C1A18BFAA
:10F0C00001241E945AF82610701C082E02D800291C
:10F0D0000646F7D0082B0A9415D8471E0A2A15D1E0
:10F0E000204C0AF128020023082B0CD004EB8306E5
:10F0F00052F823500133B66AAE42F5D003D305E08F
:10F100005AF8201001300029FAD0471E6E460AEB4B
:10F1100087012422304659F08BF8304657F0A6FD7F
:10F1200007F10904371D304658F022FC112C0CD889
:10F1300030463946202259F0A3F85AF824000890A6
:10F14000304657F093FD0134EDE7694640462422EE
:10F1500059F06EF8DDE90901C8E909011FB0BDE801
:10F16000F08F00BFB8E3061C03480068400058BF9A
:10F1700000F0CABAFDF73EBC14F0005010B51348B9
:10F18000046851F0CBFFA00704D51148FEF7F6FB49
:10F1900001F086FC600705D50D481C30FEF7EEFB3C
:10F1A00001F07EFCE00605D509483830FEF7E6FBA5
:10F1B00001F0AAFCA00605D505485430FEF7DEFB99
:10F1C00001F0A2FCBDE8104051F0C0BF00B00150FA
:10F1D000F846412000F00F01000900EB800001EB30
:10F1E0004000C0B2704701460A22092898BF092191
:10F1F000B1FBF2F202EB8203A1EB4303591A08447C
:10F2000040EA0210C0B27047B0B504460068C16859
:10F2100041F48061C16059F010F805462068C0686B
:10F22000800505D459F009F8401BB0F57A7FF5D96F
:10F230000020B0BDF0B59446002308240025002C22
:10F2400014D451F8247050F824607A19B21A4CF88A
:10F2500024207A19A4F1010443F10005B21A73EBDA
:10F2600005024FF0000538BF0125E8E76046BDE81C
:10F27000F04057F0FBBC000070B506460D46886AAA
:10F280001446B16A41B170B12846314616F036FBDA
:10F2900078B12846314616E070B1304629462246FC
:10F2A000FDF7FAFA12E0304629462246FDF7F4FA55
:10F2B0001FE03046294619E03046294616F01EFB6D
:10F2C00090B1304629462246FFF7B4FF00200C4992
:10F2D000A062204616F012FB28B109492046BDE87D
:10F2E000704000F00FB870BD284631462246FFF747
:10F2F000A1FF0120A0622046BDE87040FDF702BBDF
:10F30000DC95061CF0B5002208230024002B15D440
:10F3100051F8236050F823503719A41942F1000620
:10F320002C1BA5EB070772EB060440F82370A3F132
:10F3300001034FF0000438BF0124E7E7BDE8F040C7
:10F3400057F094BC70B58CB004460D46886AA16A2B
:10F35000B1B1B0B12846214616F0D0FAE8B101AEFD
:10F36000284621463246FFF765FF204631462422D3
:10F3700058F05EFF00200A996162A0620CB070BD77
:10F3800030B1204629460CB0BDE87040FDF76ABA9E
:10F390002046294616F0B2FA30B1204629460CB074
:10F3A000BDE87040FFF7AEBF01AE284621463246A9
:10F3B000FFF740FF20463146242258F039FF012054
:10F3C000D9E7000070B551F0A9FE104D2868FEF78E
:10F3D00035F956F095FA6E6A0446FEF739F9651C60
:10F3E00031460122284658F050FFA04209D0064677
:10F3F00056F08EFAAE4204D056F08AFAA01C58F0AD
:10F4000049FFBDE8704051F0A1BE00BF200004508C
:10F4100010B5416AB1F5807F00D3FEE7CA070BD073
:10F42000826A6FF400331A4200D0FEE703685C681A
:10F4300024F4003422435A608A070BD5C26A6FF461
:10F4400080331A4200D0FEE703685C6824F48034FD
:10F4500022435A604A070BD5026B6FF480231A428D
:10F4600000D0FEE703685C6824F4802422435A60DD
:10F470000A070BD5426B6FF400431A4200D0FEE737
:10F4800003685C6824F4004422435A60CA060BD522
:10F49000826B6FF480531A4200D0FEE703689C68C9
:10F4A00024F4805422439A608A060BD5C26B6FF411
:10F4B00000531A4200D0FEE703689C6824F400540D
:10F4C00022439A604A0607D4090622D5816C6FF45C
:10F4D0000022114217D0FEE7036C6FF48012134232
:10F4E00000D0FEE70268B3F5801F546824F480144E
:10F4F00044EA03045460E7D1436C546824F4C00424
:10F5000023435360E0E70068426822F4002211437D
:10F51000416010BD10B5C46A94F8710021280DD166
:10F5200020688168090609D50021A4F852100168F5
:10F5300021F0C0010160202084F8710094F872006D
:10F54000222809D120688068400605D50020A4F84B
:10F550005A00204600F056F8606F40F010006067D7
:10F560002046BDE81040FEF7F3BC0168C06A096898
:10F57000890612D40021A0F85A1001680A6822F402
:10F5800080720A608A6822F001028A608A6822F02A
:10F5900040028A60202180F87210FEF789BDC06A9F
:10F5A000FEF788BDC06A00210F22A0F85A1001683A
:10F5B0000A628A6942F008028A61202180F872108A
:10F5C000FEF72EBC0168C06A0968890648BFFEF7CD
:10F5D000E3BD0021A0F852100068816821F080018D
:10F5E0008160016841F0400101607047C06AFEF728
:10F5F000D4BDC06A0021A0F85210202180F87110FB
:10F60000FEF748BC01680A6822F490720A608A68B2
:10F6100022F001028A6000210166202180F8721028
:10F62000704700002DE9F04141682E4A914200D315
:10F63000FEE782684FEAF26104290AD2C1684FEA04
:10F640003133042B06D2036A6FF40064234202D0E4
:10F65000FEE7FEE7FEE704692CB1B4F5806F18BF42
:10F66000B4F5C06F13D145697DB125F00C0666B9BC
:10F6700086694FEA3627042F08D2D0F81CC06FF4F1
:10F6800080471CEA070F03D0FEE7FEE7FEE7FEE730
:10F69000D0F800802243144F2A43D8F800E042EA11
:10F6A0000C0207EA0E073A43C8F80020D8F80420F5
:10F6B00022F440521143C8F8041046EA0301D8F876
:10F6C000082022F430621143C8F808100021C0E974
:10F6D0001811D8F82C0020F0F000C8F82C000020F9
:10F6E000BDE8F08181969800F3B9FFE780B551F04D
:10F6F00015FD044800F5907058F082FBBDE880408D
:10F7000051F024BD4868412070B5184D287860BB81
:10F710000120174E28703068400026D458F082FD32
:10F72000012058F0BCFD30682C4640F0805030601D
:10F73000104844F80C0F204658F0B6FD012058F050
:10F740008BFD206834210024C16040692F2C08D82B
:10F7500010F0020005D0012058F07EFDE868013469
:10F76000F3E7706A40F00100706270BD50454120BF
:10F7700014F0005000B0005080B588B004AF0FC73F
:10F780000D980E9A694603900C9802900B98019080
:10F790000A98009004A8FFF718FC08B080BD00008C
:10F7A00000280CD400F01F010122400902FA01F1E7
:10F7B000034A42F82010BFF34F8FBFF36F8F70479B
:10F7C00080E100E010B500F00F03064C044AB0F1F0
:10F7D000FF3F2344C8BF83184801187010BD00BF05
:10F7E00000E400E014ED00E018B1C1B219B101204D
:10F7F0000EE00020704710F47F4102D0090A092072
:10F8000006E010F47F0107BF010E1920090C11203A
:10F81000014A515C08447047CC94061C0020704794
:10F8200080B5FF2806D0F22806D048B9084616F061
:10F830006FFE07E0002005E0084616F00BF901E036
:10F840004FF067F80249002818BF0146084680BDFE
:10F85000B097061C70B5044658F008FD04F1140674
:10F860000546304656F0DCFA304656F0ADF9208AAF
:10F8700020F002002082284658F0FDFC606C2146F2
:10F88000BDE8704000F070BD80B501F0A5FA40B150
:10F89000026932B1018C034803681046BDE880401C
:10F8A000184780BDC0404120F8B50D4604460A28DF
:10F8B00000D82DB91A4A20462946F12358F0F9FC00
:10F8C0000A2C1BD8174E06EB840005611648016808
:10F8D000204688470546301906EB850780F85450C6
:10F8E0000120A0403E4656F83C1F56F8382C40EA0E
:10F8F000020046F8380C19B100240FE003240DE093
:10F900000AA00021002457F040F8B86408482A46AD
:10F910002B46016807A057F041F830602046F8BD3B
:10F92000F1D2061C9C5441207C4041204B450000F4
:10F93000804041204B455F455654000010B50B28D0
:10F9400009D2012101FA00F458F090FC7B490A68C1
:10F95000A2430A6007E0664A002140F2231358F0F0
:10F96000A8FC58F083FCBDE8104058F084BC00BFF0
:10F970007248002101607047B0B504460B2806D3D9
:10F980005B4A204600214FF49A7358F092FC58F0DD
:10F990006DFC6A490D6858F06EFC002025FA04F1F0
:10F9A0000B2C38BF01F00100B0BD00BF63480068F8
:10F9B000704700BF80B561486021FCF76CFB80BDDB
:10F9C000F8B55E4F4A4C3D68F5B1B5FA85F080F068
:10F9D0001F060B2E06D330462946224640F2591305
:10F9E00058F067FC0620314604F02AFA07EB86003F
:10F9F000006908B18047E6E730462946224640F2D2
:10FA0000671358F056FCDEE7F8BD00BF2DE9F84F4C
:10FA1000DFF8289182461F48DFF8D4801C4C8346CB
:10FA2000D9F80060256816EA0A0608BFBDE8F88F15
:10FA3000B6FA86F080F01F070B2F06D33846314602
:10FA400042464FF4C97358F034FC0620394604F09E
:10FA5000F7F909EB8700006908B1804706E03846EE
:10FA6000314642464FF4CF7358F023FC5946206884
:10FA7000DBF80010401BC9074FF4803108BF44F683
:10FA80002061D9F800608842CDD951F0CDF9C9E79D
:10FA90004400045000A00450F8B504460B280CD2D2
:10FAA000264E301990F85450012000FA04F758F00F
:10FAB000DDFB3168394331600CE00D4A20460021FE
:10FAC00040F20F1358F0F5FB1C48204490F85450B6
:10FAD00058F0CCFB58F0CFFB184800EB8500806C49
:10FAE00056F05AFF05202146BDE8F84004F0A8B9B9
:10FAF000F1D2061C0A280DD8074A00210B2909D08B
:10FB000012F8113001318342F8D102EB410010F8B4
:10FB1000010C704702207047E0AC061C0749C0B2D8
:10FB2000074E01EB8000041D00F14805286856F0DF
:10FB30002FFF206831688847F8E700BF9C544120B8
:10FB400074404120002070470020704780B5384A3B
:10FB500012689047002818BF012080BD10B5344AB4
:10FB60001268904768B10446043003F078F93648CB
:10FB70002146283058F0A2FB2046BDE8104016F080
:10FB80009FBE10BD10B50446C1898089FF2217F0C1
:10FB900027F92D48043C2146283058F08FFB204699
:10FBA000BDE8104016F08CBE10B5274800F12804BF
:10FBB000204658F088FB10B116F082FEF8E710BD21
:10FBC000024621482830006838B1038A9342FAD1AE
:10FBD000438A8B4208BF7047F5E70020704700BF9B
:10FBE000F8B50646124814460F460268304690475C
:10FBF0000546B0B91420012117F05EF8054620B97A
:10FC00000CA00DA1A22258F063FB0E486F822E8239
:10FC10000168281D03F09CF80B482946283058F04D
:10FC20005CFB281D2146BDE8F84003F00EB900BF7B
:10FC30009C404120415353006B655F74696D657250
:10FC40002E63000094404120405441200020704722
:10FC500070B5154E0446002596F85400854228BF1D
:10FC600070BDB06D00EBC50149688A681AB150F8E3
:10FC70003500214690470135EEE700BF70B50A4ECA
:10FC80000446002596F85400854228BF70BDB06D2B
:10FC900000EBC50149684A681AB150F835002146A1
:10FCA00090470135EEE700BF8046412070B50D4614
:10FCB000044620B9104811A1AB224FF029FB616D19
:10FCC00011B12846884714E094F8580001280FDB4A
:10FCD000E16D461E01EBC00050F8080C55F0FCFD2C
:10FCE000A8423046F2D8E06D00EBC600007900E093
:10FCF000012084F8460070BDBAE0061C5F706D5F9D
:10FD000073656C6563745F736C6565705F6D6F645C
:10FD10006500000080B5202905D0212906D1D0B288
:10FD200053F040F902E0D0B253F028F9002080BD32
:10FD3000F8B51C4615460E46074628B90AA00EA17E
:10FD400040F2BA224FF0E4FA052EC4BF0020F8BDFD
:10FD5000B8190EA2214690F84030284601B0BDE8FF
:10FD6000F04054F0B1BE00BF706D20213D205254D0
:10FD70005F4E554C4C0000005F72745F706D5F64A5
:10FD800065766963655F72656164000025640000E3
:10FD900080B553B1107828B1012806D1C8B253F00C
:10FDA00001F902E0C8B253F0E9F8012080BD00007B
:10FDB00010B5044620B9114811A14B224FF0A8FA02
:10FDC000A06A0178232906D1E169814203D9E26A58
:10FDD0000244914207D920A0214651F00DFA58F073
:10FDE00045FA18B1FEE72030814200D910BD0BA0C2
:10FDF0002146BDE8104051F0FFB900BF0DDE061CE2
:10FE00005F72745F7363686564756C65725F737449
:10FE100061636B5F636865636B0000007761726E9E
:10FE2000696E673A20257320737461636B20697370
:10FE300020636C6F736520746F2074686520626F37
:10FE400074746F6D206F6620737461636B206164DE
:10FE500064726573732E0A007468726561643A2572
:10FE60007320737461636B206F766572666C6F7755
:10FE70000A0000007CB5069D00F1200604461430FF
:10FE80002EC6C4E90500184623212A4651F03CFD40
:10FE900004F120030FCB1A44174B043A50F0F6FE3E
:10FEA000A16AE06150F0A8FEDDE90756082D04D3F1
:10FEB00012A01BA199224FF02BFA00201C4A2146C8
:10FEC0002346C4E90E06266484F8355084F836507B
:10FED000C4E91D0084F834002063CDE9000004F17A
:10FEE000440055F0C7FE1348016819B12046BDE82B
:10FEF0007C4008477CBD00BFD151061C7072696F01
:10FF000072697479203C2052545F544852454144F0
:10FF10005F5052494F524954595F4D4158000000BB
:10FF20005F72745F7468726561645F696E697400A2
:10FF3000D157061C3861412010B501280AD84EF06F
:10FF4000E7FF044660B9074907A0B02258F0C0F99E
:10FF5000002405E0034A0021B523002458F0A9F944
:10FF6000204610BD61D3061C41535300F8B504462A
:10FF7000814E56485649574AC6E90221306116F06B
:10FF8000A7FD00F029FF0168054619B12A8B002062
:10FF900016F0B0FE696819B16A8B012016F0AAFE4E
:10FFA000A96819B1AA8B022016F0A4FE002003F064
:10FFB000D7FB002003F078FA002058F093F90020D6
:10FFC00002F072FB002002F03BFE306808B116F030
:10FFD00077FC706808B116F073FC3820002116F029
:10FFE0006BFE38213060FCF756F84EF019FF1427ED
:10FFF000002107EB800016F05FFE054670604EF0B2
:020000041C01DD
:100000000FFF07EB80012846FCF745F806F11400C6
:1000100058F06DF956F0F8FD002006F011F90020B7
:1000200005F046F82C4D28680168012088470146F4
:10003000012008F017F92868016800208847014668
:10004000002008F00FF900200AF092FC56F010FD95
:1000500048484FF4C6714030FCF71DF8002056F0B8
:10006000E9FC002000F0F2FB002058F045F90020E8
:1000700058F047F9002058F049F9002058F04BF9A2
:10008000002058F04DF9002002F0DAFDB4F1A53F50
:1000900003D0ACB1B4F1C33F03D1204603F072FBEF
:1000A0000EE041F2021000211022012316F048FE5A
:1000B0000221B4F1F23F08BF0121017012F07CFE71
:1000C00006480068BDE8F840004700BFA975061C57
:1000D000C175061CB575061C78424120B040412010
:1000E00010B54EF0D1FE08B958F01FF958F0BEF81F
:1000F00004461F4800688047012002F0D5FA01201D
:1001000002F09EFD012003F02BFB012006F098F881
:10011000012004F0CDFF01200AF02AFC012058F054
:10012000E1F856F0B9FC13484FF4C6714030FBF7C4
:10013000B2FF012056F07EFC012000F087FB012079
:1001400058F0DAF8012058F0DCF8012058F0DEF819
:10015000012058F0E0F8012058F0E2F816F09EFB7C
:100160000548406980472046BDE8104058F083B8F4
:100170009840412050614120484341202DE9F04101
:10018000604D297801291CBF0120BDE8F081411E86
:10019000C9B28E2926D857F019FA18B36C68012114
:1001A00090F801802D89E18004F10807A688417844
:1001B00001440231CA1B93B2B34205D8B21A1304E8
:1001C00002D092B258F034F8A6EB0800861EB1B205
:1001D00017FA86F0691AFBF75EFF0020A680E08020
:1001E000BDE8F0810220BDE8F08100BFB0B50D464A
:1001F0004449097801291CBF0120B0BD411EC9B284
:100200008E290CD8144657F0E1F940B14178297095
:10021000811C4278204658F00BF80020B0BD022027
:10022000B0BD00BF10B5374C2181606057F090F928
:1002300000B110BD0121217010BD00BF0120704729
:10024000F8B5304F0646387801281CBF0120F8BDAC
:10025000701EC0B28E2884BF0220F8BD30461446FE
:100260000D4657F0B3F968B141787E68A9420FD1C5
:10027000012102302A46F180214657F0D9FF0020A3
:10028000F080F8BD30462946224657F045F9F8BDC2
:1002900007D2B3883A892B44591A9142C4BF03202C
:1002A000F8BD064906780968304688473046294631
:1002B000224657F031F90020F8BD00BFB840412078
:1002C00070B5104E05463078012805D10C463189AD
:1002D000A1F10800A04201D2012070BD7068FBF7B7
:1002E000DAFE57F035F900B170BD76680120294675
:1002F0002246F08006F1080057F09AFF0020B480F3
:10030000F08070BDDC4E412070B50446406CB8B141
:10031000218ACA0717D188071AD557F0A7FF04F119
:1003200014060546304655F07BFD304655F04CFC32
:10033000208A20F002002082284657F09CFF07E028
:100340006FF015050EE0214656F0E0F8054648B975
:1003500057F08CFF218A0025656421F0010121827C
:1003600057F089FF284670BDF8B50E46044657F091
:100370007DFF0546308AC0071BD1A068B04218D067
:10038000304650F083FFD4E90107016831604E60C8
:10039000318A06607060284641F00101318257F0D1
:1003A0006AFF27B9E06A55F09FF853F071FC00200E
:1003B000F8BD284657F05FFF6FF00600F8BD00005B
:1003C000044620B91C481DA139224EF0A1FF04F1BA
:1003D0000C054FF000082068A04205D155F0C6F882
:1003E00055F0B6F953F054FC57F040FF2768064625
:1003F000384650F04BFF388AA76020F00100388261
:10040000304657F038FFD7E902213846904757F079
:100410002DFFC4F8088057F02EFF4FF0F5FE284658
:1004200053F0E6FE023003D1284653F003FEF6E710
:100430004FF0F6FECFE700BFF8E1061C5F776F7262
:100440006B71756575655F7468726561645F656E13
:100450007472790070B5044690F82C0001281ED003
:1004600020BB002594F82D200123012684F82B5071
:10047000C4F82750C4F82350C4F81F508878A077D8
:1004800000F03F00098810432246A077204622F85A
:100490001C1FA16900F0DCFA84F82C600CE0A07F3E
:1004A00001254871A08BA1F8030005E0616903A252
:1004B0009A2357F0FEFE0025284670BD6165735FE4
:1004C0007270612E6300000070B50E4602211C465A
:1004D000154616F0F1FB4461C0E9016570BD0000EE
:1004E000F0B589B0044690F8322090F8330090427D
:1004F00016D2228E04F120051023A2EB0010A2696F
:100500000244284600F0C0FAE16920462A46012349
:1005100000F09EFA94F83300013084F8330072E062
:10052000FD280BD8FE20102284F8330004F12000AF
:1005300057F07EFEE169354A204661E0FF2801D18F
:10054000012061E0FF2005AA258E84F833000846CB
:1005500091F90F60114600F067FA05F00F05B6F14A
:10056000FF3F05DC9DF8140080F087008DF8140033
:100570005DB305A89DF92360014600F055FAB6F178
:10058000FF3F05DC9DF8140080F087008DF8140013
:1005900001A885F00F034FF0000C4FF0800E0026ED
:1005A000411B00F10F021031102E17D0AE4203D2C2
:1005B000A769BF5D8F5505E0B54214BF82F800C042
:1005C00000F803E0013A0136EEE794F83200002823
:1005D000CFD0A16901A8102257F02AFE01AD05AACB
:1005E00010232846294600F04FFA04F12006294638
:1005F00010233046324600F047FAE1692046324681
:10060000012300F025FA002009B0F0BDCC95061CAE
:1006100010B50124038680F83340C0E9062103F1B8
:100620000F0100220909C0E90922C26280F83210D4
:10063000014641F8202FBDE81040FFF751BFF8B543
:100640001E46069B0C460546BAB1382000213246AC
:10065000FFF73AFF00F118070646294610223846F0
:1006600057F0E6FD06F1280521461022284657F0EE
:10067000DFFD304639462A4606E018200021324682
:10068000FFF722FF29462246002301B0BDE8F040D3
:1006900000F0DEB9F8B51E46069B0C460546BAB119
:1006A000382000213246FFF70FFF00F118070646F9
:1006B00029461022384657F0BBFD06F12805214691
:1006C0001022284657F0B4FD304639462A4606E047
:1006D000182000213246FFF7F7FE29462246012363
:1006E00001B0BDE8F04000F0B3B9000070B50D46B0
:1006F0000E4906463020FFF7E7FE80F82D50866150
:10070000044600F11C051C262C2E04D0FBF7AAFC85
:10071000A0550136F8E7A16920462A46012300F0DA
:1007200097F9002084F82C0070BD00BF5504011C0F
:10073000F8B50C460C4905464820FFF7C5FE0646AD
:10074000206829461022344606F1380744F8340F51
:10075000384657F06DFD304639462246042301B035
:10076000BDE8F040FFF754BF6D07011CFFF7B8BEAE
:10077000F8B50C460E4905465420FFF7A5FE00F1DA
:100780004407064629461022384657F051FD06F127
:10079000340521461022284657F04AFD3046394696
:1007A0002A46102301B0BDE8F040FFF731BF00BF7B
:1007B000B507011CFFF794BE2DE9F0411F460D4619
:1007C0001249069B904606465C203A46FFF77CFE9F
:1007D00000F13404074631461022204657F028FD28
:1007E00007F1440629461022304657F021FDD8F87B
:1007F00000003146224610237865002087F8580013
:100800003846BDE8F041FFF703BF00BF1108011CE7
:1008100070B50D460446FFF763FEA0B194F858107A
:10082000012001B170BD04F1440684F85800294646
:100830001022304657F0FCFC04F1540220463146A9
:100840000423FFF7E5FE002070BD000010B540B1A5
:100850008C4C206828B1204657F035FD16F030F852
:10086000F7E7884C204657F065FD0020207510BD45
:10087000F0B589B00D460446002701AE082F05D01B
:10088000FBF7F0FB46F827000137F7E706F1100108
:100890003046012223460095FFF7FCFE09B0F0BD6B
:1008A000F8B5784F06460C46384657F00CFD3968C7
:1008B00005460020387531B1012001223875D1E993
:1008C000030157F03CFD9DB156B1AB681BB16A699D
:1008D0003046214698472846BDE8F84015F0F0BF5D
:1008E0006A68002AF1D02846214690470028ECD1BA
:1008F000F8BD00BF13460A464021FFF7F7BE0000CF
:100900002DE9F84306464020994688462249089B2F
:1009100015460022002700EB0610FFF7D5FD044620
:10092000C0F818903E303201414657F081FCA8884B
:10093000296884F83D60C4F82F70C4F83370C4F897
:10094000377084F83B70A046DFF8D890E1612084CE
:10095000687984F82E00B5F80300751E28F82C0F6E
:10096000FEB2B54209DD04EB0610494610223E30C6
:10097000FBF7AFFB08B90137F2E704EB061084F888
:100980003C704246012300F13E01204601B0BDE823
:10099000F04300F05DB800BF9D09011C2DE9F8434C
:1009A00000F11C08054603224046FBF792FB10B3FA
:1009B00095F83C4095F83D60DFF868900134E0B26E
:1009C000B04216D205EB00104946102200F13E0756
:1009D0003846FBF77EFB0028F0D005F12C022846B4
:1009E0003946012385F83C4000F032F80020BDE88C
:1009F000F88385F83C40AC6984B195F83C1095F8D3
:100A00003D306A6905EB01109942434600F13E0012
:100A100000904FF01F0038BF0020A0470120BDE824
:100A2000F88300BF6E96061C10B5002212F10F036A
:100A300009D083189C7BDB7BE40944EA43038C18D0
:100A4000013AE373F2E700784000087010BD00003F
:100A50002DE9F0410B4F04460E46984615462146B7
:100A6000384657F03AFCC4E90365387D08B1BDE863
:100A7000F08101202946424638753046BDE8F041F4
:100A800057F05DBC6C474120B0B5013B5BB2002B19
:100A900004D4CC5CD55C6C40C454F6E7B0BD000017
:100AA0001848816A11F00F022AD00368013223F43A
:100AB00070530360036843EA82220260026822F4F2
:100AC0004042026001F0300201F47071036843EAB1
:100AD00082220260026822F470220260026842EA06
:100AE00081210160416821F47C614160416841F4E9
:100AF0008061416050F8101C21F0010140F8101C89
:100B0000704700BFA04008500848016841F001014B
:100B1000016001696FF393210161416921F47C61F6
:100B20004161416941F480614161704790400850E2
:100B300010B5064C2068400006D4012057F0AFFBEA
:100B4000206840F08050206010BD00BF14F00050BD
:100B50004EF0D8BC2DE9F047ACB04FF000090BAD1A
:100B6000884604462C21C0F828902846FBF793FAC3
:100B70006E462C213046FBF78EFA21AF2146242207
:100B8000384657F055FBD4F824A016AC3A49242235
:100B9000CDF8AC902046CDF8A8A057F049FB08202E
:100BA000CDF880901F900120CDE91300CDE9089089
:100BB000BAF1000F0ED13BE0384603F0C1FB9DF8BF
:100BC0004C00C00703D1284603F0BAFB02E02846D8
:100BD000FBF7ACFE9DF8A400C007EDD00DE0204669
:100BE00003F0AEFB9DF82000C00703D1304603F0B0
:100BF000A7FB02E03046FBF799FE9DF87800C0079E
:100C0000EDD03846214614F079FE30B13846214601
:100C1000FEF778FB2846314605E020463946FEF7C8
:100C200071FB30462946FEF78DFBDDF8A8A0BFE733
:100C30000A9868B16C46204656F09AFE4046214616
:100C4000242257F0F5FADDE90910C8F824100EE067
:100C50000948694614F03AFE0028EBD06946404640
:100C6000242257F0E5FA0998C8F824000020C8F8B3
:100C700028002CB0BDE8F087DC95061C7CB5164634
:100C80000D4601AA0121044645F0D6F800B17CBD0D
:100C90000198817E01F003010229F8D1EA8847F624
:100CA000FE73B11A89B2994202D84078282108E02F
:100CB000691C204633F09AFB0028E8D001982421D3
:100CC000407834F051FB7CBDBCB514460D4601AAFA
:100CD000012145F0B1F800B1BCBD0198817E01F061
:100CE0000302022AF8D16B8841F003016A78817609
:100CF000E11A47F6FF7389B2994238BF282240783B
:100D0000D1B234F031FBBCBD01480068004700BFE0
:100D10008440412080B50548006880470448016848
:100D20004FF0C330BDE88040084700BF5440412029
:100D3000AC404120704700004348006840F38010F9
:100D4000704700BF70B555F01CFE194CA078FF2805
:100D500009D001F02BFBA1780422C90002FA01F1AD
:100D6000084301F031FB134D2E68F00309D54FF411
:100D7000803011A28E236860286D296D090C57F010
:100D800098FA300603D5802068603CF0C5FBA07857
:100D9000FF2809D001F00AFBA1780422C90002FA59
:100DA00001F1884301F010FBBDE8704055F0EBBD48
:100DB000A0434120100809507277626C652E6300D1
:100DC000064890F924007047704700000146034828
:100DD000282257F02DBA00BF00487047EC40412050
:100DE000704780B557F0B0FA00F006F80020BDE873
:100DF00080404DF0D1BF000080B5074802681AB1AD
:100E000006482021FCF7E2FC054857F070FA054837
:100E10000068BDE880400047E4424120444A412048
:100E20005C434120D0404120AFF3008080B50648AC
:100E30000068400644BF4FF0FF3080BD03480068A3
:100E40008047002080BD00BF3C000450D4404120BA
:100E5000F8B5434F0446084616460D46B847C10E3E
:100E6000A171C0F3CB31A180C0F380316FF39F300B
:100E70002080A170287940092072287900F01F0095
:100E8000E0716879A979EA7940EA012002F00F015E
:100E90001309237440EA0140E060287A697AAA7A4B
:100EA00040EA012002F00F011309237640EA0140D5
:100EB0006061E87A607605F10D00B847A06205F13F
:100EC0001100B847010D6FF31F5011276184E061D5
:100ED000687DA97D40EA0120E084D5F81700E06232
:100EE000E87E00F01F0084F83000E87E5F2809D813
:100EF000012101EB5010032804D01A490027085C97
:100F000084F82400E869212EC4F8310095F8200007
:100F100000F07F0084F8350095F820004FEAD010EB
:100F200084F8200014D0392E16D10120102284F824
:100F30003600D5F82100D5F82510C4F83B10C4F8C8
:100F4000370004F13F0005F1290157F071F904E081
:100F5000002084F8360000E01E273846F8BD00BFA8
:100F6000B52B011C8C96061CB0B557F07FF90546D1
:100F70004448283057F0A7F90446284657F07BF933
:100F8000002C14BFA0880020B0BD00BF10B50146E2
:100F90003B48C28A8B1A03EB1363C3F30724008B0D
:100FA000801A00EB1060B4EB202F05DBF54A2046D9
:100FB00040F2791357F07DF9F348D0F8940000EB34
:100FC000C40010BDB0B50146ED48C28A8B1A03EBD0
:100FD0001363C3F30724008B801A00EB1060B4EB9B
:100FE000202F05DBE74A204640F2851357F061F9D0
:100FF00057F03CF90546F048D0F89410283001EB42
:10100000C40157F06AF92846BDE8B04057F033B93B
:10101000B0B557F02BF90546F6483C3057F053F978
:101020000446284657F027F9002C14BFA08800205A
:10103000B0BD00BFB0B50146ED484FF4FE73028A63
:10104000408A801A8A1A92FBF3F290FBF3F0D4B232
:10105000844205DBFB4A204640F2A51357F029F9EC
:1010600057F004F90546F848D0F898103C3001EBE9
:10107000C40157F032F92846BDE8B04057F0FBB83C
:1010800030414120844741202DE9F041EC4D044698
:10109000A88CB0F5304F05D9EA4A800A2C2180236C
:1010A00057F007F9002C59D0EF48D0F88C10A889D8
:1010B000EA89ED4CB64F101A242290FBF2F3204639
:1010C0000822B847A88AE98A4FF482760822081ACB
:1010D000D4F8901090FBF6F304F11400B847E88AB6
:1010E000298B0822081AD4F8941000EB1060031220
:1010F00004F12800B847288A698A0822081A4FF4A0
:10110000FE7190FBF1F3D4F8981004F13C00B8475D
:10111000A88BE98B0822081AD4F89C1090FBF6F3F0
:1011200004F15000B847288B698B0822081A202147
:1011300090FBF1F3D4F8A41004F17800B847688B61
:10114000A98B0822BC46081A0C2190FBF1F3D4F8B5
:10115000A01004F16400BDE8F0416047F14CD4F800
:101160008C0008B115F0ACFBD4F8900008B115F074
:10117000A7FBD4F8940008B115F0A2FBD4F89800AE
:1011800008B115F09DFBD4F89C0008B115F098FB50
:10119000D4F8A00008B115F093FBD4F8A40008B16E
:1011A00015F08EFB2046A821FAF775FFA889E9897A
:1011B0004FF02408754F081A002190FBF8F0C0008A
:1011C000B847C4F88C00A88AE98A4FF48276081AD6
:1011D000002190FBF6F0C000B847C4F89000E88A00
:1011E000298B081A002100EB10600012C000B847DC
:1011F000C4F89400288A698A081A4FF4FE7190FB9B
:10120000F1F00021C000B847C4F89800A88BE98B22
:10121000081A002190FBF6F0C000B847C4F89C0003
:10122000688BA98B081A0C2190FBF1F00021C000FB
:10123000B847C4F8A000288B698B081A202190FBBE
:10124000F1F00021C000B847C4F8A400A889E989DA
:10125000081AD4F88C1090FBF8F002B2012A0ADBCD
:101260000138AE8982B200EBC00301EBC20206EB8B
:1012700083039380F1E7A88AEA8A101A4FF48272F6
:1012800090FBF2F0D4F8902003B2012B0BDB013875
:10129000AF8A00EB801683B207EB860602EBC3032E
:1012A00005369E80F0E7E88A2A8B101AD4F894203D
:1012B00000EB1060001203B2012B08DB0138EE8A4C
:1012C00083B206EB002602EBC3039E80F3E7288A75
:1012D0006A8A101A4FF4FE7290FBF2F0D4F898204C
:1012E00003B2012B0ADB01382F8A83B2C0EBC01690
:1012F00002EBC30307EB86069E80F1E7A88BEA8B1F
:10130000D4F89C30101A4FF4827290FBF2F2501E07
:1013100003EBC202023A431C012B0ADB00EB8013F1
:10132000AE8B1070013806EB830322F8023C083ABA
:10133000F1E7288B6A8B101A202290FBF2F0D4F888
:10134000A42003B2012B08DB01382E8B83B206EBFD
:10135000401602EBC3039E80F3E7688BAA8B101A3A
:101360000C2290FBF2F0D4F8A02003B2012BFFF680
:101370009EAE013883B202EBC3031871F5E700BFDC
:10138000304141206CD3061C84474120B96C021CBB
:10139000E9F53F00B0B556F069FF0546A348503067
:1013A00056F091FF0446284656F065FF002C14BF06
:1013B000A079FF20B0BD00BF8447412010B504468E
:1013C0009848818BC08B401A4FF4827190FBF1F0EA
:1013D000A04206DC944A2046002140F2C31356F096
:1013E00068FF9248D0F89C0000EBC400808810BDD4
:1013F0003041412084474120B0B504468948818B63
:10140000C08B401A4FF4827190FBF1F0A04206DCD1
:10141000854A2046002140F2C91356F04AFF56F093
:1014200025FF05468148D0F89C10503001EBC401DF
:1014300056F053FF2846BDE8B04056F01CBF00BF31
:10144000304141206CD3061C84474120B0B556F092
:101450000DFF0446754856F036FF0546204656F007
:101460000AFF2846B0BD00BF84474120B0B5014601
:101470006C4824238289C089801A8A1A92FBF3F26D
:1014800090FBF3F0D4B2844205DB674A204640F279
:10149000251356F00EFF56F0E9FE05466348D0F8D6
:1014A0008C1001EBC40156F018FF2846BDE8B0408F
:1014B00056F0E1BE80B55D48143056F004FF0028B8
:1014C00014BF8088002080BD70B5014655484FF498
:1014D0008273564E828AC08AD6F89050801A8A1A31
:1014E000053A90FBF3F092FBF3F2D4B2844205DBB1
:1014F0004D4A204640F2431356F0DBFE05EBC4058F
:1015000056F0B4FE0446A8883EF016FE20B906F157
:101510001400294656F0E1FE2046BDE8704056F022
:10152000AABE00BF84474120B0B556F09FFE0546D5
:101530003E48783056F0C7FE0446284656F09BFEDB
:101540000CB1A088B0BDF448374940F20A2256F0E9
:10155000BFFE0020B0BD00BF70B5324D04462E8BDB
:10156000864205D84DF04AFC06EB8010A04206D812
:101570002D4A2046002140F2132356F09AFE288B74
:101580002021201A90FBF1F0C5B256F06FFE044600
:101590002648D0F8A410783001EBC50156F09DFE26
:1015A0002046BDE8704056F066BE00BFB0B556F0AC
:1015B0005DFE05461D48643056F085FE044628460B
:1015C00056F059FE0CB12079B0BDF44816494FF4DD
:1015D000F17256F07DFEFF20B0BD00BFB0B50446ED
:1015E0001048418B808B401A0C2190FBF1F0A042F7
:1015F0000FDD56F03BFE05460C48D0F8A0106430D5
:1016000001EBC40156F069FE2846BDE8B04056F033
:1016100032BE054A204600214FF4FA73BDE8B040BF
:1016200056F047BE304141206CD3061C8447412010
:10163000B0B5094B00210422B2F1FF3FDCBFC8B2B4
:10164000B0BD845C013A250904F00F041C5D5D5DAA
:1016500021442944F0E700BF0CCD061C032907D81C
:10166000DFE801F0020D1116502101EBC0007047B8
:1016700080B50AA2662356F01CFE002080BD2C21F6
:1016800001EB800070474FF4347101EB801070471C
:101690004FF4E77101EB0010704700BF626C655FAB
:1016A0007574696C2E6300004DF0A6B915F002BA8E
:1016B00080B501204DF070FB4FF00EF81248006825
:1016C000C00708D100204DF0D7FCC8204DF0AAFC7F
:1016D00002204DF0D5FC16480021C0E907110E216B
:1016E00001750A4951F06CFB094853F099FE09480D
:1016F00051F03AFCFFF7D8FF56F026FE0020FFF726
:1017000009FB002080BD00BF00A00450149A061CF5
:10171000AD16011C3517011C054A90421CBF002064
:10172000704702293CBF4FF0FF30704700F06CB8A3
:10173000E049412001301CBF0120704780B500F016
:1017400063F80121002808BF0421084680BD00007D
:1017500026490862704700BFF8B5064601F1280027
:101760000C464FF09BFD054628B91F491CA040F2CE
:101770008A224DF0CDFD05F10800314622466C600D
:1017800056F056FD194F07F1140656F06FFD04464A
:1017900030463668002EFBD10560B86800262E6002
:1017A000C8B1B96931B1104911A040F292224DF08F
:1017B000AFFDB868F96856F01DFAF968884208D19B
:1017C0003A680026BE6032B1786800210026904752
:1017D00001E04FF0FF36204656F04DFD3046F8BD93
:1017E000735F6C6973740000C6CF061CC06741202C
:1017F000656E762D3E6375725F6C697374203D3D36
:10180000204E554C4C00000015F01CBB10B50404D4
:10181000B0F5006F05D3064806A141F6BA1256F09E
:1018200057FD084801686FF31A412143016010BD5C
:10183000D0CE061C7265675F6274636F72652E6836
:101840000000000030050950B0B5FFF7C5FA0446A6
:101850004DF0EAFA616909B1628C02E023494FF464
:10186000806200EB8000224D01F1400401F1500341
:101870002C6101F12004A960114440426B6101EB2D
:10188000800102EB8000EC60E9611A4908446FF0C6
:10189000030101EA50044FF6FC7101EA50002C806C
:1018A0001844A861144800F065FA24B2A868696970
:1018B000224652F071F8E868A969224652F06CF8A5
:1018C00001208221FFF744F96860A86852F09AF974
:1018D000E86852F097F9286900210022062A04BF1F
:1018E0000020B0BD20F812100132F7E700F84120C7
:1018F000C0424120B0FF0100F11B011C10B504469D
:1019000010F4404F05D0B748B74940F2DC7256F0AA
:10191000DFFC0248046010BDD0CE061C280409502C
:1019200070B514460E460546B1F5804F05D3AD4857
:101930006F4940F2971256F0CBFC360414F4404F36
:1019400005D0A8486A494FF4CC7256F0C1FC46EA6B
:1019500004006901014A505070BD00BF1C060950C7
:1019600070B514460E460546B1F5804F05D39D4827
:101970005F4940F24D1256F0ABFC360414F4404F70
:1019800005D098485A494FF4A77256F0A1FC46EA90
:1019900004006901024A505070BD00BFD0CE061C41
:1019A000180609502DE9F0411D4616460F4680469F
:1019B00011F0FE0F05D08B484D494FF4F77256F0E9
:1019C00087FC16F0FE0F05D08648494940F2EF1219
:1019D00056F07EFC069C15F0FE0F05D08148444968
:1019E0004FF4F87256F074FC7F013601ED0014F0EC
:1019F000F80F05D07B483E4940F2F11256F068FCE2
:101A000047EA06004FEA4811034A2843204300F5FD
:101A100080305050BDE8F081200609502DE9F0419A
:101A20000F051D4616468046B7F1804F05D36D4819
:101A30002F494FF41C7256F04BFC16F0F00F05D0F6
:101A400068482B4940F2712256F042FC069C15F47E
:101A50007C4F05D06348264940F2722256F038FC8C
:101A600036042D0114F0F00F05D05E48204940F2F5
:101A7000732256F02DFC46EA07004FEA48111D4A32
:101A8000284320435050BDE8F08100BFF8B507055A
:101A90001C4615460E46B7F1804F05D351481449F0
:101AA0004FF41C7256F014FC16F0F00F05D04D48A0
:101AB0000F4940F2712256F00BFC15F47C4F05D013
:101AC00048480B4940F2722256F002FC36042D01C0
